{
  "contractName": "RawMatrials",
  "abi": [
    {
      "inputs": [
        {
          "name": "Splr",
          "type": "address"
        },
        {
          "name": "Des",
          "type": "bytes32"
        },
        {
          "name": "FN",
          "type": "bytes32"
        },
        {
          "name": "Loc",
          "type": "bytes32"
        },
        {
          "name": "Quant",
          "type": "uint256"
        },
        {
          "name": "Shpr",
          "type": "address"
        },
        {
          "name": "Rcvr",
          "type": "address"
        }
      ],
      "payable": false,
      "stateMutability": "nonpayable",
      "type": "constructor"
    },
    {
      "anonymous": false,
      "inputs": [
        {
          "indexed": true,
          "name": "BatchID",
          "type": "address"
        },
        {
          "indexed": true,
          "name": "Shipper",
          "type": "address"
        },
        {
          "indexed": true,
          "name": "Manufacturer",
          "type": "address"
        },
        {
          "indexed": false,
          "name": "TransporterType",
          "type": "uint256"
        },
        {
          "indexed": false,
          "name": "Status",
          "type": "uint256"
        }
      ],
      "name": "ShippmentUpdate",
      "type": "event"
    },
    {
      "constant": true,
      "inputs": [],
      "name": "getSuppliedRawMatrials",
      "outputs": [
        {
          "name": "Des",
          "type": "bytes32"
        },
        {
          "name": "FN",
          "type": "bytes32"
        },
        {
          "name": "Loc",
          "type": "bytes32"
        },
        {
          "name": "Quant",
          "type": "uint256"
        },
        {
          "name": "Shpr",
          "type": "address"
        },
        {
          "name": "Rcvr",
          "type": "address"
        },
        {
          "name": "Splr",
          "type": "address"
        }
      ],
      "payable": false,
      "stateMutability": "view",
      "type": "function"
    },
    {
      "constant": true,
      "inputs": [],
      "name": "getRawMatrialsStatus",
      "outputs": [
        {
          "name": "",
          "type": "uint256"
        }
      ],
      "payable": false,
      "stateMutability": "view",
      "type": "function"
    },
    {
      "constant": false,
      "inputs": [
        {
          "name": "shpr",
          "type": "address"
        }
      ],
      "name": "pickPackage",
      "outputs": [],
      "payable": false,
      "stateMutability": "nonpayable",
      "type": "function"
    },
    {
      "constant": false,
      "inputs": [
        {
          "name": "manu",
          "type": "address"
        }
      ],
      "name": "receivedPackage",
      "outputs": [],
      "payable": false,
      "stateMutability": "nonpayable",
      "type": "function"
    }
  ],
  "bytecode": "0x608060405234801561001057600080fd5b5060405160e0806105d9833981018060405260e081101561003057600080fd5b508051602082015160408301516060840151608085015160a086015160c09096015160008054600160a060020a0319908116600160a060020a0398891690811783556001805430908416179055600297909755600395909555600493909355600591909155600680548416968616969096179095556007805483169490951693909317909355600880549093161760a060020a60ff0219169091556104fe9081906100db90396000f3fe60806040526004361061005b577c010000000000000000000000000000000000000000000000000000000060003504633b205a7d811461006057806352b9996814610087578063638e9a3d146100bc578063d02eee23146100ef575b600080fd5b34801561006c57600080fd5b5061007561014b565b60408051918252519081900360200190f35b34801561009357600080fd5b506100ba600480360360208110156100aa57600080fd5b5035600160a060020a031661017c565b005b3480156100c857600080fd5b506100ba600480360360208110156100df57600080fd5b5035600160a060020a0316610310565b3480156100fb57600080fd5b506101046104a3565b604080519788526020880196909652868601949094526060860192909252600160a060020a03908116608086015290811660a08501521660c0830152519081900360e00190f35b60085460009074010000000000000000000000000000000000000000900460ff16600281111561017757fe5b905090565b600754600160a060020a03828116911614610207576040805160e560020a62461bcd02815260206004820152603260248201527f4f6e6c79204173736f6369617465204d616e7566616374757265722063616e2060448201527f63616c6c20746869732066756e6374696f6e0000000000000000000000000000606482015290519081900360840190fd5b600160085474010000000000000000000000000000000000000000900460ff16600281111561023257fe5b14610287576040805160e560020a62461bcd02815260206004820152601960248201527f50726f64756374206e6f74207069636b65642075702079657400000000000000604482015290519081900360640190fd5b6008805474ff00000000000000000000000000000000000000001916740200000000000000000000000000000000000000001790556007546006546040805160018152600260208201528151600160a060020a03948516949093169230927f7e89c4b1a4e2b51aae84eb1f90e8a34cb792ece5ac5cb63db4830c891220b28d928290030190a450565b600654600160a060020a0382811691161461039b576040805160e560020a62461bcd02815260206004820152602d60248201527f4f6e6c79204173736f636961746520536869707065722063616e2063616c6c2060448201527f746869732066756e6374696f6e00000000000000000000000000000000000000606482015290519081900360840190fd5b600060085474010000000000000000000000000000000000000000900460ff1660028111156103c657fe5b1461041b576040805160e560020a62461bcd02815260206004820152601c60248201527f5061636b616765206d75737420626520617420537570706c6965722e00000000604482015290519081900360640190fd5b6008805474ff000000000000000000000000000000000000000019167401000000000000000000000000000000000000000017905560075460065460408051600180825260208201528151600160a060020a03948516949093169230927f7e89c4b1a4e2b51aae84eb1f90e8a34cb792ece5ac5cb63db4830c891220b28d928290030190a450565b600254600354600454600554600654600754600854600160a060020a039283169291821691169091929394959656fea165627a7a723058205c11a21d3683b564d8b384f6d272ceb65308b60f10f52fd05c0a9cce4313bfb10029",
  "source": "pragma solidity >=0.4.25 <0.6.0;\r\n\r\n/********************************************** RawMatrials ******************************************/\r\n\r\ncontract RawMatrials {\r\n    /// @notice\r\n    address Owner;\r\n\r\n    enum packageStatus { atcreator, picked, delivered}\r\n    event ShippmentUpdate(\r\n        address indexed BatchID,\r\n        address indexed Shipper,\r\n        address indexed Manufacturer,\r\n        uint TransporterType,\r\n        uint Status\r\n    );\r\n    /// @notice\r\n    address productid;\r\n    /// @notice\r\n    bytes32 description;\r\n    /// @notice\r\n    bytes32 farmer_name;\r\n    /// @notice\r\n    bytes32 location;\r\n    /// @notice\r\n    uint quantity;\r\n    /// @notice\r\n    address shipper;\r\n    /// @notice\r\n    address manufacturer;\r\n    /// @notice\r\n    address supplier;\r\n    /// @notice\r\n    packageStatus status;\r\n    /// @notice\r\n    bytes32 packageReceiverDescription;\r\n\r\n    /// @notice\r\n    /// @dev Intiate New Package of RawMatrials by Supplier\r\n    /// @param Splr Supplier Ethereum Network Address\r\n    /// @param Des Description of RawMatrials\r\n    /// @param FN Farmer Name\r\n    /// @param Loc Farm Location\r\n    /// @param Quant Number of units in a package\r\n    /// @param Shpr Transporter Ethereum Network Address\r\n    /// @param Rcvr Manufacturer Ethereum Network Address\r\n    constructor (\r\n        address Splr,\r\n        bytes32 Des,\r\n        bytes32 FN,\r\n        bytes32 Loc,\r\n        uint Quant,\r\n        address Shpr,\r\n        address Rcvr\r\n    ) public {\r\n        Owner = Splr;\r\n        productid = address(this);\r\n        description = Des;\r\n        farmer_name = FN;\r\n        location = Loc;\r\n        quantity = Quant;\r\n        shipper = Shpr;\r\n        manufacturer = Rcvr;\r\n        supplier = Splr;\r\n        status = packageStatus(0);\r\n    }\r\n\r\n    /// @notice\r\n    /// @dev Get RawMatrials Package Details\r\n    /// @return Package Details\r\n    function getSuppliedRawMatrials () public view returns(\r\n        bytes32 Des,\r\n        bytes32 FN,\r\n        bytes32 Loc,\r\n        uint Quant,\r\n        address Shpr,\r\n        address Rcvr,\r\n        address Splr\r\n    ) {\r\n        return(\r\n            description,\r\n            farmer_name,\r\n            location,\r\n            quantity,\r\n            shipper,\r\n            manufacturer,\r\n            supplier\r\n        );\r\n    }\r\n\r\n    /// @notice\r\n    /// @dev Get Package Transaction Status\r\n    /// @return Package Status\r\n    function getRawMatrialsStatus() public view returns(\r\n        uint\r\n    ) {\r\n        return uint(status);\r\n    }\r\n\r\n    /// @notice\r\n    /// @dev Pick Package by Associate Transporter\r\n    /// @param shpr Transporter Ethereum Network Address\r\n    function pickPackage(\r\n        address shpr\r\n    ) public {\r\n        require(\r\n            shpr == shipper,\r\n            \"Only Associate Shipper can call this function\"\r\n        );\r\n        require(\r\n            status == packageStatus(0),\r\n            \"Package must be at Supplier.\"\r\n        );\r\n        status = packageStatus(1);\r\n        emit ShippmentUpdate(address(this),shipper,manufacturer,1,1);\r\n    }\r\n\r\n    /// @notice\r\n    /// @dev Received Package Status Update By Associated Manufacturer\r\n    /// @param manu Manufacturer Ethereum Network Address\r\n    function receivedPackage(\r\n        address manu\r\n    ) public {\r\n\r\n        require(\r\n            manu == manufacturer,\r\n            \"Only Associate Manufacturer can call this function\"\r\n        );\r\n\r\n        require(\r\n            status == packageStatus(1),\r\n            \"Product not picked up yet\"\r\n        );\r\n        status = packageStatus(2);\r\n        emit ShippmentUpdate(address(this),shipper,manufacturer,1,2);\r\n    }\r\n}\r\n",
  "sourcePath": "C:\\Users\\Biswas\\Documents\\subjectc3rdSem\\Blockchain_project\\supplyChainBiswas\\Blockchain_SupplyChain\\contracts\\RawMatrials.sol",
  "compiler": {
    "name": "solc",
    "version": "0.5.1+commit.c8a2cb62.Emscripten.clang"
  },
  "schemaVersion": "3.4.16",
  "updatedAt": "2023-11-12T20:10:17.761Z",
  "devdoc": {
    "methods": {
      "constructor": {
        "params": {
          "Rcvr": "Manufacturer Ethereum Network Address"
        }
      },
      "getRawMatrialsStatus()": {
        "return": "Package Status"
      },
      "getSuppliedRawMatrials()": {
        "return": "Package Details"
      },
      "pickPackage(address)": {
        "params": {
          "shpr": "Transporter Ethereum Network Address"
        }
      },
      "receivedPackage(address)": {
        "params": {
          "manu": "Manufacturer Ethereum Network Address"
        }
      }
    }
  },
  "userdoc": {
    "methods": {},
    "notice": "******************************************** RawMatrials *****************************************"
  }
}