{
  "contractName": "Madicine",
  "abi": [
    {
      "inputs": [
        {
          "name": "Manu",
          "type": "address"
        },
        {
          "name": "Des",
          "type": "bytes32"
        },
        {
          "name": "RM",
          "type": "bytes32"
        },
        {
          "name": "Quant",
          "type": "uint256"
        },
        {
          "name": "Shpr",
          "type": "address"
        },
        {
          "name": "Rcvr",
          "type": "address"
        },
        {
          "name": "RcvrType",
          "type": "uint256"
        },
        {
          "name": "manu_loc",
          "type": "bytes32"
        }
      ],
      "payable": false,
      "stateMutability": "nonpayable",
      "type": "constructor"
    },
    {
      "anonymous": false,
      "inputs": [
        {
          "indexed": true,
          "name": "BatchID",
          "type": "address"
        },
        {
          "indexed": true,
          "name": "Shipper",
          "type": "address"
        },
        {
          "indexed": true,
          "name": "Receiver",
          "type": "address"
        },
        {
          "indexed": false,
          "name": "TransporterType",
          "type": "uint256"
        },
        {
          "indexed": false,
          "name": "Status",
          "type": "uint256"
        }
      ],
      "name": "ShippmentUpdate",
      "type": "event"
    },
    {
      "constant": true,
      "inputs": [],
      "name": "getWDP",
      "outputs": [
        {
          "name": "WDP",
          "type": "address[4]"
        }
      ],
      "payable": false,
      "stateMutability": "view",
      "type": "function"
    },
    {
      "constant": true,
      "inputs": [],
      "name": "getBatchIDStatus",
      "outputs": [
        {
          "name": "",
          "type": "uint256"
        }
      ],
      "payable": false,
      "stateMutability": "view",
      "type": "function"
    },
    {
      "constant": false,
      "inputs": [
        {
          "name": "shpr",
          "type": "address"
        }
      ],
      "name": "pickPackage",
      "outputs": [],
      "payable": false,
      "stateMutability": "nonpayable",
      "type": "function"
    },
    {
      "constant": false,
      "inputs": [
        {
          "name": "Rcvr",
          "type": "address"
        }
      ],
      "name": "receivedPackage",
      "outputs": [
        {
          "name": "rcvtype",
          "type": "uint256"
        }
      ],
      "payable": false,
      "stateMutability": "nonpayable",
      "type": "function"
    },
    {
      "constant": false,
      "inputs": [
        {
          "name": "receiver",
          "type": "address"
        },
        {
          "name": "sender",
          "type": "address"
        }
      ],
      "name": "sendWD",
      "outputs": [],
      "payable": false,
      "stateMutability": "nonpayable",
      "type": "function"
    },
    {
      "constant": false,
      "inputs": [
        {
          "name": "receiver",
          "type": "address"
        }
      ],
      "name": "recievedWD",
      "outputs": [],
      "payable": false,
      "stateMutability": "nonpayable",
      "type": "function"
    },
    {
      "constant": false,
      "inputs": [
        {
          "name": "receiver",
          "type": "address"
        },
        {
          "name": "sender",
          "type": "address"
        }
      ],
      "name": "sendDP",
      "outputs": [],
      "payable": false,
      "stateMutability": "nonpayable",
      "type": "function"
    },
    {
      "constant": false,
      "inputs": [
        {
          "name": "receiver",
          "type": "address"
        }
      ],
      "name": "recievedDP",
      "outputs": [],
      "payable": false,
      "stateMutability": "nonpayable",
      "type": "function"
    },
    {
      "constant": false,
      "inputs": [
        {
          "name": "receiver",
          "type": "address"
        },
        {
          "name": "sender",
          "type": "address"
        }
      ],
      "name": "sendPC",
      "outputs": [],
      "payable": false,
      "stateMutability": "nonpayable",
      "type": "function"
    },
    {
      "constant": false,
      "inputs": [
        {
          "name": "receiver",
          "type": "address"
        }
      ],
      "name": "recievedPC",
      "outputs": [],
      "payable": false,
      "stateMutability": "nonpayable",
      "type": "function"
    }
  ],
  "bytecode": "0x608060405234801561001057600080fd5b5060405161010080610cae833981018060405261010081101561003257600080fd5b508051602082015160408301516060840151608085015160a086015160c087015160e09097015160008054600160a060020a0319908116600160a060020a03808b16918217909355600580548316909117905560018881556002889055600387905560048054909216928616929092179055600c82905542600a819055600b559697959694959394929391928214156100e55760068054600160a060020a031916600160a060020a03851617905561010a565b816002141561010a5760078054600160a060020a031916600160a060020a0385161790555b5050505050505050610b8d806101216000396000f3fe60806040526004361061009d577c0100000000000000000000000000000000000000000000000000000000600035046301a9a23e81146100a25780630a672d13146100ef5780634175699d1461012457806352b9996814610157578063638e9a3d1461019c578063952565cf146101cf578063a19ffd6014610202578063badcef6a1461023d578063bd78683514610278578063d2f3fcc7146102b3575b600080fd5b3480156100ae57600080fd5b506100b76102c8565b6040518082608080838360005b838110156100dc5781810151838201526020016100c4565b5050505090500191505060405180910390f35b3480156100fb57600080fd5b506101226004803603602081101561011257600080fd5b5035600160a060020a031661030f565b005b34801561013057600080fd5b506101226004803603602081101561014757600080fd5b5035600160a060020a031661039e565b34801561016357600080fd5b5061018a6004803603602081101561017a57600080fd5b5035600160a060020a031661040a565b60408051918252519081900360200190f35b3480156101a857600080fd5b50610122600480360360208110156101bf57600080fd5b5035600160a060020a0316610677565b3480156101db57600080fd5b50610122600480360360208110156101f257600080fd5b5035600160a060020a0316610844565b34801561020e57600080fd5b506101226004803603604081101561022557600080fd5b50600160a060020a03813581169160200135166108d6565b34801561024957600080fd5b506101226004803603604081101561026057600080fd5b50600160a060020a03813581169160200135166109b4565b34801561028457600080fd5b506101226004803603604081101561029b57600080fd5b50600160a060020a0381358116916020013516610a48565b3480156102bf57600080fd5b5061018a610b02565b6102d0610b22565b5060408051608081018252600654600160a060020a03908116825260075481166020830152600854811692820192909252600954909116606082015290565b600954600160a060020a03828116911614610374576040805160e560020a62461bcd02815260206004820181905260248201527f5468697320437573746f6d6572206973206e6f74204173736f6369617465642e604482015290519081900360640190fd5b60085b6009805460a060020a60ff02191660a060020a83600881111561039657fe5b021790555050565b600854600160a060020a03828116911614610403576040805160e560020a62461bcd02815260206004820152601e60248201527f5468697320506861726d61206973206e6f74204173736f6369617465642e0000604482015290519081900360640190fd5b6006610377565b600654600090600160a060020a03838116911614806104365750600754600160a060020a038381169116145b15156104b2576040805160e560020a62461bcd02815260206004820152603f60248201527f4f6e6c79204173736f63696174652057686f6c6573616c6572206f722044697360448201527f74727562757465722063616e2063616c6c20746869732066756e6374696f6e00606482015290519081900360840190fd5b60095460019060a060020a900460ff1660088111156104cd57fe5b1015610523576040805160e560020a62461bcd02815260206004820152601960248201527f50726f64756374206e6f74207069636b65642075702079657400000000000000604482015290519081900360640190fd5b600654600160a060020a0383811691161480156105575750600160095460a060020a900460ff16600881111561055557fe5b145b156105ca576009805460a060020a60ff021916740300000000000000000000000000000000000000001790556006546004546040805160028152600360208201528151600160a060020a0394851694909316923092600080516020610b42833981519152928290030190a4506001610672565b600754600160a060020a0383811691161480156105fe5750600260095460a060020a900460ff1660088111156105fc57fe5b145b15610672576009805460a060020a60ff0219167404000000000000000000000000000000000000000017905560075460048054604080516003815260208101939093528051600160a060020a0394851694909216923092600080516020610b42833981519152929181900390910190a45060025b919050565b600454600160a060020a03828116911614610702576040805160e560020a62461bcd02815260206004820152602d60248201527f4f6e6c79204173736f636961746520536869707065722063616e2063616c6c2060448201527f746869732066756e6374696f6e00000000000000000000000000000000000000606482015290519081900360840190fd5b600060095460a060020a900460ff16600881111561071c57fe5b14610771576040805160e560020a62461bcd02815260206004820152601c60248201527f5061636b616765206d75737420626520617420537570706c6965722e00000000604482015290519081900360640190fd5b600654600160a060020a0316156107db576009805460a060020a60ff02191660a060020a17905560065460045460408051600180825260208201528151600160a060020a0394851694909316923092600080516020610b42833981519152928290030190a4610841565b6009805460a060020a60ff0219167402000000000000000000000000000000000000000017905560075460045460408051600180825260208201528151600160a060020a0394851694909316923092600080516020610b42833981519152928290030190a45b50565b600754600160a060020a038281169116146108cf576040805160e560020a62461bcd02815260206004820152602360248201527f54686973204469737472696275746572206973206e6f74204173736f6369617460448201527f65642e0000000000000000000000000000000000000000000000000000000000606482015290519081900360840190fd5b6004610377565b600754600160a060020a03828116911614610961576040805160e560020a62461bcd02815260206004820152602360248201527f74686973204469737472696275746572206973206e6f74204173736f6369617460448201527f65642e0000000000000000000000000000000000000000000000000000000000606482015290519081900360840190fd5b6008805473ffffffffffffffffffffffffffffffffffffffff1916600160a060020a03841617905560055b6009805460a060020a60ff02191660a060020a8360088111156109ab57fe5b02179055505050565b600854600160a060020a03828116911614610a19576040805160e560020a62461bcd02815260206004820152601e60248201527f7468697320506861726d61206973206e6f74204173736f6369617465642e0000604482015290519081900360640190fd5b6009805473ffffffffffffffffffffffffffffffffffffffff1916600160a060020a038416179055600761098c565b600654600160a060020a03828116911614610ad3576040805160e560020a62461bcd02815260206004820152602260248201527f746869732057686f6c6573616c6572206973206e6f74204173736f636961746560448201527f642e000000000000000000000000000000000000000000000000000000000000606482015290519081900360840190fd5b6007805473ffffffffffffffffffffffffffffffffffffffff1916600160a060020a038416179055600261098c565b60095460009060a060020a900460ff166008811115610b1d57fe5b905090565b608060405190810160405280600490602082028038833950919291505056fe7e89c4b1a4e2b51aae84eb1f90e8a34cb792ece5ac5cb63db4830c891220b28da165627a7a723058200c7bcc4e3460e295157db3ccf62c961f77f21cdfbaa13d26d1425048c9f6eb1b0029",
  "source": "pragma solidity >=0.4.25 <0.9.0;\r\n\r\nimport './Library.sol';\r\n/********************************************** Madicine ******************************************/\r\n\r\ncontract Madicine {\r\n\r\n    using MyLibrary for MyLibrary.madicineStatus;\r\n    using MyLibrary for MyLibrary.medicineBasicInfo;\r\n\r\n    /// @notice\r\n    address Owner;\r\n\r\n    // address batchid;\r\n    /// @notice\r\n    bytes32 description;\r\n    /// @notice\r\n    bytes32 rawmatriales;\r\n    /// @notice\r\n    uint quantity;\r\n    /// @notice\r\n    address shipper;\r\n    /// @notice\r\n    address manufacturer;\r\n    /// @notice\r\n    address wholesaler;\r\n    /// @notice\r\n    address distributer;\r\n    /// @notice\r\n    address pharma;\r\n    /// @notice\r\n    address customer;\r\n    /// @notice\r\n    MyLibrary.madicineStatus status;\r\n\r\n    uint manufacturing_time;\r\n    uint quality_check_time;\r\n    bytes32 manufacturing_location;\r\n\r\n    event ShippmentUpdate(\r\n        address indexed BatchID,\r\n        address indexed Shipper,\r\n        address indexed Receiver,\r\n        uint TransporterType,\r\n        uint Status\r\n    );\r\n\r\n    /// @notice\r\n    /// @dev Create new Madicine Batch by Manufacturer\r\n    /// @param Manu Manufacturer Ethereum Network Address\r\n    /// @param Des Description of Madicine Batch\r\n    /// @param RM RawMatrials for Madicine\r\n    /// @param Quant Number of units\r\n    /// @param Shpr Transporter Ethereum Network Address\r\n    /// @param Rcvr Receiver Ethereum Network Address\r\n    /// @param RcvrType Receiver Type either Wholesaler(1) or Distributer(2)\r\n    constructor(\r\n        address Manu,\r\n        bytes32 Des,\r\n        bytes32 RM,\r\n        uint Quant,\r\n        address Shpr,\r\n        address Rcvr,\r\n        uint RcvrType,\r\n        bytes32 manu_loc\r\n    ) public {\r\n        Owner = Manu;\r\n        manufacturer = Manu;\r\n        description = Des;\r\n        rawmatriales = RM;\r\n        quantity = Quant;\r\n        shipper = Shpr;\r\n        manufacturing_location = manu_loc;\r\n        manufacturing_time = block.timestamp;\r\n        quality_check_time = block.timestamp;\r\n        if(RcvrType == 1) {\r\n            wholesaler = Rcvr;\r\n        } else if( RcvrType == 2){\r\n            distributer = Rcvr;\r\n        }\r\n    }\r\n\r\n    /// @notice\r\n    /// @dev Get Madicine Batch basic Details\r\n    /// @return Description Details\r\n    /// @return RawMaterials Details\r\n    /// @return Wholesaler Details\r\n    /// @return Distributer Details\r\n    /// @return Pharma Details\r\n    /// @return Status Details\r\n    /// @return ManufacturingTime Details\r\n    /// @return QualityCheckTime Details\r\n    /// @return ManufacturingLocation Details\r\n    // function getMadicineInfo () public view returns(\r\n    //     MyLibrary.medicineBasicInfo memory BasicInfo,\r\n    //     address Wholesaler,\r\n    //     address Distributer,\r\n    //     address Pharma\r\n    // ) {\r\n    //     return(\r\n    //         MyLibrary.medicineBasicInfo(description, rawmatriales, manufacturing_time, manufacturing_location, \r\n    //         quality_check_time, status), wholesaler, distributer, pharma\r\n    //     );\r\n    // }\r\n\r\n    /// @notice\r\n    /// @dev Get address Wholesaler, Distributer and Pharma\r\n    /// @return WDP Address Array\r\n    function getWDP() public view returns(\r\n        address[4] memory WDP\r\n    ) {\r\n        return (\r\n            [wholesaler, distributer, pharma, customer]\r\n        );\r\n    }\r\n\r\n    /// @notice\r\n    /// @dev Get Madicine Batch Transaction Status\r\n    /// @return Madicine Transaction Status\r\n    function getBatchIDStatus() public view returns(\r\n        uint\r\n    ) {\r\n        return uint(status);\r\n    }\r\n\r\n    /// @notice\r\n    /// @dev Pick Madicine Batch by Associate Transporter\r\n    /// @param shpr Transporter Ethereum Network Address\r\n    function pickPackage(\r\n        address shpr\r\n    ) public {\r\n        require(\r\n            shpr == shipper,\r\n            \"Only Associate Shipper can call this function\"\r\n        );\r\n        require(\r\n            status == MyLibrary.madicineStatus(0),\r\n            \"Package must be at Supplier.\"\r\n        );\r\n\r\n        if(wholesaler!=address(0x0)){\r\n            status = MyLibrary.madicineStatus(1);\r\n            emit ShippmentUpdate(address(this),shipper,wholesaler,1,1);\r\n        }else{\r\n            status = MyLibrary.madicineStatus(2);\r\n            emit ShippmentUpdate(address(this),shipper,distributer,1,1);\r\n        }\r\n    }\r\n\r\n    /// @notice\r\n    /// @dev Received Madicine Batch by Associated Wholesaler or Distributer\r\n    /// @param Rcvr Wholesaler or Distributer\r\n    function receivedPackage(\r\n        address Rcvr\r\n    ) public\r\n    returns(uint rcvtype)\r\n    {\r\n\r\n        require(\r\n            Rcvr == wholesaler || Rcvr == distributer,\r\n            \"Only Associate Wholesaler or Distrubuter can call this function\"\r\n        );\r\n\r\n        require(\r\n            uint(status) >= 1,\r\n            \"Product not picked up yet\"\r\n        );\r\n\r\n        if(Rcvr == wholesaler && status == MyLibrary.madicineStatus(1)){\r\n            status = MyLibrary.madicineStatus(3);\r\n            emit ShippmentUpdate(address(this),shipper,wholesaler,2,3);\r\n            return 1;\r\n        } else if(Rcvr == distributer && status == MyLibrary.madicineStatus(2)){\r\n            status = MyLibrary.madicineStatus(4);\r\n            emit ShippmentUpdate(address(this),shipper,distributer,3,4);\r\n            return 2;\r\n        }\r\n    }\r\n\r\n    /// @notice\r\n    /// @dev Update Madicine Batch transaction Status(Pick) in between Wholesaler and Distributer\r\n    /// @param receiver Distributer Ethereum Network Address\r\n    /// @param sender Wholesaler Ethereum Network Address\r\n    function sendWD(\r\n        address receiver,\r\n        address sender\r\n    ) public {\r\n        require(\r\n            wholesaler == sender,\r\n            \"this Wholesaler is not Associated.\"\r\n        );\r\n        distributer = receiver;\r\n        status = MyLibrary.madicineStatus(2);\r\n    }\r\n\r\n    /// @notice\r\n    /// @dev Update Madicine Batch transaction Status(Recieved) in between Wholesaler and Distributer\r\n    /// @param receiver Distributer\r\n    function recievedWD(\r\n        address receiver\r\n    ) public {\r\n        require(\r\n            distributer == receiver,\r\n            \"This Distributer is not Associated.\"\r\n        );\r\n        status = MyLibrary.madicineStatus(4);\r\n    }\r\n\r\n    /// @notice\r\n    /// @dev Update Madicine Batch transaction Status(Pick) in between Distributer and Pharma\r\n    /// @param receiver Pharma Ethereum Network Address\r\n    /// @param sender Distributer Ethereum Network Address\r\n    function sendDP(\r\n        address receiver,\r\n        address sender\r\n    ) public {\r\n        require(\r\n            distributer == sender,\r\n            \"this Distributer is not Associated.\"\r\n        );\r\n        pharma = receiver;\r\n        status = MyLibrary.madicineStatus(5);\r\n    }\r\n\r\n    /// @notice\r\n    /// @dev Update Madicine Batch transaction Status(Recieved) in between Distributer and Pharma\r\n    /// @param receiver Pharma Ethereum Network Address\r\n    function recievedDP(\r\n        address receiver\r\n    ) public {\r\n        require(\r\n            pharma == receiver,\r\n            \"This Pharma is not Associated.\"\r\n        );\r\n        status = MyLibrary.madicineStatus(6);\r\n    }\r\n\r\n\r\n    /// @notice\r\n    /// @dev Update Madicine Batch transaction Status(Pick) in between Pharma and Customer\r\n    /// @param receiver Customer Ethereum Network Address\r\n    /// @param sender Pharma Ethereum Network Address\r\n    function sendPC(\r\n        address receiver,\r\n        address sender\r\n    ) public {\r\n        require(\r\n            pharma == sender,\r\n            \"this Pharma is not Associated.\"\r\n        );\r\n        customer = receiver;\r\n        status = MyLibrary.madicineStatus(7);\r\n    }\r\n\r\n    /// @notice\r\n    /// @dev Update Madicine Batch transaction Status(Recieved) in between Pharma and Customer\r\n    /// @param receiver Customer Ethereum Network Address\r\n    function recievedPC(\r\n        address receiver\r\n    ) public {\r\n        require(\r\n            customer == receiver,\r\n            \"This Customer is not Associated.\"\r\n        );\r\n        status = MyLibrary.madicineStatus(8);\r\n    }\r\n}\r\n",
  "sourcePath": "D:\\Notes BE\\Sem_3_1\\BITS F452 (Blockchain)\\Proj\\ours\\contracts\\Madicine.sol",
  "compiler": {
    "name": "solc",
    "version": "0.5.1+commit.c8a2cb62.Emscripten.clang"
  },
  "schemaVersion": "3.4.16",
  "updatedAt": "2023-11-12T17:19:34.045Z",
  "devdoc": {
    "methods": {
      "constructor": {
        "params": {
          "RcvrType": "Receiver Type either Wholesaler(1) or Distributer(2)"
        }
      },
      "getBatchIDStatus()": {
        "return": "Madicine Transaction Status"
      },
      "getWDP()": {
        "return": "WDP Address Array"
      },
      "pickPackage(address)": {
        "params": {
          "shpr": "Transporter Ethereum Network Address"
        }
      },
      "receivedPackage(address)": {
        "params": {
          "Rcvr": "Wholesaler or Distributer"
        }
      },
      "recievedDP(address)": {
        "params": {
          "receiver": "Pharma Ethereum Network Address"
        }
      },
      "recievedPC(address)": {
        "params": {
          "receiver": "Customer Ethereum Network Address"
        }
      },
      "recievedWD(address)": {
        "params": {
          "receiver": "Distributer"
        }
      },
      "sendDP(address,address)": {
        "params": {
          "sender": "Distributer Ethereum Network Address"
        }
      },
      "sendPC(address,address)": {
        "params": {
          "sender": "Pharma Ethereum Network Address"
        }
      },
      "sendWD(address,address)": {
        "params": {
          "sender": "Wholesaler Ethereum Network Address"
        }
      }
    }
  },
  "userdoc": {
    "methods": {},
    "notice": "******************************************** Madicine *****************************************"
  }
}