{
  "contractName": "Madicine",
  "abi": [
    {
      "inputs": [
        {
          "internalType": "address",
          "name": "Manu",
          "type": "address"
        },
        {
          "internalType": "bytes32",
          "name": "Des",
          "type": "bytes32"
        },
        {
          "internalType": "bytes32",
          "name": "RM",
          "type": "bytes32"
        },
        {
          "internalType": "uint256",
          "name": "Quant",
          "type": "uint256"
        },
        {
          "internalType": "address",
          "name": "Shpr",
          "type": "address"
        },
        {
          "internalType": "address",
          "name": "Rcvr",
          "type": "address"
        },
        {
          "internalType": "uint256",
          "name": "RcvrType",
          "type": "uint256"
        },
        {
          "internalType": "bytes32",
          "name": "manu_loc",
          "type": "bytes32"
        }
      ],
      "stateMutability": "nonpayable",
      "type": "constructor"
    },
    {
      "anonymous": false,
      "inputs": [
        {
          "indexed": true,
          "internalType": "address",
          "name": "BatchID",
          "type": "address"
        },
        {
          "indexed": true,
          "internalType": "address",
          "name": "Shipper",
          "type": "address"
        },
        {
          "indexed": true,
          "internalType": "address",
          "name": "Receiver",
          "type": "address"
        },
        {
          "indexed": false,
          "internalType": "uint256",
          "name": "TransporterType",
          "type": "uint256"
        },
        {
          "indexed": false,
          "internalType": "uint256",
          "name": "Status",
          "type": "uint256"
        }
      ],
      "name": "ShippmentUpdate",
      "type": "event"
    },
    {
      "inputs": [],
      "name": "getMadicineInfo",
      "outputs": [
        {
          "components": [
            {
              "internalType": "bytes32",
              "name": "Description",
              "type": "bytes32"
            },
            {
              "internalType": "bytes32",
              "name": "RawMaterials",
              "type": "bytes32"
            },
            {
              "internalType": "uint256",
              "name": "ManufacturingTime",
              "type": "uint256"
            },
            {
              "internalType": "bytes32",
              "name": "ManufacturingLocation",
              "type": "bytes32"
            },
            {
              "internalType": "uint256",
              "name": "QualityCheckTime",
              "type": "uint256"
            },
            {
              "internalType": "enum MyLibrary.madicineStatus",
              "name": "Status",
              "type": "uint8"
            }
          ],
          "internalType": "struct MyLibrary.medicineBasicInfo",
          "name": "BasicInfo",
          "type": "tuple"
        },
        {
          "internalType": "address",
          "name": "Wholesaler",
          "type": "address"
        },
        {
          "internalType": "address",
          "name": "Distributer",
          "type": "address"
        },
        {
          "internalType": "address",
          "name": "Pharma",
          "type": "address"
        }
      ],
      "stateMutability": "view",
      "type": "function"
    },
    {
      "inputs": [],
      "name": "getWDP",
      "outputs": [
        {
          "internalType": "address[4]",
          "name": "WDP",
          "type": "address[4]"
        }
      ],
      "stateMutability": "view",
      "type": "function"
    },
    {
      "inputs": [],
      "name": "getBatchIDStatus",
      "outputs": [
        {
          "internalType": "uint256",
          "name": "",
          "type": "uint256"
        }
      ],
      "stateMutability": "view",
      "type": "function"
    },
    {
      "inputs": [
        {
          "internalType": "address",
          "name": "shpr",
          "type": "address"
        }
      ],
      "name": "pickPackage",
      "outputs": [],
      "stateMutability": "nonpayable",
      "type": "function"
    },
    {
      "inputs": [
        {
          "internalType": "address",
          "name": "Rcvr",
          "type": "address"
        }
      ],
      "name": "receivedPackage",
      "outputs": [
        {
          "internalType": "uint256",
          "name": "rcvtype",
          "type": "uint256"
        }
      ],
      "stateMutability": "nonpayable",
      "type": "function"
    },
    {
      "inputs": [
        {
          "internalType": "address",
          "name": "receiver",
          "type": "address"
        },
        {
          "internalType": "address",
          "name": "sender",
          "type": "address"
        }
      ],
      "name": "sendWD",
      "outputs": [],
      "stateMutability": "nonpayable",
      "type": "function"
    },
    {
      "inputs": [
        {
          "internalType": "address",
          "name": "receiver",
          "type": "address"
        }
      ],
      "name": "recievedWD",
      "outputs": [],
      "stateMutability": "nonpayable",
      "type": "function"
    },
    {
      "inputs": [
        {
          "internalType": "address",
          "name": "receiver",
          "type": "address"
        },
        {
          "internalType": "address",
          "name": "sender",
          "type": "address"
        }
      ],
      "name": "sendDP",
      "outputs": [],
      "stateMutability": "nonpayable",
      "type": "function"
    },
    {
      "inputs": [
        {
          "internalType": "address",
          "name": "receiver",
          "type": "address"
        }
      ],
      "name": "recievedDP",
      "outputs": [],
      "stateMutability": "nonpayable",
      "type": "function"
    },
    {
      "inputs": [
        {
          "internalType": "address",
          "name": "receiver",
          "type": "address"
        },
        {
          "internalType": "address",
          "name": "sender",
          "type": "address"
        }
      ],
      "name": "sendPC",
      "outputs": [],
      "stateMutability": "nonpayable",
      "type": "function"
    },
    {
      "inputs": [
        {
          "internalType": "address",
          "name": "receiver",
          "type": "address"
        }
      ],
      "name": "recievedPC",
      "outputs": [],
      "stateMutability": "nonpayable",
      "type": "function"
    }
  ],
  "bytecode": "0x608060405234801561001057600080fd5b50604051610dc0380380610dc083398101604081905261002f916100fd565b600080546001600160a01b03199081166001600160a01b038b8116918217909355600580548316909117905560018981556002899055600388905560048054909216928716929092179055600c82905542600a819055600b558214156100af57600680546001600160a01b0319166001600160a01b0385161790556100d4565b81600214156100d457600780546001600160a01b0319166001600160a01b0385161790555b505050505050505061016f565b80516001600160a01b03811681146100f857600080fd5b919050565b600080600080600080600080610100898b031215610119578384fd5b610122896100e1565b975060208901519650604089015195506060890151945061014560808a016100e1565b935061015360a08a016100e1565b60c08a015160e0909a0151989b979a5095989497939692505050565b610c428061017e6000396000f3fe608060405234801561001057600080fd5b50600436106100a95760003560e01c8063638e9a3d11610071578063638e9a3d1461012c578063952565cf1461013f578063a19ffd6014610152578063badcef6a14610165578063bd78683514610178578063d2f3fcc71461018b576100a9565b806301a9a23e146100ae5780630a672d13146100cc5780631d2aafc8146100e15780634175699d146100f957806352b999681461010c575b600080fd5b6100b6610193565b6040516100c3919061088a565b60405180910390f35b6100df6100da36600461082a565b6101da565b005b6100e961024b565b6040516100c39493929190610b55565b6100df61010736600461082a565b6102e1565b61011f61011a36600461082a565b610315565b6040516100c39190610be3565b6100df61013a36600461082a565b6104fe565b6100df61014d36600461082a565b610638565b6100df61016036600461084b565b61066c565b6100df61017336600461084b565b6106f0565b6100df61018636600461084b565b61073f565b61011f61078e565b61019b6107c2565b50604080516080810182526006546001600160a01b03908116825260075481166020830152600854811692820192909252600954909116606082015290565b6009546001600160a01b038281169116146102105760405162461bcd60e51b81526004016102079061094c565b60405180910390fd5b60085b6009805460ff60a01b1916600160a01b83600881111561024357634e487b7160e01b600052602160045260246000fd5b021790555050565b6102536107e0565b60008060006040518060c0016040528060015481526020016002548152602001600a548152602001600c548152602001600b548152602001600960149054906101000a900460ff1660088111156102ba57634e487b7160e01b600052602160045260246000fd5b905260065460075460085492976001600160a01b0392831697509082169550911692509050565b6008546001600160a01b0382811691161461030e5760405162461bcd60e51b8152600401610207906109b8565b6006610213565b6006546000906001600160a01b038381169116148061034157506007546001600160a01b038381169116145b61035d5760405162461bcd60e51b815260040161020790610a73565b600954600190600160a01b900460ff16600881111561038c57634e487b7160e01b600052602160045260246000fd5b10156103aa5760405162461bcd60e51b815260040161020790610915565b6006546001600160a01b0383811691161480156103f257506001600954600160a01b900460ff1660088111156103f057634e487b7160e01b600052602160045260246000fd5b145b15610454576009805460ff60a01b1916600360a01b1790556006546004546040516001600160a01b0392831692909116903090600080516020610bed83398151915290610444906002906003906108c4565b60405180910390a45060016104f9565b6007546001600160a01b03838116911614801561049c57506002600954600160a01b900460ff16600881111561049a57634e487b7160e01b600052602160045260246000fd5b145b156104f9576009805460ff60a01b1916600160a21b179055600754600480546040516001600160a01b0393841693909116913091600080516020610bed833981519152916104ed91600391906108c4565b60405180910390a45060025b919050565b6004546001600160a01b0382811691161461052b5760405162461bcd60e51b815260040161020790610a26565b6000600954600160a01b900460ff16600881111561055957634e487b7160e01b600052602160045260246000fd5b146105765760405162461bcd60e51b815260040161020790610981565b6006546001600160a01b0316156105e0576009805460ff60a01b1916600160a01b1790556006546004546040516001600160a01b0392831692909116903090600080516020610bed833981519152906105d39060019081906108c4565b60405180910390a4610635565b6009805460ff60a01b1916600160a11b1790556007546004546040516001600160a01b0392831692909116903090600080516020610bed8339815191529061062c9060019081906108c4565b60405180910390a45b50565b6007546001600160a01b038281169116146106655760405162461bcd60e51b8152600401610207906108d2565b6004610213565b6007546001600160a01b038281169116146106995760405162461bcd60e51b815260040161020790610b12565b600880546001600160a01b0319166001600160a01b03841617905560055b6009805460ff60a01b1916600160a01b8360088111156106e757634e487b7160e01b600052602160045260246000fd5b02179055505050565b6008546001600160a01b0382811691161461071d5760405162461bcd60e51b8152600401610207906109ef565b600980546001600160a01b0319166001600160a01b03841617905560076106b7565b6006546001600160a01b0382811691161461076c5760405162461bcd60e51b815260040161020790610ad0565b600780546001600160a01b0319166001600160a01b03841617905560026106b7565b600954600090600160a01b900460ff1660088111156107bd57634e487b7160e01b600052602160045260246000fd5b905090565b60405180608001604052806004906020820280368337509192915050565b6040805160c08101825260008082526020820181905291810182905260608101829052608081018290529060a082015290565b80356001600160a01b03811681146104f957600080fd5b60006020828403121561083b578081fd5b61084482610813565b9392505050565b6000806040838503121561085d578081fd5b61086683610813565b915061087460208401610813565b90509250929050565b6001600160a01b03169052565b60808101818360005b60048110156108bb5781516001600160a01b0316835260209283019290910190600101610893565b50505092915050565b918252602082015260400190565b60208082526023908201527f54686973204469737472696275746572206973206e6f74204173736f6369617460408201526232b21760e91b606082015260800190565b60208082526019908201527f50726f64756374206e6f74207069636b65642075702079657400000000000000604082015260600190565b6020808252818101527f5468697320437573746f6d6572206973206e6f74204173736f6369617465642e604082015260600190565b6020808252601c908201527f5061636b616765206d75737420626520617420537570706c6965722e00000000604082015260600190565b6020808252601e908201527f5468697320506861726d61206973206e6f74204173736f6369617465642e0000604082015260600190565b6020808252601e908201527f7468697320506861726d61206973206e6f74204173736f6369617465642e0000604082015260600190565b6020808252602d908201527f4f6e6c79204173736f636961746520536869707065722063616e2063616c6c2060408201526c3a3434b990333ab731ba34b7b760991b606082015260800190565b6020808252603f908201527f4f6e6c79204173736f63696174652057686f6c6573616c6572206f722044697360408201527f74727562757465722063616e2063616c6c20746869732066756e6374696f6e00606082015260800190565b60208082526022908201527f746869732057686f6c6573616c6572206973206e6f74204173736f6369617465604082015261321760f11b606082015260800190565b60208082526023908201527f74686973204469737472696275746572206973206e6f74204173736f6369617460408201526232b21760e91b606082015260800190565b600061012082019050855182526020860151602083015260408601516040830152606086015160608301526080860151608083015260a086015160098110610bad57634e487b7160e01b600052602160045260246000fd5b60a0830152610bbf60c083018661087d565b610bcc60e083018561087d565b610bda61010083018461087d565b95945050505050565b9081526020019056fe7e89c4b1a4e2b51aae84eb1f90e8a34cb792ece5ac5cb63db4830c891220b28da2646970667358221220a9654fc37534c04aac657a676d94799c0e3b81d9384c356f1ca90ca4c9e66b3864736f6c63430008000033",
  "immutableReferences": {},
  "source": "// SPDX-License-Identifier: UNLICENSED\r\n// pragma solidity >=0.4.25 <0.9.0;\r\n// pragma experimental ABIEncoderV2;\r\npragma solidity >=0.8.0;\r\npragma abicoder v2;\r\n\r\nimport './Library.sol';\r\n/********************************************** Madicine ******************************************/\r\n\r\ncontract Madicine {\r\n\r\n    using MyLibrary for MyLibrary.madicineStatus;\r\n    using MyLibrary for MyLibrary.medicineBasicInfo;\r\n\r\n\r\n    address Owner;  \r\n\r\n    // address batchid;\r\n    bytes32 description;\r\n    bytes32 rawmatriales;\r\n    uint256 quantity;\r\n    address shipper;\r\n    address manufacturer;\r\n    address wholesaler;\r\n    address distributer;\r\n    address pharma;\r\n    address customer;\r\n    MyLibrary.madicineStatus status;\r\n\r\n    uint256 manufacturing_time;\r\n    uint256 quality_check_time;\r\n    bytes32 manufacturing_location;\r\n\r\n    event ShippmentUpdate(\r\n        address indexed BatchID,\r\n        address indexed Shipper,\r\n        address indexed Receiver,\r\n        uint256 TransporterType,\r\n        uint256 Status\r\n    );\r\n\r\n    /// @notice\r\n    /// @dev Create new Madicine Batch by Manufacturer\r\n    /// @param Manu Manufacturer Ethereum Network Address\r\n    /// @param Des Description of Madicine Batch\r\n    /// @param RM RawMatrials for Madicine\r\n    /// @param Quant Number of units\r\n    /// @param Shpr Transporter Ethereum Network Address\r\n    /// @param Rcvr Receiver Ethereum Network Address\r\n    /// @param RcvrType Receiver Type either Wholesaler(1) or Distributer(2)\r\n    constructor(\r\n        address Manu,\r\n        bytes32 Des,\r\n        bytes32 RM,\r\n        uint256 Quant,\r\n        address Shpr,\r\n        address Rcvr,\r\n        uint256 RcvrType,\r\n        bytes32 manu_loc\r\n    ) public {\r\n        Owner = Manu;\r\n        manufacturer = Manu;\r\n        description = Des;\r\n        rawmatriales = RM;\r\n        quantity = Quant;\r\n        shipper = Shpr;\r\n        manufacturing_location = manu_loc;\r\n        manufacturing_time = block.timestamp;\r\n        quality_check_time = block.timestamp;\r\n        if(RcvrType == 1) {\r\n            wholesaler = Rcvr;\r\n        } else if( RcvrType == 2){\r\n            distributer = Rcvr;\r\n        }\r\n    }\r\n\r\n    /// @notice\r\n    /// @dev Get Madicine Batch basic Details\r\n    /// @return BasicInfo Details\r\n    /// @return Wholesaler Details\r\n    /// @return Distributer Details\r\n    /// @return Pharma Details\r\n    function getMadicineInfo () public view returns(\r\n        MyLibrary.medicineBasicInfo memory BasicInfo,\r\n        address Wholesaler,\r\n        address Distributer,\r\n        address Pharma\r\n    ) {\r\n        return(\r\n            MyLibrary.medicineBasicInfo(description, rawmatriales, manufacturing_time, manufacturing_location, \r\n            quality_check_time, status), wholesaler, distributer, pharma\r\n        );\r\n    }\r\n\r\n    /// @notice\r\n    /// @dev Get address Wholesaler, Distributer and Pharma\r\n    /// @return WDP Address Array\r\n    function getWDP() public view returns(\r\n        address[4] memory WDP\r\n    ) {\r\n        return (\r\n            [wholesaler, distributer, pharma, customer]\r\n        );\r\n    }\r\n\r\n    /// @notice\r\n    /// @dev Get Madicine Batch Transaction Status\r\n    /// @return Madicine Transaction Status\r\n    function getBatchIDStatus() public view returns(\r\n        uint256\r\n    ) {\r\n        return uint256(status);\r\n    }\r\n\r\n    /// @notice\r\n    /// @dev Pick Madicine Batch by Associate Transporter\r\n    /// @param shpr Transporter Ethereum Network Address\r\n    function pickPackage(\r\n        address shpr\r\n    ) public {\r\n        require(\r\n            shpr == shipper,\r\n            \"Only Associate Shipper can call this function\"\r\n        );\r\n        require(\r\n            status == MyLibrary.madicineStatus(0),\r\n            \"Package must be at Supplier.\"\r\n        );\r\n\r\n        if(wholesaler!=address(0x0)){\r\n            status = MyLibrary.madicineStatus(1);\r\n            emit ShippmentUpdate(address(this),shipper,wholesaler,1,1);\r\n        }else{\r\n            status = MyLibrary.madicineStatus(2);\r\n            emit ShippmentUpdate(address(this),shipper,distributer,1,1);\r\n        }\r\n    }\r\n\r\n    /// @notice\r\n    /// @dev Received Madicine Batch by Associated Wholesaler or Distributer\r\n    /// @param Rcvr Wholesaler or Distributer\r\n    function receivedPackage(\r\n        address Rcvr\r\n    ) public\r\n    returns(uint256 rcvtype)\r\n    {\r\n\r\n        require(\r\n            Rcvr == wholesaler || Rcvr == distributer,\r\n            \"Only Associate Wholesaler or Distrubuter can call this function\"\r\n        );\r\n\r\n        require(\r\n            uint256(status) >= 1,\r\n            \"Product not picked up yet\"\r\n        );\r\n\r\n        if(Rcvr == wholesaler && status == MyLibrary.madicineStatus(1)){\r\n            status = MyLibrary.madicineStatus(3);\r\n            emit ShippmentUpdate(address(this),shipper,wholesaler,2,3);\r\n            return 1;\r\n        } else if(Rcvr == distributer && status == MyLibrary.madicineStatus(2)){\r\n            status = MyLibrary.madicineStatus(4);\r\n            emit ShippmentUpdate(address(this),shipper,distributer,3,4);\r\n            return 2;\r\n        }\r\n    }\r\n\r\n    /// @notice\r\n    /// @dev Update Madicine Batch transaction Status(Pick) in between Wholesaler and Distributer\r\n    /// @param receiver Distributer Ethereum Network Address\r\n    /// @param sender Wholesaler Ethereum Network Address\r\n    function sendWD(\r\n        address receiver,\r\n        address sender\r\n    ) public {\r\n        require(\r\n            wholesaler == sender,\r\n            \"this Wholesaler is not Associated.\"\r\n        );\r\n        distributer = receiver;\r\n        status = MyLibrary.madicineStatus(2);\r\n    }\r\n\r\n    /// @notice\r\n    /// @dev Update Madicine Batch transaction Status(Recieved) in between Wholesaler and Distributer\r\n    /// @param receiver Distributer\r\n    function recievedWD(\r\n        address receiver\r\n    ) public {\r\n        require(\r\n            distributer == receiver,\r\n            \"This Distributer is not Associated.\"\r\n        );\r\n        status = MyLibrary.madicineStatus(4);\r\n    }\r\n\r\n    /// @notice\r\n    /// @dev Update Madicine Batch transaction Status(Pick) in between Distributer and Pharma\r\n    /// @param receiver Pharma Ethereum Network Address\r\n    /// @param sender Distributer Ethereum Network Address\r\n    function sendDP(\r\n        address receiver,\r\n        address sender\r\n    ) public {\r\n        require(\r\n            distributer == sender,\r\n            \"this Distributer is not Associated.\"\r\n        );\r\n        pharma = receiver;\r\n        status = MyLibrary.madicineStatus(5);\r\n    }\r\n\r\n    /// @notice\r\n    /// @dev Update Madicine Batch transaction Status(Recieved) in between Distributer and Pharma\r\n    /// @param receiver Pharma Ethereum Network Address\r\n    function recievedDP(\r\n        address receiver\r\n    ) public {\r\n        require(\r\n            pharma == receiver,\r\n            \"This Pharma is not Associated.\"\r\n        );\r\n        status = MyLibrary.madicineStatus(6);\r\n    }\r\n\r\n\r\n    /// @notice\r\n    /// @dev Update Madicine Batch transaction Status(Pick) in between Pharma and Customer\r\n    /// @param receiver Customer Ethereum Network Address\r\n    /// @param sender Pharma Ethereum Network Address\r\n    function sendPC(\r\n        address receiver,\r\n        address sender\r\n    ) public {\r\n        require(\r\n            pharma == sender,\r\n            \"this Pharma is not Associated.\"\r\n        );\r\n        customer = receiver;\r\n        status = MyLibrary.madicineStatus(7);\r\n    }\r\n\r\n    /// @notice\r\n    /// @dev Update Madicine Batch transaction Status(Recieved) in between Pharma and Customer\r\n    /// @param receiver Customer Ethereum Network Address\r\n    function recievedPC(\r\n        address receiver\r\n    ) public {\r\n        require(\r\n            customer == receiver,\r\n            \"This Customer is not Associated.\"\r\n        );\r\n        status = MyLibrary.madicineStatus(8);\r\n    }\r\n}\r\n",
  "sourcePath": "D:\\Notes BE\\Sem_3_1\\BITS F452 (Blockchain)\\Proj\\ours\\contracts\\Madicine.sol",
  "compiler": {
    "name": "solc",
    "version": "0.8.0+commit.c7dfd78e.Emscripten.clang"
  },
  "schemaVersion": "3.4.16",
  "updatedAt": "2023-11-15T12:00:23.690Z",
  "devdoc": {
    "kind": "dev",
    "methods": {
      "constructor": {
        "params": {
          "Des": "Description of Madicine Batch",
          "Manu": "Manufacturer Ethereum Network Address",
          "Quant": "Number of units",
          "RM": "RawMatrials for Madicine",
          "Rcvr": "Receiver Ethereum Network Address",
          "RcvrType": "Receiver Type either Wholesaler(1) or Distributer(2)",
          "Shpr": "Transporter Ethereum Network Address"
        }
      },
      "getBatchIDStatus()": {
        "returns": {
          "_0": "Madicine Transaction Status"
        }
      },
      "getMadicineInfo()": {
        "returns": {
          "BasicInfo": "Details",
          "Distributer": "Details",
          "Pharma": "Details",
          "Wholesaler": "Details"
        }
      },
      "getWDP()": {
        "returns": {
          "WDP": "Address Array"
        }
      },
      "pickPackage(address)": {
        "params": {
          "shpr": "Transporter Ethereum Network Address"
        }
      },
      "receivedPackage(address)": {
        "params": {
          "Rcvr": "Wholesaler or Distributer"
        }
      },
      "recievedDP(address)": {
        "params": {
          "receiver": "Pharma Ethereum Network Address"
        }
      },
      "recievedPC(address)": {
        "params": {
          "receiver": "Customer Ethereum Network Address"
        }
      },
      "recievedWD(address)": {
        "params": {
          "receiver": "Distributer"
        }
      },
      "sendDP(address,address)": {
        "params": {
          "receiver": "Pharma Ethereum Network Address",
          "sender": "Distributer Ethereum Network Address"
        }
      },
      "sendPC(address,address)": {
        "params": {
          "receiver": "Customer Ethereum Network Address",
          "sender": "Pharma Ethereum Network Address"
        }
      },
      "sendWD(address,address)": {
        "params": {
          "receiver": "Distributer Ethereum Network Address",
          "sender": "Wholesaler Ethereum Network Address"
        }
      }
    },
    "version": 1
  },
  "userdoc": {
    "kind": "user",
    "methods": {
      "constructor": {
        "notice": "@dev Create new Madicine Batch by Manufacturer"
      },
      "getBatchIDStatus()": {
        "notice": "@dev Get Madicine Batch Transaction Status"
      },
      "getMadicineInfo()": {
        "notice": "@dev Get Madicine Batch basic Details"
      },
      "getWDP()": {
        "notice": "@dev Get address Wholesaler, Distributer and Pharma"
      },
      "pickPackage(address)": {
        "notice": "@dev Pick Madicine Batch by Associate Transporter"
      },
      "receivedPackage(address)": {
        "notice": "@dev Received Madicine Batch by Associated Wholesaler or Distributer"
      },
      "recievedDP(address)": {
        "notice": "@dev Update Madicine Batch transaction Status(Recieved) in between Distributer and Pharma"
      },
      "recievedPC(address)": {
        "notice": "@dev Update Madicine Batch transaction Status(Recieved) in between Pharma and Customer"
      },
      "recievedWD(address)": {
        "notice": "@dev Update Madicine Batch transaction Status(Recieved) in between Wholesaler and Distributer"
      },
      "sendDP(address,address)": {
        "notice": "@dev Update Madicine Batch transaction Status(Pick) in between Distributer and Pharma"
      },
      "sendPC(address,address)": {
        "notice": "@dev Update Madicine Batch transaction Status(Pick) in between Pharma and Customer"
      },
      "sendWD(address,address)": {
        "notice": "@dev Update Madicine Batch transaction Status(Pick) in between Wholesaler and Distributer"
      }
    },
    "version": 1
  }
}