{
  "contractName": "Madicine",
  "abi": [
    {
      "inputs": [
        {
          "internalType": "address",
          "name": "Manu",
          "type": "address"
        },
        {
          "internalType": "bytes32",
          "name": "Des",
          "type": "bytes32"
        },
        {
          "internalType": "bytes32",
          "name": "RM",
          "type": "bytes32"
        },
        {
          "internalType": "address",
          "name": "RMA",
          "type": "address"
        },
        {
          "internalType": "uint256",
          "name": "Quant",
          "type": "uint256"
        },
        {
          "internalType": "address",
          "name": "Shpr",
          "type": "address"
        },
        {
          "internalType": "address",
          "name": "Rcvr",
          "type": "address"
        },
        {
          "internalType": "uint256",
          "name": "RcvrType",
          "type": "uint256"
        },
        {
          "internalType": "bytes32",
          "name": "manu_loc",
          "type": "bytes32"
        }
      ],
      "stateMutability": "nonpayable",
      "type": "constructor"
    },
    {
      "anonymous": false,
      "inputs": [
        {
          "indexed": true,
          "internalType": "address",
          "name": "BatchID",
          "type": "address"
        },
        {
          "indexed": true,
          "internalType": "address",
          "name": "Shipper",
          "type": "address"
        },
        {
          "indexed": true,
          "internalType": "address",
          "name": "Receiver",
          "type": "address"
        },
        {
          "indexed": false,
          "internalType": "uint256",
          "name": "TransporterType",
          "type": "uint256"
        },
        {
          "indexed": false,
          "internalType": "uint256",
          "name": "Status",
          "type": "uint256"
        }
      ],
      "name": "ShippmentUpdate",
      "type": "event"
    },
    {
      "inputs": [],
      "name": "getMadicineInfo",
      "outputs": [
        {
          "components": [
            {
              "internalType": "bytes32",
              "name": "Description",
              "type": "bytes32"
            },
            {
              "internalType": "bytes32",
              "name": "RawMaterials",
              "type": "bytes32"
            },
            {
              "internalType": "uint256",
              "name": "ManufacturingTime",
              "type": "uint256"
            },
            {
              "internalType": "uint256",
              "name": "ExpiryTime",
              "type": "uint256"
            },
            {
              "internalType": "bytes32",
              "name": "ManufacturingLocation",
              "type": "bytes32"
            },
            {
              "internalType": "uint256",
              "name": "QualityCheckTime",
              "type": "uint256"
            },
            {
              "internalType": "uint256",
              "name": "ArrivalTimeAtWholesaler",
              "type": "uint256"
            },
            {
              "internalType": "uint256",
              "name": "ArrivalTimeAtDistributer",
              "type": "uint256"
            },
            {
              "internalType": "uint256",
              "name": "ArrivalTimeAtPharma",
              "type": "uint256"
            },
            {
              "internalType": "uint256",
              "name": "SaleTime",
              "type": "uint256"
            },
            {
              "internalType": "enum MyLibrary.madicineStatus",
              "name": "Status",
              "type": "uint8"
            }
          ],
          "internalType": "struct MyLibrary.medicineBasicInfo",
          "name": "BasicInfo",
          "type": "tuple"
        },
        {
          "internalType": "address",
          "name": "Wholesaler",
          "type": "address"
        },
        {
          "internalType": "address",
          "name": "Distributer",
          "type": "address"
        },
        {
          "internalType": "address",
          "name": "Pharma",
          "type": "address"
        },
        {
          "internalType": "address",
          "name": "RMA",
          "type": "address"
        }
      ],
      "stateMutability": "view",
      "type": "function"
    },
    {
      "inputs": [],
      "name": "getWDP",
      "outputs": [
        {
          "internalType": "address[4]",
          "name": "WDP",
          "type": "address[4]"
        }
      ],
      "stateMutability": "view",
      "type": "function"
    },
    {
      "inputs": [],
      "name": "getBatchIDStatus",
      "outputs": [
        {
          "internalType": "uint256",
          "name": "",
          "type": "uint256"
        }
      ],
      "stateMutability": "view",
      "type": "function"
    },
    {
      "inputs": [
        {
          "internalType": "address",
          "name": "shpr",
          "type": "address"
        }
      ],
      "name": "pickPackage",
      "outputs": [],
      "stateMutability": "nonpayable",
      "type": "function"
    },
    {
      "inputs": [
        {
          "internalType": "address",
          "name": "Rcvr",
          "type": "address"
        }
      ],
      "name": "receivedPackage",
      "outputs": [
        {
          "internalType": "uint256",
          "name": "rcvtype",
          "type": "uint256"
        }
      ],
      "stateMutability": "nonpayable",
      "type": "function"
    },
    {
      "inputs": [
        {
          "internalType": "address",
          "name": "receiver",
          "type": "address"
        },
        {
          "internalType": "address",
          "name": "sender",
          "type": "address"
        }
      ],
      "name": "sendWD",
      "outputs": [],
      "stateMutability": "nonpayable",
      "type": "function"
    },
    {
      "inputs": [
        {
          "internalType": "address",
          "name": "receiver",
          "type": "address"
        }
      ],
      "name": "recievedWD",
      "outputs": [],
      "stateMutability": "nonpayable",
      "type": "function"
    },
    {
      "inputs": [
        {
          "internalType": "address",
          "name": "receiver",
          "type": "address"
        },
        {
          "internalType": "address",
          "name": "sender",
          "type": "address"
        }
      ],
      "name": "sendDP",
      "outputs": [],
      "stateMutability": "nonpayable",
      "type": "function"
    },
    {
      "inputs": [
        {
          "internalType": "address",
          "name": "receiver",
          "type": "address"
        }
      ],
      "name": "recievedDP",
      "outputs": [],
      "stateMutability": "nonpayable",
      "type": "function"
    },
    {
      "inputs": [
        {
          "internalType": "address",
          "name": "receiver",
          "type": "address"
        },
        {
          "internalType": "address",
          "name": "sender",
          "type": "address"
        }
      ],
      "name": "sendPC",
      "outputs": [],
      "stateMutability": "nonpayable",
      "type": "function"
    },
    {
      "inputs": [
        {
          "internalType": "address",
          "name": "receiver",
          "type": "address"
        }
      ],
      "name": "recievedPC",
      "outputs": [],
      "stateMutability": "nonpayable",
      "type": "function"
    }
  ],
  "bytecode": "0x60806040523480156200001157600080fd5b5060405162000eca38038062000eca83398101604081905262000034916200012a565b600080546001600160a01b03199081166001600160a01b038c8116918217909355600380548316909117905560098a9055600a899055600880548216898416179055600187905560028054909116918616919091179055600d81905542600b819055620000a6906301e13380620001b7565b600c5542600e556001821415620000d857600480546001600160a01b0319166001600160a01b038516179055620000fe565b8160021415620000fe57600580546001600160a01b0319166001600160a01b0385161790555b505050505050505050620001dc565b80516001600160a01b03811681146200012557600080fd5b919050565b60008060008060008060008060006101208a8c03121562000149578485fd5b620001548a6200010d565b985060208a0151975060408a015196506200017260608b016200010d565b955060808a015194506200018960a08b016200010d565b93506200019960c08b016200010d565b925060e08a015191506101008a015190509295985092959850929598565b60008219821115620001d757634e487b7160e01b81526011600452602481fd5b500190565b610cde80620001ec6000396000f3fe608060405234801561001057600080fd5b50600436106100a95760003560e01c8063638e9a3d11610071578063638e9a3d1461012d578063952565cf14610140578063a19ffd6014610153578063badcef6a14610166578063bd78683514610179578063d2f3fcc71461018c576100a9565b806301a9a23e146100ae5780630a672d13146100cc5780631d2aafc8146100e15780634175699d146100fa57806352b999681461010d575b600080fd5b6100b6610194565b6040516100c391906108f2565b60405180910390f35b6100df6100da366004610870565b6101db565b005b6100e9610225565b6040516100c3959493929190610bbd565b6100df610108366004610870565b61031b565b61012061011b366004610870565b61035c565b6040516100c39190610c7f565b6100df61013b366004610870565b61052f565b6100df61014e366004610870565b610659565b6100df610161366004610891565b61069a565b6100df610174366004610891565b610718565b6100df610187366004610891565b610765565b6101206107b4565b61019c6107e1565b50604080516080810182526004546001600160a01b03908116825260055481166020830152600654811692820192909252600754909116606082015290565b6007546001600160a01b038281169116146102115760405162461bcd60e51b8152600401610208906109b4565b60405180910390fd5b506013805460ff1916600817905542601255565b61022d6107ff565b600454600554600654600880546040805161016081018252600980548252600a546020830152600b5492820192909252600c546060820152600d546080820152600e5460a0820152600f5460c082015260105460e082015260115461010082015260125461012082015260135460009788978897889795966001600160a01b039384169692841695918416949316929091879161014084019160ff909116908111156102e957634e487b7160e01b600052602160045260246000fd5b600881111561030857634e487b7160e01b600052602160045260246000fd5b9052509a93995091975095509350915050565b6006546001600160a01b038281169116146103485760405162461bcd60e51b815260040161020890610a20565b506013805460ff1916600617905542601155565b6004546000906001600160a01b038381169116148061038857506005546001600160a01b038381169116145b6103a45760405162461bcd60e51b815260040161020890610adb565b60135460019060ff1660088111156103cc57634e487b7160e01b600052602160045260246000fd5b10156103ea5760405162461bcd60e51b81526004016102089061097d565b6004546001600160a01b03838116911614801561042b5750600160135460ff16600881111561042957634e487b7160e01b600052602160045260246000fd5b145b1561048b576013805460ff1916600390811790915542600f55600454600280546040516001600160a01b039384169493909116923092600080516020610c898339815191529261047b929061092c565b60405180910390a450600161052a565b6005546001600160a01b0383811691161480156104cc5750600260135460ff1660088111156104ca57634e487b7160e01b600052602160045260246000fd5b145b1561052a576013805460ff19166004908117909155426010556005546002546040516001600160a01b039283169392909116913091600080516020610c898339815191529161051e916003919061092c565b60405180910390a45060025b919050565b6002546001600160a01b0382811691161461055c5760405162461bcd60e51b815260040161020890610a8e565b600060135460ff16600881111561058357634e487b7160e01b600052602160045260246000fd5b146105a05760405162461bcd60e51b8152600401610208906109e9565b6004546001600160a01b031615610605576013805460ff191660019081179091556004546002546040516001600160a01b039283169392909116913091600080516020610c89833981519152916105f891819061092c565b60405180910390a4610656565b6013805460ff1916600290811790915560055490546040516001600160a01b0392831692909116903090600080516020610c898339815191529061064d90600190819061092c565b60405180910390a45b50565b6005546001600160a01b038281169116146106865760405162461bcd60e51b81526004016102089061093a565b506013805460ff1916600417905542601055565b6005546001600160a01b038281169116146106c75760405162461bcd60e51b815260040161020890610b7a565b600680546001600160a01b0319166001600160a01b03841617905560055b6013805460ff1916600183600881111561070f57634e487b7160e01b600052602160045260246000fd5b02179055505050565b6006546001600160a01b038281169116146107455760405162461bcd60e51b815260040161020890610a57565b600780546001600160a01b0319166001600160a01b0384161781556106e5565b6004546001600160a01b038281169116146107925760405162461bcd60e51b815260040161020890610b38565b600580546001600160a01b0319166001600160a01b03841617905560026106e5565b60135460009060ff1660088111156107dc57634e487b7160e01b600052602160045260246000fd5b905090565b60405180608001604052806004906020820280368337509192915050565b6040805161016081018252600080825260208201819052918101829052606081018290526080810182905260a0810182905260c0810182905260e08101829052610100810182905261012081018290529061014082015290565b80356001600160a01b038116811461052a57600080fd5b600060208284031215610881578081fd5b61088a82610859565b9392505050565b600080604083850312156108a3578081fd5b6108ac83610859565b91506108ba60208401610859565b90509250929050565b6001600160a01b03169052565b600981106108ee57634e487b7160e01b600052602160045260246000fd5b9052565b60808101818360005b60048110156109235781516001600160a01b03168352602092830192909101906001016108fb565b50505092915050565b918252602082015260400190565b60208082526023908201527f54686973204469737472696275746572206973206e6f74204173736f6369617460408201526232b21760e91b606082015260800190565b60208082526019908201527f50726f64756374206e6f74207069636b65642075702079657400000000000000604082015260600190565b6020808252818101527f5468697320437573746f6d6572206973206e6f74204173736f6369617465642e604082015260600190565b6020808252601c908201527f5061636b616765206d75737420626520617420537570706c6965722e00000000604082015260600190565b6020808252601e908201527f5468697320506861726d61206973206e6f74204173736f6369617465642e0000604082015260600190565b6020808252601e908201527f7468697320506861726d61206973206e6f74204173736f6369617465642e0000604082015260600190565b6020808252602d908201527f4f6e6c79204173736f636961746520536869707065722063616e2063616c6c2060408201526c3a3434b990333ab731ba34b7b760991b606082015260800190565b6020808252603f908201527f4f6e6c79204173736f63696174652057686f6c6573616c6572206f722044697360408201527f74727562757465722063616e2063616c6c20746869732066756e6374696f6e00606082015260800190565b60208082526022908201527f746869732057686f6c6573616c6572206973206e6f74204173736f6369617465604082015261321760f11b606082015260800190565b60208082526023908201527f74686973204469737472696275746572206973206e6f74204173736f6369617460408201526232b21760e91b606082015260800190565b60006101e082019050865182526020870151602083015260408701516040830152606087015160608301526080870151608083015260a087015160a083015260c087015160c083015260e087015160e083015261010080880151818401525061012080880151818401525061014080880151610c3b828501826108d0565b5050610c4b6101608301876108c3565b610c596101808301866108c3565b610c676101a08301856108c3565b610c756101c08301846108c3565b9695505050505050565b9081526020019056fe7e89c4b1a4e2b51aae84eb1f90e8a34cb792ece5ac5cb63db4830c891220b28da2646970667358221220309cb215870c51e131a035416be8afbbb11c1a9752b192ed2631bfc762a8484164736f6c63430008000033",
  "immutableReferences": {},
  "source": "// SPDX-License-Identifier: UNLICENSED\r\n// pragma solidity >=0.4.25 <0.9.0;\r\n// pragma experimental ABIEncoderV2;\r\npragma solidity >=0.8.0;\r\npragma abicoder v2;\r\n\r\nimport './Library.sol';\r\n/********************************************** Madicine ******************************************/\r\n\r\ncontract Madicine {\r\n\r\n    using MyLibrary for MyLibrary.madicineStatus;\r\n    using MyLibrary for MyLibrary.medicineBasicInfo;\r\n\r\n\r\n    address Owner;  \r\n\r\n\r\n    uint256 quantity;\r\n    address shipper;\r\n    address manufacturer;\r\n    address wholesaler;\r\n    address distributer;\r\n    address pharma;\r\n    address customer;\r\n    address rawmaterialAddress;\r\n    MyLibrary.medicineBasicInfo basicInfo;\r\n\r\n\r\n    event ShippmentUpdate(\r\n        address indexed BatchID,\r\n        address indexed Shipper,\r\n        address indexed Receiver,\r\n        uint256 TransporterType,\r\n        uint256 Status\r\n    );\r\n\r\n    /// @notice\r\n    /// @dev Create new Madicine Batch by Manufacturer\r\n    /// @param Manu Manufacturer Ethereum Network Address\r\n    /// @param Des Description of Madicine Batch\r\n    /// @param RM RawMatrials for Madicine\r\n    /// @param Quant Number of units\r\n    /// @param Shpr Transporter Ethereum Network Address\r\n    /// @param Rcvr Receiver Ethereum Network Address\r\n    /// @param RcvrType Receiver Type either Wholesaler(1) or Distributer(2)\r\n    constructor(\r\n        address Manu,\r\n        bytes32 Des,\r\n        bytes32 RM,\r\n        address RMA,\r\n        uint256 Quant,\r\n        address Shpr,\r\n        address Rcvr,\r\n        uint256 RcvrType,\r\n        bytes32 manu_loc\r\n    ) public {\r\n        Owner = Manu;\r\n        manufacturer = Manu;\r\n        basicInfo.Description = Des;\r\n        basicInfo.RawMaterials = RM;\r\n        rawmaterialAddress = RMA;\r\n\r\n        quantity = Quant;\r\n        shipper = Shpr;\r\n        basicInfo.ManufacturingLocation = manu_loc;\r\n        basicInfo.ManufacturingTime = block.timestamp;\r\n        basicInfo.ExpiryTime = block.timestamp + (365 days);\r\n        basicInfo.QualityCheckTime = block.timestamp;\r\n        if(RcvrType == 1) {\r\n            wholesaler = Rcvr;\r\n        } else if( RcvrType == 2){\r\n            distributer = Rcvr;\r\n        }\r\n    }\r\n\r\n    /// @notice\r\n    /// @dev Get Madicine Batch basic Details\r\n    /// @return BasicInfo Details\r\n    /// @return Wholesaler Details\r\n    /// @return Distributer Details\r\n    /// @return Pharma Details\r\n    function getMadicineInfo () public view returns(\r\n        MyLibrary.medicineBasicInfo memory BasicInfo,\r\n        address Wholesaler,\r\n        address Distributer,\r\n        address Pharma,\r\n        address RMA\r\n    ) {\r\n        return(\r\n            basicInfo, wholesaler, distributer, pharma, rawmaterialAddress\r\n        );\r\n    }\r\n\r\n    /// @notice\r\n    /// @dev Get address Wholesaler, Distributer and Pharma\r\n    /// @return WDP Address Array\r\n    function getWDP() public view returns(\r\n        address[4] memory WDP\r\n    ) {\r\n        return (\r\n            [wholesaler, distributer, pharma, customer]\r\n        );\r\n    }\r\n\r\n    /// @notice\r\n    /// @dev Get Madicine Batch Transaction Status\r\n    /// @return Madicine Transaction Status\r\n    function getBatchIDStatus() public view returns(\r\n        uint256\r\n    ) {\r\n        return uint256(basicInfo.Status);\r\n    }\r\n\r\n    /// @notice\r\n    /// @dev Pick Madicine Batch by Associate Transporter\r\n    /// @param shpr Transporter Ethereum Network Address\r\n    function pickPackage(\r\n        address shpr\r\n    ) public {\r\n        require(\r\n            shpr == shipper,\r\n            \"Only Associate Shipper can call this function\"\r\n        );\r\n        require(\r\n            basicInfo.Status == MyLibrary.madicineStatus(0),\r\n            \"Package must be at Supplier.\"\r\n        );\r\n\r\n        if(wholesaler!=address(0x0)){\r\n            basicInfo.Status = MyLibrary.madicineStatus(1);\r\n            emit ShippmentUpdate(address(this),shipper,wholesaler,1,1);\r\n        }else{\r\n            basicInfo.Status = MyLibrary.madicineStatus(2);\r\n            emit ShippmentUpdate(address(this),shipper,distributer,1,1);\r\n        }\r\n    }\r\n\r\n    /// @notice\r\n    /// @dev Received Madicine Batch by Associated Wholesaler or Distributer\r\n    /// @param Rcvr Wholesaler or Distributer\r\n    function receivedPackage(\r\n        address Rcvr\r\n    ) public\r\n    returns(uint256 rcvtype)\r\n    {\r\n\r\n        require(\r\n            Rcvr == wholesaler || Rcvr == distributer,\r\n            \"Only Associate Wholesaler or Distrubuter can call this function\"\r\n        );\r\n\r\n        require(\r\n            uint256(basicInfo.Status) >= 1,\r\n            \"Product not picked up yet\"\r\n        );\r\n\r\n        if(Rcvr == wholesaler && basicInfo.Status == MyLibrary.madicineStatus(1)){\r\n            basicInfo.Status = MyLibrary.madicineStatus(3);\r\n            basicInfo.ArrivalTimeAtWholesaler = block.timestamp;\r\n            emit ShippmentUpdate(address(this),shipper,wholesaler,2,3);\r\n            return 1;\r\n        } else if(Rcvr == distributer && basicInfo.Status == MyLibrary.madicineStatus(2)){\r\n            basicInfo.Status = MyLibrary.madicineStatus(4);\r\n            basicInfo.ArrivalTimeAtDistributer = block.timestamp;\r\n            emit ShippmentUpdate(address(this),shipper,distributer,3,4);\r\n            return 2;\r\n        }\r\n    }\r\n\r\n    /// @notice\r\n    /// @dev Update Madicine Batch transaction Status(Pick) in between Wholesaler and Distributer\r\n    /// @param receiver Distributer Ethereum Network Address\r\n    /// @param sender Wholesaler Ethereum Network Address\r\n    function sendWD(\r\n        address receiver,\r\n        address sender\r\n    ) public {\r\n        require(\r\n            wholesaler == sender,\r\n            \"this Wholesaler is not Associated.\"\r\n        );\r\n        distributer = receiver;\r\n        basicInfo.Status = MyLibrary.madicineStatus(2);\r\n    }\r\n\r\n    /// @notice\r\n    /// @dev Update Madicine Batch transaction Status(Recieved) in between Wholesaler and Distributer\r\n    /// @param receiver Distributer\r\n    function recievedWD(\r\n        address receiver\r\n    ) public {\r\n        require(\r\n            distributer == receiver,\r\n            \"This Distributer is not Associated.\"\r\n        );\r\n        basicInfo.Status = MyLibrary.madicineStatus(4);\r\n        basicInfo.ArrivalTimeAtDistributer = block.timestamp;\r\n    }\r\n\r\n    /// @notice\r\n    /// @dev Update Madicine Batch transaction Status(Pick) in between Distributer and Pharma\r\n    /// @param receiver Pharma Ethereum Network Address\r\n    /// @param sender Distributer Ethereum Network Address\r\n    function sendDP(\r\n        address receiver,\r\n        address sender\r\n    ) public {\r\n        require(\r\n            distributer == sender,\r\n            \"this Distributer is not Associated.\"\r\n        );\r\n        pharma = receiver;\r\n        basicInfo.Status = MyLibrary.madicineStatus(5);\r\n    }\r\n\r\n    /// @notice\r\n    /// @dev Update Madicine Batch transaction Status(Recieved) in between Distributer and Pharma\r\n    /// @param receiver Pharma Ethereum Network Address\r\n    function recievedDP(\r\n        address receiver\r\n    ) public {\r\n        require(\r\n            pharma == receiver,\r\n            \"This Pharma is not Associated.\"\r\n        );\r\n        basicInfo.Status = MyLibrary.madicineStatus(6);\r\n        basicInfo.ArrivalTimeAtPharma = block.timestamp;\r\n    }\r\n\r\n\r\n    /// @notice\r\n    /// @dev Update Madicine Batch transaction Status(Pick) in between Pharma and Customer\r\n    /// @param receiver Customer Ethereum Network Address\r\n    /// @param sender Pharma Ethereum Network Address\r\n    function sendPC(\r\n        address receiver,\r\n        address sender\r\n    ) public {\r\n        require(\r\n            pharma == sender,\r\n            \"this Pharma is not Associated.\"\r\n        );\r\n        customer = receiver;\r\n        basicInfo.Status = MyLibrary.madicineStatus(7);\r\n    }\r\n\r\n    /// @notice\r\n    /// @dev Update Madicine Batch transaction Status(Recieved) in between Pharma and Customer\r\n    /// @param receiver Customer Ethereum Network Address\r\n    function recievedPC(\r\n        address receiver\r\n    ) public {\r\n        require(\r\n            customer == receiver,\r\n            \"This Customer is not Associated.\"\r\n        );\r\n        basicInfo.Status = MyLibrary.madicineStatus(8);\r\n        basicInfo.SaleTime = block.timestamp;\r\n    }\r\n}\r\n",
  "sourcePath": "D:\\Notes BE\\Sem_3_1\\BITS F452 (Blockchain)\\Proj\\ours\\contracts\\Madicine.sol",
  "compiler": {
    "name": "solc",
    "version": "0.8.0+commit.c7dfd78e.Emscripten.clang"
  },
  "schemaVersion": "3.4.16",
  "updatedAt": "2023-11-16T18:17:39.501Z",
  "devdoc": {
    "kind": "dev",
    "methods": {
      "constructor": {
        "params": {
          "Des": "Description of Madicine Batch",
          "Manu": "Manufacturer Ethereum Network Address",
          "Quant": "Number of units",
          "RM": "RawMatrials for Madicine",
          "Rcvr": "Receiver Ethereum Network Address",
          "RcvrType": "Receiver Type either Wholesaler(1) or Distributer(2)",
          "Shpr": "Transporter Ethereum Network Address"
        }
      },
      "getBatchIDStatus()": {
        "returns": {
          "_0": "Madicine Transaction Status"
        }
      },
      "getMadicineInfo()": {
        "returns": {
          "BasicInfo": "Details",
          "Distributer": "Details",
          "Pharma": "Details",
          "Wholesaler": "Details"
        }
      },
      "getWDP()": {
        "returns": {
          "WDP": "Address Array"
        }
      },
      "pickPackage(address)": {
        "params": {
          "shpr": "Transporter Ethereum Network Address"
        }
      },
      "receivedPackage(address)": {
        "params": {
          "Rcvr": "Wholesaler or Distributer"
        }
      },
      "recievedDP(address)": {
        "params": {
          "receiver": "Pharma Ethereum Network Address"
        }
      },
      "recievedPC(address)": {
        "params": {
          "receiver": "Customer Ethereum Network Address"
        }
      },
      "recievedWD(address)": {
        "params": {
          "receiver": "Distributer"
        }
      },
      "sendDP(address,address)": {
        "params": {
          "receiver": "Pharma Ethereum Network Address",
          "sender": "Distributer Ethereum Network Address"
        }
      },
      "sendPC(address,address)": {
        "params": {
          "receiver": "Customer Ethereum Network Address",
          "sender": "Pharma Ethereum Network Address"
        }
      },
      "sendWD(address,address)": {
        "params": {
          "receiver": "Distributer Ethereum Network Address",
          "sender": "Wholesaler Ethereum Network Address"
        }
      }
    },
    "version": 1
  },
  "userdoc": {
    "kind": "user",
    "methods": {
      "constructor": {
        "notice": "@dev Create new Madicine Batch by Manufacturer"
      },
      "getBatchIDStatus()": {
        "notice": "@dev Get Madicine Batch Transaction Status"
      },
      "getMadicineInfo()": {
        "notice": "@dev Get Madicine Batch basic Details"
      },
      "getWDP()": {
        "notice": "@dev Get address Wholesaler, Distributer and Pharma"
      },
      "pickPackage(address)": {
        "notice": "@dev Pick Madicine Batch by Associate Transporter"
      },
      "receivedPackage(address)": {
        "notice": "@dev Received Madicine Batch by Associated Wholesaler or Distributer"
      },
      "recievedDP(address)": {
        "notice": "@dev Update Madicine Batch transaction Status(Recieved) in between Distributer and Pharma"
      },
      "recievedPC(address)": {
        "notice": "@dev Update Madicine Batch transaction Status(Recieved) in between Pharma and Customer"
      },
      "recievedWD(address)": {
        "notice": "@dev Update Madicine Batch transaction Status(Recieved) in between Wholesaler and Distributer"
      },
      "sendDP(address,address)": {
        "notice": "@dev Update Madicine Batch transaction Status(Pick) in between Distributer and Pharma"
      },
      "sendPC(address,address)": {
        "notice": "@dev Update Madicine Batch transaction Status(Pick) in between Pharma and Customer"
      },
      "sendWD(address,address)": {
        "notice": "@dev Update Madicine Batch transaction Status(Pick) in between Wholesaler and Distributer"
      }
    },
    "version": 1
  }
}