{
  "contractName": "MadicineP_C",
  "abi": [
    {
      "inputs": [
        {
          "internalType": "address",
          "name": "BatchID",
          "type": "address"
        },
        {
          "internalType": "address",
          "name": "Sender",
          "type": "address"
        },
        {
          "internalType": "address",
          "name": "Shipper",
          "type": "address"
        },
        {
          "internalType": "address",
          "name": "Receiver",
          "type": "address"
        }
      ],
      "stateMutability": "nonpayable",
      "type": "constructor"
    },
    {
      "inputs": [
        {
          "internalType": "address",
          "name": "BatchID",
          "type": "address"
        },
        {
          "internalType": "address",
          "name": "Shipper",
          "type": "address"
        }
      ],
      "name": "pickPC",
      "outputs": [],
      "stateMutability": "nonpayable",
      "type": "function"
    },
    {
      "inputs": [
        {
          "internalType": "address",
          "name": "BatchID",
          "type": "address"
        },
        {
          "internalType": "address",
          "name": "Receiver",
          "type": "address"
        }
      ],
      "name": "recievePC",
      "outputs": [],
      "stateMutability": "nonpayable",
      "type": "function"
    },
    {
      "inputs": [],
      "name": "getBatchIDStatus",
      "outputs": [
        {
          "internalType": "uint256",
          "name": "",
          "type": "uint256"
        }
      ],
      "stateMutability": "view",
      "type": "function"
    }
  ],
  "bytecode": "0x608060405234801561001057600080fd5b5060405161045138038061045183398101604081905261002f916100b8565b600080546001600160a01b03199081166001600160a01b038681169182178455600180548416898316179055600280548416909217909155600380548316868316179055600480549092169084161780825560ff60a01b1916600160a01b8302179055505050505061010b565b80516001600160a01b03811681146100b357600080fd5b919050565b600080600080608085870312156100cd578384fd5b6100d68561009c565b93506100e46020860161009c565b92506100f26040860161009c565b91506101006060860161009c565b905092959194509250565b6103378061011a6000396000f3fe608060405234801561001057600080fd5b50600436106100415760003560e01c806336ec0f5d14610046578063c5d7910f1461005b578063d2f3fcc71461006e575b600080fd5b6100596100543660046101f9565b61008c565b005b6100596100693660046101f9565b61013f565b6100766101a9565b60405161008391906102f8565b60405180910390f35b6003546001600160a01b038281169116146100c25760405162461bcd60e51b81526004016100b9906102a9565b60405180910390fd5b6004805460ff60a01b1916600160a01b17808255600254604051635d6e77b560e11b81526001600160a01b038681169463badcef6a9461010994908316939216910161023f565b600060405180830381600087803b15801561012357600080fd5b505af1158015610137573d6000803e3d6000fd5b505050505050565b6004546001600160a01b0382811691161461016c5760405162461bcd60e51b81526004016100b990610259565b6004805460ff60a01b1916600160a11b178155604051630a672d1360e01b81526001600160a01b03841691630a672d13916101099185910161022b565b600454600090600160a01b900460ff1660028111156101d857634e487b7160e01b600052602160045260246000fd5b905090565b80356001600160a01b03811681146101f457600080fd5b919050565b6000806040838503121561020b578182fd5b610214836101dd565b9150610222602084016101dd565b90509250929050565b6001600160a01b0391909116815260200190565b6001600160a01b0392831681529116602082015260400190565b60208082526030908201527f4f6e6c79204173736f6369617465642072656365697665722063616e2063616c60408201526f36103a3434b990333ab731ba34b7b71760811b606082015260800190565b6020808252602f908201527f4f6e6c79204173736f63696174656420736869707065722063616e2063616c6c60408201526e103a3434b990333ab731ba34b7b71760891b606082015260800190565b9081526020019056fea2646970667358221220cc4f7fb4505b06de3d7ba067b6bb95baf4c6c7680bc0cac7d103e7d899da062464736f6c63430008000033",
  "immutableReferences": {},
  "source": "// SPDX-License-Identifier: UNLICENSED\r\n// pragma solidity >=0.4.25 <0.9.0;\r\npragma solidity >=0.8.0;\r\npragma abicoder v2;\r\n\r\nimport './Madicine.sol';\r\n\r\n/********************************************** MadicineP_C ******************************************/\r\n\r\ncontract MadicineP_C {\r\n    address Owner;\r\n\r\n    enum packageStatus { atcreator, picked, delivered}\r\n\r\n    address batchid;\r\n    address sender;\r\n    address shipper;\r\n    address receiver;\r\n    packageStatus status;\r\n\r\n    /// @notice\r\n    /// @dev Create SubContract for Madicine Transaction\r\n    /// @param BatchID Madicine BatchID\r\n    /// @param Sender Pharma Ethereum Network Address\r\n    /// @param Shipper Transporter Ethereum Network Address\r\n    /// @param Receiver Customer Ethereum Network Address\r\n    constructor(\r\n        address BatchID,\r\n        address Sender,\r\n        address Shipper,\r\n        address Receiver\r\n    ) public {\r\n        Owner = Sender;\r\n        batchid = BatchID;\r\n        sender = Sender;\r\n        shipper = Shipper;\r\n        receiver = Receiver;\r\n        status = packageStatus(0);\r\n    }\r\n\r\n    /// @notice\r\n    /// @dev Pick Madicine Batch by Associated Transporter\r\n    /// @param BatchID Madicine BatchID\r\n    /// @param Shipper Transporter Ethereum Network Address\r\n    function pickPC(\r\n        address BatchID,\r\n        address Shipper\r\n    ) public {\r\n        require(\r\n            Shipper == shipper,\r\n            \"Only Associated shipper can call this function.\"\r\n        );\r\n        status = packageStatus(1);\r\n\r\n        Madicine(BatchID).sendPC(\r\n            receiver,\r\n            sender\r\n        );\r\n    }\r\n\r\n    /// @notice\r\n    /// @dev Recieved Madicine Batch by Associate Customer\r\n    /// @param BatchID Madicine BatchID\r\n    /// @param Receiver Pharma Ethereum Network Address\r\n    function recievePC(\r\n        address BatchID,\r\n        address Receiver\r\n    ) public {\r\n        require(\r\n            Receiver == receiver,\r\n            \"Only Associated receiver can call this function.\"\r\n        );\r\n        status = packageStatus(2);\r\n\r\n        Madicine(BatchID).recievedPC(\r\n            Receiver\r\n        );\r\n    }\r\n\r\n    /// @notice\r\n    /// @dev Get Madicine Batch Transaction status in between Pharma and Customer\r\n    /// @return Transaction status\r\n    function getBatchIDStatus() public view returns(\r\n        uint256\r\n    ) {\r\n        return uint256(status);\r\n    }\r\n\r\n}\r\n",
  "sourcePath": "D:\\Notes BE\\Sem_3_1\\BITS F452 (Blockchain)\\Proj\\ours\\contracts\\MadicineP_C.sol",
  "compiler": {
    "name": "solc",
    "version": "0.8.0+commit.c7dfd78e.Emscripten.clang"
  },
  "schemaVersion": "3.4.16",
  "updatedAt": "2023-11-15T12:00:23.698Z",
  "devdoc": {
    "kind": "dev",
    "methods": {
      "constructor": {
        "params": {
          "BatchID": "Madicine BatchID",
          "Receiver": "Customer Ethereum Network Address",
          "Sender": "Pharma Ethereum Network Address",
          "Shipper": "Transporter Ethereum Network Address"
        }
      },
      "getBatchIDStatus()": {
        "returns": {
          "_0": "Transaction status"
        }
      },
      "pickPC(address,address)": {
        "params": {
          "BatchID": "Madicine BatchID",
          "Shipper": "Transporter Ethereum Network Address"
        }
      },
      "recievePC(address,address)": {
        "params": {
          "BatchID": "Madicine BatchID",
          "Receiver": "Pharma Ethereum Network Address"
        }
      }
    },
    "version": 1
  },
  "userdoc": {
    "kind": "user",
    "methods": {
      "constructor": {
        "notice": "@dev Create SubContract for Madicine Transaction"
      },
      "getBatchIDStatus()": {
        "notice": "@dev Get Madicine Batch Transaction status in between Pharma and Customer"
      },
      "pickPC(address,address)": {
        "notice": "@dev Pick Madicine Batch by Associated Transporter"
      },
      "recievePC(address,address)": {
        "notice": "@dev Recieved Madicine Batch by Associate Customer"
      }
    },
    "version": 1
  }
}