{
  "contractName": "MadicineP_C",
  "abi": [
    {
      "inputs": [
        {
          "name": "BatchID",
          "type": "address"
        },
        {
          "name": "Sender",
          "type": "address"
        },
        {
          "name": "Shipper",
          "type": "address"
        },
        {
          "name": "Receiver",
          "type": "address"
        }
      ],
      "payable": false,
      "stateMutability": "nonpayable",
      "type": "constructor"
    },
    {
      "constant": false,
      "inputs": [
        {
          "name": "BatchID",
          "type": "address"
        },
        {
          "name": "Shipper",
          "type": "address"
        }
      ],
      "name": "pickPC",
      "outputs": [],
      "payable": false,
      "stateMutability": "nonpayable",
      "type": "function"
    },
    {
      "constant": false,
      "inputs": [
        {
          "name": "BatchID",
          "type": "address"
        },
        {
          "name": "Receiver",
          "type": "address"
        }
      ],
      "name": "recievePC",
      "outputs": [],
      "payable": false,
      "stateMutability": "nonpayable",
      "type": "function"
    },
    {
      "constant": true,
      "inputs": [],
      "name": "getBatchIDStatus",
      "outputs": [
        {
          "name": "",
          "type": "uint256"
        }
      ],
      "payable": false,
      "stateMutability": "view",
      "type": "function"
    }
  ],
  "bytecode": "0x608060405234801561001057600080fd5b506040516080806104bb8339810180604052608081101561003057600080fd5b5080516020820151604083015160609093015160008054600160a060020a0319908116600160a060020a03948516908117835560018054831696861696909617909555600280548216909517909455600380548516958416959095179094556004805490931691161760a060020a60ff02191690556104069081906100b590396000f3fe608060405260043610610050577c0100000000000000000000000000000000000000000000000000000000600035046336ec0f5d8114610055578063c5d7910f14610092578063d2f3fcc7146100cd575b600080fd5b34801561006157600080fd5b506100906004803603604081101561007857600080fd5b50600160a060020a03813581169160200135166100f4565b005b34801561009e57600080fd5b50610090600480360360408110156100b557600080fd5b50600160a060020a0381358116916020013516610257565b3480156100d957600080fd5b506100e26103a9565b60408051918252519081900360200190f35b600354600160a060020a0382811691161461019657604080517f08c379a000000000000000000000000000000000000000000000000000000000815260206004820152602f60248201527f4f6e6c79204173736f63696174656420736869707065722063616e2063616c6c60448201527f20746869732066756e6374696f6e2e0000000000000000000000000000000000606482015290519081900360840190fd5b6004805474ff000000000000000000000000000000000000000019167401000000000000000000000000000000000000000017808255600254604080517fbadcef6a000000000000000000000000000000000000000000000000000000008152600160a060020a03938416948101949094529082166024840152519084169163badcef6a91604480830192600092919082900301818387803b15801561023b57600080fd5b505af115801561024f573d6000803e3d6000fd5b505050505050565b600454600160a060020a038281169116146102f957604080517f08c379a000000000000000000000000000000000000000000000000000000000815260206004820152603060248201527f4f6e6c79204173736f6369617465642072656365697665722063616e2063616c60448201527f6c20746869732066756e6374696f6e2e00000000000000000000000000000000606482015290519081900360840190fd5b600480546002919074ff000000000000000000000000000000000000000019167401000000000000000000000000000000000000000083021790555081600160a060020a0316630a672d13826040518263ffffffff167c01000000000000000000000000000000000000000000000000000000000281526004018082600160a060020a0316600160a060020a03168152602001915050600060405180830381600087803b15801561023b57600080fd5b60045460009074010000000000000000000000000000000000000000900460ff1660028111156103d557fe5b90509056fea165627a7a723058203fb6d0206f406a92dbb923e6dc18cfeac00716986d100caabf8b9ca9edaf2b1b0029",
  "source": "pragma solidity >=0.4.25 <0.9.0;\r\n\r\nimport './Madicine.sol';\r\n\r\n/********************************************** MadicineP_C ******************************************/\r\n\r\ncontract MadicineP_C {\r\n    /// @notice\r\n    address Owner;\r\n\r\n    enum packageStatus { atcreator, picked, delivered}\r\n\r\n    /// @notice\r\n    address batchid;\r\n    /// @notice\r\n    address sender;\r\n    /// @notice\r\n    address shipper;\r\n    /// @notice\r\n    address receiver;\r\n    /// @notice\r\n    packageStatus status;\r\n\r\n    /// @notice\r\n    /// @dev Create SubContract for Madicine Transaction\r\n    /// @param BatchID Madicine BatchID\r\n    /// @param Sender Pharma Ethereum Network Address\r\n    /// @param Shipper Transporter Ethereum Network Address\r\n    /// @param Receiver Customer Ethereum Network Address\r\n    constructor(\r\n        address BatchID,\r\n        address Sender,\r\n        address Shipper,\r\n        address Receiver\r\n    ) public {\r\n        Owner = Sender;\r\n        batchid = BatchID;\r\n        sender = Sender;\r\n        shipper = Shipper;\r\n        receiver = Receiver;\r\n        status = packageStatus(0);\r\n    }\r\n\r\n    /// @notice\r\n    /// @dev Pick Madicine Batch by Associated Transporter\r\n    /// @param BatchID Madicine BatchID\r\n    /// @param Shipper Transporter Ethereum Network Address\r\n    function pickPC(\r\n        address BatchID,\r\n        address Shipper\r\n    ) public {\r\n        require(\r\n            Shipper == shipper,\r\n            \"Only Associated shipper can call this function.\"\r\n        );\r\n        status = packageStatus(1);\r\n\r\n        Madicine(BatchID).sendPC(\r\n            receiver,\r\n            sender\r\n        );\r\n    }\r\n\r\n    /// @notice\r\n    /// @dev Recieved Madicine Batch by Associate Customer\r\n    /// @param BatchID Madicine BatchID\r\n    /// @param Receiver Pharma Ethereum Network Address\r\n    function recievePC(\r\n        address BatchID,\r\n        address Receiver\r\n    ) public {\r\n        require(\r\n            Receiver == receiver,\r\n            \"Only Associated receiver can call this function.\"\r\n        );\r\n        status = packageStatus(2);\r\n\r\n        Madicine(BatchID).recievedPC(\r\n            Receiver\r\n        );\r\n    }\r\n\r\n    /// @notice\r\n    /// @dev Get Madicine Batch Transaction status in between Pharma and Customer\r\n    /// @return Transaction status\r\n    function getBatchIDStatus() public view returns(\r\n        uint\r\n    ) {\r\n        return uint(status);\r\n    }\r\n\r\n}\r\n",
  "sourcePath": "D:\\Notes BE\\Sem_3_1\\BITS F452 (Blockchain)\\Proj\\ours\\contracts\\MadicineP_C.sol",
  "compiler": {
    "name": "solc",
    "version": "0.5.1+commit.c8a2cb62.Emscripten.clang"
  },
  "schemaVersion": "3.4.16",
  "updatedAt": "2023-11-12T17:19:34.054Z",
  "devdoc": {
    "methods": {
      "constructor": {
        "params": {
          "Receiver": "Customer Ethereum Network Address"
        }
      },
      "getBatchIDStatus()": {
        "return": "Transaction status"
      },
      "pickPC(address,address)": {
        "params": {
          "Shipper": "Transporter Ethereum Network Address"
        }
      },
      "recievePC(address,address)": {
        "params": {
          "Receiver": "Pharma Ethereum Network Address"
        }
      }
    }
  },
  "userdoc": {
    "methods": {},
    "notice": "******************************************** MadicineP_C *****************************************"
  }
}