{
  "contractName": "MadicineW_D",
  "abi": [
    {
      "inputs": [
        {
          "internalType": "address",
          "name": "BatchID",
          "type": "address"
        },
        {
          "internalType": "address",
          "name": "Sender",
          "type": "address"
        },
        {
          "internalType": "address",
          "name": "Shipper",
          "type": "address"
        },
        {
          "internalType": "address",
          "name": "Receiver",
          "type": "address"
        }
      ],
      "stateMutability": "nonpayable",
      "type": "constructor"
    },
    {
      "inputs": [
        {
          "internalType": "address",
          "name": "BatchID",
          "type": "address"
        },
        {
          "internalType": "address",
          "name": "Shipper",
          "type": "address"
        }
      ],
      "name": "pickWD",
      "outputs": [],
      "stateMutability": "nonpayable",
      "type": "function"
    },
    {
      "inputs": [
        {
          "internalType": "address",
          "name": "BatchID",
          "type": "address"
        },
        {
          "internalType": "address",
          "name": "Receiver",
          "type": "address"
        }
      ],
      "name": "recieveWD",
      "outputs": [],
      "stateMutability": "nonpayable",
      "type": "function"
    },
    {
      "inputs": [],
      "name": "getBatchIDStatus",
      "outputs": [
        {
          "internalType": "uint256",
          "name": "",
          "type": "uint256"
        }
      ],
      "stateMutability": "view",
      "type": "function"
    }
  ],
  "bytecode": "0x608060405234801561001057600080fd5b5060405161045138038061045183398101604081905261002f916100b8565b600080546001600160a01b03199081166001600160a01b038681169182178455600180548416898316179055600280548416909217909155600380548316868316179055600480549092169084161780825560ff60a01b1916600160a01b8302179055505050505061010b565b80516001600160a01b03811681146100b357600080fd5b919050565b600080600080608085870312156100cd578384fd5b6100d68561009c565b93506100e46020860161009c565b92506100f26040860161009c565b91506101006060860161009c565b905092959194509250565b6103378061011a6000396000f3fe608060405234801561001057600080fd5b50600436106100415760003560e01c8063443c28d814610046578063d2f3fcc71461005b578063f4c0722914610079575b600080fd5b6100596100543660046101f9565b61008c565b005b61006361013f565b60405161007091906102f8565b60405180910390f35b6100596100873660046101f9565b610173565b6003546001600160a01b038281169116146100c25760405162461bcd60e51b81526004016100b9906102a9565b60405180910390fd5b6004805460ff60a01b1916600160a01b1780825560025460405163bd78683560e01b81526001600160a01b038681169463bd7868359461010994908316939216910161023f565b600060405180830381600087803b15801561012357600080fd5b505af1158015610137573d6000803e3d6000fd5b505050505050565b600454600090600160a01b900460ff16600281111561016e57634e487b7160e01b600052602160045260246000fd5b905090565b6004546001600160a01b038281169116146101a05760405162461bcd60e51b81526004016100b990610259565b6004805460ff60a01b1916600160a11b17815560405163952565cf60e01b81526001600160a01b0384169163952565cf916101099185910161022b565b80356001600160a01b03811681146101f457600080fd5b919050565b6000806040838503121561020b578182fd5b610214836101dd565b9150610222602084016101dd565b90509250929050565b6001600160a01b0391909116815260200190565b6001600160a01b0392831681529116602082015260400190565b60208082526030908201527f4f6e6c79204173736f6369617465642072656365697665722063616e2063616c60408201526f36103a3434b990333ab731ba34b7b71760811b606082015260800190565b6020808252602f908201527f4f6e6c79204173736f63696174656420736869707065722063616e2063616c6c60408201526e103a3434b990333ab731ba34b7b71760891b606082015260800190565b9081526020019056fea2646970667358221220537afa2c3f2e495edde00e86e04763975766b7eca42f86afdf8b94a83c0a0a8664736f6c63430008000033",
  "immutableReferences": {},
  "source": "// SPDX-License-Identifier: UNLICENSED\r\n// pragma solidity >=0.4.25 <0.9.0;\r\npragma solidity >=0.8.0;\r\npragma abicoder v2;\r\n\r\nimport './Madicine.sol';\r\n\r\n/********************************************** MadicineW_D ******************************************/\r\n\r\ncontract MadicineW_D {\r\n    address Owner;\r\n\r\n    enum packageStatus { atcreator, picked, delivered}\r\n\r\n    address batchid;\r\n    address sender;\r\n    address shipper;\r\n    address receiver;\r\n    packageStatus status;\r\n\r\n    /// @notice\r\n    /// @dev Create SubContract for Madicine Transaction\r\n    /// @param BatchID Madicine BatchID\r\n    /// @param Sender Wholesaler Ethereum Network Address\r\n    /// @param Shipper Transporter Ethereum Network Address\r\n    /// @param Receiver Distributer Ethereum Network Address\r\n    constructor(\r\n        address BatchID,\r\n        address Sender,\r\n        address Shipper,\r\n        address Receiver\r\n    ) public {\r\n        Owner = Sender;\r\n        batchid = BatchID;\r\n        sender = Sender;\r\n        shipper = Shipper;\r\n        receiver = Receiver;\r\n        status = packageStatus(0);\r\n\r\n\r\n    }\r\n\r\n    /// @notice\r\n    /// @dev Pick Madicine Batch by Associated Transporter\r\n    /// @param BatchID Madicine BatchID\r\n    /// @param Shipper Transporter Ethereum Network Address\r\n    function pickWD(\r\n        address BatchID,\r\n        address Shipper\r\n    ) public {\r\n        require(\r\n            Shipper == shipper,\r\n            \"Only Associated shipper can call this function.\"\r\n        );\r\n        status = packageStatus(1);\r\n\r\n        Madicine(BatchID).sendWD(\r\n            receiver,\r\n            sender\r\n        );\r\n    }\r\n\r\n    /// @notice\r\n    /// @dev Recieved Madicine Batch by Associate Distributer\r\n    /// @param BatchID Madicine BatchID\r\n    /// @param Receiver Distributer Ethereum Network Address\r\n    function recieveWD(\r\n        address BatchID,\r\n        address Receiver\r\n    ) public {\r\n        require(\r\n            Receiver == receiver,\r\n            \"Only Associated receiver can call this function.\"\r\n        );\r\n        status = packageStatus(2);\r\n\r\n        Madicine(BatchID).recievedWD(\r\n            Receiver\r\n        );\r\n    }\r\n\r\n    /// @notice\r\n    /// @dev Get Madicine Batch Transaction status in between Wholesaler and Distributer\r\n    /// @return Transaction status\r\n    function getBatchIDStatus() public view returns(\r\n        uint256\r\n    ) {\r\n        return uint256(status);\r\n    }\r\n\r\n}\r\n",
  "sourcePath": "D:\\Notes BE\\Sem_3_1\\BITS F452 (Blockchain)\\Proj\\ours\\contracts\\MadicineW_D.sol",
  "compiler": {
    "name": "solc",
    "version": "0.8.0+commit.c7dfd78e.Emscripten.clang"
  },
  "schemaVersion": "3.4.16",
  "updatedAt": "2023-11-16T18:17:39.513Z",
  "devdoc": {
    "kind": "dev",
    "methods": {
      "constructor": {
        "params": {
          "BatchID": "Madicine BatchID",
          "Receiver": "Distributer Ethereum Network Address",
          "Sender": "Wholesaler Ethereum Network Address",
          "Shipper": "Transporter Ethereum Network Address"
        }
      },
      "getBatchIDStatus()": {
        "returns": {
          "_0": "Transaction status"
        }
      },
      "pickWD(address,address)": {
        "params": {
          "BatchID": "Madicine BatchID",
          "Shipper": "Transporter Ethereum Network Address"
        }
      },
      "recieveWD(address,address)": {
        "params": {
          "BatchID": "Madicine BatchID",
          "Receiver": "Distributer Ethereum Network Address"
        }
      }
    },
    "version": 1
  },
  "userdoc": {
    "kind": "user",
    "methods": {
      "constructor": {
        "notice": "@dev Create SubContract for Madicine Transaction"
      },
      "getBatchIDStatus()": {
        "notice": "@dev Get Madicine Batch Transaction status in between Wholesaler and Distributer"
      },
      "pickWD(address,address)": {
        "notice": "@dev Pick Madicine Batch by Associated Transporter"
      },
      "recieveWD(address,address)": {
        "notice": "@dev Recieved Madicine Batch by Associate Distributer"
      }
    },
    "version": 1
  }
}