{
  "contractName": "Migrations",
  "abi": [
    {
      "inputs": [],
      "stateMutability": "nonpayable",
      "type": "constructor"
    },
    {
      "inputs": [],
      "name": "last_completed_migration",
      "outputs": [
        {
          "internalType": "uint256",
          "name": "",
          "type": "uint256"
        }
      ],
      "stateMutability": "view",
      "type": "function"
    },
    {
      "inputs": [],
      "name": "owner",
      "outputs": [
        {
          "internalType": "address",
          "name": "",
          "type": "address"
        }
      ],
      "stateMutability": "view",
      "type": "function"
    },
    {
      "inputs": [
        {
          "internalType": "uint256",
          "name": "completed",
          "type": "uint256"
        }
      ],
      "name": "setCompleted",
      "outputs": [],
      "stateMutability": "nonpayable",
      "type": "function"
    },
    {
      "inputs": [
        {
          "internalType": "address",
          "name": "new_address",
          "type": "address"
        }
      ],
      "name": "upgrade",
      "outputs": [],
      "stateMutability": "nonpayable",
      "type": "function"
    }
  ],
  "bytecode": "0x608060405234801561001057600080fd5b50600080546001600160a01b031916331790556101eb806100326000396000f3fe608060405234801561001057600080fd5b506004361061004c5760003560e01c80630900f01014610051578063445df0ac146100665780638da5cb5b14610084578063fdacd57614610099575b600080fd5b61006461005f366004610152565b6100ac565b005b61006e610125565b60405161007b91906101ac565b60405180910390f35b61008c61012b565b60405161007b9190610198565b6100646100a7366004610180565b61013a565b6000546001600160a01b031633141561012257600154604051637ed66abb60e11b815282916001600160a01b0383169163fdacd576916100ee916004016101ac565b600060405180830381600087803b15801561010857600080fd5b505af115801561011c573d6000803e3d6000fd5b50505050505b50565b60015481565b6000546001600160a01b031681565b6000546001600160a01b031633141561012257600155565b600060208284031215610163578081fd5b81356001600160a01b0381168114610179578182fd5b9392505050565b600060208284031215610191578081fd5b5035919050565b6001600160a01b0391909116815260200190565b9081526020019056fea2646970667358221220766a2870ca1ce3de3a810d52868fe1468db3e45efee4f921d808eb58a5f1458d64736f6c63430008000033",
  "immutableReferences": {},
  "source": "// SPDX-License-Identifier: UNLICENSED\r\n// pragma solidity >=0.4.21 <0.9.0;\r\npragma solidity >=0.8.0;\r\npragma abicoder v2;\r\n\r\ncontract Migrations {\r\n  address public owner;\r\n  uint256 public last_completed_migration;\r\n\r\n  constructor() public {\r\n    owner = msg.sender;\r\n  }\r\n\r\n  modifier restricted() {\r\n    if (msg.sender == owner) _;\r\n  }\r\n\r\n  function setCompleted(uint256 completed) public restricted {\r\n    last_completed_migration = completed;\r\n  }\r\n\r\n  function upgrade(address new_address) public restricted {\r\n    Migrations upgraded = Migrations(new_address);\r\n    upgraded.setCompleted(last_completed_migration);\r\n  }\r\n}\r\n",
  "sourcePath": "D:\\Notes BE\\Sem_3_1\\BITS F452 (Blockchain)\\Proj\\ours\\contracts\\Migrations.sol",
  "compiler": {
    "name": "solc",
    "version": "0.8.0+commit.c7dfd78e.Emscripten.clang"
  },
  "schemaVersion": "3.4.16",
  "updatedAt": "2023-11-15T12:00:23.704Z",
  "devdoc": {
    "kind": "dev",
    "methods": {},
    "version": 1
  },
  "userdoc": {
    "kind": "user",
    "methods": {},
    "version": 1
  }
}