{
  "contractName": "RawMatrials",
  "abi": [
    {
      "inputs": [
        {
          "internalType": "address",
          "name": "Splr",
          "type": "address"
        },
        {
          "internalType": "bytes32",
          "name": "Des",
          "type": "bytes32"
        },
        {
          "internalType": "bytes32",
          "name": "FN",
          "type": "bytes32"
        },
        {
          "internalType": "bytes32",
          "name": "Loc",
          "type": "bytes32"
        },
        {
          "internalType": "uint256",
          "name": "Quant",
          "type": "uint256"
        },
        {
          "internalType": "address",
          "name": "Shpr",
          "type": "address"
        },
        {
          "internalType": "address",
          "name": "Rcvr",
          "type": "address"
        }
      ],
      "stateMutability": "nonpayable",
      "type": "constructor"
    },
    {
      "anonymous": false,
      "inputs": [
        {
          "indexed": true,
          "internalType": "address",
          "name": "BatchID",
          "type": "address"
        },
        {
          "indexed": true,
          "internalType": "address",
          "name": "Shipper",
          "type": "address"
        },
        {
          "indexed": true,
          "internalType": "address",
          "name": "Manufacturer",
          "type": "address"
        },
        {
          "indexed": false,
          "internalType": "uint256",
          "name": "TransporterType",
          "type": "uint256"
        },
        {
          "indexed": false,
          "internalType": "uint256",
          "name": "Status",
          "type": "uint256"
        }
      ],
      "name": "ShippmentUpdate",
      "type": "event"
    },
    {
      "inputs": [],
      "name": "getSuppliedRawMatrials",
      "outputs": [
        {
          "internalType": "bytes32",
          "name": "Des",
          "type": "bytes32"
        },
        {
          "internalType": "bytes32",
          "name": "FN",
          "type": "bytes32"
        },
        {
          "internalType": "bytes32",
          "name": "Loc",
          "type": "bytes32"
        },
        {
          "internalType": "uint256",
          "name": "Quant",
          "type": "uint256"
        },
        {
          "internalType": "address",
          "name": "Shpr",
          "type": "address"
        },
        {
          "internalType": "address",
          "name": "Rcvr",
          "type": "address"
        },
        {
          "internalType": "address",
          "name": "Splr",
          "type": "address"
        }
      ],
      "stateMutability": "view",
      "type": "function"
    },
    {
      "inputs": [],
      "name": "getRawMatrialsStatus",
      "outputs": [
        {
          "internalType": "uint256",
          "name": "",
          "type": "uint256"
        }
      ],
      "stateMutability": "view",
      "type": "function"
    },
    {
      "inputs": [
        {
          "internalType": "address",
          "name": "shpr",
          "type": "address"
        }
      ],
      "name": "pickPackage",
      "outputs": [],
      "stateMutability": "nonpayable",
      "type": "function"
    },
    {
      "inputs": [
        {
          "internalType": "address",
          "name": "manu",
          "type": "address"
        }
      ],
      "name": "receivedPackage",
      "outputs": [],
      "stateMutability": "nonpayable",
      "type": "function"
    }
  ],
  "bytecode": "0x608060405234801561001057600080fd5b506040516105d83803806105d883398101604081905261002f916100c3565b600080546001600160a01b039889166001600160a01b0319918216811790925560018054821630179055600297909755600395909555600493909355600591909155600680549186169185169190911790556007805491909416908316179092556008805460ff60a01b19921690921716905561012c565b80516001600160a01b03811681146100be57600080fd5b919050565b600080600080600080600060e0888a0312156100dd578283fd5b6100e6886100a7565b96506020880151955060408801519450606088015193506080880151925061011060a089016100a7565b915061011e60c089016100a7565b905092959891949750929550565b61049d8061013b6000396000f3fe608060405234801561001057600080fd5b506004361061004c5760003560e01c80633b205a7d1461005157806352b999681461006f578063638e9a3d14610084578063d02eee2314610097575b600080fd5b6100596100b2565b604051610066919061045e565b60405180910390f35b61008261007d3660046102d6565b6100e6565b005b6100826100923660046102d6565b6101d1565b61009f6102a7565b6040516100669796959493929190610304565b600854600090600160a01b900460ff1660028111156100e157634e487b7160e01b600052602160045260246000fd5b905090565b6007546001600160a01b0382811691161461011c5760405162461bcd60e51b81526004016101139061040c565b60405180910390fd5b6001600854600160a01b900460ff16600281111561014a57634e487b7160e01b600052602160045260246000fd5b146101675760405162461bcd60e51b815260040161011390610351565b6008805460ff60a01b1916600160a11b1790556007546006546040516001600160a01b03928316929091169030907f7e89c4b1a4e2b51aae84eb1f90e8a34cb792ece5ac5cb63db4830c891220b28d906101c690600190600290610343565b60405180910390a450565b6006546001600160a01b038281169116146101fe5760405162461bcd60e51b8152600401610113906103bf565b6000600854600160a01b900460ff16600281111561022c57634e487b7160e01b600052602160045260246000fd5b146102495760405162461bcd60e51b815260040161011390610388565b6008805460ff60a01b1916600160a01b1790556007546006546040516001600160a01b03928316929091169030907f7e89c4b1a4e2b51aae84eb1f90e8a34cb792ece5ac5cb63db4830c891220b28d906101c6906001908190610343565b6002546003546004546005546006546007546008546001600160a01b0392831692918216911690919293949596565b6000602082840312156102e7578081fd5b81356001600160a01b03811681146102fd578182fd5b9392505050565b9687526020870195909552604086019390935260608501919091526001600160a01b03908116608085015290811660a08401521660c082015260e00190565b918252602082015260400190565b60208082526019908201527f50726f64756374206e6f74207069636b65642075702079657400000000000000604082015260600190565b6020808252601c908201527f5061636b616765206d75737420626520617420537570706c6965722e00000000604082015260600190565b6020808252602d908201527f4f6e6c79204173736f636961746520536869707065722063616e2063616c6c2060408201526c3a3434b990333ab731ba34b7b760991b606082015260800190565b60208082526032908201527f4f6e6c79204173736f6369617465204d616e7566616374757265722063616e2060408201527131b0b636103a3434b990333ab731ba34b7b760711b606082015260800190565b9081526020019056fea2646970667358221220d7bd5e0c73b369bb931e1843079125b423c5f3f2850124a5d102af107b2bef2964736f6c63430008000033",
  "immutableReferences": {},
  "source": "// SPDX-License-Identifier: UNLICENSED\r\n// pragma solidity >=0.4.25 <0.9.0;\r\npragma solidity >=0.8.0;\r\npragma abicoder v2;\r\n\r\n/********************************************** RawMatrials ******************************************/\r\n\r\ncontract RawMatrials {\r\n    address Owner;\r\n\r\n    enum packageStatus { atcreator, picked, delivered}\r\n    event ShippmentUpdate(\r\n        address indexed BatchID,\r\n        address indexed Shipper,\r\n        address indexed Manufacturer,\r\n        uint256 TransporterType,\r\n        uint256 Status\r\n    );\r\n\r\n    address productid;\r\n    bytes32 description;\r\n    bytes32 farmer_name;\r\n    bytes32 location;\r\n    uint256 quantity;\r\n    address shipper;\r\n    address manufacturer;\r\n    address supplier;\r\n    packageStatus status;\r\n    bytes32 packageReceiverDescription;\r\n\r\n    /// @notice\r\n    /// @dev Intiate New Package of RawMatrials by Supplier\r\n    /// @param Splr Supplier Ethereum Network Address\r\n    /// @param Des Description of RawMatrials\r\n    /// @param FN Farmer Name\r\n    /// @param Loc Farm Location\r\n    /// @param Quant Number of units in a package\r\n    /// @param Shpr Transporter Ethereum Network Address\r\n    /// @param Rcvr Manufacturer Ethereum Network Address\r\n    constructor (\r\n        address Splr,\r\n        bytes32 Des,\r\n        bytes32 FN,\r\n        bytes32 Loc,\r\n        uint256 Quant,\r\n        address Shpr,\r\n        address Rcvr\r\n    ) public {\r\n        Owner = Splr;\r\n        productid = address(this);\r\n        description = Des;\r\n        farmer_name = FN;\r\n        location = Loc;\r\n        quantity = Quant;\r\n        shipper = Shpr;\r\n        manufacturer = Rcvr;\r\n        supplier = Splr;\r\n        status = packageStatus(0);\r\n    }\r\n\r\n    /// @notice\r\n    /// @dev Get RawMatrials Package Details\r\n    /// @return Des Details\r\n    /// @return FN Details\r\n    /// @return Loc Details\r\n    /// @return Quant Details\r\n    /// @return Shpr Details\r\n    /// @return Rcvr Details\r\n    /// @return Splr Details\r\n    function getSuppliedRawMatrials () public view returns(\r\n        bytes32 Des,\r\n        bytes32 FN,\r\n        bytes32 Loc,\r\n        uint256 Quant,\r\n        address Shpr,\r\n        address Rcvr,\r\n        address Splr\r\n    ) {\r\n        return(\r\n            description,\r\n            farmer_name,\r\n            location,\r\n            quantity,\r\n            shipper,\r\n            manufacturer,\r\n            supplier\r\n        );\r\n    }\r\n\r\n    /// @notice\r\n    /// @dev Get Package Transaction Status\r\n    /// @return Package Status\r\n    function getRawMatrialsStatus() public view returns(\r\n        uint256\r\n    ) {\r\n        return uint256(status);\r\n    }\r\n\r\n    /// @notice\r\n    /// @dev Pick Package by Associate Transporter\r\n    /// @param shpr Transporter Ethereum Network Address\r\n    function pickPackage(\r\n        address shpr\r\n    ) public {\r\n        require(\r\n            shpr == shipper,\r\n            \"Only Associate Shipper can call this function\"\r\n        );\r\n        require(\r\n            status == packageStatus(0),\r\n            \"Package must be at Supplier.\"\r\n        );\r\n        status = packageStatus(1);\r\n        emit ShippmentUpdate(address(this),shipper,manufacturer,1,1);\r\n    }\r\n\r\n    /// @notice\r\n    /// @dev Received Package Status Update By Associated Manufacturer\r\n    /// @param manu Manufacturer Ethereum Network Address\r\n    function receivedPackage(\r\n        address manu\r\n    ) public {\r\n\r\n        require(\r\n            manu == manufacturer,\r\n            \"Only Associate Manufacturer can call this function\"\r\n        );\r\n\r\n        require(\r\n            status == packageStatus(1),\r\n            \"Product not picked up yet\"\r\n        );\r\n        status = packageStatus(2);\r\n        emit ShippmentUpdate(address(this),shipper,manufacturer,1,2);\r\n    }\r\n}\r\n",
  "sourcePath": "D:\\Notes BE\\Sem_3_1\\BITS F452 (Blockchain)\\Proj\\ours\\contracts\\RawMatrials.sol",
  "compiler": {
    "name": "solc",
    "version": "0.8.0+commit.c7dfd78e.Emscripten.clang"
  },
  "schemaVersion": "3.4.16",
  "updatedAt": "2023-11-15T12:00:23.707Z",
  "devdoc": {
    "kind": "dev",
    "methods": {
      "constructor": {
        "params": {
          "Des": "Description of RawMatrials",
          "FN": "Farmer Name",
          "Loc": "Farm Location",
          "Quant": "Number of units in a package",
          "Rcvr": "Manufacturer Ethereum Network Address",
          "Shpr": "Transporter Ethereum Network Address",
          "Splr": "Supplier Ethereum Network Address"
        }
      },
      "getRawMatrialsStatus()": {
        "returns": {
          "_0": "Package Status"
        }
      },
      "getSuppliedRawMatrials()": {
        "returns": {
          "Des": "Details",
          "FN": "Details",
          "Loc": "Details",
          "Quant": "Details",
          "Rcvr": "Details",
          "Shpr": "Details",
          "Splr": "Details"
        }
      },
      "pickPackage(address)": {
        "params": {
          "shpr": "Transporter Ethereum Network Address"
        }
      },
      "receivedPackage(address)": {
        "params": {
          "manu": "Manufacturer Ethereum Network Address"
        }
      }
    },
    "version": 1
  },
  "userdoc": {
    "kind": "user",
    "methods": {
      "constructor": {
        "notice": "@dev Intiate New Package of RawMatrials by Supplier"
      },
      "getRawMatrialsStatus()": {
        "notice": "@dev Get Package Transaction Status"
      },
      "getSuppliedRawMatrials()": {
        "notice": "@dev Get RawMatrials Package Details"
      },
      "pickPackage(address)": {
        "notice": "@dev Pick Package by Associate Transporter"
      },
      "receivedPackage(address)": {
        "notice": "@dev Received Package Status Update By Associated Manufacturer"
      }
    },
    "version": 1
  }
}