{
  "contractName": "RawMatrials",
  "abi": [
    {
      "inputs": [
        {
          "internalType": "address",
          "name": "Splr",
          "type": "address"
        },
        {
          "internalType": "bytes32",
          "name": "Des",
          "type": "bytes32"
        },
        {
          "internalType": "bytes32",
          "name": "FN",
          "type": "bytes32"
        },
        {
          "internalType": "bytes32",
          "name": "Loc",
          "type": "bytes32"
        },
        {
          "internalType": "uint256",
          "name": "Quant",
          "type": "uint256"
        },
        {
          "internalType": "address",
          "name": "Shpr",
          "type": "address"
        },
        {
          "internalType": "address",
          "name": "Rcvr",
          "type": "address"
        }
      ],
      "stateMutability": "nonpayable",
      "type": "constructor"
    },
    {
      "anonymous": false,
      "inputs": [
        {
          "indexed": true,
          "internalType": "address",
          "name": "BatchID",
          "type": "address"
        },
        {
          "indexed": true,
          "internalType": "address",
          "name": "Shipper",
          "type": "address"
        },
        {
          "indexed": true,
          "internalType": "address",
          "name": "Manufacturer",
          "type": "address"
        },
        {
          "indexed": false,
          "internalType": "uint256",
          "name": "TransporterType",
          "type": "uint256"
        },
        {
          "indexed": false,
          "internalType": "uint256",
          "name": "Status",
          "type": "uint256"
        }
      ],
      "name": "ShippmentUpdate",
      "type": "event"
    },
    {
      "inputs": [],
      "name": "getSuppliedRawMatrials",
      "outputs": [
        {
          "internalType": "bytes32",
          "name": "Des",
          "type": "bytes32"
        },
        {
          "internalType": "bytes32",
          "name": "FN",
          "type": "bytes32"
        },
        {
          "internalType": "bytes32",
          "name": "Loc",
          "type": "bytes32"
        },
        {
          "internalType": "uint256",
          "name": "Quant",
          "type": "uint256"
        },
        {
          "internalType": "address",
          "name": "Shpr",
          "type": "address"
        },
        {
          "internalType": "address",
          "name": "Rcvr",
          "type": "address"
        },
        {
          "internalType": "address",
          "name": "Splr",
          "type": "address"
        }
      ],
      "stateMutability": "view",
      "type": "function"
    },
    {
      "inputs": [],
      "name": "getRawMatrialsStatus",
      "outputs": [
        {
          "internalType": "uint256",
          "name": "",
          "type": "uint256"
        }
      ],
      "stateMutability": "view",
      "type": "function"
    },
    {
      "inputs": [
        {
          "internalType": "address",
          "name": "shpr",
          "type": "address"
        }
      ],
      "name": "pickPackage",
      "outputs": [],
      "stateMutability": "nonpayable",
      "type": "function"
    },
    {
      "inputs": [
        {
          "internalType": "address",
          "name": "manu",
          "type": "address"
        }
      ],
      "name": "receivedPackage",
      "outputs": [],
      "stateMutability": "nonpayable",
      "type": "function"
    },
    {
      "inputs": [],
      "name": "getRawInfo",
      "outputs": [
        {
          "components": [
            {
              "internalType": "bytes32",
              "name": "farmer_name",
              "type": "bytes32"
            },
            {
              "internalType": "bytes32",
              "name": "farm_location",
              "type": "bytes32"
            },
            {
              "internalType": "uint256",
              "name": "RawMaterialArrivalTimeAtManufacturer",
              "type": "uint256"
            }
          ],
          "internalType": "struct MyLibrary.rawMaterialInfo",
          "name": "rawInfo",
          "type": "tuple"
        }
      ],
      "stateMutability": "view",
      "type": "function"
    }
  ],
  "bytecode": "0x608060405234801561001057600080fd5b5060405161067438038061067483398101604081905261002f916100ea565b600080546001600160a01b03199081166001600160a01b038a81169182178455600180543090851617905560028a905560038990556004889055600587905560068054841687831617905560078054841691861691909117905560088054909216179055600a805460ff191660018360028111156100bd57634e487b7160e01b600052602160045260246000fd5b021790555050505050505050610153565b80516001600160a01b03811681146100e557600080fd5b919050565b600080600080600080600060e0888a031215610104578283fd5b61010d886100ce565b96506020880151955060408801519450606088015193506080880151925061013760a089016100ce565b915061014560c089016100ce565b905092959891949750929550565b610512806101626000396000f3fe608060405234801561001057600080fd5b50600436106100575760003560e01c80633b205a7d1461005c57806352b999681461007a578063638e9a3d1461008f578063cacc5705146100a2578063d02eee23146100b7575b600080fd5b6100646100d2565b60405161007191906104d3565b60405180910390f35b61008d61008836600461032a565b6100ff565b005b61008d61009d36600461032a565b6101e3565b6100aa6102ad565b60405161007191906104b2565b6100bf6102db565b6040516100719796959493929190610358565b600a5460009060ff1660028111156100fa57634e487b7160e01b600052602160045260246000fd5b905090565b6007546001600160a01b038281169116146101355760405162461bcd60e51b815260040161012c90610460565b60405180910390fd5b6001600a5460ff16600281111561015c57634e487b7160e01b600052602160045260246000fd5b146101795760405162461bcd60e51b815260040161012c906103a5565b600a805460ff19166002908117909155426009556007546006546040516001600160a01b0392831693929091169130917f7e89c4b1a4e2b51aae84eb1f90e8a34cb792ece5ac5cb63db4830c891220b28d916101d89160019190610397565b60405180910390a450565b6006546001600160a01b038281169116146102105760405162461bcd60e51b815260040161012c90610413565b6000600a5460ff16600281111561023757634e487b7160e01b600052602160045260246000fd5b146102545760405162461bcd60e51b815260040161012c906103dc565b600a805460ff191660019081179091556007546006546040516001600160a01b0392831693929091169130917f7e89c4b1a4e2b51aae84eb1f90e8a34cb792ece5ac5cb63db4830c891220b28d916101d8918190610397565b6102b561030a565b604051806060016040528060035481526020016004548152602001600954815250905090565b6002546003546004546005546006546007546008546001600160a01b0392831692918216911690919293949596565b604080516060810182526000808252602082018190529181019190915290565b60006020828403121561033b578081fd5b81356001600160a01b0381168114610351578182fd5b9392505050565b9687526020870195909552604086019390935260608501919091526001600160a01b03908116608085015290811660a08401521660c082015260e00190565b918252602082015260400190565b60208082526019908201527f50726f64756374206e6f74207069636b65642075702079657400000000000000604082015260600190565b6020808252601c908201527f5061636b616765206d75737420626520617420537570706c6965722e00000000604082015260600190565b6020808252602d908201527f4f6e6c79204173736f636961746520536869707065722063616e2063616c6c2060408201526c3a3434b990333ab731ba34b7b760991b606082015260800190565b60208082526032908201527f4f6e6c79204173736f6369617465204d616e7566616374757265722063616e2060408201527131b0b636103a3434b990333ab731ba34b7b760711b606082015260800190565b81518152602080830151908201526040918201519181019190915260600190565b9081526020019056fea26469706673582212202436d05dabc538e7106a01f2d1bc7949a4b0a9572b8c3656fcb1f6345bbff73a64736f6c63430008000033",
  "immutableReferences": {},
  "source": "// SPDX-License-Identifier: UNLICENSED\r\n// pragma solidity >=0.4.25 <0.9.0;\r\npragma solidity >=0.8.0;\r\npragma abicoder v2;\r\n\r\nimport './Library.sol';\r\n/********************************************** RawMatrials ******************************************/\r\n\r\ncontract RawMatrials {\r\n\r\n    using MyLibrary for MyLibrary.rawMaterialInfo;\r\n\r\n    address Owner;\r\n\r\n    enum packageStatus { atcreator, picked, delivered}\r\n    event ShippmentUpdate(\r\n        address indexed BatchID,\r\n        address indexed Shipper,\r\n        address indexed Manufacturer,\r\n        uint256 TransporterType,\r\n        uint256 Status\r\n    );\r\n\r\n    address productid;\r\n    bytes32 description;\r\n    bytes32 farmer_name;\r\n    bytes32 location;\r\n    uint256 quantity;\r\n    address shipper;\r\n    address manufacturer;\r\n    address supplier;\r\n    uint256 deliverytime;\r\n    packageStatus status;\r\n    bytes32 packageReceiverDescription;\r\n\r\n    /// @notice\r\n    /// @dev Intiate New Package of RawMatrials by Supplier\r\n    /// @param Splr Supplier Ethereum Network Address\r\n    /// @param Des Description of RawMatrials\r\n    /// @param FN Farmer Name\r\n    /// @param Loc Farm Location\r\n    /// @param Quant Number of units in a package\r\n    /// @param Shpr Transporter Ethereum Network Address\r\n    /// @param Rcvr Manufacturer Ethereum Network Address\r\n    constructor (\r\n        address Splr,\r\n        bytes32 Des,\r\n        bytes32 FN,\r\n        bytes32 Loc,\r\n        uint256 Quant,\r\n        address Shpr,\r\n        address Rcvr\r\n    ) public {\r\n        Owner = Splr;\r\n        productid = address(this);\r\n        description = Des;\r\n        farmer_name = FN;\r\n        location = Loc;\r\n        quantity = Quant;\r\n        shipper = Shpr;\r\n        manufacturer = Rcvr;\r\n        supplier = Splr;\r\n        status = packageStatus(0);\r\n    }\r\n\r\n    /// @notice\r\n    /// @dev Get RawMatrials Package Details\r\n    /// @return Des Details\r\n    /// @return FN Details\r\n    /// @return Loc Details\r\n    /// @return Quant Details\r\n    /// @return Shpr Details\r\n    /// @return Rcvr Details\r\n    /// @return Splr Details\r\n    function getSuppliedRawMatrials () public view returns(\r\n        bytes32 Des,\r\n        bytes32 FN,\r\n        bytes32 Loc,\r\n        uint256 Quant,\r\n        address Shpr,\r\n        address Rcvr,\r\n        address Splr\r\n    ) {\r\n        return(\r\n            description,\r\n            farmer_name,\r\n            location,\r\n            quantity,\r\n            shipper,\r\n            manufacturer,\r\n            supplier\r\n        );\r\n    }\r\n\r\n    /// @notice\r\n    /// @dev Get Package Transaction Status\r\n    /// @return Package Status\r\n    function getRawMatrialsStatus() public view returns(\r\n        uint256\r\n    ) {\r\n        return uint256(status);\r\n    }\r\n\r\n    /// @notice\r\n    /// @dev Pick Package by Associate Transporter\r\n    /// @param shpr Transporter Ethereum Network Address\r\n    function pickPackage(\r\n        address shpr\r\n    ) public {\r\n        require(\r\n            shpr == shipper,\r\n            \"Only Associate Shipper can call this function\"\r\n        );\r\n        require(\r\n            status == packageStatus(0),\r\n            \"Package must be at Supplier.\"\r\n        );\r\n        status = packageStatus(1);\r\n        emit ShippmentUpdate(address(this),shipper,manufacturer,1,1);\r\n    }\r\n\r\n    /// @notice\r\n    /// @dev Received Package Status Update By Associated Manufacturer\r\n    /// @param manu Manufacturer Ethereum Network Address\r\n    function receivedPackage(\r\n        address manu\r\n    ) public {\r\n\r\n        require(\r\n            manu == manufacturer,\r\n            \"Only Associate Manufacturer can call this function\"\r\n        );\r\n\r\n        require(\r\n            status == packageStatus(1),\r\n            \"Product not picked up yet\"\r\n        );\r\n        status = packageStatus(2);\r\n        deliverytime = block.timestamp;\r\n        emit ShippmentUpdate(address(this),shipper,manufacturer,1,2);\r\n    }\r\n\r\n    function getRawInfo() public view returns (MyLibrary.rawMaterialInfo memory rawInfo){\r\n        return MyLibrary.rawMaterialInfo(farmer_name, location, deliverytime);\r\n    }\r\n}\r\n",
  "sourcePath": "D:\\Notes BE\\Sem_3_1\\BITS F452 (Blockchain)\\Proj\\ours\\contracts\\RawMatrials.sol",
  "compiler": {
    "name": "solc",
    "version": "0.8.0+commit.c7dfd78e.Emscripten.clang"
  },
  "schemaVersion": "3.4.16",
  "updatedAt": "2023-11-16T18:17:39.519Z",
  "devdoc": {
    "kind": "dev",
    "methods": {
      "constructor": {
        "params": {
          "Des": "Description of RawMatrials",
          "FN": "Farmer Name",
          "Loc": "Farm Location",
          "Quant": "Number of units in a package",
          "Rcvr": "Manufacturer Ethereum Network Address",
          "Shpr": "Transporter Ethereum Network Address",
          "Splr": "Supplier Ethereum Network Address"
        }
      },
      "getRawMatrialsStatus()": {
        "returns": {
          "_0": "Package Status"
        }
      },
      "getSuppliedRawMatrials()": {
        "returns": {
          "Des": "Details",
          "FN": "Details",
          "Loc": "Details",
          "Quant": "Details",
          "Rcvr": "Details",
          "Shpr": "Details",
          "Splr": "Details"
        }
      },
      "pickPackage(address)": {
        "params": {
          "shpr": "Transporter Ethereum Network Address"
        }
      },
      "receivedPackage(address)": {
        "params": {
          "manu": "Manufacturer Ethereum Network Address"
        }
      }
    },
    "version": 1
  },
  "userdoc": {
    "kind": "user",
    "methods": {
      "constructor": {
        "notice": "@dev Intiate New Package of RawMatrials by Supplier"
      },
      "getRawMatrialsStatus()": {
        "notice": "@dev Get Package Transaction Status"
      },
      "getSuppliedRawMatrials()": {
        "notice": "@dev Get RawMatrials Package Details"
      },
      "pickPackage(address)": {
        "notice": "@dev Pick Package by Associate Transporter"
      },
      "receivedPackage(address)": {
        "notice": "@dev Received Package Status Update By Associated Manufacturer"
      }
    },
    "version": 1
  }
}