{
  "contractName": "SupplyChain_OLD",
  "abi": [
    {
      "inputs": [],
      "stateMutability": "nonpayable",
      "type": "constructor"
    },
    {
      "anonymous": false,
      "inputs": [
        {
          "indexed": true,
          "internalType": "bytes32",
          "name": "BatchId",
          "type": "bytes32"
        },
        {
          "indexed": true,
          "internalType": "address",
          "name": "Manufacturer",
          "type": "address"
        },
        {
          "indexed": false,
          "internalType": "address",
          "name": "shipper",
          "type": "address"
        },
        {
          "indexed": true,
          "internalType": "address",
          "name": "Reciever",
          "type": "address"
        }
      ],
      "name": "MadicineNewBatch",
      "type": "event"
    },
    {
      "anonymous": false,
      "inputs": [
        {
          "indexed": true,
          "internalType": "bytes32",
          "name": "BathcID",
          "type": "bytes32"
        },
        {
          "indexed": true,
          "internalType": "address",
          "name": "Sender",
          "type": "address"
        },
        {
          "indexed": true,
          "internalType": "address",
          "name": "Shipper",
          "type": "address"
        },
        {
          "indexed": false,
          "internalType": "address",
          "name": "Receiver",
          "type": "address"
        }
      ],
      "name": "MedicineReceive",
      "type": "event"
    },
    {
      "anonymous": false,
      "inputs": [
        {
          "indexed": true,
          "internalType": "bytes32",
          "name": "BatchID",
          "type": "bytes32"
        },
        {
          "indexed": true,
          "internalType": "address",
          "name": "Shipper",
          "type": "address"
        },
        {
          "indexed": true,
          "internalType": "address",
          "name": "Sender",
          "type": "address"
        },
        {
          "indexed": false,
          "internalType": "address",
          "name": "Receiver",
          "type": "address"
        }
      ],
      "name": "MedicineReceiveAtPharma",
      "type": "event"
    },
    {
      "anonymous": false,
      "inputs": [
        {
          "indexed": true,
          "internalType": "bytes32",
          "name": "BatchID",
          "type": "bytes32"
        },
        {
          "indexed": true,
          "internalType": "address",
          "name": "Shipper",
          "type": "address"
        },
        {
          "indexed": true,
          "internalType": "address",
          "name": "Receiver",
          "type": "address"
        },
        {
          "indexed": false,
          "internalType": "address",
          "name": "Sender",
          "type": "address"
        }
      ],
      "name": "MedicineShipToPharma",
      "type": "event"
    },
    {
      "anonymous": false,
      "inputs": [
        {
          "indexed": false,
          "internalType": "bytes32",
          "name": "BatchID",
          "type": "bytes32"
        },
        {
          "indexed": true,
          "internalType": "address",
          "name": "Pharma",
          "type": "address"
        },
        {
          "indexed": false,
          "internalType": "uint256",
          "name": "status",
          "type": "uint256"
        }
      ],
      "name": "MedicineStatus",
      "type": "event"
    },
    {
      "anonymous": false,
      "inputs": [
        {
          "indexed": true,
          "internalType": "bytes32",
          "name": "BatchID",
          "type": "bytes32"
        },
        {
          "indexed": true,
          "internalType": "address",
          "name": "Shipper",
          "type": "address"
        },
        {
          "indexed": true,
          "internalType": "address",
          "name": "Receiver",
          "type": "address"
        },
        {
          "indexed": false,
          "internalType": "address",
          "name": "Sender",
          "type": "address"
        }
      ],
      "name": "MedicineTransportWtoD",
      "type": "event"
    },
    {
      "anonymous": false,
      "inputs": [
        {
          "indexed": true,
          "internalType": "bytes32",
          "name": "BatchID",
          "type": "bytes32"
        },
        {
          "indexed": true,
          "internalType": "address",
          "name": "shipper",
          "type": "address"
        },
        {
          "indexed": true,
          "internalType": "address",
          "name": "supplier",
          "type": "address"
        },
        {
          "indexed": false,
          "internalType": "address",
          "name": "receiver",
          "type": "address"
        }
      ],
      "name": "RawProductReceive",
      "type": "event"
    },
    {
      "anonymous": false,
      "inputs": [
        {
          "indexed": true,
          "internalType": "bytes32",
          "name": "ProductID",
          "type": "bytes32"
        },
        {
          "indexed": true,
          "internalType": "address",
          "name": "Supplier",
          "type": "address"
        },
        {
          "indexed": false,
          "internalType": "address",
          "name": "Shipper",
          "type": "address"
        },
        {
          "indexed": true,
          "internalType": "address",
          "name": "Receiver",
          "type": "address"
        }
      ],
      "name": "RawSupplyInit",
      "type": "event"
    },
    {
      "anonymous": false,
      "inputs": [
        {
          "indexed": true,
          "internalType": "bytes32",
          "name": "BatchId",
          "type": "bytes32"
        },
        {
          "indexed": true,
          "internalType": "address",
          "name": "Shipper",
          "type": "address"
        },
        {
          "indexed": true,
          "internalType": "address",
          "name": "receiver",
          "type": "address"
        },
        {
          "indexed": false,
          "internalType": "uint256",
          "name": "transportertype",
          "type": "uint256"
        },
        {
          "indexed": false,
          "internalType": "uint256",
          "name": "status",
          "type": "uint256"
        }
      ],
      "name": "ShippmentUpdate",
      "type": "event"
    },
    {
      "anonymous": false,
      "inputs": [
        {
          "indexed": true,
          "internalType": "address",
          "name": "EthAddress",
          "type": "address"
        },
        {
          "indexed": false,
          "internalType": "bytes32",
          "name": "Name",
          "type": "bytes32"
        }
      ],
      "name": "UserRegister",
      "type": "event"
    },
    {
      "anonymous": false,
      "inputs": [
        {
          "indexed": true,
          "internalType": "address",
          "name": "EthAddress",
          "type": "address"
        },
        {
          "indexed": false,
          "internalType": "bytes32",
          "name": "Name",
          "type": "bytes32"
        },
        {
          "indexed": false,
          "internalType": "uint256",
          "name": "Role",
          "type": "uint256"
        }
      ],
      "name": "UserRoleRessigne",
      "type": "event"
    },
    {
      "anonymous": false,
      "inputs": [
        {
          "indexed": true,
          "internalType": "address",
          "name": "EthAddress",
          "type": "address"
        },
        {
          "indexed": false,
          "internalType": "bytes32",
          "name": "Name",
          "type": "bytes32"
        },
        {
          "indexed": false,
          "internalType": "uint256",
          "name": "Role",
          "type": "uint256"
        }
      ],
      "name": "UserRoleRevoked",
      "type": "event"
    },
    {
      "inputs": [],
      "name": "Owner",
      "outputs": [
        {
          "internalType": "address",
          "name": "",
          "type": "address"
        }
      ],
      "stateMutability": "view",
      "type": "function"
    },
    {
      "inputs": [
        {
          "internalType": "address",
          "name": "EthAddress",
          "type": "address"
        },
        {
          "internalType": "bytes32",
          "name": "Name",
          "type": "bytes32"
        },
        {
          "internalType": "bytes32",
          "name": "Location",
          "type": "bytes32"
        },
        {
          "internalType": "uint256",
          "name": "Role",
          "type": "uint256"
        }
      ],
      "name": "registerUser",
      "outputs": [],
      "stateMutability": "nonpayable",
      "type": "function"
    },
    {
      "inputs": [
        {
          "internalType": "address",
          "name": "userAddress",
          "type": "address"
        }
      ],
      "name": "revokeRole",
      "outputs": [],
      "stateMutability": "nonpayable",
      "type": "function"
    },
    {
      "inputs": [
        {
          "internalType": "address",
          "name": "userAddress",
          "type": "address"
        },
        {
          "internalType": "uint256",
          "name": "Role",
          "type": "uint256"
        }
      ],
      "name": "reassigneRole",
      "outputs": [],
      "stateMutability": "nonpayable",
      "type": "function"
    },
    {
      "inputs": [
        {
          "internalType": "address",
          "name": "User",
          "type": "address"
        }
      ],
      "name": "getUserInfo",
      "outputs": [
        {
          "internalType": "bytes32",
          "name": "name",
          "type": "bytes32"
        },
        {
          "internalType": "bytes32",
          "name": "location",
          "type": "bytes32"
        },
        {
          "internalType": "address",
          "name": "ethAddress",
          "type": "address"
        },
        {
          "internalType": "enum SupplyChain_OLD.roles",
          "name": "role",
          "type": "uint8"
        }
      ],
      "stateMutability": "view",
      "type": "function"
    },
    {
      "inputs": [],
      "name": "getUsersCount",
      "outputs": [
        {
          "internalType": "uint256",
          "name": "count",
          "type": "uint256"
        }
      ],
      "stateMutability": "view",
      "type": "function"
    },
    {
      "inputs": [
        {
          "internalType": "uint256",
          "name": "index",
          "type": "uint256"
        }
      ],
      "name": "getUserbyIndex",
      "outputs": [
        {
          "internalType": "bytes32",
          "name": "name",
          "type": "bytes32"
        },
        {
          "internalType": "bytes32",
          "name": "location",
          "type": "bytes32"
        },
        {
          "internalType": "address",
          "name": "ethAddress",
          "type": "address"
        },
        {
          "internalType": "enum SupplyChain_OLD.roles",
          "name": "role",
          "type": "uint8"
        }
      ],
      "stateMutability": "view",
      "type": "function"
    },
    {
      "inputs": [
        {
          "internalType": "bytes32",
          "name": "Description",
          "type": "bytes32"
        },
        {
          "internalType": "bytes32",
          "name": "FarmerName",
          "type": "bytes32"
        },
        {
          "internalType": "bytes32",
          "name": "Location",
          "type": "bytes32"
        },
        {
          "internalType": "uint256",
          "name": "Quantity",
          "type": "uint256"
        },
        {
          "internalType": "address",
          "name": "Shipper",
          "type": "address"
        },
        {
          "internalType": "address",
          "name": "Receiver",
          "type": "address"
        }
      ],
      "name": "supplyRaw",
      "outputs": [],
      "stateMutability": "nonpayable",
      "type": "function"
    },
    {
      "inputs": [],
      "name": "getCountOfProducts",
      "outputs": [
        {
          "internalType": "uint256",
          "name": "count",
          "type": "uint256"
        }
      ],
      "stateMutability": "view",
      "type": "function"
    },
    {
      "inputs": [
        {
          "internalType": "uint256",
          "name": "index",
          "type": "uint256"
        }
      ],
      "name": "getProductIdByIndex",
      "outputs": [
        {
          "internalType": "bytes32",
          "name": "BatchID",
          "type": "bytes32"
        }
      ],
      "stateMutability": "view",
      "type": "function"
    },
    {
      "inputs": [
        {
          "internalType": "bytes32",
          "name": "pid",
          "type": "bytes32"
        }
      ],
      "name": "getSupplyRaw",
      "outputs": [
        {
          "internalType": "bytes32",
          "name": "description",
          "type": "bytes32"
        },
        {
          "internalType": "bytes32",
          "name": "farmer_name",
          "type": "bytes32"
        },
        {
          "internalType": "bytes32",
          "name": "location",
          "type": "bytes32"
        },
        {
          "internalType": "uint256",
          "name": "quantity",
          "type": "uint256"
        },
        {
          "internalType": "address",
          "name": "shipper",
          "type": "address"
        },
        {
          "internalType": "address",
          "name": "receiver",
          "type": "address"
        },
        {
          "internalType": "address",
          "name": "supplier",
          "type": "address"
        }
      ],
      "stateMutability": "view",
      "type": "function"
    },
    {
      "inputs": [
        {
          "internalType": "bytes32",
          "name": "pid",
          "type": "bytes32"
        }
      ],
      "name": "getStatusOfRawMatrials",
      "outputs": [
        {
          "internalType": "uint256",
          "name": "status",
          "type": "uint256"
        }
      ],
      "stateMutability": "view",
      "type": "function"
    },
    {
      "inputs": [
        {
          "internalType": "bytes32",
          "name": "pid",
          "type": "bytes32"
        },
        {
          "internalType": "uint256",
          "name": "transportertype",
          "type": "uint256"
        },
        {
          "internalType": "uint256",
          "name": "receivertype",
          "type": "uint256"
        }
      ],
      "name": "loadpacakage",
      "outputs": [],
      "stateMutability": "nonpayable",
      "type": "function"
    },
    {
      "inputs": [
        {
          "internalType": "bytes32",
          "name": "pid",
          "type": "bytes32"
        }
      ],
      "name": "rawProductReceived",
      "outputs": [],
      "stateMutability": "nonpayable",
      "type": "function"
    },
    {
      "inputs": [
        {
          "internalType": "bytes32",
          "name": "Description",
          "type": "bytes32"
        },
        {
          "internalType": "bytes32",
          "name": "RawMatrials",
          "type": "bytes32"
        },
        {
          "internalType": "uint256",
          "name": "Quantity",
          "type": "uint256"
        },
        {
          "internalType": "address",
          "name": "Shipper",
          "type": "address"
        },
        {
          "internalType": "address",
          "name": "Receiver",
          "type": "address"
        },
        {
          "internalType": "uint256",
          "name": "receivertype",
          "type": "uint256"
        }
      ],
      "name": "newBatch",
      "outputs": [],
      "stateMutability": "nonpayable",
      "type": "function"
    },
    {
      "inputs": [],
      "name": "getMadicineBatchCount",
      "outputs": [
        {
          "internalType": "uint256",
          "name": "count",
          "type": "uint256"
        }
      ],
      "stateMutability": "view",
      "type": "function"
    },
    {
      "inputs": [
        {
          "internalType": "uint256",
          "name": "index",
          "type": "uint256"
        }
      ],
      "name": "getBatchIDByIndex",
      "outputs": [
        {
          "internalType": "bytes32",
          "name": "BatchID",
          "type": "bytes32"
        }
      ],
      "stateMutability": "view",
      "type": "function"
    },
    {
      "inputs": [
        {
          "internalType": "bytes32",
          "name": "batchID",
          "type": "bytes32"
        }
      ],
      "name": "getMadicineInfo",
      "outputs": [
        {
          "internalType": "bytes32",
          "name": "Description",
          "type": "bytes32"
        },
        {
          "internalType": "bytes32",
          "name": "RawMatrials",
          "type": "bytes32"
        },
        {
          "internalType": "uint256",
          "name": "Quantity",
          "type": "uint256"
        },
        {
          "internalType": "address",
          "name": "Shipper",
          "type": "address"
        },
        {
          "internalType": "address",
          "name": "Manufacturer",
          "type": "address"
        }
      ],
      "stateMutability": "view",
      "type": "function"
    },
    {
      "inputs": [
        {
          "internalType": "bytes32",
          "name": "batchID",
          "type": "bytes32"
        }
      ],
      "name": "getWDP",
      "outputs": [
        {
          "internalType": "address",
          "name": "Wholesaler",
          "type": "address"
        },
        {
          "internalType": "address",
          "name": "Distributer",
          "type": "address"
        },
        {
          "internalType": "address",
          "name": "Pharma",
          "type": "address"
        }
      ],
      "stateMutability": "view",
      "type": "function"
    },
    {
      "inputs": [
        {
          "internalType": "bytes32",
          "name": "BatchID",
          "type": "bytes32"
        }
      ],
      "name": "getMedicineStatus",
      "outputs": [
        {
          "internalType": "uint256",
          "name": "status",
          "type": "uint256"
        }
      ],
      "stateMutability": "view",
      "type": "function"
    },
    {
      "inputs": [
        {
          "internalType": "bytes32",
          "name": "pid",
          "type": "bytes32"
        }
      ],
      "name": "medicineReceived",
      "outputs": [],
      "stateMutability": "nonpayable",
      "type": "function"
    },
    {
      "inputs": [
        {
          "internalType": "bytes32",
          "name": "BatchID",
          "type": "bytes32"
        },
        {
          "internalType": "address",
          "name": "Shipper",
          "type": "address"
        },
        {
          "internalType": "address",
          "name": "Receiver",
          "type": "address"
        }
      ],
      "name": "shipMedicineWtoD",
      "outputs": [],
      "stateMutability": "nonpayable",
      "type": "function"
    },
    {
      "inputs": [
        {
          "internalType": "bytes32",
          "name": "BatchID",
          "type": "bytes32"
        }
      ],
      "name": "shipInfoWtoD",
      "outputs": [
        {
          "internalType": "address",
          "name": "shipper",
          "type": "address"
        },
        {
          "internalType": "address",
          "name": "receiver",
          "type": "address"
        },
        {
          "internalType": "uint256",
          "name": "status",
          "type": "uint256"
        }
      ],
      "stateMutability": "view",
      "type": "function"
    },
    {
      "inputs": [],
      "name": "getBatchIdCountW",
      "outputs": [
        {
          "internalType": "uint256",
          "name": "count",
          "type": "uint256"
        }
      ],
      "stateMutability": "view",
      "type": "function"
    },
    {
      "inputs": [
        {
          "internalType": "uint256",
          "name": "index",
          "type": "uint256"
        }
      ],
      "name": "getBatchIdByIndexW",
      "outputs": [
        {
          "internalType": "bytes32",
          "name": "BatchID",
          "type": "bytes32"
        }
      ],
      "stateMutability": "view",
      "type": "function"
    },
    {
      "inputs": [
        {
          "internalType": "bytes32",
          "name": "BatchID",
          "type": "bytes32"
        },
        {
          "internalType": "address",
          "name": "Shipper",
          "type": "address"
        },
        {
          "internalType": "address",
          "name": "Receiver",
          "type": "address"
        }
      ],
      "name": "shipMedicineDtoP",
      "outputs": [],
      "stateMutability": "nonpayable",
      "type": "function"
    },
    {
      "inputs": [
        {
          "internalType": "bytes32",
          "name": "BatchID",
          "type": "bytes32"
        }
      ],
      "name": "shipInfoDtoP",
      "outputs": [
        {
          "internalType": "address",
          "name": "shipper",
          "type": "address"
        },
        {
          "internalType": "address",
          "name": "receiver",
          "type": "address"
        },
        {
          "internalType": "uint256",
          "name": "status",
          "type": "uint256"
        }
      ],
      "stateMutability": "view",
      "type": "function"
    },
    {
      "inputs": [],
      "name": "getBatchIdCountD",
      "outputs": [
        {
          "internalType": "uint256",
          "name": "count",
          "type": "uint256"
        }
      ],
      "stateMutability": "view",
      "type": "function"
    },
    {
      "inputs": [
        {
          "internalType": "uint256",
          "name": "index",
          "type": "uint256"
        }
      ],
      "name": "getBatchIdByIndexD",
      "outputs": [
        {
          "internalType": "bytes32",
          "name": "BatchID",
          "type": "bytes32"
        }
      ],
      "stateMutability": "view",
      "type": "function"
    },
    {
      "inputs": [
        {
          "internalType": "bytes32",
          "name": "BatchID",
          "type": "bytes32"
        }
      ],
      "name": "receiveMedicineFormD",
      "outputs": [],
      "stateMutability": "nonpayable",
      "type": "function"
    },
    {
      "inputs": [
        {
          "internalType": "bytes32",
          "name": "BatchID",
          "type": "bytes32"
        },
        {
          "internalType": "uint256",
          "name": "Status",
          "type": "uint256"
        }
      ],
      "name": "updateSaleStatus",
      "outputs": [],
      "stateMutability": "nonpayable",
      "type": "function"
    },
    {
      "inputs": [
        {
          "internalType": "bytes32",
          "name": "BatchID",
          "type": "bytes32"
        }
      ],
      "name": "salesInfo",
      "outputs": [
        {
          "internalType": "uint256",
          "name": "Status",
          "type": "uint256"
        }
      ],
      "stateMutability": "view",
      "type": "function"
    },
    {
      "inputs": [],
      "name": "getBatchIdCountP",
      "outputs": [
        {
          "internalType": "uint256",
          "name": "count",
          "type": "uint256"
        }
      ],
      "stateMutability": "view",
      "type": "function"
    },
    {
      "inputs": [
        {
          "internalType": "uint256",
          "name": "index",
          "type": "uint256"
        }
      ],
      "name": "getBatchIdByIndexP",
      "outputs": [
        {
          "internalType": "bytes32",
          "name": "BatchID",
          "type": "bytes32"
        }
      ],
      "stateMutability": "view",
      "type": "function"
    }
  ],
  "bytecode": "0x608060405234801561001057600080fd5b50600080546001600160a01b03191633179055612c35806100326000396000f3fe608060405234801561001057600080fd5b50600436106102065760003560e01c8063923f645a1161011a578063d17cd90a116100ad578063e77764681161007c578063e77764681461045c578063ede595921461046f578063f35ea80514610482578063f931cdec14610495578063faefa335146104a857610206565b8063d17cd90a14610408578063e25f38fe1461041b578063e5bff92a14610441578063e76562001461045457610206565b8063b4a99a4e116100e9578063b4a99a4e146103a9578063b782e731146103be578063bb51e3ba146103d1578063c155cf68146103f557610206565b8063923f645a1461037e578063a075743d14610391578063a37a27d714610399578063a4a1e263146103a157610206565b8063602c97451161019d57806376e903aa1161016c57806376e903aa1461031f5780637bfda362146103325780637eee07421461034557806380e52e3f14610358578063916e99c51461036b57610206565b8063602c9745146102d35780636386c1c7146102e657806371ffd7f8146102f957806372d574ae1461030c57610206565b80633df1ea0a116101d95780633df1ea0a1461028e5780633f36d728146102965780634cd22da0146102a95780634f0dc53e146102cb57610206565b80630173ce2c1461020b578063108329f81461023657806331dbe6a114610259578063373d5c1814610279575b600080fd5b61021e610219366004612435565b6104bb565b60405161022d939291906125c0565b60405180910390f35b610249610244366004612435565b6104f0565b60405161022d9493929190612610565b61026c610267366004612435565b610543565b60405161022d9190612607565b61028c61028736600461240c565b6105eb565b005b61026c61076e565b61026c6102a4366004612435565b6107df565b6102bc6102b7366004612435565b610820565b60405161022d939291906125e3565b61026c610883565b61026c6102e1366004612435565b6108f4565b6102496102f43660046123b3565b610980565b6102bc610307366004612435565b6109bc565b61028c61031a366004612435565b610a16565b61026c61032d366004612435565b610ea9565b61026c610340366004612435565b610f35565b61028c610353366004612557565b610f71565b61028c6103663660046123b3565b61136f565b61026c610379366004612435565b6114ad565b61028c61038c3660046123d4565b611539565b61026c6116f9565b61026c61176a565b61026c6117db565b6103b16117e1565b60405161022d91906125ac565b61028c6103cc366004612435565b6117f0565b6103e46103df366004612435565b611937565b60405161022d959493929190612699565b61028c61040336600461244d565b611976565b61028c610416366004612435565b611a9c565b61042e610429366004612435565b611c49565b60405161022d979695949392919061265a565b61026c61044f366004612435565b611c98565b61026c611d24565b61026c61046a366004612435565b611d95565b61028c61047d3660046124df565b611dc6565b61028c610490366004612536565b611faf565b61028c6104a3366004612488565b612115565b61028c6104b636600461244d565b612262565b60009081526006602081905260409091209081015460078201546008909201546001600160a01b039182169392821692911690565b6000806000806105346002868154811061051a57634e487b7160e01b600052603260045260246000fd5b6000918252602090912001546001600160a01b0316610980565b93509350935093509193509193565b6000600533600090815260016020526040902060020154600160a01b900460ff16600781111561058357634e487b7160e01b600052602160045260246000fd5b146105a95760405162461bcd60e51b81526004016105a090612915565b60405180910390fd5b336000908152600a602052604090208054839081106105d857634e487b7160e01b600052603260045260246000fd5b906000526020600020015490505b919050565b6000546001600160a01b031633146106155760405162461bcd60e51b81526004016105a090612706565b60006001600160a01b038316600090815260016020526040902060020154600160a01b900460ff16600781111561065c57634e487b7160e01b600052602160045260246000fd5b141561067a5760405162461bcd60e51b81526004016105a09061277f565b80600781111561069a57634e487b7160e01b600052602160045260246000fd5b6001600160a01b0383166000908152600160205260409020600201805460ff60a01b1916600160a01b8360078111156106e357634e487b7160e01b600052602160045260246000fd5b02179055506001600160a01b038216600081815260016020526040902080546002909101547f4c8b3f61ed94356876db0fec52d6a7c6aeaf772c4e0ca8f6da74331cc0f687cc9190600160a01b900460ff16600781111561075457634e487b7160e01b600052602160045260246000fd5b6040516107629291906126c8565b60405180910390a25050565b6000600433600090815260016020526040902060020154600160a01b900460ff1660078111156107ae57634e487b7160e01b600052602160045260246000fd5b146107cb5760405162461bcd60e51b81526004016105a090612915565b503360009081526008602052604090205490565b600081815260036020526040812060070154600160a01b900460ff16600281111561081a57634e487b7160e01b600052602160045260246000fd5b92915050565b6000818152600960205260408120600280820154600390920154839283926001600160a01b039182169291821691600160a01b900460ff169081111561087657634e487b7160e01b600052602160045260246000fd5b9250925092509193909250565b6000600533600090815260016020526040902060020154600160a01b900460ff1660078111156108c357634e487b7160e01b600052602160045260246000fd5b146108e05760405162461bcd60e51b81526004016105a090612915565b50336000908152600a602052604090205490565b6000600133600090815260016020526040902060020154600160a01b900460ff16600781111561093457634e487b7160e01b600052602160045260246000fd5b146109515760405162461bcd60e51b81526004016105a090612a2e565b3360009081526004602052604090208054839081106105d857634e487b7160e01b600052603260045260246000fd5b6001600160a01b03908116600090815260016020819052604090912080549181015460029091015491939092821691600160a01b900460ff1690565b6000818152600b602052604081206001810154600280830154600390930154849384936001600160a01b0390811693911691600160a01b900460ff169081111561087657634e487b7160e01b600052602160045260246000fd5b600433600090815260016020526040902060020154600160a01b900460ff166007811115610a5457634e487b7160e01b600052602160045260246000fd5b1480610a9b5750600533600090815260016020526040902060020154600160a01b900460ff166007811115610a9957634e487b7160e01b600052602160045260246000fd5b145b610ab75760405162461bcd60e51b81526004016105a090612888565b6000818152600660205260409020548114610ae45760405162461bcd60e51b81526004016105a0906126d6565b60016006600083815260200190815260200160002060080160149054906101000a900460ff166006811115610b2957634e487b7160e01b600052602160045260246000fd5b1015610b475760405162461bcd60e51b81526004016105a090612748565b33600090815260016020819052604090912060020154600160a01b900460ff166007811115610b8657634e487b7160e01b600052602160045260246000fd5b610b909190612bbc565b6006811115610baf57634e487b7160e01b600052602160045260246000fd5b60008281526006602081905260409091206008018054909160ff60a01b1990911690600160a01b908490811115610bf657634e487b7160e01b600052602160045260246000fd5b0217905550600433600090815260016020526040902060020154600160a01b900460ff166007811115610c3957634e487b7160e01b600052602160045260246000fd5b1415610d0157600081815260066020819052604090912001546001600160a01b03163314610c795760405162461bcd60e51b81526004016105a090612b4e565b336000818152600860209081526040808320805460018101825590845282842001859055848352600690915290819020600481015460059091015491516001600160a01b0391821693929091169184917f7478eec01e702b6b7f202eb1c19675e24ae1eebb6c87e1ff6574e166d5f43cdb91610cf4916125ac565b60405180910390a4610ea6565b600533600090815260016020526040902060020154600160a01b900460ff166007811115610d3f57634e487b7160e01b600052602160045260246000fd5b1415610ea6576000818152600660205260409020600701546001600160a01b03163314610d7e5760405162461bcd60e51b81526004016105a0906127ac565b600081815260066020819052604090912001546001600160a01b031615610e1e576000818152600960205260409081902060038101805460ff60a01b1916600160a11b179055600281015460019091015491516001600160a01b0391821692919091169083907f7478eec01e702b6b7f202eb1c19675e24ae1eebb6c87e1ff6574e166d5f43cdb90610e119033906125ac565b60405180910390a4610e83565b60008181526006602052604090819020600481015460059091015491516001600160a01b03918216929091169083907f7478eec01e702b6b7f202eb1c19675e24ae1eebb6c87e1ff6574e166d5f43cdb90610e7a9033906125ac565b60405180910390a45b336000908152600a60209081526040822080546001810182559083529120018190555b50565b6000600433600090815260016020526040902060020154600160a01b900460ff166007811115610ee957634e487b7160e01b600052602160045260246000fd5b14610f065760405162461bcd60e51b81526004016105a090612915565b3360009081526008602052604090208054839081106105d857634e487b7160e01b600052603260045260246000fd5b6000818152600660208190526040822060080154600160a01b900460ff169081111561081a57634e487b7160e01b600052602160045260246000fd5b600233600090815260016020526040902060020154600160a01b900460ff166007811115610faf57634e487b7160e01b600052602160045260246000fd5b14610fcc5760405162461bcd60e51b81526004016105a090612b07565b60008211610fec5760405162461bcd60e51b81526004016105a0906128de565b8160011415611094576000838152600360205260409020600501546001600160a01b0316331461102e5760405162461bcd60e51b81526004016105a090612851565b6000838152600360205260409081902060078101805460ff60a01b1916600160a01b1790556006015490516001600160a01b039091169033908590600080516020612be0833981519152906110879060019081906126c8565b60405180910390a461136a565b816002141561120c576000838152600660205260409020600401546001600160a01b031633146110d65760405162461bcd60e51b81526004016105a090612851565b806110f35760405162461bcd60e51b81526004016105a0906127e3565b80600681111561111357634e487b7160e01b600052602160045260246000fd5b60008481526006602081905260409091206008018054909160ff60a01b1990911690600160a01b90849081111561115a57634e487b7160e01b600052602160045260246000fd5b021790555080600114156111ba57600083815260066020819052604091829020015490516001600160a01b039091169033908590600080516020612be0833981519152906111ad906002906001906126c8565b60405180910390a4611207565b806002141561120757600083815260066020526040908190206005015490516001600160a01b039091169033908590600080516020612be0833981519152906110879060029081906126c8565b61136a565b81600314156112a4576000838152600960205260409020600201546001600160a01b0316331461124e5760405162461bcd60e51b81526004016105a090612851565b60008381526009602052604090819020600301805460ff60a01b1916600160a01b179081905590516001600160a01b039091169033908590600080516020612be0833981519152906110879060019081906126c8565b816004141561136a576000838152600b60205260409020600101546001600160a01b031633146112e65760405162461bcd60e51b81526004016105a090612851565b6000838152600b6020818152604080842060038101805460ff60a01b19908116600160a01b1790915560068452948290206008018054909516600560a01b1790945591905260029091015490516001600160a01b039091169033908590600080516020612be0833981519152906113619060019081906126c8565b60405180910390a45b505050565b6000546001600160a01b031633146113995760405162461bcd60e51b81526004016105a090612706565b60006001600160a01b038216600090815260016020526040902060020154600160a01b900460ff1660078111156113e057634e487b7160e01b600052602160045260246000fd5b14156113fe5760405162461bcd60e51b81526004016105a09061277f565b6001600160a01b038116600081815260016020526040902080546002909101547fb5f04dfc1ccfefb366c4dc7a23670362462e0a415afb89d8cba1fb657e264c969190600160a01b900460ff16600781111561146a57634e487b7160e01b600052602160045260246000fd5b6040516114789291906126c8565b60405180910390a26001600160a01b03166000908152600160205260409020600201805460ff60a01b1916600760a01b179055565b6000600333600090815260016020526040902060020154600160a01b900460ff1660078111156114ed57634e487b7160e01b600052602160045260246000fd5b1461150a5760405162461bcd60e51b81526004016105a0906129e6565b3360009081526005602052604090208054839081106105d857634e487b7160e01b600052603260045260246000fd5b6000546001600160a01b031633146115635760405162461bcd60e51b81526004016105a090612706565b60006001600160a01b038516600090815260016020526040902060020154600160a01b900460ff1660078111156115aa57634e487b7160e01b600052602160045260246000fd5b146115c75760405162461bcd60e51b81526004016105a090612b85565b6001600160a01b038416600081815260016020819052604090912085815590810184905560020180546001600160a01b031916909117905580600781111561161f57634e487b7160e01b600052602160045260246000fd5b6001600160a01b0385166000908152600160205260409020600201805460ff60a01b1916600160a01b83600781111561166857634e487b7160e01b600052602160045260246000fd5b0217905550600280546001810182556000919091527f405787fa12a823e0f2b7631cc41b3ba8828b3321ca811111fa75cd3aa3bb5ace0180546001600160a01b0319166001600160a01b0386169081179091556040517f33a7170f028b1e4f5ba321064a00ed820856a920c7f9c6636fbcf385427b1b0f906116eb908690612607565b60405180910390a250505050565b6000600133600090815260016020526040902060020154600160a01b900460ff16600781111561173957634e487b7160e01b600052602160045260246000fd5b146117565760405162461bcd60e51b81526004016105a090612a2e565b503360009081526004602052604090205490565b6000600633600090815260016020526040902060020154600160a01b900460ff1660078111156117aa57634e487b7160e01b600052602160045260246000fd5b146117c75760405162461bcd60e51b81526004016105a090612915565b50336000908152600c602052604090205490565b60025490565b6000546001600160a01b031681565b600633600090815260016020526040902060020154600160a01b900460ff16600781111561182e57634e487b7160e01b600052602160045260246000fd5b14801561185457506000818152600660205260409020600801546001600160a01b031633145b6118705760405162461bcd60e51b81526004016105a090612aaa565b6000818152600b6020818152604080842060038101805460ff60a01b19908116600160a11b178255600685528387206008018054909116600360a11b17905533808752600c855283872080546001818101835591895286892001899055888852600d865296849020805460ff191688179055949093529154939091015490516001600160a01b03938416939091169184917fd2cdcf69957c14edd1b02f1842e1b16ec6d6e72a7f2885ebb4377b5fec9740dd9161192c916125ac565b60405180910390a450565b600090815260066020526040902060018101546002820154600383015460048401546005909401549294919390926001600160a01b0391821692911690565b600533600090815260016020526040902060020154600160a01b900460ff1660078111156119b457634e487b7160e01b600052602160045260246000fd5b1480156119da57506000838152600660205260409020600701546001600160a01b031633145b6119f65760405162461bcd60e51b81526004016105a09061297d565b6000838152600b602090815260408083208681556001810180546001600160a01b03199081166001600160a01b0389811691821790935560028401805483169389169384179055600390930180546001600160a81b03191633908117909155600690955294839020600801805490951681179094559051909186917f441f5e2afdb3b50e71754e00bf975ec5511a6e68962f37e3b0bcd28678b2853991611361916125ac565b600333600090815260016020526040902060020154600160a01b900460ff166007811115611ada57634e487b7160e01b600052602160045260246000fd5b14611af75760405162461bcd60e51b81526004016105a0906129e6565b6000818152600360205260409020548114611b245760405162461bcd60e51b81526004016105a0906126d6565b6001600082815260036020526040902060070154600160a01b900460ff166002811115611b6157634e487b7160e01b600052602160045260246000fd5b14611b7e5760405162461bcd60e51b81526004016105a090612748565b6000818152600360205260409020600601546001600160a01b03163314611bb75760405162461bcd60e51b81526004016105a090612a73565b600081815260036020818152604080842060078101805460ff60a01b1916600160a11b17815533808752600580865284882080546001810182559089528689200189905596889052949093529154939091015490516001600160a01b03938416939091169184917f5ece0855ece9d3bef8346ff1fe04663cc7fb712acc152c6f14a6e19dad7fe9369161192c916125ac565b600090815260036020819052604090912060018101546002820154928201546004830154600584015460068501546007909501549396929491936001600160a01b039182169392821692911690565b6000600633600090815260016020526040902060020154600160a01b900460ff166007811115611cd857634e487b7160e01b600052602160045260246000fd5b14611cf55760405162461bcd60e51b81526004016105a090612915565b336000908152600c602052604090208054839081106105d857634e487b7160e01b600052603260045260246000fd5b6000600333600090815260016020526040902060020154600160a01b900460ff166007811115611d6457634e487b7160e01b600052602160045260246000fd5b14611d815760405162461bcd60e51b81526004016105a0906129e6565b503360009081526005602052604090205490565b6000818152600d602052604081205460ff16600481111561081a57634e487b7160e01b600052602160045260246000fd5b600333600090815260016020526040902060020154600160a01b900460ff166007811115611e0457634e487b7160e01b600052602160045260246000fd5b14611e215760405162461bcd60e51b81526004016105a0906129e6565b80611e3e5760405162461bcd60e51b81526004016105a0906127e3565b6000334386604051602001611e5593929190612582565b60408051601f19818403018152918152815160209283012060008181526006909352912081815560018082018a905560028201899055600382018890556004820180546001600160a01b0389166001600160a01b031991821617909155600583018054909116331790556008909101805460ff60a01b19169055909150821415611f095760008181526006602081905260409091200180546001600160a01b0319166001600160a01b038516179055611f3d565b8160021415611f3d57600081815260066020526040902060070180546001600160a01b0319166001600160a01b0385161790555b33600081815260076020908152604080832080546001810182559084529190922001839055516001600160a01b038516919083907f3b6f991d2aa45abbc101b22db208a600efaf11748c710c51aaab7b828d1a991690611f9e9089906125ac565b60405180910390a450505050505050565b600633600090815260016020526040902060020154600160a01b900460ff166007811115611fed57634e487b7160e01b600052602160045260246000fd5b14801561201357506000828152600660205260409020600801546001600160a01b031633145b61202f5760405162461bcd60e51b81526004016105a090612aaa565b60016000838152600d602052604090205460ff16600481111561206257634e487b7160e01b600052602160045260246000fd5b1461207f5760405162461bcd60e51b81526004016105a09061281a565b80600481111561209f57634e487b7160e01b600052602160045260246000fd5b6000838152600d60205260409020805460ff191660018360048111156120d557634e487b7160e01b600052602160045260246000fd5b0217905550336001600160a01b03167fe7b14e8a1267505d152402dcb3fe6f7e936a894404546dc49e6bd6dc83d0ab2c83836040516107629291906126c8565b600133600090815260016020526040902060020154600160a01b900460ff16600781111561215357634e487b7160e01b600052602160045260246000fd5b146121705760405162461bcd60e51b81526004016105a090612a2e565b600033438560405160200161218793929190612582565b60408051601f1981840301815282825280516020918201206000818152600380845284822083815560018082018f9055600282018e90559181018c905560048082018c90556005820180546001600160a01b038d81166001600160a01b031992831617909255600684018054928d1692821683179055600790930180549093163390811760ff60a01b191690935582855290865295832080549283018155835293909120018190559350909183907f3526c908ab533632ede64662724d93d6c153d7f743618f475ff994b850de4d8c90611f9e9088906125ac565b600433600090815260016020526040902060020154600160a01b900460ff1660078111156122a057634e487b7160e01b600052602160045260246000fd5b1480156122c75750600083815260066020819052604090912001546001600160a01b031633145b6122e35760405162461bcd60e51b81526004016105a090612915565b60008381526009602090815260408083208681556002810180546001600160a01b038881166001600160a01b03199283168117909355600384018054918916918316821760ff60a01b199081169091556001909401805433908416811790915560069096529584902060078101805490921687179091556008018054909216600160a11b179091559051909186917ffad615ed1c60bf65312a19f25cdf659c8e809d971b3ef99f1a8354b80fc8fad991611361916125ac565b80356001600160a01b03811681146105e657600080fd5b6000602082840312156123c4578081fd5b6123cd8261239c565b9392505050565b600080600080608085870312156123e9578283fd5b6123f28561239c565b966020860135965060408601359560600135945092505050565b6000806040838503121561241e578182fd5b6124278361239c565b946020939093013593505050565b600060208284031215612446578081fd5b5035919050565b600080600060608486031215612461578283fd5b833592506124716020850161239c565b915061247f6040850161239c565b90509250925092565b60008060008060008060c087890312156124a0578182fd5b863595506020870135945060408701359350606087013592506124c56080880161239c565b91506124d360a0880161239c565b90509295509295509295565b60008060008060008060c087890312156124f7578182fd5b8635955060208701359450604087013593506125156060880161239c565b92506125236080880161239c565b915060a087013590509295509295509295565b60008060408385031215612548578182fd5b50508035926020909101359150565b60008060006060848603121561256b578283fd5b505081359360208301359350604090920135919050565b60609390931b6bffffffffffffffffffffffff191683526014830191909152603482015260540190565b6001600160a01b0391909116815260200190565b6001600160a01b0393841681529183166020830152909116604082015260600190565b6001600160a01b039384168152919092166020820152604081019190915260600190565b90815260200190565b848152602081018490526001600160a01b0383166040820152608081016008831061264b57634e487b7160e01b600052602160045260246000fd5b82606083015295945050505050565b9687526020870195909552604086019390935260608501919091526001600160a01b03908116608085015290811660a08401521660c082015260e00190565b948552602085019390935260408401919091526001600160a01b03908116606084015216608082015260a00190565b918252602082015260400190565b602080825260169082015275141c9bd91d58dd08191bd95cc81b9bdd08195e1a5cdd60521b604082015260600190565b60208082526022908201527f4f6e6c79206f776e65722063616e2063616c6c20746869732066756e6374696f604082015261371760f11b606082015260800190565b60208082526019908201527f50726f64756374206e6f74207069636b65642075702079657400000000000000604082015260600190565b602080825260139082015272155cd95c881b9bdd081c9959da5cdd195c9959606a1b604082015260600190565b60208082526018908201527f446973747269627574657220697320646966666572656e740000000000000000604082015260600190565b6020808252601c908201527f52656365697665722054797065206d75737420626520646566696e6500000000604082015260600190565b6020808252601a908201527f4d65646963696e65204d75737420626520617420506861726d61000000000000604082015260600190565b60208082526019908201527f5472616e73706f72746572206973206f74686572207573657200000000000000604082015260600190565b60208082526036908201527f4f6e6c792057686f6c6573616c657220616e642044697374726962757465722060408201527531b0b71031b0b636103a3434b990333ab731ba34b7b760511b606082015260800190565b6020808252601f908201527f5472616e73706f727465722054797065206d75737420626520646566696e6500604082015260600190565b60208082526042908201527f4f6e6c792057686f6c6573616c6572206f722063757272656e74206f776e657260408201527f206f66207061636b6167652063616e2063616c6c20746869732066756e63746960608201526137b760f11b608082015260a00190565b60208082526043908201527f4f6e6c79204469737472696275746572206f722063757272656e74206f776e6560408201527f72206f66207061636b6167652063616e2063616c6c20746869732066756e637460608201526234b7b760e91b608082015260a00190565b60208082526028908201527f4f6e6c79206d616e7566616374757265722063616e2063616c6c207468697320604082015267333ab731ba34b7b760c11b606082015260800190565b60208082526025908201527f4f6e6c7920537570706c6965722043616e2063616c6c20746869732066756e6360408201526403a34b7b7160dd1b606082015260800190565b60208082526019908201527f4d616e75666163747572657220697320646966666572656e7400000000000000604082015260600190565b6020808252603e908201527f4f6e6c7920506861726d61206f722063757272656e74206f776e6572206f662060408201527f7061636b6167652063616e2063616c6c20746869732066756e6374696f6e0000606082015260800190565b60208082526027908201527f4f6e6c79205472616e73706f727465722063616e2063616c6c207468697320666040820152663ab731ba34b7b760c91b606082015260800190565b60208082526017908201527f57686f6c6573616c657220697320646966666572656e74000000000000000000604082015260600190565b60208082526017908201527f5573657220416c72656164792072656769737465726564000000000000000000604082015260600190565b600082821015612bda57634e487b7160e01b81526011600452602481fd5b50039056fe064fe04394fef40d84544d70823d9be8bbb02f4bbb5c0612f20be8159aabaac6a264697066735822122052b22eb7ccc8a7738f5e9e7d3f9b0afba129aa0aa3a992a2280f2681f17fd41464736f6c63430008000033",
  "immutableReferences": {},
  "source": "// SPDX-License-Identifier: UNLICENSED\r\n// pragma solidity >=0.4.25 <0.6.0;\r\npragma solidity >=0.8.0;\r\npragma abicoder v2;\r\n\r\ncontract SupplyChain_OLD {\r\n\r\n    constructor() public {\r\n        Owner = msg.sender;\r\n    }\r\n/********************************************** Owner Section *********************************************/\r\n    address public Owner;\r\n    modifier onlyOwner() {\r\n        require(\r\n            msg.sender == Owner,\r\n            \"Only owner can call this function.\"\r\n        );\r\n        _;\r\n    }\r\n    enum roles {norole, supplier, transporter, manufacturer, wholesaler, distributer, pharma, revoke }\r\n    \r\n    event UserRegister(address indexed EthAddress, bytes32 Name);\r\n    event UserRoleRevoked(address indexed EthAddress, bytes32 Name, uint Role);\r\n    event UserRoleRessigne(address indexed EthAddress, bytes32 Name, uint Role);\r\n    \r\n    function registerUser(\r\n        address EthAddress, \r\n        bytes32 Name, \r\n        bytes32 Location, \r\n        uint Role\r\n        ) public \r\n        onlyOwner \r\n        {\r\n        require(UsersDetails[EthAddress].role == roles.norole, \"User Already registered\");\r\n        UsersDetails[EthAddress].name = Name;\r\n        UsersDetails[EthAddress].location = Location;\r\n        UsersDetails[EthAddress].ethAddress = EthAddress;\r\n        UsersDetails[EthAddress].role = roles(Role);\r\n        users.push(EthAddress);\r\n        emit UserRegister(EthAddress, Name);\r\n    }\r\n    function revokeRole(address userAddress) public onlyOwner {\r\n        require(UsersDetails[userAddress].role != roles.norole, \"User not registered\");\r\n        emit UserRoleRevoked(userAddress, UsersDetails[userAddress].name,uint(UsersDetails[userAddress].role));\r\n        UsersDetails[userAddress].role = roles(7);\r\n    }\r\n    function reassigneRole(address userAddress, uint Role) public onlyOwner {\r\n        require(UsersDetails[userAddress].role != roles.norole, \"User not registered\");\r\n        UsersDetails[userAddress].role = roles(Role);\r\n        emit UserRoleRessigne(userAddress, UsersDetails[userAddress].name,uint(UsersDetails[userAddress].role));\r\n    }\r\n/********************************************** User Section **********************************************/\r\n    struct UserInfo {\r\n        bytes32 name;\r\n        bytes32 location;\r\n        address ethAddress;\r\n        roles role;\r\n    }\r\n\r\n    mapping(address => UserInfo) UsersDetails;\r\n    address[] users;\r\n\r\n    function getUserInfo(address User) public view returns(\r\n        bytes32 name,\r\n        bytes32 location,\r\n        address ethAddress,\r\n        roles role\r\n        ) {\r\n        return (\r\n            UsersDetails[User].name,\r\n            UsersDetails[User].location,\r\n            UsersDetails[User].ethAddress,\r\n            UsersDetails[User].role);\r\n    }\r\n\r\n    function getUsersCount() public view returns(uint count){\r\n        return users.length;\r\n    }\r\n\r\n    function getUserbyIndex(uint index) public view returns(\r\n        bytes32 name,\r\n        bytes32 location,\r\n        address ethAddress,\r\n        roles role\r\n        ) {\r\n        return getUserInfo(users[index]);    \r\n    }\r\n/********************************************** Supplier Section ******************************************/\r\n    enum packageStatus { atcreator, picked, delivered}\r\n    struct RawProductInfo {\r\n        bytes32 productid;\r\n        bytes32 description;\r\n        bytes32 farmer_name;\r\n        bytes32 location;\r\n        uint quantity;\r\n        address shipper;\r\n        address receiver;\r\n        address supplier;\r\n        packageStatus status;\r\n        // bytes32 transporter_route;\r\n        bytes32 packageReceiverDescription;\r\n    }\r\n\r\n    mapping(bytes32 => RawProductInfo) RawProductDetails;\r\n    mapping(address => bytes32[]) supplierRawProductInfo;\r\n\r\n    event RawSupplyInit(\r\n        bytes32 indexed ProductID, \r\n        address indexed Supplier, \r\n        address Shipper, \r\n        address indexed Receiver\r\n    );\r\n\r\n    function supplyRaw(\r\n        bytes32 Description, \r\n        bytes32 FarmerName, \r\n        bytes32 Location, \r\n        uint Quantity, \r\n        address Shipper, \r\n        address Receiver\r\n        ) public {\r\n        require(\r\n            UsersDetails[msg.sender].role == roles.supplier, \r\n            \"Only Supplier Can call this function \"\r\n        );\r\n        bytes32 pid = keccak256(abi.encodePacked(msg.sender, block.number, Quantity));\r\n        RawProductDetails[pid].productid = pid;\r\n        RawProductDetails[pid].description = Description;\r\n        RawProductDetails[pid].farmer_name = FarmerName;\r\n        RawProductDetails[pid].location = Location;\r\n        RawProductDetails[pid].quantity = Quantity;\r\n        RawProductDetails[pid].shipper = Shipper;\r\n        RawProductDetails[pid].receiver = Receiver;\r\n        RawProductDetails[pid].supplier = msg.sender;\r\n        RawProductDetails[pid].status = packageStatus(0);\r\n\r\n        supplierRawProductInfo[msg.sender].push(pid);\r\n        emit RawSupplyInit(pid, msg.sender, Shipper, Receiver);\r\n    }\r\n\r\n    function getCountOfProducts() public view returns (uint count){\r\n        require(\r\n            UsersDetails[msg.sender].role == roles.supplier, \r\n            \"Only Supplier Can call this function \"\r\n        );\r\n        return supplierRawProductInfo[msg.sender].length;\r\n    }\r\n\r\n    function getProductIdByIndex(uint index) public view returns(bytes32 BatchID) {\r\n        require(\r\n            UsersDetails[msg.sender].role == roles.supplier, \r\n            \"Only Supplier Can call this function \"\r\n        );\r\n        return supplierRawProductInfo[msg.sender][index];\r\n    }\r\n\r\n    function getSupplyRaw(\r\n        bytes32 pid\r\n        ) public\r\n        view\r\n        returns(\r\n            bytes32 description,\r\n            bytes32 farmer_name,\r\n            bytes32 location,\r\n            uint quantity,\r\n            address shipper,\r\n            address receiver,\r\n            address supplier\r\n        ) {\r\n        return(\r\n            RawProductDetails[pid].description,\r\n            RawProductDetails[pid].farmer_name,\r\n            RawProductDetails[pid].location,\r\n            RawProductDetails[pid].quantity,\r\n            RawProductDetails[pid].shipper,\r\n            RawProductDetails[pid].receiver,\r\n            RawProductDetails[pid].supplier\r\n        );\r\n    }\r\n\r\n    function getStatusOfRawMatrials(\r\n        bytes32 pid\r\n    ) public\r\n    view\r\n    returns(\r\n        uint status\r\n    ) {\r\n        return uint(RawProductDetails[pid].status);\r\n    }\r\n/********************************************** Transporter Section ***************************************/\r\n    event ShippmentUpdate(\r\n        bytes32 indexed BatchId, \r\n        address indexed Shipper, \r\n        address indexed receiver, \r\n        uint transportertype, \r\n        uint status\r\n    );\r\n\r\n    function loadpacakage(bytes32 pid, uint transportertype, uint receivertype) public {\r\n        require(\r\n            UsersDetails[msg.sender].role == roles.transporter,\r\n            \"Only Transporter can call this function\"\r\n        );\r\n        require(\r\n            transportertype > 0,\r\n            \"Transporter Type must be define\"\r\n        );\r\n\r\n        if(transportertype == 1) {  // Supplier to Manufacturer\r\n            require(\r\n                msg.sender == RawProductDetails[pid].shipper,\r\n                \"Transporter is other user\"\r\n            );\r\n            RawProductDetails[pid].status = packageStatus(1);\r\n            emit ShippmentUpdate(pid, msg.sender, RawProductDetails[pid].receiver,1,1);\r\n        } else if(transportertype == 2) {   // Manufacturer to Wholesaler OR Manufacturer to Distributer\r\n            require(\r\n                msg.sender == MedicineBatchDetails[pid].shipper,\r\n                \"Transporter is other user\"\r\n            );\r\n            require(receivertype != 0,\"Receiver Type must be define\");\r\n            MedicineBatchDetails[pid].status = medicineStatus(receivertype);\r\n            if(receivertype == 1){\r\n                emit ShippmentUpdate(pid, msg.sender, MedicineBatchDetails[pid].wholesaler,2,1);\r\n            } else if(receivertype == 2){\r\n                emit ShippmentUpdate(pid, msg.sender, MedicineBatchDetails[pid].manufacturer,2,2);\r\n            }\r\n        } else if(transportertype == 3) {   // Wholesaler to Distributer\r\n            require(\r\n                msg.sender == MedicineWtoD[pid].shipper,\r\n                \"Transporter is other user\"\r\n            );\r\n            MedicineWtoD[pid].status = packageStatus(1);\r\n            emit ShippmentUpdate(pid, msg.sender, MedicineWtoD[pid].receiver,1,1);\r\n        } else if(transportertype == 4) {   // Distrubuter to Pharma\r\n            require(\r\n                msg.sender == MedicineDtoR[pid].shipper,\r\n                \"Transporter is other user\"\r\n            );\r\n            MedicineDtoR[pid].status = packageStatus(1);\r\n            MedicineBatchDetails[pid].status = medicineStatus(5);\r\n            emit ShippmentUpdate(pid, msg.sender, MedicineDtoR[pid].receiver,1,1);\r\n        }\r\n    }\r\n/********************************************** Manufacturer Section **************************************/\r\n    mapping(address => bytes32[]) RawProductAtManufacturer;\r\n    // mapping(address => mapping(bytes32 => RawProductInfo)) RawProductDetailsAtManufacturer;\r\n\r\n    enum medicineStatus { atcreator, picked4W, picked4D, deliveredatW, deliveredatD, picked4P, deliveredatP}\r\n    \r\n    event RawProductReceive(\r\n        bytes32 indexed BatchID, \r\n        address indexed shipper, \r\n        address indexed supplier,\r\n        address receiver\r\n    );\r\n\r\n    function rawProductReceived(bytes32 pid) public {\r\n        require(\r\n            UsersDetails[msg.sender].role == roles.manufacturer,\r\n            \"Only manufacturer can call this function\"\r\n        );\r\n        require(\r\n            RawProductDetails[pid].productid == pid,\r\n            \"Product does not exist\"\r\n        );\r\n        require(\r\n            RawProductDetails[pid].status == packageStatus(1),\r\n            \"Product not picked up yet\"\r\n        );\r\n        require(\r\n            msg.sender == RawProductDetails[pid].receiver,\r\n            \"Manufacturer is different\"\r\n        );\r\n        RawProductDetails[pid].status = packageStatus(2);\r\n        // RawProductDetailsAtManufacturer[msg.sender][pid] = RawProductDetails[pid];\r\n\r\n        RawProductAtManufacturer[msg.sender].push(pid);\r\n        emit RawProductReceive(pid,RawProductDetails[pid].shipper, RawProductDetails[pid].supplier, msg.sender);\r\n    }\r\n\r\n    struct MedicineBatch{\r\n        bytes32 batchid;\r\n        bytes32 description;\r\n        bytes32 rawmatriales;\r\n        uint quantity;\r\n        address shipper;\r\n        address manufacturer;\r\n        address wholesaler;\r\n        address distributer;\r\n        address pharma;\r\n        medicineStatus status;\r\n    }\r\n\r\n    mapping(bytes32 => MedicineBatch) MedicineBatchDetails;\r\n    mapping(address => bytes32[]) ManufacturerMedicineBatches;\r\n\r\n    event MadicineNewBatch(\r\n        bytes32 indexed BatchId, \r\n        address indexed Manufacturer, \r\n        address shipper, \r\n        address indexed Reciever\r\n    );\r\n\r\n    function newBatch(\r\n        bytes32 Description,\r\n        bytes32 RawMatrials,\r\n        uint Quantity,\r\n        address Shipper,\r\n        address Receiver,\r\n        uint receivertype\r\n        ) public {\r\n    \r\n        require(\r\n            UsersDetails[msg.sender].role == roles.manufacturer,\r\n            \"Only manufacturer can call this function\"\r\n        );\r\n        require(\r\n            receivertype != 0,\r\n            \"Receiver Type must be define\"\r\n        );\r\n        bytes32 batchID = keccak256(abi.encodePacked(msg.sender, block.number, Quantity));\r\n        MedicineBatchDetails[batchID].batchid = batchID;\r\n        MedicineBatchDetails[batchID].description = Description;\r\n        MedicineBatchDetails[batchID].rawmatriales = RawMatrials;\r\n        MedicineBatchDetails[batchID].quantity = Quantity;\r\n        MedicineBatchDetails[batchID].shipper = Shipper;\r\n        MedicineBatchDetails[batchID].manufacturer = msg.sender;\r\n        MedicineBatchDetails[batchID].status = medicineStatus(0);\r\n        if(receivertype == 1){\r\n            MedicineBatchDetails[batchID].wholesaler = Receiver;\r\n        } else if(receivertype == 2){\r\n            MedicineBatchDetails[batchID].distributer = Receiver;\r\n        }\r\n\r\n        ManufacturerMedicineBatches[msg.sender].push(batchID);\r\n\r\n        emit MadicineNewBatch(batchID, msg.sender, Shipper, Receiver);\r\n    }\r\n\r\n    function getMadicineBatchCount() public view returns (uint count){\r\n        require(\r\n            UsersDetails[msg.sender].role == roles.manufacturer,\r\n            \"Only manufacturer can call this function\"\r\n        );\r\n        return RawProductAtManufacturer[msg.sender].length;\r\n    }\r\n\r\n    function getBatchIDByIndex(uint index) public view returns(bytes32 BatchID){\r\n        require(\r\n            UsersDetails[msg.sender].role == roles.manufacturer,\r\n            \"Only manufacturer can call this function\"\r\n        );\r\n        return RawProductAtManufacturer[msg.sender][index];\r\n    }\r\n\r\n    function getMadicineInfo(\r\n        bytes32 batchID\r\n    ) public \r\n    view\r\n    returns(\r\n        bytes32 Description,\r\n        bytes32 RawMatrials,\r\n        uint Quantity,\r\n        address Shipper,\r\n        address Manufacturer\r\n    ) {\r\n        return (\r\n            MedicineBatchDetails[batchID].description,\r\n            MedicineBatchDetails[batchID].rawmatriales,\r\n            MedicineBatchDetails[batchID].quantity,\r\n            MedicineBatchDetails[batchID].shipper,\r\n            MedicineBatchDetails[batchID].manufacturer\r\n        );\r\n    }\r\n\r\n    function getWDP(\r\n        bytes32 batchID\r\n    ) public\r\n    view\r\n    returns(\r\n        address Wholesaler,\r\n        address Distributer,\r\n        address Pharma\r\n    ) {\r\n        return (\r\n            MedicineBatchDetails[batchID].wholesaler,\r\n            MedicineBatchDetails[batchID].distributer,\r\n            MedicineBatchDetails[batchID].pharma\r\n        );\r\n    }\r\n\r\n    function getMedicineStatus(\r\n        bytes32 BatchID\r\n    ) public\r\n    view\r\n    returns (\r\n        uint status\r\n    ){\r\n        return uint(MedicineBatchDetails[BatchID].status);\r\n    }\r\n/********************************************** Wholesaler Section ****************************************/\r\n\r\n    mapping(address => bytes32[]) MedicineBatchAtWholesaler;\r\n\r\n    event MedicineReceive(\r\n        bytes32 indexed BathcID, \r\n        address indexed Sender,\r\n        address indexed Shipper,\r\n        address Receiver\r\n    );\r\n\r\n    function medicineReceived(bytes32 pid) public {\r\n        require(\r\n            UsersDetails[msg.sender].role == roles.wholesaler || UsersDetails[msg.sender].role == roles.distributer,\r\n            \"Only Wholesaler and Distributer can call this function\"\r\n        );\r\n        require(\r\n            MedicineBatchDetails[pid].batchid == pid,\r\n            \"Product does not exist\"\r\n        );\r\n        require(\r\n            uint(MedicineBatchDetails[pid].status) >= 1,\r\n            \"Product not picked up yet\"\r\n        );\r\n        \r\n        MedicineBatchDetails[pid].status = medicineStatus(uint(UsersDetails[msg.sender].role)-1);\r\n        if(UsersDetails[msg.sender].role == roles.wholesaler) {\r\n            require(\r\n                msg.sender == MedicineBatchDetails[pid].wholesaler,\r\n                \"Wholesaler is different\"\r\n            );\r\n            MedicineBatchAtWholesaler[msg.sender].push(pid);\r\n            emit MedicineReceive(pid, MedicineBatchDetails[pid].manufacturer, MedicineBatchDetails[pid].shipper,msg.sender);\r\n        }else if(UsersDetails[msg.sender].role == roles.distributer){\r\n            require(\r\n                msg.sender == MedicineBatchDetails[pid].distributer,\r\n                \"Distributer is different\"\r\n            );\r\n            if(MedicineBatchDetails[pid].wholesaler!=address(0)){\r\n                MedicineWtoD[pid].status = packageStatus(2);\r\n                emit MedicineReceive(pid, MedicineWtoD[pid].sender, MedicineWtoD[pid].shipper,msg.sender);\r\n            }else{\r\n                emit MedicineReceive(pid, MedicineBatchDetails[pid].manufacturer, MedicineBatchDetails[pid].shipper,msg.sender);\r\n            }\r\n            MedicineBatchAtDistributer[msg.sender].push(pid);\r\n        }\r\n        \r\n    }\r\n\r\n    struct Medicine_WtoD{\r\n        bytes32 batchid;\r\n        address sender;\r\n        address shipper;\r\n        address receiver;\r\n        packageStatus status;\r\n    }\r\n    mapping(bytes32 => Medicine_WtoD) MedicineWtoD;\r\n\r\n    event MedicineTransportWtoD(\r\n        bytes32 indexed BatchID,\r\n        address indexed Shipper,\r\n        address indexed Receiver,\r\n        address Sender\r\n    );\r\n\r\n    function shipMedicineWtoD(\r\n        bytes32 BatchID,\r\n        address Shipper,\r\n        address Receiver\r\n    ) public \r\n    {\r\n        require(\r\n            UsersDetails[msg.sender].role == roles.wholesaler && msg.sender == MedicineBatchDetails[BatchID].wholesaler,\r\n            \"Only Wholesaler or current owner of package can call this function\"\r\n        );\r\n        MedicineWtoD[BatchID].batchid = BatchID;\r\n        MedicineWtoD[BatchID].shipper = Shipper;\r\n        MedicineWtoD[BatchID].receiver = Receiver;\r\n        MedicineWtoD[BatchID].status = packageStatus(0);\r\n        MedicineWtoD[BatchID].sender = msg.sender;\r\n        MedicineBatchDetails[BatchID].distributer = Receiver;\r\n        MedicineBatchDetails[BatchID].status = medicineStatus(2);\r\n        \r\n        emit MedicineTransportWtoD(BatchID, Shipper, Receiver, msg.sender);\r\n    }\r\n\r\n    function shipInfoWtoD(\r\n        bytes32 BatchID\r\n    ) public\r\n    view\r\n    returns(\r\n        address shipper,\r\n        address receiver,\r\n        uint status\r\n    ) {\r\n        return (\r\n            MedicineWtoD[BatchID].shipper,\r\n            MedicineWtoD[BatchID].receiver,\r\n            uint(MedicineWtoD[BatchID].status)\r\n        );\r\n    }\r\n\r\n    function getBatchIdCountW() public view returns(uint count){\r\n        require(\r\n            UsersDetails[msg.sender].role == roles.wholesaler,\r\n            \"Only Wholesaler or current owner of package can call this function\"\r\n        );\r\n        return  MedicineBatchAtWholesaler[msg.sender].length;\r\n    }\r\n\r\n    function getBatchIdByIndexW(uint index) public view returns(bytes32 BatchID){\r\n        require(\r\n            UsersDetails[msg.sender].role == roles.wholesaler,\r\n            \"Only Wholesaler or current owner of package can call this function\"\r\n        );\r\n        return MedicineBatchAtWholesaler[msg.sender][index];\r\n    }\r\n\r\n/********************************************** Distributer Section ***************************************/\r\n    mapping(address => bytes32[]) MedicineBatchAtDistributer;\r\n\r\n    event MedicineShipToPharma(\r\n        bytes32 indexed BatchID,\r\n        address indexed Shipper,\r\n        address indexed Receiver,\r\n        address Sender\r\n    );\r\n\r\n    struct Medicine_DtoR{\r\n        bytes32 batchid;\r\n        address shipper;\r\n        address receiver;\r\n        address sender;\r\n        packageStatus status;\r\n    }\r\n    mapping(bytes32 => Medicine_DtoR) MedicineDtoR;\r\n\r\n    function shipMedicineDtoP(\r\n        bytes32 BatchID,\r\n        address Shipper,\r\n        address Receiver\r\n    ) public \r\n    {\r\n        require(\r\n            UsersDetails[msg.sender].role == roles.distributer && msg.sender == MedicineBatchDetails[BatchID].distributer,\r\n            \"Only Distributer or current owner of package can call this function\"\r\n        );\r\n        MedicineDtoR[BatchID].batchid = BatchID;\r\n        MedicineDtoR[BatchID].shipper = Shipper;\r\n        MedicineDtoR[BatchID].receiver = Receiver;\r\n        MedicineDtoR[BatchID].status = packageStatus(0);\r\n        MedicineDtoR[BatchID].sender = msg.sender;\r\n        MedicineBatchDetails[BatchID].pharma = Receiver;\r\n        // MedicineBatchDetails[BatchID].status = medicineStatus(5);\r\n\r\n        emit MedicineShipToPharma(BatchID, Shipper, Receiver, msg.sender);\r\n    }\r\n\r\n    function shipInfoDtoP(\r\n        bytes32 BatchID\r\n    ) public\r\n    view\r\n    returns(\r\n        address shipper,\r\n        address receiver,\r\n        uint status\r\n    ) {\r\n        return (\r\n            MedicineDtoR[BatchID].shipper,\r\n            MedicineDtoR[BatchID].receiver,\r\n            uint(MedicineDtoR[BatchID].status)\r\n        );\r\n    }\r\n\r\n    function getBatchIdCountD() public view returns(uint count){\r\n        require(\r\n            UsersDetails[msg.sender].role == roles.distributer,\r\n            \"Only Wholesaler or current owner of package can call this function\"\r\n        );\r\n        return  MedicineBatchAtDistributer[msg.sender].length;\r\n    }\r\n\r\n    function getBatchIdByIndexD(uint index) public view returns(bytes32 BatchID){\r\n        require(\r\n            UsersDetails[msg.sender].role == roles.distributer,\r\n            \"Only Wholesaler or current owner of package can call this function\"\r\n        );\r\n        return MedicineBatchAtDistributer[msg.sender][index];\r\n    }\r\n/********************************************** Pharma Section ******************************************/\r\n    enum salestatus{ notfound, atpharma, sold, expire, damaged}\r\n    mapping(address => bytes32[]) MedicineBatchAtPharma;\r\n    mapping(bytes32 => salestatus) sale;\r\n\r\n    event MedicineReceiveAtPharma(\r\n        bytes32 indexed BatchID,\r\n        address indexed Shipper,\r\n        address indexed Sender,\r\n        address Receiver\r\n    );\r\n    event MedicineStatus(\r\n        bytes32 BatchID,\r\n        address indexed Pharma,\r\n        uint status\r\n    );\r\n\r\n    function receiveMedicineFormD(\r\n        bytes32 BatchID\r\n    ) public {\r\n        require(\r\n            UsersDetails[msg.sender].role == roles.pharma && msg.sender == MedicineBatchDetails[BatchID].pharma,\r\n            \"Only Pharma or current owner of package can call this function\"\r\n        );\r\n        MedicineDtoR[BatchID].status = packageStatus(2);\r\n        MedicineBatchDetails[BatchID].status = medicineStatus(6);\r\n        MedicineBatchAtPharma[msg.sender].push(BatchID);\r\n        sale[BatchID] = salestatus(1);\r\n\r\n        emit MedicineReceiveAtPharma(BatchID, MedicineDtoR[BatchID].shipper, MedicineDtoR[BatchID].sender, msg.sender);\r\n    }\r\n\r\n    function updateSaleStatus(\r\n        bytes32 BatchID,\r\n        uint Status\r\n    ) public {\r\n        require(\r\n            UsersDetails[msg.sender].role == roles.pharma && msg.sender == MedicineBatchDetails[BatchID].pharma,\r\n            \"Only Pharma or current owner of package can call this function\"\r\n        );\r\n        require(sale[BatchID] == salestatus(1), \"Medicine Must be at Pharma\");\r\n        sale[BatchID] = salestatus(Status);\r\n\r\n        emit MedicineStatus(BatchID, msg.sender, Status);\r\n    }\r\n\r\n    function salesInfo(\r\n        bytes32 BatchID\r\n    ) public \r\n    view\r\n    returns(\r\n        uint Status\r\n    ){\r\n        return uint(sale[BatchID]);\r\n    }\r\n\r\n    function getBatchIdCountP() public view returns(uint count){\r\n        require(\r\n            UsersDetails[msg.sender].role == roles.pharma,\r\n            \"Only Wholesaler or current owner of package can call this function\"\r\n        );\r\n        return  MedicineBatchAtPharma[msg.sender].length;\r\n    }\r\n\r\n    function getBatchIdByIndexP(uint index) public view returns(bytes32 BatchID){\r\n        require(\r\n            UsersDetails[msg.sender].role == roles.pharma,\r\n            \"Only Wholesaler or current owner of package can call this function\"\r\n        );\r\n        return MedicineBatchAtPharma[msg.sender][index];\r\n    }\r\n}",
  "sourcePath": "D:\\Notes BE\\Sem_3_1\\BITS F452 (Blockchain)\\Proj\\ours\\contracts\\SupplyChain_old.sol",
  "compiler": {
    "name": "solc",
    "version": "0.8.0+commit.c7dfd78e.Emscripten.clang"
  },
  "schemaVersion": "3.4.16",
  "updatedAt": "2023-11-16T18:17:39.551Z",
  "devdoc": {
    "kind": "dev",
    "methods": {},
    "version": 1
  },
  "userdoc": {
    "kind": "user",
    "methods": {},
    "version": 1
  }
}