{
  "contractName": "SupplyChain",
  "abi": [
    {
      "inputs": [],
      "stateMutability": "nonpayable",
      "type": "constructor"
    },
    {
      "anonymous": false,
      "inputs": [
        {
          "indexed": true,
          "internalType": "address",
          "name": "BatchId",
          "type": "address"
        },
        {
          "indexed": true,
          "internalType": "address",
          "name": "Manufacturer",
          "type": "address"
        },
        {
          "indexed": false,
          "internalType": "address",
          "name": "shipper",
          "type": "address"
        },
        {
          "indexed": true,
          "internalType": "address",
          "name": "Receiver",
          "type": "address"
        }
      ],
      "name": "MadicineNewBatch",
      "type": "event"
    },
    {
      "anonymous": false,
      "inputs": [
        {
          "indexed": false,
          "internalType": "address",
          "name": "BatchID",
          "type": "address"
        },
        {
          "indexed": true,
          "internalType": "address",
          "name": "Pharma",
          "type": "address"
        },
        {
          "indexed": false,
          "internalType": "uint256",
          "name": "status",
          "type": "uint256"
        }
      ],
      "name": "MadicineStatus",
      "type": "event"
    },
    {
      "anonymous": false,
      "inputs": [
        {
          "indexed": true,
          "internalType": "address",
          "name": "ProductID",
          "type": "address"
        },
        {
          "indexed": true,
          "internalType": "address",
          "name": "Supplier",
          "type": "address"
        },
        {
          "indexed": false,
          "internalType": "address",
          "name": "Shipper",
          "type": "address"
        },
        {
          "indexed": true,
          "internalType": "address",
          "name": "Receiver",
          "type": "address"
        }
      ],
      "name": "RawSupplyInit",
      "type": "event"
    },
    {
      "anonymous": false,
      "inputs": [
        {
          "indexed": true,
          "internalType": "address",
          "name": "EthAddress",
          "type": "address"
        },
        {
          "indexed": false,
          "internalType": "bytes32",
          "name": "Name",
          "type": "bytes32"
        }
      ],
      "name": "UserRegister",
      "type": "event"
    },
    {
      "anonymous": false,
      "inputs": [
        {
          "indexed": true,
          "internalType": "address",
          "name": "EthAddress",
          "type": "address"
        },
        {
          "indexed": false,
          "internalType": "bytes32",
          "name": "Name",
          "type": "bytes32"
        },
        {
          "indexed": false,
          "internalType": "uint256",
          "name": "Role",
          "type": "uint256"
        }
      ],
      "name": "UserRoleRessigne",
      "type": "event"
    },
    {
      "anonymous": false,
      "inputs": [
        {
          "indexed": true,
          "internalType": "address",
          "name": "EthAddress",
          "type": "address"
        },
        {
          "indexed": false,
          "internalType": "bytes32",
          "name": "Name",
          "type": "bytes32"
        },
        {
          "indexed": false,
          "internalType": "uint256",
          "name": "Role",
          "type": "uint256"
        }
      ],
      "name": "UserRoleRevoked",
      "type": "event"
    },
    {
      "inputs": [],
      "name": "Owner",
      "outputs": [
        {
          "internalType": "address",
          "name": "",
          "type": "address"
        }
      ],
      "stateMutability": "view",
      "type": "function",
      "constant": true
    },
    {
      "inputs": [
        {
          "internalType": "address",
          "name": "EthAddress",
          "type": "address"
        },
        {
          "internalType": "bytes32",
          "name": "Name",
          "type": "bytes32"
        },
        {
          "internalType": "bytes32",
          "name": "Location",
          "type": "bytes32"
        },
        {
          "internalType": "uint256",
          "name": "Role",
          "type": "uint256"
        }
      ],
      "name": "registerUser",
      "outputs": [],
      "stateMutability": "nonpayable",
      "type": "function"
    },
    {
      "inputs": [
        {
          "internalType": "address",
          "name": "userAddress",
          "type": "address"
        }
      ],
      "name": "revokeRole",
      "outputs": [],
      "stateMutability": "nonpayable",
      "type": "function"
    },
    {
      "inputs": [
        {
          "internalType": "address",
          "name": "userAddress",
          "type": "address"
        },
        {
          "internalType": "uint256",
          "name": "Role",
          "type": "uint256"
        }
      ],
      "name": "reassigneRole",
      "outputs": [],
      "stateMutability": "nonpayable",
      "type": "function"
    },
    {
      "inputs": [
        {
          "internalType": "address",
          "name": "User",
          "type": "address"
        }
      ],
      "name": "getUserInfo",
      "outputs": [
        {
          "internalType": "bytes32",
          "name": "name",
          "type": "bytes32"
        },
        {
          "internalType": "bytes32",
          "name": "location",
          "type": "bytes32"
        },
        {
          "internalType": "address",
          "name": "ethAddress",
          "type": "address"
        },
        {
          "internalType": "enum SupplyChain.roles",
          "name": "role",
          "type": "uint8"
        }
      ],
      "stateMutability": "view",
      "type": "function",
      "constant": true
    },
    {
      "inputs": [],
      "name": "getUsersCount",
      "outputs": [
        {
          "internalType": "uint256",
          "name": "count",
          "type": "uint256"
        }
      ],
      "stateMutability": "view",
      "type": "function",
      "constant": true
    },
    {
      "inputs": [
        {
          "internalType": "uint256",
          "name": "index",
          "type": "uint256"
        }
      ],
      "name": "getUserbyIndex",
      "outputs": [
        {
          "internalType": "bytes32",
          "name": "name",
          "type": "bytes32"
        },
        {
          "internalType": "bytes32",
          "name": "location",
          "type": "bytes32"
        },
        {
          "internalType": "address",
          "name": "ethAddress",
          "type": "address"
        },
        {
          "internalType": "enum SupplyChain.roles",
          "name": "role",
          "type": "uint8"
        }
      ],
      "stateMutability": "view",
      "type": "function",
      "constant": true
    },
    {
      "inputs": [
        {
          "internalType": "bytes32",
          "name": "Des",
          "type": "bytes32"
        },
        {
          "internalType": "bytes32",
          "name": "FN",
          "type": "bytes32"
        },
        {
          "internalType": "bytes32",
          "name": "Loc",
          "type": "bytes32"
        },
        {
          "internalType": "uint256",
          "name": "Quant",
          "type": "uint256"
        },
        {
          "internalType": "address",
          "name": "Shpr",
          "type": "address"
        },
        {
          "internalType": "address",
          "name": "Rcvr",
          "type": "address"
        }
      ],
      "name": "createRawPackage",
      "outputs": [],
      "stateMutability": "nonpayable",
      "type": "function"
    },
    {
      "inputs": [],
      "name": "getPackagesCountS",
      "outputs": [
        {
          "internalType": "uint256",
          "name": "count",
          "type": "uint256"
        }
      ],
      "stateMutability": "view",
      "type": "function",
      "constant": true
    },
    {
      "inputs": [
        {
          "internalType": "uint256",
          "name": "index",
          "type": "uint256"
        }
      ],
      "name": "getPackageIdByIndexS",
      "outputs": [
        {
          "internalType": "address",
          "name": "packageID",
          "type": "address"
        }
      ],
      "stateMutability": "view",
      "type": "function",
      "constant": true
    },
    {
      "inputs": [
        {
          "internalType": "address",
          "name": "pid",
          "type": "address"
        },
        {
          "internalType": "uint256",
          "name": "transportertype",
          "type": "uint256"
        },
        {
          "internalType": "address",
          "name": "cid",
          "type": "address"
        }
      ],
      "name": "loadConsingment",
      "outputs": [],
      "stateMutability": "nonpayable",
      "type": "function"
    },
    {
      "inputs": [
        {
          "internalType": "address",
          "name": "pid",
          "type": "address"
        }
      ],
      "name": "rawPackageReceived",
      "outputs": [],
      "stateMutability": "nonpayable",
      "type": "function"
    },
    {
      "inputs": [],
      "name": "getPackagesCountM",
      "outputs": [
        {
          "internalType": "uint256",
          "name": "count",
          "type": "uint256"
        }
      ],
      "stateMutability": "view",
      "type": "function",
      "constant": true
    },
    {
      "inputs": [
        {
          "internalType": "uint256",
          "name": "index",
          "type": "uint256"
        }
      ],
      "name": "getPackageIDByIndexM",
      "outputs": [
        {
          "internalType": "address",
          "name": "BatchID",
          "type": "address"
        }
      ],
      "stateMutability": "view",
      "type": "function",
      "constant": true
    },
    {
      "inputs": [
        {
          "internalType": "bytes32",
          "name": "Des",
          "type": "bytes32"
        },
        {
          "internalType": "bytes32",
          "name": "RM",
          "type": "bytes32"
        },
        {
          "internalType": "address",
          "name": "RawMaterialAddres",
          "type": "address"
        },
        {
          "internalType": "uint256",
          "name": "Quant",
          "type": "uint256"
        },
        {
          "internalType": "address",
          "name": "Shpr",
          "type": "address"
        },
        {
          "internalType": "address",
          "name": "Rcvr",
          "type": "address"
        },
        {
          "internalType": "uint256",
          "name": "RcvrType",
          "type": "uint256"
        }
      ],
      "name": "manufacturMadicine",
      "outputs": [],
      "stateMutability": "nonpayable",
      "type": "function"
    },
    {
      "inputs": [],
      "name": "getBatchesCountM",
      "outputs": [
        {
          "internalType": "uint256",
          "name": "count",
          "type": "uint256"
        }
      ],
      "stateMutability": "view",
      "type": "function",
      "constant": true
    },
    {
      "inputs": [
        {
          "internalType": "uint256",
          "name": "index",
          "type": "uint256"
        }
      ],
      "name": "getBatchIdByIndexM",
      "outputs": [
        {
          "internalType": "address",
          "name": "packageID",
          "type": "address"
        }
      ],
      "stateMutability": "view",
      "type": "function",
      "constant": true
    },
    {
      "inputs": [
        {
          "internalType": "address",
          "name": "batchid",
          "type": "address"
        },
        {
          "internalType": "address",
          "name": "cid",
          "type": "address"
        }
      ],
      "name": "madicineReceived",
      "outputs": [],
      "stateMutability": "nonpayable",
      "type": "function"
    },
    {
      "inputs": [
        {
          "internalType": "address",
          "name": "BatchID",
          "type": "address"
        },
        {
          "internalType": "address",
          "name": "Shipper",
          "type": "address"
        },
        {
          "internalType": "address",
          "name": "Receiver",
          "type": "address"
        }
      ],
      "name": "transferMadicineWtoD",
      "outputs": [],
      "stateMutability": "nonpayable",
      "type": "function"
    },
    {
      "inputs": [],
      "name": "getBatchesCountWD",
      "outputs": [
        {
          "internalType": "uint256",
          "name": "count",
          "type": "uint256"
        }
      ],
      "stateMutability": "view",
      "type": "function",
      "constant": true
    },
    {
      "inputs": [
        {
          "internalType": "uint256",
          "name": "index",
          "type": "uint256"
        }
      ],
      "name": "getBatchIdByIndexWD",
      "outputs": [
        {
          "internalType": "address",
          "name": "packageID",
          "type": "address"
        }
      ],
      "stateMutability": "view",
      "type": "function",
      "constant": true
    },
    {
      "inputs": [
        {
          "internalType": "address",
          "name": "BatchID",
          "type": "address"
        }
      ],
      "name": "getSubContractWD",
      "outputs": [
        {
          "internalType": "address",
          "name": "SubContractWD",
          "type": "address"
        }
      ],
      "stateMutability": "view",
      "type": "function",
      "constant": true
    },
    {
      "inputs": [],
      "name": "getBatchesCountW",
      "outputs": [
        {
          "internalType": "uint256",
          "name": "count",
          "type": "uint256"
        }
      ],
      "stateMutability": "view",
      "type": "function",
      "constant": true
    },
    {
      "inputs": [
        {
          "internalType": "uint256",
          "name": "index",
          "type": "uint256"
        }
      ],
      "name": "getBatchIdByIndexW",
      "outputs": [
        {
          "internalType": "address",
          "name": "packageID",
          "type": "address"
        }
      ],
      "stateMutability": "view",
      "type": "function",
      "constant": true
    },
    {
      "inputs": [
        {
          "internalType": "address",
          "name": "BatchID",
          "type": "address"
        },
        {
          "internalType": "address",
          "name": "Shipper",
          "type": "address"
        },
        {
          "internalType": "address",
          "name": "Receiver",
          "type": "address"
        }
      ],
      "name": "transferMadicineDtoP",
      "outputs": [],
      "stateMutability": "nonpayable",
      "type": "function"
    },
    {
      "inputs": [],
      "name": "getBatchesCountDP",
      "outputs": [
        {
          "internalType": "uint256",
          "name": "count",
          "type": "uint256"
        }
      ],
      "stateMutability": "view",
      "type": "function",
      "constant": true
    },
    {
      "inputs": [
        {
          "internalType": "uint256",
          "name": "index",
          "type": "uint256"
        }
      ],
      "name": "getBatchIdByIndexDP",
      "outputs": [
        {
          "internalType": "address",
          "name": "packageID",
          "type": "address"
        }
      ],
      "stateMutability": "view",
      "type": "function",
      "constant": true
    },
    {
      "inputs": [
        {
          "internalType": "address",
          "name": "BatchID",
          "type": "address"
        }
      ],
      "name": "getSubContractDP",
      "outputs": [
        {
          "internalType": "address",
          "name": "SubContractDP",
          "type": "address"
        }
      ],
      "stateMutability": "view",
      "type": "function",
      "constant": true
    },
    {
      "inputs": [],
      "name": "getBatchesCountD",
      "outputs": [
        {
          "internalType": "uint256",
          "name": "count",
          "type": "uint256"
        }
      ],
      "stateMutability": "view",
      "type": "function",
      "constant": true
    },
    {
      "inputs": [
        {
          "internalType": "uint256",
          "name": "index",
          "type": "uint256"
        }
      ],
      "name": "getBatchIdByIndexD",
      "outputs": [
        {
          "internalType": "address",
          "name": "packageID",
          "type": "address"
        }
      ],
      "stateMutability": "view",
      "type": "function",
      "constant": true
    },
    {
      "inputs": [
        {
          "internalType": "address",
          "name": "batchid",
          "type": "address"
        },
        {
          "internalType": "address",
          "name": "cid",
          "type": "address"
        }
      ],
      "name": "madicineRecievedAtPharma",
      "outputs": [],
      "stateMutability": "nonpayable",
      "type": "function"
    },
    {
      "inputs": [
        {
          "internalType": "address",
          "name": "BatchID",
          "type": "address"
        },
        {
          "internalType": "address",
          "name": "Shipper",
          "type": "address"
        },
        {
          "internalType": "address",
          "name": "Receiver",
          "type": "address"
        }
      ],
      "name": "transferMadicinePtoC",
      "outputs": [],
      "stateMutability": "nonpayable",
      "type": "function"
    },
    {
      "inputs": [
        {
          "internalType": "address",
          "name": "BatchID",
          "type": "address"
        },
        {
          "internalType": "uint256",
          "name": "Status",
          "type": "uint256"
        }
      ],
      "name": "updateSaleStatus",
      "outputs": [],
      "stateMutability": "nonpayable",
      "type": "function"
    },
    {
      "inputs": [
        {
          "internalType": "address",
          "name": "BatchID",
          "type": "address"
        }
      ],
      "name": "salesInfo",
      "outputs": [
        {
          "internalType": "uint256",
          "name": "Status",
          "type": "uint256"
        }
      ],
      "stateMutability": "view",
      "type": "function",
      "constant": true
    },
    {
      "inputs": [],
      "name": "getBatchesCountPC",
      "outputs": [
        {
          "internalType": "uint256",
          "name": "count",
          "type": "uint256"
        }
      ],
      "stateMutability": "view",
      "type": "function",
      "constant": true
    },
    {
      "inputs": [
        {
          "internalType": "uint256",
          "name": "index",
          "type": "uint256"
        }
      ],
      "name": "getBatchIdByIndexPC",
      "outputs": [
        {
          "internalType": "address",
          "name": "packageID",
          "type": "address"
        }
      ],
      "stateMutability": "view",
      "type": "function",
      "constant": true
    },
    {
      "inputs": [
        {
          "internalType": "address",
          "name": "BatchID",
          "type": "address"
        }
      ],
      "name": "getSubContractPC",
      "outputs": [
        {
          "internalType": "address",
          "name": "SubContractPC",
          "type": "address"
        }
      ],
      "stateMutability": "view",
      "type": "function",
      "constant": true
    },
    {
      "inputs": [],
      "name": "getBatchesCountP",
      "outputs": [
        {
          "internalType": "uint256",
          "name": "count",
          "type": "uint256"
        }
      ],
      "stateMutability": "view",
      "type": "function",
      "constant": true
    },
    {
      "inputs": [
        {
          "internalType": "uint256",
          "name": "index",
          "type": "uint256"
        }
      ],
      "name": "getBatchIdByIndexP",
      "outputs": [
        {
          "internalType": "address",
          "name": "BatchID",
          "type": "address"
        }
      ],
      "stateMutability": "view",
      "type": "function",
      "constant": true
    },
    {
      "inputs": [
        {
          "internalType": "address",
          "name": "batchid",
          "type": "address"
        },
        {
          "internalType": "address",
          "name": "cid",
          "type": "address"
        }
      ],
      "name": "madicineRecievedByCustomer",
      "outputs": [],
      "stateMutability": "nonpayable",
      "type": "function"
    },
    {
      "inputs": [
        {
          "internalType": "address",
          "name": "batchid",
          "type": "address"
        }
      ],
      "name": "getMedicineBatchInfo",
      "outputs": [
        {
          "components": [
            {
              "internalType": "bytes32",
              "name": "farmer_name",
              "type": "bytes32"
            },
            {
              "internalType": "bytes32",
              "name": "farm_location",
              "type": "bytes32"
            },
            {
              "internalType": "uint256",
              "name": "RawMaterialArrivalTimeAtManufacturer",
              "type": "uint256"
            }
          ],
          "internalType": "struct MyLibrary.rawMaterialInfo",
          "name": "rawMaterialsInfo",
          "type": "tuple"
        },
        {
          "components": [
            {
              "internalType": "bytes32",
              "name": "Description",
              "type": "bytes32"
            },
            {
              "internalType": "bytes32",
              "name": "RawMaterials",
              "type": "bytes32"
            },
            {
              "internalType": "uint256",
              "name": "ManufacturingTime",
              "type": "uint256"
            },
            {
              "internalType": "uint256",
              "name": "ExpiryTime",
              "type": "uint256"
            },
            {
              "internalType": "bytes32",
              "name": "ManufacturingLocation",
              "type": "bytes32"
            },
            {
              "internalType": "uint256",
              "name": "QualityCheckTime",
              "type": "uint256"
            },
            {
              "internalType": "uint256",
              "name": "ArrivalTimeAtWholesaler",
              "type": "uint256"
            },
            {
              "internalType": "uint256",
              "name": "ArrivalTimeAtDistributer",
              "type": "uint256"
            },
            {
              "internalType": "uint256",
              "name": "ArrivalTimeAtPharma",
              "type": "uint256"
            },
            {
              "internalType": "uint256",
              "name": "SaleTime",
              "type": "uint256"
            },
            {
              "internalType": "enum MyLibrary.madicineStatus",
              "name": "Status",
              "type": "uint8"
            }
          ],
          "internalType": "struct MyLibrary.medicineBasicInfo",
          "name": "BasicInfo",
          "type": "tuple"
        },
        {
          "internalType": "bytes32",
          "name": "WholesalerLocation",
          "type": "bytes32"
        },
        {
          "internalType": "bytes32",
          "name": "DistributerLocation",
          "type": "bytes32"
        },
        {
          "internalType": "bytes32",
          "name": "PharmaLocation",
          "type": "bytes32"
        }
      ],
      "stateMutability": "view",
      "type": "function",
      "constant": true
    }
  ],
  "bytecode": "0x608060405234801561001057600080fd5b50600080546001600160a01b03191633179055615743806100326000396000f3fe60806040523480156200001157600080fd5b50600436106200028c5760003560e01c8063923f645a1162000165578063bc8c5b1c11620000d5578063e95690aa1162000093578063e95690aa1462000575578063eae3c207146200058c578063f05bcd4e14620005a3578063f4d45dbe14620005ba578063f9723eb614620005d1578063fcbc5f4414620005e8576200028c565b8063bc8c5b1c146200051c578063cbe4f5ac1462000533578063d40da967146200053d578063e581762e1462000554578063e5bff92a146200055e576200028c565b8063a3a1d6c31162000123578063a3a1d6c314620004d0578063a4a1e26314620004da578063b4a99a4e14620004e4578063b6c022f514620004ee578063bb8ee1c51462000505576200028c565b8063923f645a1462000477578063986c9139146200048e5780639af035a314620004a55780639f696b3514620004bc5780639fb3a90314620004c6576200028c565b806337caa450116200020157806373f08eb311620001bf57806373f08eb314620003fe57806376e903aa1462000415578063798c8fd0146200042c57806380e52e3f1462000456578063884b9c52146200046d576200028c565b806337caa45014620003a5578063381a3fa914620003af5780633d66f86d14620003c65780635e33cea414620003d05780636386c1c714620003e7576200028c565b80632246e4d4116200024f5780632246e4d414620003305780632becfd04146200034757806331dbe6a11462000360578063347590161462000377578063373d5c18146200038e576200028c565b8063034d54ac14620002915780630bcc756814620002aa5780630cd48d8114620002d9578063108329f814620002f05780631a22027e1462000319575b600080fd5b620002a8620002a236600462002a3f565b620005ff565b005b620002c1620002bb36600462002c77565b62000782565b604051620002d0919062002cb8565b60405180910390f35b620002a8620002ea36600462002875565b62000830565b620003076200030136600462002c77565b6200097f565b604051620002d0949392919062002dc6565b620002c16200032a3660046200284f565b620009d5565b620002a86200034136600462002875565b620009f3565b6200035162000c9e565b604051620002d0919062002dbd565b620002c16200037136600462002c77565b62000d13565b620002c1620003883660046200284f565b62000da4565b620002a86200039f36600462002940565b62000dc2565b6200035162000f51565b620002c1620003c036600462002c77565b62000fc6565b6200035162001057565b620002c1620003e136600462002c77565b620010cc565b62000307620003f83660046200284f565b6200115d565b620002a86200040f3660046200296e565b62001199565b620002c16200042636600462002c77565b62001373565b620004436200043d3660046200284f565b62001404565b604051620002d095949392919062003399565b620002a8620004673660046200284f565b62001564565b62000351620016ac565b620002a86200048836600462002903565b62001721565b620002c16200049f36600462002c77565b620018ec565b620002c1620004b636600462002c77565b6200197d565b6200035162001a0e565b6200035162001a83565b6200035162001af8565b6200035162001b6d565b620002c162001b73565b620002c1620004ff3660046200284f565b62001b82565b62000351620005163660046200284f565b62001ba0565b620002a86200052d3660046200284f565b62001be2565b6200035162001ce3565b620002a86200054e36600462002ab7565b62001d58565b6200035162001e85565b620002c16200056f36600462002c77565b62001efa565b620002a862000586366004620028b2565b62001f8b565b620002a86200059d36600462002940565b6200210f565b620002c1620005b436600462002c77565b620022fd565b620002a8620005cb36600462002875565b6200238e565b620002a8620005e2366004620028b2565b62002455565b620002a8620005f9366004620028b2565b620025dc565b600333600090815260016020526040902060020154600160a01b900460ff1660088111156200063e57634e487b7160e01b600052602160045260246000fd5b14620006675760405162461bcd60e51b81526004016200065e90620031ea565b60405180910390fd5b80620006875760405162461bcd60e51b81526004016200065e9062002f4e565b6000338888888888888860016000336001600160a01b03166001600160a01b0316815260200190815260200160002060010154604051620006c89062002772565b620006dc9998979695949392919062002d11565b604051809103906000f080158015620006f9573d6000803e3d6000fd5b503360008181526005602090815260408083208054600181018255908452919092200180546001600160a01b0319166001600160a01b0385811691821790925591519394508616927f3279bc96fc4eda86f9fb5456b29ecd9eea4e798e299023b438f7025e6760d5f2906200077090899062002cb8565b60405180910390a45050505050505050565b6000600333600090815260016020526040902060020154600160a01b900460ff166008811115620007c357634e487b7160e01b600052602160045260246000fd5b14620007e35760405162461bcd60e51b81526004016200065e90620031ea565b3360009081526004602052604090208054839081106200081357634e487b7160e01b600052603260045260246000fd5b6000918252602090912001546001600160a01b031690505b919050565b600633600090815260016020526040902060020154600160a01b900460ff1660088111156200086f57634e487b7160e01b600052602160045260246000fd5b146200088f5760405162461bcd60e51b81526004016200065e9062002f0b565b6040516219530760e91b81526001600160a01b038216906332a60e0090620008be908590339060040162002ccc565b600060405180830381600087803b158015620008d957600080fd5b505af1158015620008ee573d6000803e3d6000fd5b5050336000908152600c602090815260408220805460018082018355918452919092200180546001600160a01b0319166001600160a01b0387161790559150620009359050565b6001600160a01b0383166000908152600f60205260409020805460ff191660018360048111156200097657634e487b7160e01b600052602160045260246000fd5b02179055505050565b600080600080620009c660028681548110620009ab57634e487b7160e01b600052603260045260246000fd5b6000918252602090912001546001600160a01b03166200115d565b93509350935093509193509193565b6001600160a01b039081166000908152600e60205260409020541690565b600433600090815260016020526040902060020154600160a01b900460ff16600881111562000a3257634e487b7160e01b600052602160045260246000fd5b148062000a7b5750600533600090815260016020526040902060020154600160a01b900460ff16600881111562000a7957634e487b7160e01b600052602160045260246000fd5b145b62000a9a5760405162461bcd60e51b81526004016200065e9062002f85565b604051630a57332d60e31b81526000906001600160a01b038416906352b999689062000acb90339060040162002cb8565b602060405180830381600087803b15801562000ae657600080fd5b505af115801562000afb573d6000803e3d6000fd5b505050506040513d601f19601f8201168201806040525081019062000b21919062002c90565b9050806001141562000b6b573360009081526006602090815260408220805460018101825590835291200180546001600160a01b0319166001600160a01b03851617905562000c99565b806002141562000c9957336000908152600960209081526040808320805460018101825590845291832090910180546001600160a01b0319166001600160a01b038716908117909155815162d4d11f60e11b8152915190916301a9a23e916004808301926080929190829003018186803b15801562000be957600080fd5b505afa15801562000bfe573d6000803e3d6000fd5b505050506040513d601f19601f8201168201806040525081019062000c249190620029a9565b516001600160a01b03161462000c995760405163f4c0722960e01b81526001600160a01b0383169063f4c072299062000c64908690339060040162002ccc565b600060405180830381600087803b15801562000c7f57600080fd5b505af115801562000c94573d6000803e3d6000fd5b505050505b505050565b6000600133600090815260016020526040902060020154600160a01b900460ff16600881111562000cdf57634e487b7160e01b600052602160045260246000fd5b1462000cff5760405162461bcd60e51b81526004016200065e9062003232565b503360009081526003602052604090205490565b6000600533600090815260016020526040902060020154600160a01b900460ff16600881111562000d5457634e487b7160e01b600052602160045260246000fd5b1462000d745760405162461bcd60e51b81526004016200065e9062003139565b3360009081526009602052604090208054839081106200081357634e487b7160e01b600052603260045260246000fd5b6001600160a01b039081166000908152600860205260409020541690565b6000546001600160a01b0316331462000def5760405162461bcd60e51b81526004016200065e9062002e0b565b60006001600160a01b038316600090815260016020526040902060020154600160a01b900460ff16600881111562000e3757634e487b7160e01b600052602160045260246000fd5b141562000e585760405162461bcd60e51b81526004016200065e9062002e95565b80600881111562000e7957634e487b7160e01b600052602160045260246000fd5b6001600160a01b0383166000908152600160205260409020600201805460ff60a01b1916600160a01b83600881111562000ec357634e487b7160e01b600052602160045260246000fd5b02179055506001600160a01b038216600081815260016020526040902080546002909101547f4c8b3f61ed94356876db0fec52d6a7c6aeaf772c4e0ca8f6da74331cc0f687cc9190600160a01b900460ff16600881111562000f3557634e487b7160e01b600052602160045260246000fd5b60405162000f4592919062002dfd565b60405180910390a25050565b6000600433600090815260016020526040902060020154600160a01b900460ff16600881111562000f9257634e487b7160e01b600052602160045260246000fd5b1462000fb25760405162461bcd60e51b81526004016200065e9062003277565b503360009081526006602052604090205490565b6000600633600090815260016020526040902060020154600160a01b900460ff1660088111156200100757634e487b7160e01b600052602160045260246000fd5b14620010275760405162461bcd60e51b81526004016200065e90620030f6565b336000908152600d602052604090208054839081106200081357634e487b7160e01b600052603260045260246000fd5b6000600333600090815260016020526040902060020154600160a01b900460ff1660088111156200109857634e487b7160e01b600052602160045260246000fd5b14620010b85760405162461bcd60e51b81526004016200065e9062002ec2565b503360009081526005602052604090205490565b6000600133600090815260016020526040902060020154600160a01b900460ff1660088111156200110d57634e487b7160e01b600052602160045260246000fd5b146200112d5760405162461bcd60e51b81526004016200065e9062003232565b3360009081526003602052604090208054839081106200081357634e487b7160e01b600052603260045260246000fd5b6001600160a01b03908116600090815260016020819052604090912080549181015460029091015491939092821691600160a01b900460ff1690565b600233600090815260016020526040902060020154600160a01b900460ff166008811115620011d857634e487b7160e01b600052602160045260246000fd5b14620011f85760405162461bcd60e51b81526004016200065e906200331b565b600082116200121b5760405162461bcd60e51b81526004016200065e9062003057565b81600114156200128d5760405163638e9a3d60e01b81526001600160a01b0384169063638e9a3d906200125390339060040162002cb8565b600060405180830381600087803b1580156200126e57600080fd5b505af115801562001283573d6000803e3d6000fd5b5050505062000c99565b8160021415620012c55760405163638e9a3d60e01b81526001600160a01b0384169063638e9a3d906200125390339060040162002cb8565b8160031415620012ff57604051630887851b60e31b81526001600160a01b0382169063443c28d89062001253908690339060040162002ccc565b8160041415620013395760405163d39ff0e760e01b81526001600160a01b0382169063d39ff0e79062001253908690339060040162002ccc565b816005141562000c99576040516336ec0f5d60e01b81526001600160a01b038216906336ec0f5d9062000c64908690339060040162002ccc565b6000600433600090815260016020526040902060020154600160a01b900460ff166008811115620013b457634e487b7160e01b600052602160045260246000fd5b14620013d45760405162461bcd60e51b81526004016200065e9062003277565b3360009081526006602052604090208054839081106200081357634e487b7160e01b600052603260045260246000fd5b6200140e62002780565b62001418620027a0565b6000806000806000806000808a6001600160a01b0316631d2aafc86040518163ffffffff1660e01b81526004016101e06040518083038186803b1580156200145f57600080fd5b505afa15801562001474573d6000803e3d6000fd5b505050506040513d601f19601f820116820180604052508101906200149a919062002b19565b94509450945094509450806001600160a01b031663cacc57056040518163ffffffff1660e01b815260040160606040518083038186803b158015620014de57600080fd5b505afa158015620014f3573d6000803e3d6000fd5b505050506040513d601f19601f8201168201806040525081019062001519919062002c18565b6001600160a01b039485166000908152600160208190526040808320820154968816835280832082015495909716825295902090940154939b949a5091985096509094509092505050565b6000546001600160a01b03163314620015915760405162461bcd60e51b81526004016200065e9062002e0b565b60006001600160a01b038216600090815260016020526040902060020154600160a01b900460ff166008811115620015d957634e487b7160e01b600052602160045260246000fd5b1415620015fa5760405162461bcd60e51b81526004016200065e9062002e95565b6001600160a01b038116600081815260016020526040902080546002909101547fb5f04dfc1ccfefb366c4dc7a23670362462e0a415afb89d8cba1fb657e264c969190600160a01b900460ff1660088111156200166757634e487b7160e01b600052602160045260246000fd5b6040516200167792919062002dfd565b60405180910390a26001600160a01b03166000908152600160205260409020600201805460ff60a01b1916600160a31b179055565b6000600533600090815260016020526040902060020154600160a01b900460ff166008811115620016ed57634e487b7160e01b600052602160045260246000fd5b146200170d5760405162461bcd60e51b81526004016200065e9062002e4d565b50336000908152600a602052604090205490565b6000546001600160a01b031633146200174e5760405162461bcd60e51b81526004016200065e9062002e0b565b60006001600160a01b038516600090815260016020526040902060020154600160a01b900460ff1660088111156200179657634e487b7160e01b600052602160045260246000fd5b14620017b65760405162461bcd60e51b81526004016200065e9062003362565b6001600160a01b038416600081815260016020819052604090912085815590810184905560020180546001600160a01b03191690911790558060088111156200180f57634e487b7160e01b600052602160045260246000fd5b6001600160a01b0385166000908152600160205260409020600201805460ff60a01b1916600160a01b8360088111156200185957634e487b7160e01b600052602160045260246000fd5b0217905550600280546001810182556000919091527f405787fa12a823e0f2b7631cc41b3ba8828b3321ca811111fa75cd3aa3bb5ace0180546001600160a01b0319166001600160a01b0386169081179091556040517f33a7170f028b1e4f5ba321064a00ed820856a920c7f9c6636fbcf385427b1b0f90620018de90869062002dbd565b60405180910390a250505050565b6000600333600090815260016020526040902060020154600160a01b900460ff1660088111156200192d57634e487b7160e01b600052602160045260246000fd5b146200194d5760405162461bcd60e51b81526004016200065e9062002ec2565b3360009081526005602052604090208054839081106200081357634e487b7160e01b600052603260045260246000fd5b6000600433600090815260016020526040902060020154600160a01b900460ff166008811115620019be57634e487b7160e01b600052602160045260246000fd5b14620019de5760405162461bcd60e51b81526004016200065e9062003277565b3360009081526007602052604090208054839081106200081357634e487b7160e01b600052603260045260246000fd5b6000600433600090815260016020526040902060020154600160a01b900460ff16600881111562001a4f57634e487b7160e01b600052602160045260246000fd5b1462001a6f5760405162461bcd60e51b81526004016200065e9062003277565b503360009081526007602052604090205490565b6000600333600090815260016020526040902060020154600160a01b900460ff16600881111562001ac457634e487b7160e01b600052602160045260246000fd5b1462001ae45760405162461bcd60e51b81526004016200065e90620031ea565b503360009081526004602052604090205490565b6000600633600090815260016020526040902060020154600160a01b900460ff16600881111562001b3957634e487b7160e01b600052602160045260246000fd5b1462001b595760405162461bcd60e51b81526004016200065e90620030f6565b50336000908152600d602052604090205490565b60025490565b6000546001600160a01b031681565b6001600160a01b039081166000908152600b60205260409020541690565b6001600160a01b0381166000908152600f602052604081205460ff16600481111562001bdc57634e487b7160e01b600052602160045260246000fd5b92915050565b600333600090815260016020526040902060020154600160a01b900460ff16600881111562001c2157634e487b7160e01b600052602160045260246000fd5b1462001c415760405162461bcd60e51b81526004016200065e90620031ea565b604051630a57332d60e31b81526001600160a01b038216906352b999689062001c6f90339060040162002cb8565b600060405180830381600087803b15801562001c8a57600080fd5b505af115801562001c9f573d6000803e3d6000fd5b50503360009081526004602090815260408220805460018101825590835291200180546001600160a01b0319166001600160a01b0394909416939093179092555050565b6000600533600090815260016020526040902060020154600160a01b900460ff16600881111562001d2457634e487b7160e01b600052602160045260246000fd5b1462001d445760405162461bcd60e51b81526004016200065e9062003139565b503360009081526009602052604090205490565b600133600090815260016020526040902060020154600160a01b900460ff16600881111562001d9757634e487b7160e01b600052602160045260246000fd5b1462001db75760405162461bcd60e51b81526004016200065e9062003232565b60003387878787878760405162001dce90620027fa565b62001de0979695949392919062002d65565b604051809103906000f08015801562001dfd573d6000803e3d6000fd5b503360008181526003602090815260408083208054600181018255908452919092200180546001600160a01b0319166001600160a01b0385811691821790925591519394508516927f9dbe7d9fdd28b9b1c2ffe79a40f7beff124537ed0d7a47555d009e0271fc61339062001e7490889062002cb8565b60405180910390a450505050505050565b6000600633600090815260016020526040902060020154600160a01b900460ff16600881111562001ec657634e487b7160e01b600052602160045260246000fd5b1462001ee65760405162461bcd60e51b81526004016200065e90620032be565b50336000908152600c602052604090205490565b6000600633600090815260016020526040902060020154600160a01b900460ff16600881111562001f3b57634e487b7160e01b600052602160045260246000fd5b1462001f5b5760405162461bcd60e51b81526004016200065e90620032be565b336000908152600c602052604090208054839081106200081357634e487b7160e01b600052603260045260246000fd5b600433600090815260016020526040902060020154600160a01b900460ff16600881111562001fca57634e487b7160e01b600052602160045260246000fd5b148015620020555750826001600160a01b03166301a9a23e6040518163ffffffff1660e01b815260040160806040518083038186803b1580156200200d57600080fd5b505afa15801562002022573d6000803e3d6000fd5b505050506040513d601f19601f82011682018060405250810190620020489190620029a9565b516001600160a01b031633145b620020745760405162461bcd60e51b81526004016200065e906200308e565b600083338484604051620020889062002808565b62002097949392919062002ce6565b604051809103906000f080158015620020b4573d6000803e3d6000fd5b5033600090815260076020908152604080832080546001810182559084528284200180546001600160a01b039586166001600160a01b0319918216811790925598909416835260089091529020805490951617909355505050565b600633600090815260016020526040902060020154600160a01b900460ff1660088111156200214e57634e487b7160e01b600052602160045260246000fd5b148015620021dc5750816001600160a01b03166301a9a23e6040518163ffffffff1660e01b815260040160806040518083038186803b1580156200219157600080fd5b505afa158015620021a6573d6000803e3d6000fd5b505050506040513d601f19601f82011682018060405250810190620021cc9190620029a9565b604001516001600160a01b031633145b620021fb5760405162461bcd60e51b81526004016200065e90620032be565b60016001600160a01b0383166000908152600f602052604090205460ff1660048111156200223957634e487b7160e01b600052602160045260246000fd5b14620022595760405162461bcd60e51b81526004016200065e9062002fdb565b8060048111156200227a57634e487b7160e01b600052602160045260246000fd5b6001600160a01b0383166000908152600f60205260409020805460ff19166001836004811115620022bb57634e487b7160e01b600052602160045260246000fd5b0217905550336001600160a01b03167f7e0150eb126a0bad6138f448f48f826cabdf937aac9ffdcefbba62cae222332e838360405162000f4592919062002da4565b6000600533600090815260016020526040902060020154600160a01b900460ff1660088111156200233e57634e487b7160e01b600052602160045260246000fd5b146200235e5760405162461bcd60e51b81526004016200065e9062002e4d565b336000908152600a602052604090208054839081106200081357634e487b7160e01b600052603260045260246000fd5b600733600090815260016020526040902060020154600160a01b900460ff166008811115620023cd57634e487b7160e01b600052602160045260246000fd5b14620023ed5760405162461bcd60e51b81526004016200065e9062003012565b60405163c5d7910f60e01b81526001600160a01b0382169063c5d7910f906200241d908590339060040162002ccc565b600060405180830381600087803b1580156200243857600080fd5b505af11580156200244d573d6000803e3d6000fd5b505050505050565b600533600090815260016020526040902060020154600160a01b900460ff1660088111156200249457634e487b7160e01b600052602160045260246000fd5b148015620025225750826001600160a01b03166301a9a23e6040518163ffffffff1660e01b815260040160806040518083038186803b158015620024d757600080fd5b505afa158015620024ec573d6000803e3d6000fd5b505050506040513d601f19601f82011682018060405250810190620025129190620029a9565b602001516001600160a01b031633145b620025415760405162461bcd60e51b81526004016200065e9062003181565b600083338484604051620025559062002816565b62002564949392919062002ce6565b604051809103906000f08015801562002581573d6000803e3d6000fd5b50336000908152600a6020908152604080832080546001810182559084528284200180546001600160a01b039586166001600160a01b03199182168117909255989094168352600b9091529020805490951617909355505050565b600633600090815260016020526040902060020154600160a01b900460ff1660088111156200261b57634e487b7160e01b600052602160045260246000fd5b148015620026a95750826001600160a01b03166301a9a23e6040518163ffffffff1660e01b815260040160806040518083038186803b1580156200265e57600080fd5b505afa15801562002673573d6000803e3d6000fd5b505050506040513d601f19601f82011682018060405250810190620026999190620029a9565b604001516001600160a01b031633145b620026c85760405162461bcd60e51b81526004016200065e90620032be565b600083338484604051620026dc9062002824565b620026eb949392919062002ce6565b604051809103906000f08015801562002708573d6000803e3d6000fd5b50336000908152600d6020908152604080832080546001810182559084528284200180546001600160a01b038087166001600160a01b031992831681179093558a168552600e90935292208054909116909117905590506200276c8460026200210f565b50505050565b610eca80620034dd83390190565b604080516060810182526000808252602082018190529181019190915290565b6040805161016081018252600080825260208201819052918101829052606081018290526080810182905260a0810182905260c0810182905260e08101829052610100810182905261012081018290529061014082015290565b61067480620043a783390190565b6104518062004a1b83390190565b6104518062004e6c83390190565b61045180620052bd83390190565b80516200082b81620034c6565b8051600981106200082b57600080fd5b60006020828403121562002861578081fd5b81356200286e81620034c6565b9392505050565b6000806040838503121562002888578081fd5b82356200289581620034c6565b91506020830135620028a781620034c6565b809150509250929050565b600080600060608486031215620028c7578081fd5b8335620028d481620034c6565b92506020840135620028e681620034c6565b91506040840135620028f881620034c6565b809150509250925092565b6000806000806080858703121562002919578081fd5b84356200292681620034c6565b966020860135965060408601359560600135945092505050565b6000806040838503121562002953578182fd5b82356200296081620034c6565b946020939093013593505050565b60008060006060848603121562002983578283fd5b83356200299081620034c6565b9250602084013591506040840135620028f881620034c6565b600060808284031215620029bb578081fd5b82601f830112620029ca578081fd5b6040516080810181811067ffffffffffffffff82111715620029f057620029f06200348e565b60405280836080810186101562002a05578384fd5b835b600481101562002a3457815162002a1e81620034c6565b8352602092830192919091019060010162002a07565b509195945050505050565b600080600080600080600060e0888a03121562002a5a578283fd5b8735965060208801359550604088013562002a7581620034c6565b945060608801359350608088013562002a8e81620034c6565b925060a088013562002aa081620034c6565b8092505060c0880135905092959891949750929550565b60008060008060008060c0878903121562002ad0578384fd5b86359550602087013594506040870135935060608701359250608087013562002af981620034c6565b915060a087013562002b0b81620034c6565b809150509295509295509295565b60008060008060008587036101e081121562002b33578384fd5b6101608082121562002b43578485fd5b62002b4e8162003461565b9150875182526020880151602083015260408801516040830152606088015160608301526080880151608083015260a088015160a083015260c088015160c083015260e088015160e083015261010080890151818401525061012080890151818401525061014062002bc2818a016200283f565b818401525081965062002bd781890162002832565b9550505062002bea610180870162002832565b925062002bfb6101a0870162002832565b915062002c0c6101c0870162002832565b90509295509295909350565b60006060828403121562002c2a578081fd5b6040516060810181811067ffffffffffffffff8211171562002c505762002c506200348e565b80604052508251815260208301516020820152604083015160408201528091505092915050565b60006020828403121562002c89578081fd5b5035919050565b60006020828403121562002ca2578081fd5b5051919050565b62002cb481620034a4565b9052565b6001600160a01b0391909116815260200190565b6001600160a01b0392831681529116602082015260400190565b6001600160a01b03948516815292841660208401529083166040830152909116606082015260800190565b6001600160a01b03998a1681526020810198909852604088019690965293871660608701526080860192909252851660a085015290931660c083015260e08201929092526101008101919091526101200190565b6001600160a01b0397881681526020810196909652604086019490945260608501929092526080840152831660a083015290911660c082015260e00190565b6001600160a01b03929092168252602082015260400190565b90815260200190565b848152602081018490526001600160a01b03831660408201526080810162002dee83620034a4565b82606083015295945050505050565b918252602082015260400190565b60208082526022908201527f4f6e6c79206f776e65722063616e2063616c6c20746869732066756e6374696f604082015261371760f11b606082015260800190565b60208082526028908201527f4f6e6c792044697374726962757465722043616e2063616c6c207468697320666040820152673ab731ba34b7b71760c11b606082015260800190565b602080825260139082015272155cd95c881b9bdd081c9959da5cdd195c9959606a1b604082015260600190565b60208082526029908201527f4f6e6c79204d616e7566616374757265722043616e2063616c6c207468697320604082015268333ab731ba34b7b71760b91b606082015260800190565b60208082526023908201527f4f6e6c7920506861726d612043616e2063616c6c20746869732066756e63746960408201526237b71760e91b606082015260800190565b6020808252601c908201527f52656365697665722054797065206d75737420626520646566696e6500000000604082015260600190565b60208082526036908201527f4f6e6c792057686f6c6573616c657220616e642044697374726962757465722060408201527531b0b71031b0b636103a3434b990333ab731ba34b7b760511b606082015260800190565b6020808252601a908201527f6d61646963696e65204d75737420626520617420506861726d61000000000000604082015260600190565b60208082526025908201527f4f6e6c7920437573746f6d65722063616e2063616c6c20746869732066756e636040820152643a34b7b71760d91b606082015260800190565b6020808252601f908201527f5472616e73706f727465722054797065206d75737420626520646566696e6500604082015260600190565b60208082526042908201527f4f6e6c792057686f6c6573616c6572206f722063757272656e74206f776e657260408201527f206f66207061636b6167652063616e2063616c6c20746869732066756e63746960608201526137b760f11b608082015260a00190565b60208082526023908201527f4f6e6c7920506861726d612063616e2063616c6c20746869732066756e63746960408201526237b71760e91b606082015260800190565b60208082526028908201527f4f6e6c792044697374726962757465722063616e2063616c6c207468697320666040820152673ab731ba34b7b71760c11b606082015260800190565b60208082526043908201527f4f6e6c79204469737472696275746572206f722063757272656e74206f776e6560408201527f72206f66207061636b6167652063616e2063616c6c20746869732066756e637460608201526234b7b760e91b608082015260a00190565b60208082526028908201527f4f6e6c79206d616e7566616374757265722063616e2063616c6c207468697320604082015267333ab731ba34b7b760c11b606082015260800190565b60208082526025908201527f4f6e6c7920537570706c6965722043616e2063616c6c20746869732066756e6360408201526403a34b7b7160dd1b606082015260800190565b60208082526027908201527f4f6e6c792057686f6c6573616c65722043616e2063616c6c20746869732066756040820152663731ba34b7b71760c91b606082015260800190565b6020808252603e908201527f4f6e6c7920506861726d61206f722063757272656e74206f776e6572206f662060408201527f7061636b6167652063616e2063616c6c20746869732066756e6374696f6e0000606082015260800190565b60208082526027908201527f4f6e6c79205472616e73706f727465722063616e2063616c6c207468697320666040820152663ab731ba34b7b760c91b606082015260800190565b60208082526017908201527f5573657220416c72656164792072656769737465726564000000000000000000604082015260600190565b6000610220820190508651825260208701516020830152604087015160408301528551606083015260208601516080830152604086015160a0830152606086015160c0830152608086015160e083015260a0860151610100818185015260c08801519150610120828186015260e089015192506101408381870152828a0151610160870152818a0151610180870152808a01519350505050620034416101a084018262002ca9565b50846101c0830152836101e0830152826102008301529695505050505050565b60405181810167ffffffffffffffff811182821017156200348657620034866200348e565b604052919050565b634e487b7160e01b600052604160045260246000fd5b60098110620034c357634e487b7160e01b600052602160045260246000fd5b50565b6001600160a01b0381168114620034c357600080fdfe60806040523480156200001157600080fd5b5060405162000eca38038062000eca83398101604081905262000034916200012a565b600080546001600160a01b03199081166001600160a01b038c8116918217909355600380548316909117905560098a9055600a899055600880548216898416179055600187905560028054909116918616919091179055600d81905542600b819055620000a6906301e13380620001b7565b600c5542600e556001821415620000d857600480546001600160a01b0319166001600160a01b038516179055620000fe565b8160021415620000fe57600580546001600160a01b0319166001600160a01b0385161790555b505050505050505050620001dc565b80516001600160a01b03811681146200012557600080fd5b919050565b60008060008060008060008060006101208a8c03121562000149578485fd5b620001548a6200010d565b985060208a0151975060408a015196506200017260608b016200010d565b955060808a015194506200018960a08b016200010d565b93506200019960c08b016200010d565b925060e08a015191506101008a015190509295985092959850929598565b60008219821115620001d757634e487b7160e01b81526011600452602481fd5b500190565b610cde80620001ec6000396000f3fe608060405234801561001057600080fd5b50600436106100a95760003560e01c8063638e9a3d11610071578063638e9a3d1461012d578063952565cf14610140578063a19ffd6014610153578063badcef6a14610166578063bd78683514610179578063d2f3fcc71461018c576100a9565b806301a9a23e146100ae5780630a672d13146100cc5780631d2aafc8146100e15780634175699d146100fa57806352b999681461010d575b600080fd5b6100b6610194565b6040516100c391906108f2565b60405180910390f35b6100df6100da366004610870565b6101db565b005b6100e9610225565b6040516100c3959493929190610bbd565b6100df610108366004610870565b61031b565b61012061011b366004610870565b61035c565b6040516100c39190610c7f565b6100df61013b366004610870565b61052f565b6100df61014e366004610870565b610659565b6100df610161366004610891565b61069a565b6100df610174366004610891565b610718565b6100df610187366004610891565b610765565b6101206107b4565b61019c6107e1565b50604080516080810182526004546001600160a01b03908116825260055481166020830152600654811692820192909252600754909116606082015290565b6007546001600160a01b038281169116146102115760405162461bcd60e51b8152600401610208906109b4565b60405180910390fd5b506013805460ff1916600817905542601255565b61022d6107ff565b600454600554600654600880546040805161016081018252600980548252600a546020830152600b5492820192909252600c546060820152600d546080820152600e5460a0820152600f5460c082015260105460e082015260115461010082015260125461012082015260135460009788978897889795966001600160a01b039384169692841695918416949316929091879161014084019160ff909116908111156102e957634e487b7160e01b600052602160045260246000fd5b600881111561030857634e487b7160e01b600052602160045260246000fd5b9052509a93995091975095509350915050565b6006546001600160a01b038281169116146103485760405162461bcd60e51b815260040161020890610a20565b506013805460ff1916600617905542601155565b6004546000906001600160a01b038381169116148061038857506005546001600160a01b038381169116145b6103a45760405162461bcd60e51b815260040161020890610adb565b60135460019060ff1660088111156103cc57634e487b7160e01b600052602160045260246000fd5b10156103ea5760405162461bcd60e51b81526004016102089061097d565b6004546001600160a01b03838116911614801561042b5750600160135460ff16600881111561042957634e487b7160e01b600052602160045260246000fd5b145b1561048b576013805460ff1916600390811790915542600f55600454600280546040516001600160a01b039384169493909116923092600080516020610c898339815191529261047b929061092c565b60405180910390a450600161052a565b6005546001600160a01b0383811691161480156104cc5750600260135460ff1660088111156104ca57634e487b7160e01b600052602160045260246000fd5b145b1561052a576013805460ff19166004908117909155426010556005546002546040516001600160a01b039283169392909116913091600080516020610c898339815191529161051e916003919061092c565b60405180910390a45060025b919050565b6002546001600160a01b0382811691161461055c5760405162461bcd60e51b815260040161020890610a8e565b600060135460ff16600881111561058357634e487b7160e01b600052602160045260246000fd5b146105a05760405162461bcd60e51b8152600401610208906109e9565b6004546001600160a01b031615610605576013805460ff191660019081179091556004546002546040516001600160a01b039283169392909116913091600080516020610c89833981519152916105f891819061092c565b60405180910390a4610656565b6013805460ff1916600290811790915560055490546040516001600160a01b0392831692909116903090600080516020610c898339815191529061064d90600190819061092c565b60405180910390a45b50565b6005546001600160a01b038281169116146106865760405162461bcd60e51b81526004016102089061093a565b506013805460ff1916600417905542601055565b6005546001600160a01b038281169116146106c75760405162461bcd60e51b815260040161020890610b7a565b600680546001600160a01b0319166001600160a01b03841617905560055b6013805460ff1916600183600881111561070f57634e487b7160e01b600052602160045260246000fd5b02179055505050565b6006546001600160a01b038281169116146107455760405162461bcd60e51b815260040161020890610a57565b600780546001600160a01b0319166001600160a01b0384161781556106e5565b6004546001600160a01b038281169116146107925760405162461bcd60e51b815260040161020890610b38565b600580546001600160a01b0319166001600160a01b03841617905560026106e5565b60135460009060ff1660088111156107dc57634e487b7160e01b600052602160045260246000fd5b905090565b60405180608001604052806004906020820280368337509192915050565b6040805161016081018252600080825260208201819052918101829052606081018290526080810182905260a0810182905260c0810182905260e08101829052610100810182905261012081018290529061014082015290565b80356001600160a01b038116811461052a57600080fd5b600060208284031215610881578081fd5b61088a82610859565b9392505050565b600080604083850312156108a3578081fd5b6108ac83610859565b91506108ba60208401610859565b90509250929050565b6001600160a01b03169052565b600981106108ee57634e487b7160e01b600052602160045260246000fd5b9052565b60808101818360005b60048110156109235781516001600160a01b03168352602092830192909101906001016108fb565b50505092915050565b918252602082015260400190565b60208082526023908201527f54686973204469737472696275746572206973206e6f74204173736f6369617460408201526232b21760e91b606082015260800190565b60208082526019908201527f50726f64756374206e6f74207069636b65642075702079657400000000000000604082015260600190565b6020808252818101527f5468697320437573746f6d6572206973206e6f74204173736f6369617465642e604082015260600190565b6020808252601c908201527f5061636b616765206d75737420626520617420537570706c6965722e00000000604082015260600190565b6020808252601e908201527f5468697320506861726d61206973206e6f74204173736f6369617465642e0000604082015260600190565b6020808252601e908201527f7468697320506861726d61206973206e6f74204173736f6369617465642e0000604082015260600190565b6020808252602d908201527f4f6e6c79204173736f636961746520536869707065722063616e2063616c6c2060408201526c3a3434b990333ab731ba34b7b760991b606082015260800190565b6020808252603f908201527f4f6e6c79204173736f63696174652057686f6c6573616c6572206f722044697360408201527f74727562757465722063616e2063616c6c20746869732066756e6374696f6e00606082015260800190565b60208082526022908201527f746869732057686f6c6573616c6572206973206e6f74204173736f6369617465604082015261321760f11b606082015260800190565b60208082526023908201527f74686973204469737472696275746572206973206e6f74204173736f6369617460408201526232b21760e91b606082015260800190565b60006101e082019050865182526020870151602083015260408701516040830152606087015160608301526080870151608083015260a087015160a083015260c087015160c083015260e087015160e083015261010080880151818401525061012080880151818401525061014080880151610c3b828501826108d0565b5050610c4b6101608301876108c3565b610c596101808301866108c3565b610c676101a08301856108c3565b610c756101c08301846108c3565b9695505050505050565b9081526020019056fe7e89c4b1a4e2b51aae84eb1f90e8a34cb792ece5ac5cb63db4830c891220b28da2646970667358221220309cb215870c51e131a035416be8afbbb11c1a9752b192ed2631bfc762a8484164736f6c63430008000033608060405234801561001057600080fd5b5060405161067438038061067483398101604081905261002f916100ea565b600080546001600160a01b03199081166001600160a01b038a81169182178455600180543090851617905560028a905560038990556004889055600587905560068054841687831617905560078054841691861691909117905560088054909216179055600a805460ff191660018360028111156100bd57634e487b7160e01b600052602160045260246000fd5b021790555050505050505050610153565b80516001600160a01b03811681146100e557600080fd5b919050565b600080600080600080600060e0888a031215610104578283fd5b61010d886100ce565b96506020880151955060408801519450606088015193506080880151925061013760a089016100ce565b915061014560c089016100ce565b905092959891949750929550565b610512806101626000396000f3fe608060405234801561001057600080fd5b50600436106100575760003560e01c80633b205a7d1461005c57806352b999681461007a578063638e9a3d1461008f578063cacc5705146100a2578063d02eee23146100b7575b600080fd5b6100646100d2565b60405161007191906104d3565b60405180910390f35b61008d61008836600461032a565b6100ff565b005b61008d61009d36600461032a565b6101e3565b6100aa6102ad565b60405161007191906104b2565b6100bf6102db565b6040516100719796959493929190610358565b600a5460009060ff1660028111156100fa57634e487b7160e01b600052602160045260246000fd5b905090565b6007546001600160a01b038281169116146101355760405162461bcd60e51b815260040161012c90610460565b60405180910390fd5b6001600a5460ff16600281111561015c57634e487b7160e01b600052602160045260246000fd5b146101795760405162461bcd60e51b815260040161012c906103a5565b600a805460ff19166002908117909155426009556007546006546040516001600160a01b0392831693929091169130917f7e89c4b1a4e2b51aae84eb1f90e8a34cb792ece5ac5cb63db4830c891220b28d916101d89160019190610397565b60405180910390a450565b6006546001600160a01b038281169116146102105760405162461bcd60e51b815260040161012c90610413565b6000600a5460ff16600281111561023757634e487b7160e01b600052602160045260246000fd5b146102545760405162461bcd60e51b815260040161012c906103dc565b600a805460ff191660019081179091556007546006546040516001600160a01b0392831693929091169130917f7e89c4b1a4e2b51aae84eb1f90e8a34cb792ece5ac5cb63db4830c891220b28d916101d8918190610397565b6102b561030a565b604051806060016040528060035481526020016004548152602001600954815250905090565b6002546003546004546005546006546007546008546001600160a01b0392831692918216911690919293949596565b604080516060810182526000808252602082018190529181019190915290565b60006020828403121561033b578081fd5b81356001600160a01b0381168114610351578182fd5b9392505050565b9687526020870195909552604086019390935260608501919091526001600160a01b03908116608085015290811660a08401521660c082015260e00190565b918252602082015260400190565b60208082526019908201527f50726f64756374206e6f74207069636b65642075702079657400000000000000604082015260600190565b6020808252601c908201527f5061636b616765206d75737420626520617420537570706c6965722e00000000604082015260600190565b6020808252602d908201527f4f6e6c79204173736f636961746520536869707065722063616e2063616c6c2060408201526c3a3434b990333ab731ba34b7b760991b606082015260800190565b60208082526032908201527f4f6e6c79204173736f6369617465204d616e7566616374757265722063616e2060408201527131b0b636103a3434b990333ab731ba34b7b760711b606082015260800190565b81518152602080830151908201526040918201519181019190915260600190565b9081526020019056fea26469706673582212202436d05dabc538e7106a01f2d1bc7949a4b0a9572b8c3656fcb1f6345bbff73a64736f6c63430008000033608060405234801561001057600080fd5b5060405161045138038061045183398101604081905261002f916100b8565b600080546001600160a01b03199081166001600160a01b038681169182178455600180548416898316179055600280548416909217909155600380548316868316179055600480549092169084161780825560ff60a01b1916600160a01b8302179055505050505061010b565b80516001600160a01b03811681146100b357600080fd5b919050565b600080600080608085870312156100cd578384fd5b6100d68561009c565b93506100e46020860161009c565b92506100f26040860161009c565b91506101006060860161009c565b905092959194509250565b6103378061011a6000396000f3fe608060405234801561001057600080fd5b50600436106100415760003560e01c8063443c28d814610046578063d2f3fcc71461005b578063f4c0722914610079575b600080fd5b6100596100543660046101f9565b61008c565b005b61006361013f565b60405161007091906102f8565b60405180910390f35b6100596100873660046101f9565b610173565b6003546001600160a01b038281169116146100c25760405162461bcd60e51b81526004016100b9906102a9565b60405180910390fd5b6004805460ff60a01b1916600160a01b1780825560025460405163bd78683560e01b81526001600160a01b038681169463bd7868359461010994908316939216910161023f565b600060405180830381600087803b15801561012357600080fd5b505af1158015610137573d6000803e3d6000fd5b505050505050565b600454600090600160a01b900460ff16600281111561016e57634e487b7160e01b600052602160045260246000fd5b905090565b6004546001600160a01b038281169116146101a05760405162461bcd60e51b81526004016100b990610259565b6004805460ff60a01b1916600160a11b17815560405163952565cf60e01b81526001600160a01b0384169163952565cf916101099185910161022b565b80356001600160a01b03811681146101f457600080fd5b919050565b6000806040838503121561020b578182fd5b610214836101dd565b9150610222602084016101dd565b90509250929050565b6001600160a01b0391909116815260200190565b6001600160a01b0392831681529116602082015260400190565b60208082526030908201527f4f6e6c79204173736f6369617465642072656365697665722063616e2063616c60408201526f36103a3434b990333ab731ba34b7b71760811b606082015260800190565b6020808252602f908201527f4f6e6c79204173736f63696174656420736869707065722063616e2063616c6c60408201526e103a3434b990333ab731ba34b7b71760891b606082015260800190565b9081526020019056fea2646970667358221220537afa2c3f2e495edde00e86e04763975766b7eca42f86afdf8b94a83c0a0a8664736f6c63430008000033608060405234801561001057600080fd5b5060405161045138038061045183398101604081905261002f916100b8565b600080546001600160a01b03199081166001600160a01b038681169182178455600180548416898316179055600280548416909217909155600380548316868316179055600480549092169084161780825560ff60a01b1916600160a01b8302179055505050505061010b565b80516001600160a01b03811681146100b357600080fd5b919050565b600080600080608085870312156100cd578384fd5b6100d68561009c565b93506100e46020860161009c565b92506100f26040860161009c565b91506101006060860161009c565b905092959194509250565b6103378061011a6000396000f3fe608060405234801561001057600080fd5b50600436106100415760003560e01c806332a60e0014610046578063d2f3fcc71461005b578063d39ff0e714610079575b600080fd5b6100596100543660046101f9565b61008c565b005b610063610135565b60405161007091906102f8565b60405180910390f35b6100596100873660046101f9565b610169565b6004546001600160a01b038281169116146100c25760405162461bcd60e51b81526004016100b990610259565b60405180910390fd5b6004805460ff60a01b1916600160a11b178155604051634175699d60e01b81526001600160a01b03841691634175699d916100ff9185910161022b565b600060405180830381600087803b15801561011957600080fd5b505af115801561012d573d6000803e3d6000fd5b505050505050565b600454600090600160a01b900460ff16600281111561016457634e487b7160e01b600052602160045260246000fd5b905090565b6003546001600160a01b038281169116146101965760405162461bcd60e51b81526004016100b9906102a9565b6004805460ff60a01b1916600160a01b1780825560025460405163050cffeb60e51b81526001600160a01b038681169463a19ffd60946100ff94908316939216910161023f565b80356001600160a01b03811681146101f457600080fd5b919050565b6000806040838503121561020b578182fd5b610214836101dd565b9150610222602084016101dd565b90509250929050565b6001600160a01b0391909116815260200190565b6001600160a01b0392831681529116602082015260400190565b60208082526030908201527f4f6e6c79204173736f6369617465642072656365697665722063616e2063616c60408201526f36103a3434b990333ab731ba34b7b71760811b606082015260800190565b6020808252602f908201527f4f6e6c79204173736f63696174656420736869707065722063616e2063616c6c60408201526e103a3434b990333ab731ba34b7b71760891b606082015260800190565b9081526020019056fea2646970667358221220ef870e9e0e3eb3324dd98eda3489632269caf19c1bcad66666c7d3ab38bd82b864736f6c63430008000033608060405234801561001057600080fd5b5060405161045138038061045183398101604081905261002f916100b8565b600080546001600160a01b03199081166001600160a01b038681169182178455600180548416898316179055600280548416909217909155600380548316868316179055600480549092169084161780825560ff60a01b1916600160a01b8302179055505050505061010b565b80516001600160a01b03811681146100b357600080fd5b919050565b600080600080608085870312156100cd578384fd5b6100d68561009c565b93506100e46020860161009c565b92506100f26040860161009c565b91506101006060860161009c565b905092959194509250565b6103378061011a6000396000f3fe608060405234801561001057600080fd5b50600436106100415760003560e01c806336ec0f5d14610046578063c5d7910f1461005b578063d2f3fcc71461006e575b600080fd5b6100596100543660046101f9565b61008c565b005b6100596100693660046101f9565b61013f565b6100766101a9565b60405161008391906102f8565b60405180910390f35b6003546001600160a01b038281169116146100c25760405162461bcd60e51b81526004016100b9906102a9565b60405180910390fd5b6004805460ff60a01b1916600160a01b17808255600254604051635d6e77b560e11b81526001600160a01b038681169463badcef6a9461010994908316939216910161023f565b600060405180830381600087803b15801561012357600080fd5b505af1158015610137573d6000803e3d6000fd5b505050505050565b6004546001600160a01b0382811691161461016c5760405162461bcd60e51b81526004016100b990610259565b6004805460ff60a01b1916600160a11b178155604051630a672d1360e01b81526001600160a01b03841691630a672d13916101099185910161022b565b600454600090600160a01b900460ff1660028111156101d857634e487b7160e01b600052602160045260246000fd5b905090565b80356001600160a01b03811681146101f457600080fd5b919050565b6000806040838503121561020b578182fd5b610214836101dd565b9150610222602084016101dd565b90509250929050565b6001600160a01b0391909116815260200190565b6001600160a01b0392831681529116602082015260400190565b60208082526030908201527f4f6e6c79204173736f6369617465642072656365697665722063616e2063616c60408201526f36103a3434b990333ab731ba34b7b71760811b606082015260800190565b6020808252602f908201527f4f6e6c79204173736f63696174656420736869707065722063616e2063616c6c60408201526e103a3434b990333ab731ba34b7b71760891b606082015260800190565b9081526020019056fea26469706673582212202e9e568f9d8f2b3c11c9aaa8cbb0b5926744dd989b3c1497c42bb7df326b210064736f6c63430008000033a26469706673582212200acef0a9065dd9e1f0ba5ec18f33df9417f061378040bbb6bf0ebf5f5086170b64736f6c63430008000033",
  "immutableReferences": {},
  "source": "// SPDX-License-Identifier: UNLICENSED\r\n// pragma solidity >=0.4.25 <0.9.0;\r\n// pragma experimental ABIEncoderV2;\r\npragma solidity >=0.8.0;\r\npragma abicoder v2;\r\n\r\nimport './RawMatrials.sol';\r\nimport './Madicine.sol';\r\nimport './MadicineW_D.sol';\r\nimport './MadicineD_P.sol';\r\nimport './MadicineP_C.sol';\r\nimport './Library.sol';\r\n\r\n\r\ncontract SupplyChain {\r\n\r\n    using MyLibrary for MyLibrary.madicineStatus;\r\n    using MyLibrary for MyLibrary.medicineBasicInfo;\r\n    using MyLibrary for MyLibrary.rawMaterialInfo;\r\n\r\n    /// @notice\r\n    address public Owner;\r\n\r\n    /// @notice\r\n    /// @dev Initiate SupplyChain Contract\r\n    constructor () public {\r\n        Owner = msg.sender;\r\n    }\r\n/********************************************** Owner Section *********************************************/\r\n    /// @dev Validate Owner\r\n    modifier onlyOwner() {\r\n        require(\r\n            msg.sender == Owner,\r\n            \"Only owner can call this function.\"\r\n        );\r\n        _;\r\n    }\r\n\r\n    enum roles {\r\n        norole,\r\n        supplier,\r\n        transporter,\r\n        manufacturer,\r\n        wholesaler,\r\n        distributer,\r\n        pharma,\r\n        customer,\r\n        revoke\r\n    }\r\n\r\n    event UserRegister(address indexed EthAddress, bytes32 Name);\r\n    event UserRoleRevoked(address indexed EthAddress, bytes32 Name, uint256 Role);\r\n    event UserRoleRessigne(address indexed EthAddress, bytes32 Name, uint256 Role);\r\n\r\n    /// @notice\r\n    /// @dev Register New user by Owner\r\n    /// @param EthAddress Ethereum Network Address of User\r\n    /// @param Name User name\r\n    /// @param Location User Location\r\n    /// @param Role User Role\r\n    function registerUser(\r\n        address EthAddress,\r\n        bytes32 Name,\r\n        bytes32 Location,\r\n        uint256 Role\r\n        ) public\r\n        onlyOwner\r\n        {\r\n        require(UsersDetails[EthAddress].role == roles.norole, \"User Already registered\");\r\n        UsersDetails[EthAddress].name = Name;\r\n        UsersDetails[EthAddress].location = Location;\r\n        UsersDetails[EthAddress].ethAddress = EthAddress;\r\n        UsersDetails[EthAddress].role = roles(Role);\r\n        users.push(EthAddress);\r\n        emit UserRegister(EthAddress, Name);\r\n    }\r\n    /// @notice\r\n    /// @dev Revoke users role\r\n    /// @param userAddress User Ethereum Network Address\r\n    function revokeRole(address userAddress) public onlyOwner {\r\n        require(UsersDetails[userAddress].role != roles.norole, \"User not registered\");\r\n        emit UserRoleRevoked(userAddress, UsersDetails[userAddress].name,uint256(UsersDetails[userAddress].role));\r\n        UsersDetails[userAddress].role = roles(8);\r\n    }\r\n    /// @notice\r\n    /// @dev Reassigne new role to User\r\n    /// @param userAddress User Ethereum Network Address\r\n    /// @param Role Role to assigne\r\n    function reassigneRole(address userAddress, uint256 Role) public onlyOwner {\r\n        require(UsersDetails[userAddress].role != roles.norole, \"User not registered\");\r\n        UsersDetails[userAddress].role = roles(Role);\r\n        emit UserRoleRessigne(userAddress, UsersDetails[userAddress].name,uint256(UsersDetails[userAddress].role));\r\n    }\r\n\r\n/********************************************** User Section **********************************************/\r\n    struct UserInfo {\r\n        bytes32 name;\r\n        bytes32 location;\r\n        address ethAddress;\r\n        roles role;\r\n    }\r\n\r\n\r\n    mapping(address => UserInfo) UsersDetails;\r\n\r\n    address[] users;\r\n\r\n    /// @notice\r\n    /// @dev Get User Information/ Profile\r\n    /// @param User User Ethereum Network Address\r\n    /// @return name  Details\r\n    /// @return location  Details\r\n    /// @return ethAddress  Details\r\n    /// @return role  Details\r\n    function getUserInfo(address User) public view returns(\r\n        bytes32 name,\r\n        bytes32 location,\r\n        address ethAddress,\r\n        roles role\r\n        ) {\r\n        return (\r\n            UsersDetails[User].name,\r\n            UsersDetails[User].location,\r\n            UsersDetails[User].ethAddress,\r\n            UsersDetails[User].role);\r\n    }\r\n\r\n    /// @notice\r\n    /// @dev Get Number of registered Users\r\n    /// @return count of registered Users\r\n    function getUsersCount() public view returns(uint256 count){\r\n        return users.length;\r\n    }\r\n\r\n    /// @notice\r\n    /// @dev Get User by Index value of stored data\r\n    /// @param index Indexed Number\r\n    /// @return name Details\r\n    /// @return location Details\r\n    /// @return ethAddress Details\r\n    /// @return role Details\r\n    function getUserbyIndex(uint256 index) public view returns(\r\n        bytes32 name,\r\n        bytes32 location,\r\n        address ethAddress,\r\n        roles role\r\n        ) {\r\n        return getUserInfo(users[index]);\r\n    }\r\n/********************************************** Supplier Section ******************************************/\r\n\r\n    mapping(address => address[]) supplierRawProductInfo;\r\n    event RawSupplyInit(\r\n        address indexed ProductID,\r\n        address indexed Supplier,\r\n        address Shipper,\r\n        address indexed Receiver\r\n    );\r\n\r\n    /// @notice\r\n    /// @dev Create new raw package by Supplier\r\n    /// @param Des Transporter Ethereum Network Address\r\n    /// @param Rcvr Manufacturer Ethereum Network Address\r\n    function createRawPackage(\r\n        bytes32 Des,\r\n        bytes32 FN,\r\n        bytes32 Loc,\r\n        uint256 Quant,\r\n        address Shpr,\r\n        address Rcvr\r\n        ) public {\r\n        require(\r\n            UsersDetails[msg.sender].role == roles.supplier,\r\n            \"Only Supplier Can call this function \"\r\n        );\r\n        RawMatrials rawData = new RawMatrials(\r\n            msg.sender,\r\n            Des,\r\n            FN,\r\n            Loc,\r\n            Quant,\r\n            Shpr,\r\n            Rcvr\r\n            );\r\n        supplierRawProductInfo[msg.sender].push(address(rawData));\r\n        emit RawSupplyInit(address(rawData), msg.sender, Shpr, Rcvr);\r\n    }\r\n\r\n    /// @notice\r\n    /// @dev  Get Count of created package by supplier(caller)\r\n    /// @return count of packages\r\n    function getPackagesCountS() public view returns (uint256 count){\r\n        require(\r\n            UsersDetails[msg.sender].role == roles.supplier,\r\n            \"Only Supplier Can call this function \"\r\n        );\r\n        return supplierRawProductInfo[msg.sender].length;\r\n    }\r\n\r\n    /// @notice\r\n    /// @dev Get PackageID by Indexed value of stored data\r\n    /// @param index Indexed Value\r\n    /// @return packageID\r\n    function getPackageIdByIndexS(uint256 index) public view returns(address packageID) {\r\n        require(\r\n            UsersDetails[msg.sender].role == roles.supplier,\r\n            \"Only Supplier Can call this function \"\r\n        );\r\n        return supplierRawProductInfo[msg.sender][index];\r\n    }\r\n\r\n/********************************************** Transporter Section ******************************************/\r\n\r\n    /// @notice\r\n    /// @dev Load Consingment fot transport one location to another.\r\n    /// @param pid PackageID or MadicineID\r\n    /// @param transportertype Transporter Type on the basic of tx between Roles\r\n    /// @param cid Sub Contract ID for Consingment transaction\r\n    function loadConsingment(\r\n        address pid, //Package or Batch ID\r\n        uint256 transportertype,\r\n        address cid\r\n        ) public {\r\n        require(\r\n            UsersDetails[msg.sender].role == roles.transporter,\r\n            \"Only Transporter can call this function\"\r\n        );\r\n        require(\r\n            transportertype > 0,\r\n            \"Transporter Type must be define\"\r\n        );\r\n\r\n        if(transportertype == 1) {  // Supplier to Manufacturer\r\n            RawMatrials(pid).pickPackage(msg.sender);\r\n        } else if(transportertype == 2) {   // Manufacturer to Wholesaler OR Manufacturer to Distributer\r\n            Madicine(pid).pickPackage(msg.sender);\r\n        } else if(transportertype == 3) {   // Wholesaler to Distributer\r\n            MadicineW_D(cid).pickWD(pid,msg.sender);\r\n        } else if(transportertype == 4) {   // Distrubuter to Pharma\r\n            MadicineD_P(cid).pickDP(pid,msg.sender);\r\n        } else if(transportertype == 5) {   // Pharma to Customer\r\n            MadicineP_C(cid).pickPC(pid,msg.sender);\r\n        }\r\n    }\r\n\r\n/********************************************** Manufacturer Section ******************************************/\r\n   \r\n    mapping(address => address[]) RawPackagesAtManufacturer;\r\n\r\n    /// @notice\r\n    /// @dev Update Package / Madicine batch recieved status by ethier Manufacturer or Distributer\r\n    /// @param pid  PackageID or MadicineID\r\n    function  rawPackageReceived(\r\n        address pid\r\n    ) public {\r\n        require(\r\n            UsersDetails[msg.sender].role == roles.manufacturer,\r\n            \"Only manufacturer can call this function\"\r\n        );\r\n\r\n        RawMatrials(pid).receivedPackage(msg.sender);\r\n        RawPackagesAtManufacturer[msg.sender].push(pid);\r\n    }\r\n\r\n    /// @notice\r\n    /// @dev Get Package Count at Manufacturer\r\n    /// @return count of Packages at Manufacturer\r\n    function getPackagesCountM() public view returns(uint256 count){\r\n        require(\r\n            UsersDetails[msg.sender].role == roles.manufacturer,\r\n            \"Only manufacturer can call this function\"\r\n        );\r\n        return RawPackagesAtManufacturer[msg.sender].length;\r\n    }\r\n\r\n    /// @notice\r\n    /// @dev Get PackageID by Indexed value of stored data\r\n    /// @param index Indexed Value\r\n    /// @return BatchID\r\n    function getPackageIDByIndexM(uint256 index) public view returns(address BatchID){\r\n        require(\r\n            UsersDetails[msg.sender].role == roles.manufacturer,\r\n            \"Only manufacturer can call this function\"\r\n        );\r\n        return RawPackagesAtManufacturer[msg.sender][index];\r\n    }\r\n\r\n    \r\n    mapping(address => address[]) ManufactureredMadicineBatches;\r\n    event MadicineNewBatch(\r\n        address indexed BatchId,\r\n        address indexed Manufacturer,\r\n        address shipper,\r\n        address indexed Receiver\r\n    );\r\n\r\n    /// @notice\r\n    /// @dev Create Madicine Batch\r\n    /// @param Des Description of madicine batch\r\n    /// @param RM RawMatrials Information\r\n    /// @param Quant Number of Units\r\n    /// @param Shpr Transporter Ethereum Network Address\r\n    /// @param Rcvr Receiver Ethereum Network Address\r\n    /// @param RcvrType Receiver Type Ethier Wholesaler(1) or Distributer(2)\r\n    function manufacturMadicine(\r\n        bytes32 Des, \r\n        bytes32 RM,\r\n        address RawMaterialAddres,\r\n        uint256 Quant,\r\n        address Shpr,\r\n        address Rcvr,\r\n        uint256 RcvrType\r\n    ) public {\r\n        require(\r\n            UsersDetails[msg.sender].role == roles.manufacturer,\r\n            \"Only manufacturer can call this function\"\r\n        );\r\n        require(\r\n            RcvrType != 0,\r\n            \"Receiver Type must be define\"\r\n        );\r\n\r\n        Madicine m = new Madicine(\r\n            msg.sender,\r\n            Des,\r\n            RM,\r\n            RawMaterialAddres,\r\n            Quant,\r\n            Shpr,\r\n            Rcvr,\r\n            RcvrType,\r\n            UsersDetails[msg.sender].location\r\n        );\r\n\r\n        ManufactureredMadicineBatches[msg.sender].push(address(m));\r\n        emit MadicineNewBatch(address(m), msg.sender, Shpr, Rcvr);\r\n    }\r\n\r\n    /// @notice\r\n    /// @dev Get Madicine Batch Count\r\n    /// @return count of Batches\r\n    function getBatchesCountM() public view returns (uint256 count){\r\n        require(\r\n            UsersDetails[msg.sender].role == roles.manufacturer,\r\n            \"Only Manufacturer Can call this function.\"\r\n        );\r\n        return ManufactureredMadicineBatches[msg.sender].length;\r\n    }\r\n\r\n    /// @notice\r\n    /// @dev Get Madicine BatchID by indexed value of stored data\r\n    /// @param index Indexed Number\r\n    /// @return packageID Madicine BatchID\r\n    function getBatchIdByIndexM(uint256 index) public view returns(address packageID) {\r\n        require(\r\n            UsersDetails[msg.sender].role == roles.manufacturer,\r\n            \"Only Manufacturer Can call this function.\"\r\n        );\r\n        return ManufactureredMadicineBatches[msg.sender][index];\r\n    }\r\n\r\n\r\n/********************************************** Wholesaler Section ******************************************/\r\n    \r\n    mapping(address => address[]) MadicineBatchesAtWholesaler;\r\n\r\n    /// @notice\r\n    /// @dev Madicine Batch Received\r\n    /// @param batchid Madicine BatchID\r\n    /// @param cid Sub Contract ID for Madicine (if transaction Wholesaler to Distributer)\r\n    function madicineReceived(\r\n        address batchid,\r\n        address cid\r\n    ) public {\r\n        require(\r\n            UsersDetails[msg.sender].role == roles.wholesaler || UsersDetails[msg.sender].role == roles.distributer,\r\n            \"Only Wholesaler and Distributer can call this function\"\r\n        );\r\n\r\n        uint256 rtype = Madicine(batchid).receivedPackage(msg.sender);\r\n        if(rtype == 1){\r\n            MadicineBatchesAtWholesaler[msg.sender].push(batchid);\r\n        }else if( rtype == 2){\r\n            MadicineBatchAtDistributer[msg.sender].push(batchid);\r\n            if(Madicine(batchid).getWDP()[0] != address(0)){\r\n                MadicineW_D(cid).recieveWD(batchid,msg.sender);\r\n            }\r\n        }\r\n    }\r\n\r\n   \r\n    mapping(address => address[]) MadicineWtoD;\r\n    \r\n    mapping(address => address) MadicineWtoDTxContract;\r\n\r\n    /// @notice\r\n    /// @dev Sub Contract for Madicine Transfer from Wholesaler to Distributer\r\n    /// @param BatchID Madicine BatchID\r\n    /// @param Shipper Transporter Ethereum Network Address\r\n    /// @param Receiver Distributer Ethereum Network Address\r\n    function transferMadicineWtoD(\r\n        address BatchID,\r\n        address Shipper,\r\n        address Receiver\r\n    ) public {\r\n        require(\r\n            UsersDetails[msg.sender].role == roles.wholesaler &&\r\n            msg.sender == Madicine(BatchID).getWDP()[0],\r\n            \"Only Wholesaler or current owner of package can call this function\"\r\n        );\r\n        MadicineW_D wd = new MadicineW_D(\r\n            BatchID,\r\n            msg.sender,\r\n            Shipper,\r\n            Receiver\r\n        );\r\n        MadicineWtoD[msg.sender].push(address(wd));\r\n        MadicineWtoDTxContract[BatchID] = address(wd);\r\n    }\r\n\r\n    /// @notice\r\n    /// @dev Get Madicine Batch Count\r\n    /// @return count of Batches\r\n    function getBatchesCountWD() public view returns (uint256 count){\r\n        require(\r\n            UsersDetails[msg.sender].role == roles.wholesaler,\r\n            \"Only Wholesaler Can call this function.\"\r\n        );\r\n        return MadicineWtoD[msg.sender].length;\r\n    }\r\n\r\n    /// @notice\r\n    /// @dev Get Madicine BatchID by indexed value of stored data\r\n    /// @param index Indexed Number\r\n    /// @return packageID Madicine BatchID\r\n    function getBatchIdByIndexWD(uint256 index) public view returns(address packageID) {\r\n        require(\r\n            UsersDetails[msg.sender].role == roles.wholesaler,\r\n            \"Only Wholesaler Can call this function.\"\r\n        );\r\n        return MadicineWtoD[msg.sender][index];\r\n    }\r\n\r\n    /// @notice\r\n    /// @dev Get Sub Contract ID of Madicine Batch Transfer in between Wholesaler to Distributer\r\n    /// @param BatchID Madicine BatchID\r\n    /// @return SubContractWD ID\r\n    function getSubContractWD(address BatchID) public view returns (address SubContractWD) {\r\n        // require(\r\n        //     UsersDetails[msg.sender].role == roles.wholesaler,\r\n        //     \"Only Wholesaler Can call this function.\"\r\n        // );\r\n        return MadicineWtoDTxContract[BatchID];\r\n    }\r\n\r\n    \r\n    /// @notice\r\n    /// @dev Get Madicine Batch Count\r\n    /// @return count of Batches\r\n    function getBatchesCountW() public view returns (uint256 count){\r\n        require(\r\n            UsersDetails[msg.sender].role == roles.wholesaler,\r\n            \"Only Wholesaler Can call this function.\"\r\n        );\r\n        return MadicineBatchesAtWholesaler[msg.sender].length;\r\n    }\r\n\r\n    /// @notice\r\n    /// @dev Get Madicine BatchID by indexed value of stored data\r\n    /// @param index Indexed Number\r\n    /// @return packageID Madicine BatchID\r\n    function getBatchIdByIndexW(uint256 index) public view returns(address packageID) {\r\n        require(\r\n            UsersDetails[msg.sender].role == roles.wholesaler,\r\n            \"Only Wholesaler Can call this function.\"\r\n        );\r\n        return MadicineBatchesAtWholesaler[msg.sender][index];\r\n    }\r\n\r\n/********************************************** Distributer Section ******************************************/\r\n    \r\n    mapping(address => address[]) MadicineBatchAtDistributer;\r\n\r\n    \r\n    mapping(address => address[]) MadicineDtoP;\r\n\r\n    \r\n    mapping(address => address) MadicineDtoPTxContract;\r\n\r\n    /// @notice\r\n    /// @dev Transfer Madicine BatchID in between Distributer to Pharma\r\n    /// @param BatchID Madicine BatchID\r\n    /// @param Shipper Transporter Ethereum Network Address\r\n    /// @param Receiver Pharma Ethereum Network Address\r\n    function transferMadicineDtoP(\r\n        address BatchID,\r\n        address Shipper,\r\n        address Receiver\r\n    ) public {\r\n        require(\r\n            UsersDetails[msg.sender].role == roles.distributer &&\r\n            msg.sender == Madicine(BatchID).getWDP()[1],\r\n            \"Only Distributer or current owner of package can call this function\"\r\n        );\r\n        MadicineD_P dp = new MadicineD_P(\r\n            BatchID,\r\n            msg.sender,\r\n            Shipper,\r\n            Receiver\r\n        );\r\n        MadicineDtoP[msg.sender].push(address(dp));\r\n        MadicineDtoPTxContract[BatchID] = address(dp);\r\n    }\r\n\r\n    /// @notice\r\n    /// @dev Get Madicine BatchID Count\r\n    /// @return count Number of Batches\r\n    function getBatchesCountDP() public view returns (uint256 count){\r\n        require(\r\n            UsersDetails[msg.sender].role == roles.distributer,\r\n            \"Only Distributer Can call this function.\"\r\n        );\r\n        return MadicineDtoP[msg.sender].length;\r\n    }\r\n\r\n    /// @notice\r\n    /// @dev Get Madicine BatchID by indexed value of stored data\r\n    /// @param index Index Number\r\n    /// @return packageID Madicine BatchID\r\n    function getBatchIdByIndexDP(uint256 index) public view returns(address packageID) {\r\n        require(\r\n            UsersDetails[msg.sender].role == roles.distributer,\r\n            \"Only Distributer Can call this function.\"\r\n        );\r\n        return MadicineDtoP[msg.sender][index];\r\n    }\r\n\r\n    /// @notice\r\n    /// @dev Get SubContract ID of Madicine Batch Transfer in between Distributer to Pharma\r\n    /// @param BatchID Madicine BatchID\r\n    /// @return SubContractDP ID\r\n    function getSubContractDP(address BatchID) public view returns (address SubContractDP) {\r\n        // require(\r\n        //     UsersDetails[msg.sender].role == roles.distributer,\r\n        //     \"Only Distributer Can call this function.\"\r\n        // );\r\n        return MadicineDtoPTxContract[BatchID];\r\n    }\r\n\r\n    /// @notice\r\n    /// @dev Get Madicine Batch Count\r\n    /// @return count of Batches\r\n    function getBatchesCountD() public view returns (uint256 count){\r\n        require(\r\n            UsersDetails[msg.sender].role == roles.distributer,\r\n            \"Only Distributer can call this function.\"\r\n        );\r\n        return MadicineBatchAtDistributer[msg.sender].length;\r\n    }\r\n\r\n    /// @notice\r\n    /// @dev Get Madicine BatchID by indexed value of stored data\r\n    /// @param index Indexed Number\r\n    /// @return packageID Madicine BatchID\r\n    function getBatchIdByIndexD(uint256 index) public view returns(address packageID) {\r\n        require(\r\n            UsersDetails[msg.sender].role == roles.distributer,\r\n            \"Only Distributer can call this function.\"\r\n        );\r\n        return MadicineBatchAtDistributer[msg.sender][index];\r\n    }\r\n\r\n/********************************************** Pharma Section ******************************************/\r\n    \r\n    mapping(address => address[]) MadicineBatchAtPharma;\r\n    \r\n    \r\n    mapping(address => address[]) MadicinePtoC;\r\n\r\n    \r\n    mapping(address => address) MadicinePtoCTxContract;\r\n\r\n\r\n    /// @notice\r\n    /// @dev Madicine Batch Recieved\r\n    /// @param batchid Madicine BatchID\r\n    /// @param cid SubContract ID\r\n    function madicineRecievedAtPharma(\r\n        address batchid,\r\n        address cid\r\n    ) public {\r\n        require(\r\n            UsersDetails[msg.sender].role == roles.pharma,\r\n            \"Only Pharma Can call this function.\"\r\n        );\r\n        MadicineD_P(cid).recieveDP(batchid, msg.sender);\r\n        MadicineBatchAtPharma[msg.sender].push(batchid);\r\n        sale[batchid] = salestatus(1);\r\n    }\r\n\r\n    /// @notice\r\n    /// @dev Transfer Madicine BatchID in between Pharma to Customer\r\n    /// @param BatchID Madicine BatchID\r\n    /// @param Shipper Transporter Ethereum Network Address\r\n    /// @param Receiver Customer Ethereum Network Address\r\n    function transferMadicinePtoC(\r\n        address BatchID,\r\n        address Shipper,\r\n        address Receiver\r\n    ) public {\r\n        require(\r\n            UsersDetails[msg.sender].role == roles.pharma &&\r\n            msg.sender == Madicine(BatchID).getWDP()[2],\r\n            \"Only Pharma or current owner of package can call this function\"\r\n        );\r\n        MadicineP_C pc = new MadicineP_C(\r\n            BatchID,\r\n            msg.sender,\r\n            Shipper,\r\n            Receiver\r\n        );\r\n        MadicinePtoC[msg.sender].push(address(pc));\r\n        MadicinePtoCTxContract[BatchID] = address(pc);\r\n        updateSaleStatus(BatchID, 2);\r\n    }\r\n\r\n    enum salestatus {\r\n        notfound,\r\n        atpharma,\r\n        sold,\r\n        expire,\r\n        damaged\r\n    }\r\n\r\n    \r\n    mapping(address => salestatus) sale;\r\n\r\n    event MadicineStatus(\r\n        address BatchID,\r\n        address indexed Pharma,\r\n        uint256 status\r\n    );\r\n\r\n    /// @notice\r\n    /// @dev Update Madicine Batch status\r\n    /// @param BatchID Madicine BatchID\r\n    /// @param Status Madicine Batch Status ( sold, expire etc.)\r\n    function updateSaleStatus(\r\n        address BatchID,\r\n        uint256 Status\r\n    ) public {\r\n        require(\r\n            UsersDetails[msg.sender].role == roles.pharma &&\r\n            msg.sender == Madicine(BatchID).getWDP()[2],\r\n            \"Only Pharma or current owner of package can call this function\"\r\n        );\r\n        require(sale[BatchID] == salestatus(1), \"madicine Must be at Pharma\");\r\n        sale[BatchID] = salestatus(Status);\r\n\r\n        emit MadicineStatus(BatchID, msg.sender, Status);\r\n    }\r\n\r\n    /// @notice\r\n    /// @dev Get Madicine Batch status\r\n    /// @param BatchID Madicine BatchID\r\n    /// @return Status\r\n    function salesInfo(\r\n        address BatchID\r\n    ) public\r\n    view\r\n    returns(\r\n        uint256 Status\r\n    ){\r\n        return uint256(sale[BatchID]);\r\n    }\r\n\r\n\r\n    /// @notice\r\n    /// @dev Get Madicine BatchID Count\r\n    /// @return count Number of Batches\r\n    function getBatchesCountPC() public view returns (uint256 count){\r\n        require(\r\n            UsersDetails[msg.sender].role == roles.pharma,\r\n            \"Only Pharma can call this function.\"\r\n        );\r\n        return MadicinePtoC[msg.sender].length;\r\n    }\r\n\r\n    /// @notice\r\n    /// @dev Get Madicine BatchID by indexed value of stored data\r\n    /// @param index Index Number\r\n    /// @return packageID Madicine BatchID\r\n    function getBatchIdByIndexPC(uint256 index) public view returns(address packageID) {\r\n        require(\r\n            UsersDetails[msg.sender].role == roles.pharma,\r\n            \"Only Pharma can call this function.\"\r\n        );\r\n        return MadicinePtoC[msg.sender][index];\r\n    }\r\n\r\n    /// @notice\r\n    /// @dev Get SubContract ID of Madicine Batch Transfer in between Pharma to Customer\r\n    /// @param BatchID Madicine BatchID\r\n    /// @return SubContractPC ID\r\n    function getSubContractPC(address BatchID) public view returns (address SubContractPC) {\r\n        // require(\r\n        //     UsersDetails[msg.sender].role == roles.pharma,\r\n        //     \"Only Pharma can call this function.\"\r\n        // );\r\n        return MadicinePtoCTxContract[BatchID];\r\n    }\r\n\r\n    /// @notice\r\n    /// @dev Get Madicine Batch count\r\n    /// @return count of Batches\r\n    function getBatchesCountP() public view returns(uint256 count){\r\n        require(\r\n            UsersDetails[msg.sender].role == roles.pharma,\r\n            \"Only Pharma or current owner of package can call this function\"\r\n        );\r\n        return  MadicineBatchAtPharma[msg.sender].length;\r\n    }\r\n\r\n    /// @notice\r\n    /// @dev Get Madicine BatchID by indexed value of stored data\r\n    /// @param index Index Number\r\n    /// @return BatchID\r\n    function getBatchIdByIndexP(uint256 index) public view returns(address BatchID){\r\n        require(\r\n            UsersDetails[msg.sender].role == roles.pharma,\r\n            \"Only Pharma or current owner of package can call this function\"\r\n        );\r\n        return MadicineBatchAtPharma[msg.sender][index];\r\n    }\r\n\r\n/********************************************** Customer Section ******************************************/\r\n\r\n\r\n    /// @notice\r\n    /// @dev Madicine Batch Recieved\r\n    /// @param batchid Madicine BatchID\r\n    /// @param cid SubContract ID\r\n    function madicineRecievedByCustomer(\r\n        address batchid,\r\n        address cid\r\n    ) public {\r\n        require(\r\n            UsersDetails[msg.sender].role == roles.customer,\r\n            \"Only Customer can call this function.\"\r\n        );\r\n        MadicineP_C(cid).recievePC(batchid, msg.sender);\r\n    }\r\n\r\n\r\n/********************************************** For Everyone ******************************************/\r\n\r\n\r\n    function getMedicineBatchInfo(address batchid) public view returns(\r\n        MyLibrary.rawMaterialInfo memory rawMaterialsInfo,\r\n        MyLibrary.medicineBasicInfo memory BasicInfo,\r\n        bytes32 WholesalerLocation,\r\n        bytes32 DistributerLocation,\r\n        bytes32 PharmaLocation\r\n    ){\r\n        (MyLibrary.medicineBasicInfo memory basic_info,\r\n        address whlslr, address dstri, address phrm, address RMA) = Madicine(batchid).getMadicineInfo();\r\n        \r\n        return (\r\n            RawMatrials(RMA).getRawInfo(), basic_info, \r\n            UsersDetails[whlslr].location, UsersDetails[dstri].location, UsersDetails[phrm].location\r\n        );\r\n    }\r\n}\r\n",
  "sourcePath": "D:\\Notes BE\\Sem_3_1\\BITS F452 (Blockchain)\\Proj\\ours\\contracts\\SupplyChain.sol",
  "compiler": {
    "name": "solc",
    "version": "0.8.0+commit.c7dfd78e.Emscripten.clang"
  },
  "schemaVersion": "3.4.16",
  "updatedAt": "2023-11-16T18:17:42.430Z",
  "networkType": "ethereum",
  "devdoc": {
    "kind": "dev",
    "methods": {
      "createRawPackage(bytes32,bytes32,bytes32,uint256,address,address)": {
        "params": {
          "Des": "Transporter Ethereum Network Address",
          "Rcvr": "Manufacturer Ethereum Network Address"
        }
      },
      "getBatchIdByIndexD(uint256)": {
        "params": {
          "index": "Indexed Number"
        },
        "returns": {
          "packageID": "Madicine BatchID"
        }
      },
      "getBatchIdByIndexDP(uint256)": {
        "params": {
          "index": "Index Number"
        },
        "returns": {
          "packageID": "Madicine BatchID"
        }
      },
      "getBatchIdByIndexM(uint256)": {
        "params": {
          "index": "Indexed Number"
        },
        "returns": {
          "packageID": "Madicine BatchID"
        }
      },
      "getBatchIdByIndexP(uint256)": {
        "params": {
          "index": "Index Number"
        },
        "returns": {
          "BatchID": "BatchID"
        }
      },
      "getBatchIdByIndexPC(uint256)": {
        "params": {
          "index": "Index Number"
        },
        "returns": {
          "packageID": "Madicine BatchID"
        }
      },
      "getBatchIdByIndexW(uint256)": {
        "params": {
          "index": "Indexed Number"
        },
        "returns": {
          "packageID": "Madicine BatchID"
        }
      },
      "getBatchIdByIndexWD(uint256)": {
        "params": {
          "index": "Indexed Number"
        },
        "returns": {
          "packageID": "Madicine BatchID"
        }
      },
      "getBatchesCountD()": {
        "returns": {
          "count": "of Batches"
        }
      },
      "getBatchesCountDP()": {
        "returns": {
          "count": "Number of Batches"
        }
      },
      "getBatchesCountM()": {
        "returns": {
          "count": "of Batches"
        }
      },
      "getBatchesCountP()": {
        "returns": {
          "count": "of Batches"
        }
      },
      "getBatchesCountPC()": {
        "returns": {
          "count": "Number of Batches"
        }
      },
      "getBatchesCountW()": {
        "returns": {
          "count": "of Batches"
        }
      },
      "getBatchesCountWD()": {
        "returns": {
          "count": "of Batches"
        }
      },
      "getPackageIDByIndexM(uint256)": {
        "params": {
          "index": "Indexed Value"
        },
        "returns": {
          "BatchID": "BatchID"
        }
      },
      "getPackageIdByIndexS(uint256)": {
        "params": {
          "index": "Indexed Value"
        },
        "returns": {
          "packageID": "packageID"
        }
      },
      "getPackagesCountM()": {
        "returns": {
          "count": "of Packages at Manufacturer"
        }
      },
      "getPackagesCountS()": {
        "returns": {
          "count": "of packages"
        }
      },
      "getSubContractDP(address)": {
        "params": {
          "BatchID": "Madicine BatchID"
        },
        "returns": {
          "SubContractDP": "ID"
        }
      },
      "getSubContractPC(address)": {
        "params": {
          "BatchID": "Madicine BatchID"
        },
        "returns": {
          "SubContractPC": "ID"
        }
      },
      "getSubContractWD(address)": {
        "params": {
          "BatchID": "Madicine BatchID"
        },
        "returns": {
          "SubContractWD": "ID"
        }
      },
      "getUserInfo(address)": {
        "params": {
          "User": "User Ethereum Network Address"
        },
        "returns": {
          "ethAddress": " Details",
          "location": " Details",
          "name": " Details",
          "role": " Details"
        }
      },
      "getUserbyIndex(uint256)": {
        "params": {
          "index": "Indexed Number"
        },
        "returns": {
          "ethAddress": "Details",
          "location": "Details",
          "name": "Details",
          "role": "Details"
        }
      },
      "getUsersCount()": {
        "returns": {
          "count": "of registered Users"
        }
      },
      "loadConsingment(address,uint256,address)": {
        "params": {
          "cid": "Sub Contract ID for Consingment transaction",
          "pid": "PackageID or MadicineID",
          "transportertype": "Transporter Type on the basic of tx between Roles"
        }
      },
      "madicineReceived(address,address)": {
        "params": {
          "batchid": "Madicine BatchID",
          "cid": "Sub Contract ID for Madicine (if transaction Wholesaler to Distributer)"
        }
      },
      "madicineRecievedAtPharma(address,address)": {
        "params": {
          "batchid": "Madicine BatchID",
          "cid": "SubContract ID"
        }
      },
      "madicineRecievedByCustomer(address,address)": {
        "params": {
          "batchid": "Madicine BatchID",
          "cid": "SubContract ID"
        }
      },
      "manufacturMadicine(bytes32,bytes32,address,uint256,address,address,uint256)": {
        "params": {
          "Des": "Description of madicine batch",
          "Quant": "Number of Units",
          "RM": "RawMatrials Information",
          "Rcvr": "Receiver Ethereum Network Address",
          "RcvrType": "Receiver Type Ethier Wholesaler(1) or Distributer(2)",
          "Shpr": "Transporter Ethereum Network Address"
        }
      },
      "rawPackageReceived(address)": {
        "params": {
          "pid": "PackageID or MadicineID"
        }
      },
      "reassigneRole(address,uint256)": {
        "params": {
          "Role": "Role to assigne",
          "userAddress": "User Ethereum Network Address"
        }
      },
      "registerUser(address,bytes32,bytes32,uint256)": {
        "params": {
          "EthAddress": "Ethereum Network Address of User",
          "Location": "User Location",
          "Name": "User name",
          "Role": "User Role"
        }
      },
      "revokeRole(address)": {
        "params": {
          "userAddress": "User Ethereum Network Address"
        }
      },
      "salesInfo(address)": {
        "params": {
          "BatchID": "Madicine BatchID"
        },
        "returns": {
          "Status": "Status"
        }
      },
      "transferMadicineDtoP(address,address,address)": {
        "params": {
          "BatchID": "Madicine BatchID",
          "Receiver": "Pharma Ethereum Network Address",
          "Shipper": "Transporter Ethereum Network Address"
        }
      },
      "transferMadicinePtoC(address,address,address)": {
        "params": {
          "BatchID": "Madicine BatchID",
          "Receiver": "Customer Ethereum Network Address",
          "Shipper": "Transporter Ethereum Network Address"
        }
      },
      "transferMadicineWtoD(address,address,address)": {
        "params": {
          "BatchID": "Madicine BatchID",
          "Receiver": "Distributer Ethereum Network Address",
          "Shipper": "Transporter Ethereum Network Address"
        }
      },
      "updateSaleStatus(address,uint256)": {
        "params": {
          "BatchID": "Madicine BatchID",
          "Status": "Madicine Batch Status ( sold, expire etc.)"
        }
      }
    },
    "version": 1
  },
  "userdoc": {
    "kind": "user",
    "methods": {
      "constructor": {
        "notice": "@dev Initiate SupplyChain Contract"
      },
      "createRawPackage(bytes32,bytes32,bytes32,uint256,address,address)": {
        "notice": "@dev Create new raw package by Supplier"
      },
      "getBatchIdByIndexD(uint256)": {
        "notice": "@dev Get Madicine BatchID by indexed value of stored data"
      },
      "getBatchIdByIndexDP(uint256)": {
        "notice": "@dev Get Madicine BatchID by indexed value of stored data"
      },
      "getBatchIdByIndexM(uint256)": {
        "notice": "@dev Get Madicine BatchID by indexed value of stored data"
      },
      "getBatchIdByIndexP(uint256)": {
        "notice": "@dev Get Madicine BatchID by indexed value of stored data"
      },
      "getBatchIdByIndexPC(uint256)": {
        "notice": "@dev Get Madicine BatchID by indexed value of stored data"
      },
      "getBatchIdByIndexW(uint256)": {
        "notice": "@dev Get Madicine BatchID by indexed value of stored data"
      },
      "getBatchIdByIndexWD(uint256)": {
        "notice": "@dev Get Madicine BatchID by indexed value of stored data"
      },
      "getBatchesCountD()": {
        "notice": "@dev Get Madicine Batch Count"
      },
      "getBatchesCountDP()": {
        "notice": "@dev Get Madicine BatchID Count"
      },
      "getBatchesCountM()": {
        "notice": "@dev Get Madicine Batch Count"
      },
      "getBatchesCountP()": {
        "notice": "@dev Get Madicine Batch count"
      },
      "getBatchesCountPC()": {
        "notice": "@dev Get Madicine BatchID Count"
      },
      "getBatchesCountW()": {
        "notice": "@dev Get Madicine Batch Count"
      },
      "getBatchesCountWD()": {
        "notice": "@dev Get Madicine Batch Count"
      },
      "getPackageIDByIndexM(uint256)": {
        "notice": "@dev Get PackageID by Indexed value of stored data"
      },
      "getPackageIdByIndexS(uint256)": {
        "notice": "@dev Get PackageID by Indexed value of stored data"
      },
      "getPackagesCountM()": {
        "notice": "@dev Get Package Count at Manufacturer"
      },
      "getPackagesCountS()": {
        "notice": "@dev  Get Count of created package by supplier(caller)"
      },
      "getSubContractDP(address)": {
        "notice": "@dev Get SubContract ID of Madicine Batch Transfer in between Distributer to Pharma"
      },
      "getSubContractPC(address)": {
        "notice": "@dev Get SubContract ID of Madicine Batch Transfer in between Pharma to Customer"
      },
      "getSubContractWD(address)": {
        "notice": "@dev Get Sub Contract ID of Madicine Batch Transfer in between Wholesaler to Distributer"
      },
      "getUserInfo(address)": {
        "notice": "@dev Get User Information/ Profile"
      },
      "getUserbyIndex(uint256)": {
        "notice": "@dev Get User by Index value of stored data"
      },
      "getUsersCount()": {
        "notice": "@dev Get Number of registered Users"
      },
      "loadConsingment(address,uint256,address)": {
        "notice": "@dev Load Consingment fot transport one location to another."
      },
      "madicineReceived(address,address)": {
        "notice": "@dev Madicine Batch Received"
      },
      "madicineRecievedAtPharma(address,address)": {
        "notice": "@dev Madicine Batch Recieved"
      },
      "madicineRecievedByCustomer(address,address)": {
        "notice": "@dev Madicine Batch Recieved"
      },
      "manufacturMadicine(bytes32,bytes32,address,uint256,address,address,uint256)": {
        "notice": "@dev Create Madicine Batch"
      },
      "rawPackageReceived(address)": {
        "notice": "@dev Update Package / Madicine batch recieved status by ethier Manufacturer or Distributer"
      },
      "reassigneRole(address,uint256)": {
        "notice": "@dev Reassigne new role to User"
      },
      "registerUser(address,bytes32,bytes32,uint256)": {
        "notice": "@dev Register New user by Owner"
      },
      "revokeRole(address)": {
        "notice": "@dev Revoke users role"
      },
      "salesInfo(address)": {
        "notice": "@dev Get Madicine Batch status"
      },
      "transferMadicineDtoP(address,address,address)": {
        "notice": "@dev Transfer Madicine BatchID in between Distributer to Pharma"
      },
      "transferMadicinePtoC(address,address,address)": {
        "notice": "@dev Transfer Madicine BatchID in between Pharma to Customer"
      },
      "transferMadicineWtoD(address,address,address)": {
        "notice": "@dev Sub Contract for Madicine Transfer from Wholesaler to Distributer"
      },
      "updateSaleStatus(address,uint256)": {
        "notice": "@dev Update Madicine Batch status"
      }
    },
    "version": 1
  }
}