{
  "contractName": "SupplyChain",
  "abi": [
    {
      "inputs": [],
      "stateMutability": "nonpayable",
      "type": "constructor"
    },
    {
      "anonymous": false,
      "inputs": [
        {
          "indexed": true,
          "internalType": "address",
          "name": "BatchId",
          "type": "address"
        },
        {
          "indexed": true,
          "internalType": "address",
          "name": "Manufacturer",
          "type": "address"
        },
        {
          "indexed": false,
          "internalType": "address",
          "name": "shipper",
          "type": "address"
        },
        {
          "indexed": true,
          "internalType": "address",
          "name": "Receiver",
          "type": "address"
        }
      ],
      "name": "MadicineNewBatch",
      "type": "event"
    },
    {
      "anonymous": false,
      "inputs": [
        {
          "indexed": false,
          "internalType": "address",
          "name": "BatchID",
          "type": "address"
        },
        {
          "indexed": true,
          "internalType": "address",
          "name": "Pharma",
          "type": "address"
        },
        {
          "indexed": false,
          "internalType": "uint256",
          "name": "status",
          "type": "uint256"
        }
      ],
      "name": "MadicineStatus",
      "type": "event"
    },
    {
      "anonymous": false,
      "inputs": [
        {
          "indexed": true,
          "internalType": "address",
          "name": "ProductID",
          "type": "address"
        },
        {
          "indexed": true,
          "internalType": "address",
          "name": "Supplier",
          "type": "address"
        },
        {
          "indexed": false,
          "internalType": "address",
          "name": "Shipper",
          "type": "address"
        },
        {
          "indexed": true,
          "internalType": "address",
          "name": "Receiver",
          "type": "address"
        }
      ],
      "name": "RawSupplyInit",
      "type": "event"
    },
    {
      "anonymous": false,
      "inputs": [
        {
          "indexed": true,
          "internalType": "address",
          "name": "EthAddress",
          "type": "address"
        },
        {
          "indexed": false,
          "internalType": "bytes32",
          "name": "Name",
          "type": "bytes32"
        }
      ],
      "name": "UserRegister",
      "type": "event"
    },
    {
      "anonymous": false,
      "inputs": [
        {
          "indexed": true,
          "internalType": "address",
          "name": "EthAddress",
          "type": "address"
        },
        {
          "indexed": false,
          "internalType": "bytes32",
          "name": "Name",
          "type": "bytes32"
        },
        {
          "indexed": false,
          "internalType": "uint256",
          "name": "Role",
          "type": "uint256"
        }
      ],
      "name": "UserRoleRessigne",
      "type": "event"
    },
    {
      "anonymous": false,
      "inputs": [
        {
          "indexed": true,
          "internalType": "address",
          "name": "EthAddress",
          "type": "address"
        },
        {
          "indexed": false,
          "internalType": "bytes32",
          "name": "Name",
          "type": "bytes32"
        },
        {
          "indexed": false,
          "internalType": "uint256",
          "name": "Role",
          "type": "uint256"
        }
      ],
      "name": "UserRoleRevoked",
      "type": "event"
    },
    {
      "inputs": [],
      "name": "Owner",
      "outputs": [
        {
          "internalType": "address",
          "name": "",
          "type": "address"
        }
      ],
      "stateMutability": "view",
      "type": "function"
    },
    {
      "inputs": [
        {
          "internalType": "address",
          "name": "EthAddress",
          "type": "address"
        },
        {
          "internalType": "bytes32",
          "name": "Name",
          "type": "bytes32"
        },
        {
          "internalType": "bytes32",
          "name": "Location",
          "type": "bytes32"
        },
        {
          "internalType": "uint256",
          "name": "Role",
          "type": "uint256"
        }
      ],
      "name": "registerUser",
      "outputs": [],
      "stateMutability": "nonpayable",
      "type": "function"
    },
    {
      "inputs": [
        {
          "internalType": "address",
          "name": "userAddress",
          "type": "address"
        }
      ],
      "name": "revokeRole",
      "outputs": [],
      "stateMutability": "nonpayable",
      "type": "function"
    },
    {
      "inputs": [
        {
          "internalType": "address",
          "name": "userAddress",
          "type": "address"
        },
        {
          "internalType": "uint256",
          "name": "Role",
          "type": "uint256"
        }
      ],
      "name": "reassigneRole",
      "outputs": [],
      "stateMutability": "nonpayable",
      "type": "function"
    },
    {
      "inputs": [
        {
          "internalType": "address",
          "name": "User",
          "type": "address"
        }
      ],
      "name": "getUserInfo",
      "outputs": [
        {
          "internalType": "bytes32",
          "name": "name",
          "type": "bytes32"
        },
        {
          "internalType": "bytes32",
          "name": "location",
          "type": "bytes32"
        },
        {
          "internalType": "address",
          "name": "ethAddress",
          "type": "address"
        },
        {
          "internalType": "enum SupplyChain.roles",
          "name": "role",
          "type": "uint8"
        }
      ],
      "stateMutability": "view",
      "type": "function"
    },
    {
      "inputs": [],
      "name": "getUsersCount",
      "outputs": [
        {
          "internalType": "uint256",
          "name": "count",
          "type": "uint256"
        }
      ],
      "stateMutability": "view",
      "type": "function"
    },
    {
      "inputs": [
        {
          "internalType": "uint256",
          "name": "index",
          "type": "uint256"
        }
      ],
      "name": "getUserbyIndex",
      "outputs": [
        {
          "internalType": "bytes32",
          "name": "name",
          "type": "bytes32"
        },
        {
          "internalType": "bytes32",
          "name": "location",
          "type": "bytes32"
        },
        {
          "internalType": "address",
          "name": "ethAddress",
          "type": "address"
        },
        {
          "internalType": "enum SupplyChain.roles",
          "name": "role",
          "type": "uint8"
        }
      ],
      "stateMutability": "view",
      "type": "function"
    },
    {
      "inputs": [
        {
          "internalType": "bytes32",
          "name": "Des",
          "type": "bytes32"
        },
        {
          "internalType": "bytes32",
          "name": "FN",
          "type": "bytes32"
        },
        {
          "internalType": "bytes32",
          "name": "Loc",
          "type": "bytes32"
        },
        {
          "internalType": "uint256",
          "name": "Quant",
          "type": "uint256"
        },
        {
          "internalType": "address",
          "name": "Shpr",
          "type": "address"
        },
        {
          "internalType": "address",
          "name": "Rcvr",
          "type": "address"
        }
      ],
      "name": "createRawPackage",
      "outputs": [],
      "stateMutability": "nonpayable",
      "type": "function"
    },
    {
      "inputs": [],
      "name": "getPackagesCountS",
      "outputs": [
        {
          "internalType": "uint256",
          "name": "count",
          "type": "uint256"
        }
      ],
      "stateMutability": "view",
      "type": "function"
    },
    {
      "inputs": [
        {
          "internalType": "uint256",
          "name": "index",
          "type": "uint256"
        }
      ],
      "name": "getPackageIdByIndexS",
      "outputs": [
        {
          "internalType": "address",
          "name": "packageID",
          "type": "address"
        }
      ],
      "stateMutability": "view",
      "type": "function"
    },
    {
      "inputs": [
        {
          "internalType": "address",
          "name": "pid",
          "type": "address"
        },
        {
          "internalType": "uint256",
          "name": "transportertype",
          "type": "uint256"
        },
        {
          "internalType": "address",
          "name": "cid",
          "type": "address"
        }
      ],
      "name": "loadConsingment",
      "outputs": [],
      "stateMutability": "nonpayable",
      "type": "function"
    },
    {
      "inputs": [
        {
          "internalType": "address",
          "name": "pid",
          "type": "address"
        }
      ],
      "name": "rawPackageReceived",
      "outputs": [],
      "stateMutability": "nonpayable",
      "type": "function"
    },
    {
      "inputs": [],
      "name": "getPackagesCountM",
      "outputs": [
        {
          "internalType": "uint256",
          "name": "count",
          "type": "uint256"
        }
      ],
      "stateMutability": "view",
      "type": "function"
    },
    {
      "inputs": [
        {
          "internalType": "uint256",
          "name": "index",
          "type": "uint256"
        }
      ],
      "name": "getPackageIDByIndexM",
      "outputs": [
        {
          "internalType": "address",
          "name": "BatchID",
          "type": "address"
        }
      ],
      "stateMutability": "view",
      "type": "function"
    },
    {
      "inputs": [
        {
          "internalType": "bytes32",
          "name": "Des",
          "type": "bytes32"
        },
        {
          "internalType": "bytes32",
          "name": "RM",
          "type": "bytes32"
        },
        {
          "internalType": "uint256",
          "name": "Quant",
          "type": "uint256"
        },
        {
          "internalType": "address",
          "name": "Shpr",
          "type": "address"
        },
        {
          "internalType": "address",
          "name": "Rcvr",
          "type": "address"
        },
        {
          "internalType": "uint256",
          "name": "RcvrType",
          "type": "uint256"
        }
      ],
      "name": "manufacturMadicine",
      "outputs": [],
      "stateMutability": "nonpayable",
      "type": "function"
    },
    {
      "inputs": [],
      "name": "getBatchesCountM",
      "outputs": [
        {
          "internalType": "uint256",
          "name": "count",
          "type": "uint256"
        }
      ],
      "stateMutability": "view",
      "type": "function"
    },
    {
      "inputs": [
        {
          "internalType": "uint256",
          "name": "index",
          "type": "uint256"
        }
      ],
      "name": "getBatchIdByIndexM",
      "outputs": [
        {
          "internalType": "address",
          "name": "packageID",
          "type": "address"
        }
      ],
      "stateMutability": "view",
      "type": "function"
    },
    {
      "inputs": [
        {
          "internalType": "address",
          "name": "batchid",
          "type": "address"
        },
        {
          "internalType": "address",
          "name": "cid",
          "type": "address"
        }
      ],
      "name": "madicineReceived",
      "outputs": [],
      "stateMutability": "nonpayable",
      "type": "function"
    },
    {
      "inputs": [
        {
          "internalType": "address",
          "name": "BatchID",
          "type": "address"
        },
        {
          "internalType": "address",
          "name": "Shipper",
          "type": "address"
        },
        {
          "internalType": "address",
          "name": "Receiver",
          "type": "address"
        }
      ],
      "name": "transferMadicineWtoD",
      "outputs": [],
      "stateMutability": "nonpayable",
      "type": "function"
    },
    {
      "inputs": [],
      "name": "getBatchesCountWD",
      "outputs": [
        {
          "internalType": "uint256",
          "name": "count",
          "type": "uint256"
        }
      ],
      "stateMutability": "view",
      "type": "function"
    },
    {
      "inputs": [
        {
          "internalType": "uint256",
          "name": "index",
          "type": "uint256"
        }
      ],
      "name": "getBatchIdByIndexWD",
      "outputs": [
        {
          "internalType": "address",
          "name": "packageID",
          "type": "address"
        }
      ],
      "stateMutability": "view",
      "type": "function"
    },
    {
      "inputs": [
        {
          "internalType": "address",
          "name": "BatchID",
          "type": "address"
        }
      ],
      "name": "getSubContractWD",
      "outputs": [
        {
          "internalType": "address",
          "name": "SubContractWD",
          "type": "address"
        }
      ],
      "stateMutability": "view",
      "type": "function"
    },
    {
      "inputs": [],
      "name": "getBatchesCountW",
      "outputs": [
        {
          "internalType": "uint256",
          "name": "count",
          "type": "uint256"
        }
      ],
      "stateMutability": "view",
      "type": "function"
    },
    {
      "inputs": [
        {
          "internalType": "uint256",
          "name": "index",
          "type": "uint256"
        }
      ],
      "name": "getBatchIdByIndexW",
      "outputs": [
        {
          "internalType": "address",
          "name": "packageID",
          "type": "address"
        }
      ],
      "stateMutability": "view",
      "type": "function"
    },
    {
      "inputs": [
        {
          "internalType": "address",
          "name": "BatchID",
          "type": "address"
        },
        {
          "internalType": "address",
          "name": "Shipper",
          "type": "address"
        },
        {
          "internalType": "address",
          "name": "Receiver",
          "type": "address"
        }
      ],
      "name": "transferMadicineDtoP",
      "outputs": [],
      "stateMutability": "nonpayable",
      "type": "function"
    },
    {
      "inputs": [],
      "name": "getBatchesCountDP",
      "outputs": [
        {
          "internalType": "uint256",
          "name": "count",
          "type": "uint256"
        }
      ],
      "stateMutability": "view",
      "type": "function"
    },
    {
      "inputs": [
        {
          "internalType": "uint256",
          "name": "index",
          "type": "uint256"
        }
      ],
      "name": "getBatchIdByIndexDP",
      "outputs": [
        {
          "internalType": "address",
          "name": "packageID",
          "type": "address"
        }
      ],
      "stateMutability": "view",
      "type": "function"
    },
    {
      "inputs": [
        {
          "internalType": "address",
          "name": "BatchID",
          "type": "address"
        }
      ],
      "name": "getSubContractDP",
      "outputs": [
        {
          "internalType": "address",
          "name": "SubContractDP",
          "type": "address"
        }
      ],
      "stateMutability": "view",
      "type": "function"
    },
    {
      "inputs": [],
      "name": "getBatchesCountD",
      "outputs": [
        {
          "internalType": "uint256",
          "name": "count",
          "type": "uint256"
        }
      ],
      "stateMutability": "view",
      "type": "function"
    },
    {
      "inputs": [
        {
          "internalType": "uint256",
          "name": "index",
          "type": "uint256"
        }
      ],
      "name": "getBatchIdByIndexD",
      "outputs": [
        {
          "internalType": "address",
          "name": "packageID",
          "type": "address"
        }
      ],
      "stateMutability": "view",
      "type": "function"
    },
    {
      "inputs": [
        {
          "internalType": "address",
          "name": "batchid",
          "type": "address"
        },
        {
          "internalType": "address",
          "name": "cid",
          "type": "address"
        }
      ],
      "name": "madicineRecievedAtPharma",
      "outputs": [],
      "stateMutability": "nonpayable",
      "type": "function"
    },
    {
      "inputs": [
        {
          "internalType": "address",
          "name": "BatchID",
          "type": "address"
        },
        {
          "internalType": "address",
          "name": "Shipper",
          "type": "address"
        },
        {
          "internalType": "address",
          "name": "Receiver",
          "type": "address"
        }
      ],
      "name": "transferMadicinePtoC",
      "outputs": [],
      "stateMutability": "nonpayable",
      "type": "function"
    },
    {
      "inputs": [
        {
          "internalType": "address",
          "name": "BatchID",
          "type": "address"
        },
        {
          "internalType": "uint256",
          "name": "Status",
          "type": "uint256"
        }
      ],
      "name": "updateSaleStatus",
      "outputs": [],
      "stateMutability": "nonpayable",
      "type": "function"
    },
    {
      "inputs": [
        {
          "internalType": "address",
          "name": "BatchID",
          "type": "address"
        }
      ],
      "name": "salesInfo",
      "outputs": [
        {
          "internalType": "uint256",
          "name": "Status",
          "type": "uint256"
        }
      ],
      "stateMutability": "view",
      "type": "function"
    },
    {
      "inputs": [],
      "name": "getBatchesCountPC",
      "outputs": [
        {
          "internalType": "uint256",
          "name": "count",
          "type": "uint256"
        }
      ],
      "stateMutability": "view",
      "type": "function"
    },
    {
      "inputs": [
        {
          "internalType": "uint256",
          "name": "index",
          "type": "uint256"
        }
      ],
      "name": "getBatchIdByIndexPC",
      "outputs": [
        {
          "internalType": "address",
          "name": "packageID",
          "type": "address"
        }
      ],
      "stateMutability": "view",
      "type": "function"
    },
    {
      "inputs": [
        {
          "internalType": "address",
          "name": "BatchID",
          "type": "address"
        }
      ],
      "name": "getSubContractPC",
      "outputs": [
        {
          "internalType": "address",
          "name": "SubContractPC",
          "type": "address"
        }
      ],
      "stateMutability": "view",
      "type": "function"
    },
    {
      "inputs": [],
      "name": "getBatchesCountP",
      "outputs": [
        {
          "internalType": "uint256",
          "name": "count",
          "type": "uint256"
        }
      ],
      "stateMutability": "view",
      "type": "function"
    },
    {
      "inputs": [
        {
          "internalType": "uint256",
          "name": "index",
          "type": "uint256"
        }
      ],
      "name": "getBatchIdByIndexP",
      "outputs": [
        {
          "internalType": "address",
          "name": "BatchID",
          "type": "address"
        }
      ],
      "stateMutability": "view",
      "type": "function"
    },
    {
      "inputs": [
        {
          "internalType": "address",
          "name": "batchid",
          "type": "address"
        },
        {
          "internalType": "address",
          "name": "cid",
          "type": "address"
        }
      ],
      "name": "madicineRecievedByCustomer",
      "outputs": [],
      "stateMutability": "nonpayable",
      "type": "function"
    },
    {
      "inputs": [
        {
          "internalType": "address",
          "name": "batchid",
          "type": "address"
        }
      ],
      "name": "getMedicineBatchInfo",
      "outputs": [
        {
          "components": [
            {
              "internalType": "bytes32",
              "name": "Description",
              "type": "bytes32"
            },
            {
              "internalType": "bytes32",
              "name": "RawMaterials",
              "type": "bytes32"
            },
            {
              "internalType": "uint256",
              "name": "ManufacturingTime",
              "type": "uint256"
            },
            {
              "internalType": "bytes32",
              "name": "ManufacturingLocation",
              "type": "bytes32"
            },
            {
              "internalType": "uint256",
              "name": "QualityCheckTime",
              "type": "uint256"
            },
            {
              "internalType": "enum MyLibrary.madicineStatus",
              "name": "Status",
              "type": "uint8"
            }
          ],
          "internalType": "struct MyLibrary.medicineBasicInfo",
          "name": "BasicInfo",
          "type": "tuple"
        },
        {
          "internalType": "bytes32",
          "name": "WholesalerLocation",
          "type": "bytes32"
        },
        {
          "internalType": "bytes32",
          "name": "DistributerLocation",
          "type": "bytes32"
        },
        {
          "internalType": "bytes32",
          "name": "PharmaLocation",
          "type": "bytes32"
        }
      ],
      "stateMutability": "view",
      "type": "function"
    }
  ],
  "bytecode": "0x608060405234801561001057600080fd5b50600080546001600160a01b03191633179055615368806100326000396000f3fe60806040523480156200001157600080fd5b50600436106200028c5760003560e01c80639856f6b31162000165578063bc8c5b1c11620000d5578063e95690aa1162000093578063e95690aa1462000574578063eae3c207146200058b578063f05bcd4e14620005a2578063f4d45dbe14620005b9578063f9723eb614620005d0578063fcbc5f4414620005e7576200028c565b8063bc8c5b1c146200051b578063cbe4f5ac1462000532578063d40da967146200053c578063e581762e1462000553578063e5bff92a146200055d576200028c565b8063a3a1d6c31162000123578063a3a1d6c314620004cf578063a4a1e26314620004d9578063b4a99a4e14620004e3578063b6c022f514620004ed578063bb8ee1c51462000504576200028c565b80639856f6b31462000476578063986c9139146200048d5780639af035a314620004a45780639f696b3514620004bb5780639fb3a90314620004c5576200028c565b8063381a3fa9116200020157806376e903aa11620001bf57806376e903aa14620003fe578063798c8fd0146200041557806380e52e3f146200043e578063884b9c521462000455578063923f645a146200045f576200028c565b8063381a3fa914620003985780633d66f86d14620003af5780635e33cea414620003b95780636386c1c714620003d057806373f08eb314620003e7576200028c565b80632becfd04116200024f5780632becfd04146200033057806331dbe6a11462000349578063347590161462000360578063373d5c18146200037757806337caa450146200038e576200028c565b80630bcc756814620002915780630cd48d8114620002c0578063108329f814620002d95780631a22027e14620003025780632246e4d41462000319575b600080fd5b620002a8620002a236600462002ae8565b620005fe565b604051620002b7919062002b1a565b60405180910390f35b620002d7620002d13660046200278d565b620006b5565b005b620002f0620002ea36600462002ae8565b62000804565b604051620002b7949392919062002c20565b620002a86200031336600462002767565b6200085a565b620002d76200032a3660046200278d565b62000878565b6200033a62000b23565b604051620002b7919062002c17565b620002a86200035a36600462002ae8565b62000b98565b620002a86200037136600462002767565b62000c29565b620002d76200038836600462002858565b62000c47565b6200033a62000dd6565b620002a8620003a936600462002ae8565b62000e4b565b6200033a62000edc565b620002a8620003ca36600462002ae8565b62000f51565b620002f0620003e136600462002767565b62000fe2565b620002d7620003f836600462002886565b6200101e565b620002a86200040f36600462002ae8565b620011f8565b6200042c6200042636600462002767565b62001289565b604051620002b79493929190620031f3565b620002d76200044f36600462002767565b6200135d565b6200033a620014a5565b620002d7620004703660046200281b565b6200151a565b620002d762000487366004620029b9565b620016e5565b620002a86200049e36600462002ae8565b6200185c565b620002a8620004b536600462002ae8565b620018ed565b6200033a6200197e565b6200033a620019f3565b6200033a62001a68565b6200033a62001add565b620002a862001ae3565b620002a8620004fe36600462002767565b62001af2565b6200033a6200051536600462002767565b62001b10565b620002d76200052c36600462002767565b62001b52565b6200033a62001c53565b620002d76200054d36600462002957565b62001cc8565b6200033a62001de4565b620002a86200056e36600462002ae8565b62001e59565b620002d762000585366004620027ca565b62001eea565b620002d76200059c36600462002858565b6200206e565b620002a8620005b336600462002ae8565b6200225c565b620002d7620005ca3660046200278d565b620022ed565b620002d7620005e1366004620027ca565b620023b4565b620002d7620005f8366004620027ca565b6200253b565b6000600333600090815260016020526040902060020154600160a01b900460ff1660088111156200063f57634e487b7160e01b600052602160045260246000fd5b14620006685760405162461bcd60e51b81526004016200065f9062003044565b60405180910390fd5b3360009081526004602052604090208054839081106200069857634e487b7160e01b600052603260045260246000fd5b6000918252602090912001546001600160a01b031690505b919050565b600633600090815260016020526040902060020154600160a01b900460ff166008811115620006f457634e487b7160e01b600052602160045260246000fd5b14620007145760405162461bcd60e51b81526004016200065f9062002d65565b6040516219530760e91b81526001600160a01b038216906332a60e009062000743908590339060040162002b2e565b600060405180830381600087803b1580156200075e57600080fd5b505af115801562000773573d6000803e3d6000fd5b5050336000908152600c602090815260408220805460018082018355918452919092200180546001600160a01b0319166001600160a01b0387161790559150620007ba9050565b6001600160a01b0383166000908152600f60205260409020805460ff19166001836004811115620007fb57634e487b7160e01b600052602160045260246000fd5b02179055505050565b6000806000806200084b600286815481106200083057634e487b7160e01b600052603260045260246000fd5b6000918252602090912001546001600160a01b031662000fe2565b93509350935093509193509193565b6001600160a01b039081166000908152600e60205260409020541690565b600433600090815260016020526040902060020154600160a01b900460ff166008811115620008b757634e487b7160e01b600052602160045260246000fd5b1480620009005750600533600090815260016020526040902060020154600160a01b900460ff166008811115620008fe57634e487b7160e01b600052602160045260246000fd5b145b6200091f5760405162461bcd60e51b81526004016200065f9062002ddf565b604051630a57332d60e31b81526000906001600160a01b038416906352b99968906200095090339060040162002b1a565b602060405180830381600087803b1580156200096b57600080fd5b505af115801562000980573d6000803e3d6000fd5b505050506040513d601f19601f82011682018060405250810190620009a6919062002b01565b90508060011415620009f0573360009081526006602090815260408220805460018101825590835291200180546001600160a01b0319166001600160a01b03851617905562000b1e565b806002141562000b1e57336000908152600960209081526040808320805460018101825590845291832090910180546001600160a01b0319166001600160a01b038716908117909155815162d4d11f60e11b8152915190916301a9a23e916004808301926080929190829003018186803b15801562000a6e57600080fd5b505afa15801562000a83573d6000803e3d6000fd5b505050506040513d601f19601f8201168201806040525081019062000aa99190620028c1565b516001600160a01b03161462000b1e5760405163f4c0722960e01b81526001600160a01b0383169063f4c072299062000ae9908690339060040162002b2e565b600060405180830381600087803b15801562000b0457600080fd5b505af115801562000b19573d6000803e3d6000fd5b505050505b505050565b6000600133600090815260016020526040902060020154600160a01b900460ff16600881111562000b6457634e487b7160e01b600052602160045260246000fd5b1462000b845760405162461bcd60e51b81526004016200065f906200308c565b503360009081526003602052604090205490565b6000600533600090815260016020526040902060020154600160a01b900460ff16600881111562000bd957634e487b7160e01b600052602160045260246000fd5b1462000bf95760405162461bcd60e51b81526004016200065f9062002f93565b3360009081526009602052604090208054839081106200069857634e487b7160e01b600052603260045260246000fd5b6001600160a01b039081166000908152600860205260409020541690565b6000546001600160a01b0316331462000c745760405162461bcd60e51b81526004016200065f9062002c65565b60006001600160a01b038316600090815260016020526040902060020154600160a01b900460ff16600881111562000cbc57634e487b7160e01b600052602160045260246000fd5b141562000cdd5760405162461bcd60e51b81526004016200065f9062002cef565b80600881111562000cfe57634e487b7160e01b600052602160045260246000fd5b6001600160a01b0383166000908152600160205260409020600201805460ff60a01b1916600160a01b83600881111562000d4857634e487b7160e01b600052602160045260246000fd5b02179055506001600160a01b038216600081815260016020526040902080546002909101547f4c8b3f61ed94356876db0fec52d6a7c6aeaf772c4e0ca8f6da74331cc0f687cc9190600160a01b900460ff16600881111562000dba57634e487b7160e01b600052602160045260246000fd5b60405162000dca92919062002c57565b60405180910390a25050565b6000600433600090815260016020526040902060020154600160a01b900460ff16600881111562000e1757634e487b7160e01b600052602160045260246000fd5b1462000e375760405162461bcd60e51b81526004016200065f90620030d1565b503360009081526006602052604090205490565b6000600633600090815260016020526040902060020154600160a01b900460ff16600881111562000e8c57634e487b7160e01b600052602160045260246000fd5b1462000eac5760405162461bcd60e51b81526004016200065f9062002f50565b336000908152600d602052604090208054839081106200069857634e487b7160e01b600052603260045260246000fd5b6000600333600090815260016020526040902060020154600160a01b900460ff16600881111562000f1d57634e487b7160e01b600052602160045260246000fd5b1462000f3d5760405162461bcd60e51b81526004016200065f9062002d1c565b503360009081526005602052604090205490565b6000600133600090815260016020526040902060020154600160a01b900460ff16600881111562000f9257634e487b7160e01b600052602160045260246000fd5b1462000fb25760405162461bcd60e51b81526004016200065f906200308c565b3360009081526003602052604090208054839081106200069857634e487b7160e01b600052603260045260246000fd5b6001600160a01b03908116600090815260016020819052604090912080549181015460029091015491939092821691600160a01b900460ff1690565b600233600090815260016020526040902060020154600160a01b900460ff1660088111156200105d57634e487b7160e01b600052602160045260246000fd5b146200107d5760405162461bcd60e51b81526004016200065f9062003175565b60008211620010a05760405162461bcd60e51b81526004016200065f9062002eb1565b8160011415620011125760405163638e9a3d60e01b81526001600160a01b0384169063638e9a3d90620010d890339060040162002b1a565b600060405180830381600087803b158015620010f357600080fd5b505af115801562001108573d6000803e3d6000fd5b5050505062000b1e565b81600214156200114a5760405163638e9a3d60e01b81526001600160a01b0384169063638e9a3d90620010d890339060040162002b1a565b81600314156200118457604051630887851b60e31b81526001600160a01b0382169063443c28d890620010d8908690339060040162002b2e565b8160041415620011be5760405163d39ff0e760e01b81526001600160a01b0382169063d39ff0e790620010d8908690339060040162002b2e565b816005141562000b1e576040516336ec0f5d60e01b81526001600160a01b038216906336ec0f5d9062000ae9908690339060040162002b2e565b6000600433600090815260016020526040902060020154600160a01b900460ff1660088111156200123957634e487b7160e01b600052602160045260246000fd5b14620012595760405162461bcd60e51b81526004016200065f90620030d1565b3360009081526006602052604090208054839081106200069857634e487b7160e01b600052603260045260246000fd5b62001293620026d1565b6000806000806000806000886001600160a01b0316631d2aafc86040518163ffffffff1660e01b81526004016101206040518083038186803b158015620012d957600080fd5b505afa158015620012ee573d6000803e3d6000fd5b505050506040513d601f19601f8201168201806040525081019062001314919062002a1b565b6001600160a01b03928316600090815260016020819052604080832082015494861683528083208201549590931682529190200154929a50985096509450505050509193509193565b6000546001600160a01b031633146200138a5760405162461bcd60e51b81526004016200065f9062002c65565b60006001600160a01b038216600090815260016020526040902060020154600160a01b900460ff166008811115620013d257634e487b7160e01b600052602160045260246000fd5b1415620013f35760405162461bcd60e51b81526004016200065f9062002cef565b6001600160a01b038116600081815260016020526040902080546002909101547fb5f04dfc1ccfefb366c4dc7a23670362462e0a415afb89d8cba1fb657e264c969190600160a01b900460ff1660088111156200146057634e487b7160e01b600052602160045260246000fd5b6040516200147092919062002c57565b60405180910390a26001600160a01b03166000908152600160205260409020600201805460ff60a01b1916600160a31b179055565b6000600533600090815260016020526040902060020154600160a01b900460ff166008811115620014e657634e487b7160e01b600052602160045260246000fd5b14620015065760405162461bcd60e51b81526004016200065f9062002ca7565b50336000908152600a602052604090205490565b6000546001600160a01b03163314620015475760405162461bcd60e51b81526004016200065f9062002c65565b60006001600160a01b038516600090815260016020526040902060020154600160a01b900460ff1660088111156200158f57634e487b7160e01b600052602160045260246000fd5b14620015af5760405162461bcd60e51b81526004016200065f90620031bc565b6001600160a01b038416600081815260016020819052604090912085815590810184905560020180546001600160a01b03191690911790558060088111156200160857634e487b7160e01b600052602160045260246000fd5b6001600160a01b0385166000908152600160205260409020600201805460ff60a01b1916600160a01b8360088111156200165257634e487b7160e01b600052602160045260246000fd5b0217905550600280546001810182556000919091527f405787fa12a823e0f2b7631cc41b3ba8828b3321ca811111fa75cd3aa3bb5ace0180546001600160a01b0319166001600160a01b0386169081179091556040517f33a7170f028b1e4f5ba321064a00ed820856a920c7f9c6636fbcf385427b1b0f90620016d790869062002c17565b60405180910390a250505050565b600333600090815260016020526040902060020154600160a01b900460ff1660088111156200172457634e487b7160e01b600052602160045260246000fd5b14620017445760405162461bcd60e51b81526004016200065f9062003044565b80620017645760405162461bcd60e51b81526004016200065f9062002da8565b60003387878787878760016000336001600160a01b03166001600160a01b0316815260200190815260200160002060010154604051620017a49062002704565b620017b798979695949392919062002bb2565b604051809103906000f080158015620017d4573d6000803e3d6000fd5b503360008181526005602090815260408083208054600181018255908452919092200180546001600160a01b0319166001600160a01b0385811691821790925591519394508616927f3279bc96fc4eda86f9fb5456b29ecd9eea4e798e299023b438f7025e6760d5f2906200184b90899062002b1a565b60405180910390a450505050505050565b6000600333600090815260016020526040902060020154600160a01b900460ff1660088111156200189d57634e487b7160e01b600052602160045260246000fd5b14620018bd5760405162461bcd60e51b81526004016200065f9062002d1c565b3360009081526005602052604090208054839081106200069857634e487b7160e01b600052603260045260246000fd5b6000600433600090815260016020526040902060020154600160a01b900460ff1660088111156200192e57634e487b7160e01b600052602160045260246000fd5b146200194e5760405162461bcd60e51b81526004016200065f90620030d1565b3360009081526007602052604090208054839081106200069857634e487b7160e01b600052603260045260246000fd5b6000600433600090815260016020526040902060020154600160a01b900460ff166008811115620019bf57634e487b7160e01b600052602160045260246000fd5b14620019df5760405162461bcd60e51b81526004016200065f90620030d1565b503360009081526007602052604090205490565b6000600333600090815260016020526040902060020154600160a01b900460ff16600881111562001a3457634e487b7160e01b600052602160045260246000fd5b1462001a545760405162461bcd60e51b81526004016200065f9062003044565b503360009081526004602052604090205490565b6000600633600090815260016020526040902060020154600160a01b900460ff16600881111562001aa957634e487b7160e01b600052602160045260246000fd5b1462001ac95760405162461bcd60e51b81526004016200065f9062002f50565b50336000908152600d602052604090205490565b60025490565b6000546001600160a01b031681565b6001600160a01b039081166000908152600b60205260409020541690565b6001600160a01b0381166000908152600f602052604081205460ff16600481111562001b4c57634e487b7160e01b600052602160045260246000fd5b92915050565b600333600090815260016020526040902060020154600160a01b900460ff16600881111562001b9157634e487b7160e01b600052602160045260246000fd5b1462001bb15760405162461bcd60e51b81526004016200065f9062003044565b604051630a57332d60e31b81526001600160a01b038216906352b999689062001bdf90339060040162002b1a565b600060405180830381600087803b15801562001bfa57600080fd5b505af115801562001c0f573d6000803e3d6000fd5b50503360009081526004602090815260408220805460018101825590835291200180546001600160a01b0319166001600160a01b0394909416939093179092555050565b6000600533600090815260016020526040902060020154600160a01b900460ff16600881111562001c9457634e487b7160e01b600052602160045260246000fd5b1462001cb45760405162461bcd60e51b81526004016200065f9062002f93565b503360009081526009602052604090205490565b600133600090815260016020526040902060020154600160a01b900460ff16600881111562001d0757634e487b7160e01b600052602160045260246000fd5b1462001d275760405162461bcd60e51b81526004016200065f906200308c565b60003387878787878760405162001d3e9062002712565b62001d50979695949392919062002b73565b604051809103906000f08015801562001d6d573d6000803e3d6000fd5b503360008181526003602090815260408083208054600181018255908452919092200180546001600160a01b0319166001600160a01b0385811691821790925591519394508516927f9dbe7d9fdd28b9b1c2ffe79a40f7beff124537ed0d7a47555d009e0271fc6133906200184b90889062002b1a565b6000600633600090815260016020526040902060020154600160a01b900460ff16600881111562001e2557634e487b7160e01b600052602160045260246000fd5b1462001e455760405162461bcd60e51b81526004016200065f9062003118565b50336000908152600c602052604090205490565b6000600633600090815260016020526040902060020154600160a01b900460ff16600881111562001e9a57634e487b7160e01b600052602160045260246000fd5b1462001eba5760405162461bcd60e51b81526004016200065f9062003118565b336000908152600c602052604090208054839081106200069857634e487b7160e01b600052603260045260246000fd5b600433600090815260016020526040902060020154600160a01b900460ff16600881111562001f2957634e487b7160e01b600052602160045260246000fd5b14801562001fb45750826001600160a01b03166301a9a23e6040518163ffffffff1660e01b815260040160806040518083038186803b15801562001f6c57600080fd5b505afa15801562001f81573d6000803e3d6000fd5b505050506040513d601f19601f8201168201806040525081019062001fa79190620028c1565b516001600160a01b031633145b62001fd35760405162461bcd60e51b81526004016200065f9062002ee8565b60008333848460405162001fe79062002720565b62001ff6949392919062002b48565b604051809103906000f08015801562002013573d6000803e3d6000fd5b5033600090815260076020908152604080832080546001810182559084528284200180546001600160a01b039586166001600160a01b0319918216811790925598909416835260089091529020805490951617909355505050565b600633600090815260016020526040902060020154600160a01b900460ff166008811115620020ad57634e487b7160e01b600052602160045260246000fd5b1480156200213b5750816001600160a01b03166301a9a23e6040518163ffffffff1660e01b815260040160806040518083038186803b158015620020f057600080fd5b505afa15801562002105573d6000803e3d6000fd5b505050506040513d601f19601f820116820180604052508101906200212b9190620028c1565b604001516001600160a01b031633145b6200215a5760405162461bcd60e51b81526004016200065f9062003118565b60016001600160a01b0383166000908152600f602052604090205460ff1660048111156200219857634e487b7160e01b600052602160045260246000fd5b14620021b85760405162461bcd60e51b81526004016200065f9062002e35565b806004811115620021d957634e487b7160e01b600052602160045260246000fd5b6001600160a01b0383166000908152600f60205260409020805460ff191660018360048111156200221a57634e487b7160e01b600052602160045260246000fd5b0217905550336001600160a01b03167f7e0150eb126a0bad6138f448f48f826cabdf937aac9ffdcefbba62cae222332e838360405162000dca92919062002bfe565b6000600533600090815260016020526040902060020154600160a01b900460ff1660088111156200229d57634e487b7160e01b600052602160045260246000fd5b14620022bd5760405162461bcd60e51b81526004016200065f9062002ca7565b336000908152600a602052604090208054839081106200069857634e487b7160e01b600052603260045260246000fd5b600733600090815260016020526040902060020154600160a01b900460ff1660088111156200232c57634e487b7160e01b600052602160045260246000fd5b146200234c5760405162461bcd60e51b81526004016200065f9062002e6c565b60405163c5d7910f60e01b81526001600160a01b0382169063c5d7910f906200237c908590339060040162002b2e565b600060405180830381600087803b1580156200239757600080fd5b505af1158015620023ac573d6000803e3d6000fd5b505050505050565b600533600090815260016020526040902060020154600160a01b900460ff166008811115620023f357634e487b7160e01b600052602160045260246000fd5b148015620024815750826001600160a01b03166301a9a23e6040518163ffffffff1660e01b815260040160806040518083038186803b1580156200243657600080fd5b505afa1580156200244b573d6000803e3d6000fd5b505050506040513d601f19601f82011682018060405250810190620024719190620028c1565b602001516001600160a01b031633145b620024a05760405162461bcd60e51b81526004016200065f9062002fdb565b600083338484604051620024b4906200272e565b620024c3949392919062002b48565b604051809103906000f080158015620024e0573d6000803e3d6000fd5b50336000908152600a6020908152604080832080546001810182559084528284200180546001600160a01b039586166001600160a01b03199182168117909255989094168352600b9091529020805490951617909355505050565b600633600090815260016020526040902060020154600160a01b900460ff1660088111156200257a57634e487b7160e01b600052602160045260246000fd5b148015620026085750826001600160a01b03166301a9a23e6040518163ffffffff1660e01b815260040160806040518083038186803b158015620025bd57600080fd5b505afa158015620025d2573d6000803e3d6000fd5b505050506040513d601f19601f82011682018060405250810190620025f89190620028c1565b604001516001600160a01b031633145b620026275760405162461bcd60e51b81526004016200065f9062003118565b6000833384846040516200263b906200273c565b6200264a949392919062002b48565b604051809103906000f08015801562002667573d6000803e3d6000fd5b50336000908152600d6020908152604080832080546001810182559084528284200180546001600160a01b038087166001600160a01b031992831681179093558a168552600e9093529220805490911690911790559050620026cb8460026200206e565b50505050565b6040805160c08101825260008082526020820181905291810182905260608101829052608081018290529060a082015290565b610dc080620032a883390190565b6105d8806200406883390190565b610451806200464083390190565b6104518062004a9183390190565b6104518062004ee283390190565b8051620006b08162003291565b805160098110620006b057600080fd5b60006020828403121562002779578081fd5b8135620027868162003291565b9392505050565b60008060408385031215620027a0578081fd5b8235620027ad8162003291565b91506020830135620027bf8162003291565b809150509250929050565b600080600060608486031215620027df578081fd5b8335620027ec8162003291565b92506020840135620027fe8162003291565b91506040840135620028108162003291565b809150509250925092565b6000806000806080858703121562002831578081fd5b84356200283e8162003291565b966020860135965060408601359560600135945092505050565b600080604083850312156200286b578182fd5b8235620028788162003291565b946020939093013593505050565b6000806000606084860312156200289b578283fd5b8335620028a88162003291565b9250602084013591506040840135620028108162003291565b600060808284031215620028d3578081fd5b82601f830112620028e2578081fd5b6040516080810181811067ffffffffffffffff8211171562002908576200290862003259565b6040528083608081018610156200291d578384fd5b835b60048110156200294c578151620029368162003291565b835260209283019291909101906001016200291f565b509195945050505050565b60008060008060008060c0878903121562002970578182fd5b863595506020870135945060408701359350606087013592506080870135620029998162003291565b915060a0870135620029ab8162003291565b809150509295509295509295565b60008060008060008060c08789031215620029d2578182fd5b8635955060208701359450604087013593506060870135620029f48162003291565b9250608087013562002a068162003291565b8092505060a087013590509295509295509295565b60008060008084860361012081121562002a33578283fd5b60c081121562002a41578283fd5b5060405160c0810181811067ffffffffffffffff8211171562002a685762002a6862003259565b8060405250855181526020860151602082015260408601516040820152606086015160608201526080860151608082015262002aa760a0870162002757565b60a0820152935062002abc60c086016200274a565b925062002acc60e086016200274a565b915062002add61010086016200274a565b905092959194509250565b60006020828403121562002afa578081fd5b5035919050565b60006020828403121562002b13578081fd5b5051919050565b6001600160a01b0391909116815260200190565b6001600160a01b0392831681529116602082015260400190565b6001600160a01b03948516815292841660208401529083166040830152909116606082015260800190565b6001600160a01b0397881681526020810196909652604086019490945260608501929092526080840152831660a083015290911660c082015260e00190565b6001600160a01b039889168152602081019790975260408701959095526060860193909352908516608085015290931660a083015260c082019290925260e08101919091526101000190565b6001600160a01b03929092168252602082015260400190565b90815260200190565b848152602081018490526001600160a01b03831660408201526080810162002c48836200326f565b82606083015295945050505050565b918252602082015260400190565b60208082526022908201527f4f6e6c79206f776e65722063616e2063616c6c20746869732066756e6374696f604082015261371760f11b606082015260800190565b60208082526028908201527f4f6e6c792044697374726962757465722043616e2063616c6c207468697320666040820152673ab731ba34b7b71760c11b606082015260800190565b602080825260139082015272155cd95c881b9bdd081c9959da5cdd195c9959606a1b604082015260600190565b60208082526029908201527f4f6e6c79204d616e7566616374757265722043616e2063616c6c207468697320604082015268333ab731ba34b7b71760b91b606082015260800190565b60208082526023908201527f4f6e6c7920506861726d612043616e2063616c6c20746869732066756e63746960408201526237b71760e91b606082015260800190565b6020808252601c908201527f52656365697665722054797065206d75737420626520646566696e6500000000604082015260600190565b60208082526036908201527f4f6e6c792057686f6c6573616c657220616e642044697374726962757465722060408201527531b0b71031b0b636103a3434b990333ab731ba34b7b760511b606082015260800190565b6020808252601a908201527f6d61646963696e65204d75737420626520617420506861726d61000000000000604082015260600190565b60208082526025908201527f4f6e6c7920437573746f6d65722063616e2063616c6c20746869732066756e636040820152643a34b7b71760d91b606082015260800190565b6020808252601f908201527f5472616e73706f727465722054797065206d75737420626520646566696e6500604082015260600190565b60208082526042908201527f4f6e6c792057686f6c6573616c6572206f722063757272656e74206f776e657260408201527f206f66207061636b6167652063616e2063616c6c20746869732066756e63746960608201526137b760f11b608082015260a00190565b60208082526023908201527f4f6e6c7920506861726d612063616e2063616c6c20746869732066756e63746960408201526237b71760e91b606082015260800190565b60208082526028908201527f4f6e6c792044697374726962757465722063616e2063616c6c207468697320666040820152673ab731ba34b7b71760c11b606082015260800190565b60208082526043908201527f4f6e6c79204469737472696275746572206f722063757272656e74206f776e6560408201527f72206f66207061636b6167652063616e2063616c6c20746869732066756e637460608201526234b7b760e91b608082015260a00190565b60208082526028908201527f4f6e6c79206d616e7566616374757265722063616e2063616c6c207468697320604082015267333ab731ba34b7b760c11b606082015260800190565b60208082526025908201527f4f6e6c7920537570706c6965722043616e2063616c6c20746869732066756e6360408201526403a34b7b7160dd1b606082015260800190565b60208082526027908201527f4f6e6c792057686f6c6573616c65722043616e2063616c6c20746869732066756040820152663731ba34b7b71760c91b606082015260800190565b6020808252603e908201527f4f6e6c7920506861726d61206f722063757272656e74206f776e6572206f662060408201527f7061636b6167652063616e2063616c6c20746869732066756e6374696f6e0000606082015260800190565b60208082526027908201527f4f6e6c79205472616e73706f727465722063616e2063616c6c207468697320666040820152663ab731ba34b7b760c91b606082015260800190565b60208082526017908201527f5573657220416c72656164792072656769737465726564000000000000000000604082015260600190565b600061012082019050855182526020860151602083015260408601516040830152606086015160608301526080860151608083015260a086015162003238816200326f565b60a083015260c082019490945260e081019290925261010090910152919050565b634e487b7160e01b600052604160045260246000fd5b600981106200328e57634e487b7160e01b600052602160045260246000fd5b50565b6001600160a01b03811681146200328e57600080fdfe608060405234801561001057600080fd5b50604051610dc0380380610dc083398101604081905261002f916100fd565b600080546001600160a01b03199081166001600160a01b038b8116918217909355600580548316909117905560018981556002899055600388905560048054909216928716929092179055600c82905542600a819055600b558214156100af57600680546001600160a01b0319166001600160a01b0385161790556100d4565b81600214156100d457600780546001600160a01b0319166001600160a01b0385161790555b505050505050505061016f565b80516001600160a01b03811681146100f857600080fd5b919050565b600080600080600080600080610100898b031215610119578384fd5b610122896100e1565b975060208901519650604089015195506060890151945061014560808a016100e1565b935061015360a08a016100e1565b60c08a015160e0909a0151989b979a5095989497939692505050565b610c428061017e6000396000f3fe608060405234801561001057600080fd5b50600436106100a95760003560e01c8063638e9a3d11610071578063638e9a3d1461012c578063952565cf1461013f578063a19ffd6014610152578063badcef6a14610165578063bd78683514610178578063d2f3fcc71461018b576100a9565b806301a9a23e146100ae5780630a672d13146100cc5780631d2aafc8146100e15780634175699d146100f957806352b999681461010c575b600080fd5b6100b6610193565b6040516100c3919061088a565b60405180910390f35b6100df6100da36600461082a565b6101da565b005b6100e961024b565b6040516100c39493929190610b55565b6100df61010736600461082a565b6102e1565b61011f61011a36600461082a565b610315565b6040516100c39190610be3565b6100df61013a36600461082a565b6104fe565b6100df61014d36600461082a565b610638565b6100df61016036600461084b565b61066c565b6100df61017336600461084b565b6106f0565b6100df61018636600461084b565b61073f565b61011f61078e565b61019b6107c2565b50604080516080810182526006546001600160a01b03908116825260075481166020830152600854811692820192909252600954909116606082015290565b6009546001600160a01b038281169116146102105760405162461bcd60e51b81526004016102079061094c565b60405180910390fd5b60085b6009805460ff60a01b1916600160a01b83600881111561024357634e487b7160e01b600052602160045260246000fd5b021790555050565b6102536107e0565b60008060006040518060c0016040528060015481526020016002548152602001600a548152602001600c548152602001600b548152602001600960149054906101000a900460ff1660088111156102ba57634e487b7160e01b600052602160045260246000fd5b905260065460075460085492976001600160a01b0392831697509082169550911692509050565b6008546001600160a01b0382811691161461030e5760405162461bcd60e51b8152600401610207906109b8565b6006610213565b6006546000906001600160a01b038381169116148061034157506007546001600160a01b038381169116145b61035d5760405162461bcd60e51b815260040161020790610a73565b600954600190600160a01b900460ff16600881111561038c57634e487b7160e01b600052602160045260246000fd5b10156103aa5760405162461bcd60e51b815260040161020790610915565b6006546001600160a01b0383811691161480156103f257506001600954600160a01b900460ff1660088111156103f057634e487b7160e01b600052602160045260246000fd5b145b15610454576009805460ff60a01b1916600360a01b1790556006546004546040516001600160a01b0392831692909116903090600080516020610bed83398151915290610444906002906003906108c4565b60405180910390a45060016104f9565b6007546001600160a01b03838116911614801561049c57506002600954600160a01b900460ff16600881111561049a57634e487b7160e01b600052602160045260246000fd5b145b156104f9576009805460ff60a01b1916600160a21b179055600754600480546040516001600160a01b0393841693909116913091600080516020610bed833981519152916104ed91600391906108c4565b60405180910390a45060025b919050565b6004546001600160a01b0382811691161461052b5760405162461bcd60e51b815260040161020790610a26565b6000600954600160a01b900460ff16600881111561055957634e487b7160e01b600052602160045260246000fd5b146105765760405162461bcd60e51b815260040161020790610981565b6006546001600160a01b0316156105e0576009805460ff60a01b1916600160a01b1790556006546004546040516001600160a01b0392831692909116903090600080516020610bed833981519152906105d39060019081906108c4565b60405180910390a4610635565b6009805460ff60a01b1916600160a11b1790556007546004546040516001600160a01b0392831692909116903090600080516020610bed8339815191529061062c9060019081906108c4565b60405180910390a45b50565b6007546001600160a01b038281169116146106655760405162461bcd60e51b8152600401610207906108d2565b6004610213565b6007546001600160a01b038281169116146106995760405162461bcd60e51b815260040161020790610b12565b600880546001600160a01b0319166001600160a01b03841617905560055b6009805460ff60a01b1916600160a01b8360088111156106e757634e487b7160e01b600052602160045260246000fd5b02179055505050565b6008546001600160a01b0382811691161461071d5760405162461bcd60e51b8152600401610207906109ef565b600980546001600160a01b0319166001600160a01b03841617905560076106b7565b6006546001600160a01b0382811691161461076c5760405162461bcd60e51b815260040161020790610ad0565b600780546001600160a01b0319166001600160a01b03841617905560026106b7565b600954600090600160a01b900460ff1660088111156107bd57634e487b7160e01b600052602160045260246000fd5b905090565b60405180608001604052806004906020820280368337509192915050565b6040805160c08101825260008082526020820181905291810182905260608101829052608081018290529060a082015290565b80356001600160a01b03811681146104f957600080fd5b60006020828403121561083b578081fd5b61084482610813565b9392505050565b6000806040838503121561085d578081fd5b61086683610813565b915061087460208401610813565b90509250929050565b6001600160a01b03169052565b60808101818360005b60048110156108bb5781516001600160a01b0316835260209283019290910190600101610893565b50505092915050565b918252602082015260400190565b60208082526023908201527f54686973204469737472696275746572206973206e6f74204173736f6369617460408201526232b21760e91b606082015260800190565b60208082526019908201527f50726f64756374206e6f74207069636b65642075702079657400000000000000604082015260600190565b6020808252818101527f5468697320437573746f6d6572206973206e6f74204173736f6369617465642e604082015260600190565b6020808252601c908201527f5061636b616765206d75737420626520617420537570706c6965722e00000000604082015260600190565b6020808252601e908201527f5468697320506861726d61206973206e6f74204173736f6369617465642e0000604082015260600190565b6020808252601e908201527f7468697320506861726d61206973206e6f74204173736f6369617465642e0000604082015260600190565b6020808252602d908201527f4f6e6c79204173736f636961746520536869707065722063616e2063616c6c2060408201526c3a3434b990333ab731ba34b7b760991b606082015260800190565b6020808252603f908201527f4f6e6c79204173736f63696174652057686f6c6573616c6572206f722044697360408201527f74727562757465722063616e2063616c6c20746869732066756e6374696f6e00606082015260800190565b60208082526022908201527f746869732057686f6c6573616c6572206973206e6f74204173736f6369617465604082015261321760f11b606082015260800190565b60208082526023908201527f74686973204469737472696275746572206973206e6f74204173736f6369617460408201526232b21760e91b606082015260800190565b600061012082019050855182526020860151602083015260408601516040830152606086015160608301526080860151608083015260a086015160098110610bad57634e487b7160e01b600052602160045260246000fd5b60a0830152610bbf60c083018661087d565b610bcc60e083018561087d565b610bda61010083018461087d565b95945050505050565b9081526020019056fe7e89c4b1a4e2b51aae84eb1f90e8a34cb792ece5ac5cb63db4830c891220b28da2646970667358221220a9654fc37534c04aac657a676d94799c0e3b81d9384c356f1ca90ca4c9e66b3864736f6c63430008000033608060405234801561001057600080fd5b506040516105d83803806105d883398101604081905261002f916100c3565b600080546001600160a01b039889166001600160a01b0319918216811790925560018054821630179055600297909755600395909555600493909355600591909155600680549186169185169190911790556007805491909416908316179092556008805460ff60a01b19921690921716905561012c565b80516001600160a01b03811681146100be57600080fd5b919050565b600080600080600080600060e0888a0312156100dd578283fd5b6100e6886100a7565b96506020880151955060408801519450606088015193506080880151925061011060a089016100a7565b915061011e60c089016100a7565b905092959891949750929550565b61049d8061013b6000396000f3fe608060405234801561001057600080fd5b506004361061004c5760003560e01c80633b205a7d1461005157806352b999681461006f578063638e9a3d14610084578063d02eee2314610097575b600080fd5b6100596100b2565b604051610066919061045e565b60405180910390f35b61008261007d3660046102d6565b6100e6565b005b6100826100923660046102d6565b6101d1565b61009f6102a7565b6040516100669796959493929190610304565b600854600090600160a01b900460ff1660028111156100e157634e487b7160e01b600052602160045260246000fd5b905090565b6007546001600160a01b0382811691161461011c5760405162461bcd60e51b81526004016101139061040c565b60405180910390fd5b6001600854600160a01b900460ff16600281111561014a57634e487b7160e01b600052602160045260246000fd5b146101675760405162461bcd60e51b815260040161011390610351565b6008805460ff60a01b1916600160a11b1790556007546006546040516001600160a01b03928316929091169030907f7e89c4b1a4e2b51aae84eb1f90e8a34cb792ece5ac5cb63db4830c891220b28d906101c690600190600290610343565b60405180910390a450565b6006546001600160a01b038281169116146101fe5760405162461bcd60e51b8152600401610113906103bf565b6000600854600160a01b900460ff16600281111561022c57634e487b7160e01b600052602160045260246000fd5b146102495760405162461bcd60e51b815260040161011390610388565b6008805460ff60a01b1916600160a01b1790556007546006546040516001600160a01b03928316929091169030907f7e89c4b1a4e2b51aae84eb1f90e8a34cb792ece5ac5cb63db4830c891220b28d906101c6906001908190610343565b6002546003546004546005546006546007546008546001600160a01b0392831692918216911690919293949596565b6000602082840312156102e7578081fd5b81356001600160a01b03811681146102fd578182fd5b9392505050565b9687526020870195909552604086019390935260608501919091526001600160a01b03908116608085015290811660a08401521660c082015260e00190565b918252602082015260400190565b60208082526019908201527f50726f64756374206e6f74207069636b65642075702079657400000000000000604082015260600190565b6020808252601c908201527f5061636b616765206d75737420626520617420537570706c6965722e00000000604082015260600190565b6020808252602d908201527f4f6e6c79204173736f636961746520536869707065722063616e2063616c6c2060408201526c3a3434b990333ab731ba34b7b760991b606082015260800190565b60208082526032908201527f4f6e6c79204173736f6369617465204d616e7566616374757265722063616e2060408201527131b0b636103a3434b990333ab731ba34b7b760711b606082015260800190565b9081526020019056fea2646970667358221220d7bd5e0c73b369bb931e1843079125b423c5f3f2850124a5d102af107b2bef2964736f6c63430008000033608060405234801561001057600080fd5b5060405161045138038061045183398101604081905261002f916100b8565b600080546001600160a01b03199081166001600160a01b038681169182178455600180548416898316179055600280548416909217909155600380548316868316179055600480549092169084161780825560ff60a01b1916600160a01b8302179055505050505061010b565b80516001600160a01b03811681146100b357600080fd5b919050565b600080600080608085870312156100cd578384fd5b6100d68561009c565b93506100e46020860161009c565b92506100f26040860161009c565b91506101006060860161009c565b905092959194509250565b6103378061011a6000396000f3fe608060405234801561001057600080fd5b50600436106100415760003560e01c8063443c28d814610046578063d2f3fcc71461005b578063f4c0722914610079575b600080fd5b6100596100543660046101f9565b61008c565b005b61006361013f565b60405161007091906102f8565b60405180910390f35b6100596100873660046101f9565b610173565b6003546001600160a01b038281169116146100c25760405162461bcd60e51b81526004016100b9906102a9565b60405180910390fd5b6004805460ff60a01b1916600160a01b1780825560025460405163bd78683560e01b81526001600160a01b038681169463bd7868359461010994908316939216910161023f565b600060405180830381600087803b15801561012357600080fd5b505af1158015610137573d6000803e3d6000fd5b505050505050565b600454600090600160a01b900460ff16600281111561016e57634e487b7160e01b600052602160045260246000fd5b905090565b6004546001600160a01b038281169116146101a05760405162461bcd60e51b81526004016100b990610259565b6004805460ff60a01b1916600160a11b17815560405163952565cf60e01b81526001600160a01b0384169163952565cf916101099185910161022b565b80356001600160a01b03811681146101f457600080fd5b919050565b6000806040838503121561020b578182fd5b610214836101dd565b9150610222602084016101dd565b90509250929050565b6001600160a01b0391909116815260200190565b6001600160a01b0392831681529116602082015260400190565b60208082526030908201527f4f6e6c79204173736f6369617465642072656365697665722063616e2063616c60408201526f36103a3434b990333ab731ba34b7b71760811b606082015260800190565b6020808252602f908201527f4f6e6c79204173736f63696174656420736869707065722063616e2063616c6c60408201526e103a3434b990333ab731ba34b7b71760891b606082015260800190565b9081526020019056fea26469706673582212208bf1f2977848a9204b741d45950403798089d1a995c900fd2ea99643e6da141964736f6c63430008000033608060405234801561001057600080fd5b5060405161045138038061045183398101604081905261002f916100b8565b600080546001600160a01b03199081166001600160a01b038681169182178455600180548416898316179055600280548416909217909155600380548316868316179055600480549092169084161780825560ff60a01b1916600160a01b8302179055505050505061010b565b80516001600160a01b03811681146100b357600080fd5b919050565b600080600080608085870312156100cd578384fd5b6100d68561009c565b93506100e46020860161009c565b92506100f26040860161009c565b91506101006060860161009c565b905092959194509250565b6103378061011a6000396000f3fe608060405234801561001057600080fd5b50600436106100415760003560e01c806332a60e0014610046578063d2f3fcc71461005b578063d39ff0e714610079575b600080fd5b6100596100543660046101f9565b61008c565b005b610063610135565b60405161007091906102f8565b60405180910390f35b6100596100873660046101f9565b610169565b6004546001600160a01b038281169116146100c25760405162461bcd60e51b81526004016100b990610259565b60405180910390fd5b6004805460ff60a01b1916600160a11b178155604051634175699d60e01b81526001600160a01b03841691634175699d916100ff9185910161022b565b600060405180830381600087803b15801561011957600080fd5b505af115801561012d573d6000803e3d6000fd5b505050505050565b600454600090600160a01b900460ff16600281111561016457634e487b7160e01b600052602160045260246000fd5b905090565b6003546001600160a01b038281169116146101965760405162461bcd60e51b81526004016100b9906102a9565b6004805460ff60a01b1916600160a01b1780825560025460405163050cffeb60e51b81526001600160a01b038681169463a19ffd60946100ff94908316939216910161023f565b80356001600160a01b03811681146101f457600080fd5b919050565b6000806040838503121561020b578182fd5b610214836101dd565b9150610222602084016101dd565b90509250929050565b6001600160a01b0391909116815260200190565b6001600160a01b0392831681529116602082015260400190565b60208082526030908201527f4f6e6c79204173736f6369617465642072656365697665722063616e2063616c60408201526f36103a3434b990333ab731ba34b7b71760811b606082015260800190565b6020808252602f908201527f4f6e6c79204173736f63696174656420736869707065722063616e2063616c6c60408201526e103a3434b990333ab731ba34b7b71760891b606082015260800190565b9081526020019056fea26469706673582212204f46bb90d00cf113762d1a60716ae37c7bba0f9829a63436fa3190efc380ea4464736f6c63430008000033608060405234801561001057600080fd5b5060405161045138038061045183398101604081905261002f916100b8565b600080546001600160a01b03199081166001600160a01b038681169182178455600180548416898316179055600280548416909217909155600380548316868316179055600480549092169084161780825560ff60a01b1916600160a01b8302179055505050505061010b565b80516001600160a01b03811681146100b357600080fd5b919050565b600080600080608085870312156100cd578384fd5b6100d68561009c565b93506100e46020860161009c565b92506100f26040860161009c565b91506101006060860161009c565b905092959194509250565b6103378061011a6000396000f3fe608060405234801561001057600080fd5b50600436106100415760003560e01c806336ec0f5d14610046578063c5d7910f1461005b578063d2f3fcc71461006e575b600080fd5b6100596100543660046101f9565b61008c565b005b6100596100693660046101f9565b61013f565b6100766101a9565b60405161008391906102f8565b60405180910390f35b6003546001600160a01b038281169116146100c25760405162461bcd60e51b81526004016100b9906102a9565b60405180910390fd5b6004805460ff60a01b1916600160a01b17808255600254604051635d6e77b560e11b81526001600160a01b038681169463badcef6a9461010994908316939216910161023f565b600060405180830381600087803b15801561012357600080fd5b505af1158015610137573d6000803e3d6000fd5b505050505050565b6004546001600160a01b0382811691161461016c5760405162461bcd60e51b81526004016100b990610259565b6004805460ff60a01b1916600160a11b178155604051630a672d1360e01b81526001600160a01b03841691630a672d13916101099185910161022b565b600454600090600160a01b900460ff1660028111156101d857634e487b7160e01b600052602160045260246000fd5b905090565b80356001600160a01b03811681146101f457600080fd5b919050565b6000806040838503121561020b578182fd5b610214836101dd565b9150610222602084016101dd565b90509250929050565b6001600160a01b0391909116815260200190565b6001600160a01b0392831681529116602082015260400190565b60208082526030908201527f4f6e6c79204173736f6369617465642072656365697665722063616e2063616c60408201526f36103a3434b990333ab731ba34b7b71760811b606082015260800190565b6020808252602f908201527f4f6e6c79204173736f63696174656420736869707065722063616e2063616c6c60408201526e103a3434b990333ab731ba34b7b71760891b606082015260800190565b9081526020019056fea2646970667358221220cc4f7fb4505b06de3d7ba067b6bb95baf4c6c7680bc0cac7d103e7d899da062464736f6c63430008000033a2646970667358221220b906169f01c9d9bab896c99b596806cf04e06c9cfe2221a6b936b1f5075d49be64736f6c63430008000033",
  "immutableReferences": {},
  "source": "// SPDX-License-Identifier: UNLICENSED\r\n// pragma solidity >=0.4.25 <0.9.0;\r\n// pragma experimental ABIEncoderV2;\r\npragma solidity >=0.8.0;\r\npragma abicoder v2;\r\n\r\nimport './RawMatrials.sol';\r\nimport './Madicine.sol';\r\nimport './MadicineW_D.sol';\r\nimport './MadicineD_P.sol';\r\nimport './MadicineP_C.sol';\r\nimport './Library.sol';\r\n\r\n\r\ncontract SupplyChain {\r\n\r\n    using MyLibrary for MyLibrary.madicineStatus;\r\n    using MyLibrary for MyLibrary.medicineBasicInfo;\r\n\r\n    /// @notice\r\n    address public Owner;\r\n\r\n    /// @notice\r\n    /// @dev Initiate SupplyChain Contract\r\n    constructor () public {\r\n        Owner = msg.sender;\r\n    }\r\n/********************************************** Owner Section *********************************************/\r\n    /// @dev Validate Owner\r\n    modifier onlyOwner() {\r\n        require(\r\n            msg.sender == Owner,\r\n            \"Only owner can call this function.\"\r\n        );\r\n        _;\r\n    }\r\n\r\n    enum roles {\r\n        norole,\r\n        supplier,\r\n        transporter,\r\n        manufacturer,\r\n        wholesaler,\r\n        distributer,\r\n        pharma,\r\n        customer,\r\n        revoke\r\n    }\r\n\r\n    event UserRegister(address indexed EthAddress, bytes32 Name);\r\n    event UserRoleRevoked(address indexed EthAddress, bytes32 Name, uint256 Role);\r\n    event UserRoleRessigne(address indexed EthAddress, bytes32 Name, uint256 Role);\r\n\r\n    /// @notice\r\n    /// @dev Register New user by Owner\r\n    /// @param EthAddress Ethereum Network Address of User\r\n    /// @param Name User name\r\n    /// @param Location User Location\r\n    /// @param Role User Role\r\n    function registerUser(\r\n        address EthAddress,\r\n        bytes32 Name,\r\n        bytes32 Location,\r\n        uint256 Role\r\n        ) public\r\n        onlyOwner\r\n        {\r\n        require(UsersDetails[EthAddress].role == roles.norole, \"User Already registered\");\r\n        UsersDetails[EthAddress].name = Name;\r\n        UsersDetails[EthAddress].location = Location;\r\n        UsersDetails[EthAddress].ethAddress = EthAddress;\r\n        UsersDetails[EthAddress].role = roles(Role);\r\n        users.push(EthAddress);\r\n        emit UserRegister(EthAddress, Name);\r\n    }\r\n    /// @notice\r\n    /// @dev Revoke users role\r\n    /// @param userAddress User Ethereum Network Address\r\n    function revokeRole(address userAddress) public onlyOwner {\r\n        require(UsersDetails[userAddress].role != roles.norole, \"User not registered\");\r\n        emit UserRoleRevoked(userAddress, UsersDetails[userAddress].name,uint256(UsersDetails[userAddress].role));\r\n        UsersDetails[userAddress].role = roles(8);\r\n    }\r\n    /// @notice\r\n    /// @dev Reassigne new role to User\r\n    /// @param userAddress User Ethereum Network Address\r\n    /// @param Role Role to assigne\r\n    function reassigneRole(address userAddress, uint256 Role) public onlyOwner {\r\n        require(UsersDetails[userAddress].role != roles.norole, \"User not registered\");\r\n        UsersDetails[userAddress].role = roles(Role);\r\n        emit UserRoleRessigne(userAddress, UsersDetails[userAddress].name,uint256(UsersDetails[userAddress].role));\r\n    }\r\n\r\n/********************************************** User Section **********************************************/\r\n    struct UserInfo {\r\n        bytes32 name;\r\n        bytes32 location;\r\n        address ethAddress;\r\n        roles role;\r\n    }\r\n\r\n\r\n    mapping(address => UserInfo) UsersDetails;\r\n\r\n    address[] users;\r\n\r\n    /// @notice\r\n    /// @dev Get User Information/ Profile\r\n    /// @param User User Ethereum Network Address\r\n    /// @return name  Details\r\n    /// @return location  Details\r\n    /// @return ethAddress  Details\r\n    /// @return role  Details\r\n    function getUserInfo(address User) public view returns(\r\n        bytes32 name,\r\n        bytes32 location,\r\n        address ethAddress,\r\n        roles role\r\n        ) {\r\n        return (\r\n            UsersDetails[User].name,\r\n            UsersDetails[User].location,\r\n            UsersDetails[User].ethAddress,\r\n            UsersDetails[User].role);\r\n    }\r\n\r\n    /// @notice\r\n    /// @dev Get Number of registered Users\r\n    /// @return count of registered Users\r\n    function getUsersCount() public view returns(uint256 count){\r\n        return users.length;\r\n    }\r\n\r\n    /// @notice\r\n    /// @dev Get User by Index value of stored data\r\n    /// @param index Indexed Number\r\n    /// @return name Details\r\n    /// @return location Details\r\n    /// @return ethAddress Details\r\n    /// @return role Details\r\n    function getUserbyIndex(uint256 index) public view returns(\r\n        bytes32 name,\r\n        bytes32 location,\r\n        address ethAddress,\r\n        roles role\r\n        ) {\r\n        return getUserInfo(users[index]);\r\n    }\r\n/********************************************** Supplier Section ******************************************/\r\n\r\n    mapping(address => address[]) supplierRawProductInfo;\r\n    event RawSupplyInit(\r\n        address indexed ProductID,\r\n        address indexed Supplier,\r\n        address Shipper,\r\n        address indexed Receiver\r\n    );\r\n\r\n    /// @notice\r\n    /// @dev Create new raw package by Supplier\r\n    /// @param Des Transporter Ethereum Network Address\r\n    /// @param Rcvr Manufacturer Ethereum Network Address\r\n    function createRawPackage(\r\n        bytes32 Des,\r\n        bytes32 FN,\r\n        bytes32 Loc,\r\n        uint256 Quant,\r\n        address Shpr,\r\n        address Rcvr\r\n        ) public {\r\n        require(\r\n            UsersDetails[msg.sender].role == roles.supplier,\r\n            \"Only Supplier Can call this function \"\r\n        );\r\n        RawMatrials rawData = new RawMatrials(\r\n            msg.sender,\r\n            Des,\r\n            FN,\r\n            Loc,\r\n            Quant,\r\n            Shpr,\r\n            Rcvr\r\n            );\r\n        supplierRawProductInfo[msg.sender].push(address(rawData));\r\n        emit RawSupplyInit(address(rawData), msg.sender, Shpr, Rcvr);\r\n    }\r\n\r\n    /// @notice\r\n    /// @dev  Get Count of created package by supplier(caller)\r\n    /// @return count of packages\r\n    function getPackagesCountS() public view returns (uint256 count){\r\n        require(\r\n            UsersDetails[msg.sender].role == roles.supplier,\r\n            \"Only Supplier Can call this function \"\r\n        );\r\n        return supplierRawProductInfo[msg.sender].length;\r\n    }\r\n\r\n    /// @notice\r\n    /// @dev Get PackageID by Indexed value of stored data\r\n    /// @param index Indexed Value\r\n    /// @return packageID\r\n    function getPackageIdByIndexS(uint256 index) public view returns(address packageID) {\r\n        require(\r\n            UsersDetails[msg.sender].role == roles.supplier,\r\n            \"Only Supplier Can call this function \"\r\n        );\r\n        return supplierRawProductInfo[msg.sender][index];\r\n    }\r\n\r\n/********************************************** Transporter Section ******************************************/\r\n\r\n    /// @notice\r\n    /// @dev Load Consingment fot transport one location to another.\r\n    /// @param pid PackageID or MadicineID\r\n    /// @param transportertype Transporter Type on the basic of tx between Roles\r\n    /// @param cid Sub Contract ID for Consingment transaction\r\n    function loadConsingment(\r\n        address pid, //Package or Batch ID\r\n        uint256 transportertype,\r\n        address cid\r\n        ) public {\r\n        require(\r\n            UsersDetails[msg.sender].role == roles.transporter,\r\n            \"Only Transporter can call this function\"\r\n        );\r\n        require(\r\n            transportertype > 0,\r\n            \"Transporter Type must be define\"\r\n        );\r\n\r\n        if(transportertype == 1) {  // Supplier to Manufacturer\r\n            RawMatrials(pid).pickPackage(msg.sender);\r\n        } else if(transportertype == 2) {   // Manufacturer to Wholesaler OR Manufacturer to Distributer\r\n            Madicine(pid).pickPackage(msg.sender);\r\n        } else if(transportertype == 3) {   // Wholesaler to Distributer\r\n            MadicineW_D(cid).pickWD(pid,msg.sender);\r\n        } else if(transportertype == 4) {   // Distrubuter to Pharma\r\n            MadicineD_P(cid).pickDP(pid,msg.sender);\r\n        } else if(transportertype == 5) {   // Pharma to Customer\r\n            MadicineP_C(cid).pickPC(pid,msg.sender);\r\n        }\r\n    }\r\n\r\n/********************************************** Manufacturer Section ******************************************/\r\n   \r\n    mapping(address => address[]) RawPackagesAtManufacturer;\r\n\r\n    /// @notice\r\n    /// @dev Update Package / Madicine batch recieved status by ethier Manufacturer or Distributer\r\n    /// @param pid  PackageID or MadicineID\r\n    function  rawPackageReceived(\r\n        address pid\r\n    ) public {\r\n        require(\r\n            UsersDetails[msg.sender].role == roles.manufacturer,\r\n            \"Only manufacturer can call this function\"\r\n        );\r\n\r\n        RawMatrials(pid).receivedPackage(msg.sender);\r\n        RawPackagesAtManufacturer[msg.sender].push(pid);\r\n    }\r\n\r\n    /// @notice\r\n    /// @dev Get Package Count at Manufacturer\r\n    /// @return count of Packages at Manufacturer\r\n    function getPackagesCountM() public view returns(uint256 count){\r\n        require(\r\n            UsersDetails[msg.sender].role == roles.manufacturer,\r\n            \"Only manufacturer can call this function\"\r\n        );\r\n        return RawPackagesAtManufacturer[msg.sender].length;\r\n    }\r\n\r\n    /// @notice\r\n    /// @dev Get PackageID by Indexed value of stored data\r\n    /// @param index Indexed Value\r\n    /// @return BatchID\r\n    function getPackageIDByIndexM(uint256 index) public view returns(address BatchID){\r\n        require(\r\n            UsersDetails[msg.sender].role == roles.manufacturer,\r\n            \"Only manufacturer can call this function\"\r\n        );\r\n        return RawPackagesAtManufacturer[msg.sender][index];\r\n    }\r\n\r\n    \r\n    mapping(address => address[]) ManufactureredMadicineBatches;\r\n    event MadicineNewBatch(\r\n        address indexed BatchId,\r\n        address indexed Manufacturer,\r\n        address shipper,\r\n        address indexed Receiver\r\n    );\r\n\r\n    /// @notice\r\n    /// @dev Create Madicine Batch\r\n    /// @param Des Description of madicine batch\r\n    /// @param RM RawMatrials Information\r\n    /// @param Quant Number of Units\r\n    /// @param Shpr Transporter Ethereum Network Address\r\n    /// @param Rcvr Receiver Ethereum Network Address\r\n    /// @param RcvrType Receiver Type Ethier Wholesaler(1) or Distributer(2)\r\n    function manufacturMadicine(\r\n        bytes32 Des, \r\n        bytes32 RM,\r\n        uint256 Quant,\r\n        address Shpr,\r\n        address Rcvr,\r\n        uint256 RcvrType\r\n    ) public {\r\n        require(\r\n            UsersDetails[msg.sender].role == roles.manufacturer,\r\n            \"Only manufacturer can call this function\"\r\n        );\r\n        require(\r\n            RcvrType != 0,\r\n            \"Receiver Type must be define\"\r\n        );\r\n\r\n        Madicine m = new Madicine(\r\n            msg.sender,\r\n            Des,\r\n            RM,\r\n            Quant,\r\n            Shpr,\r\n            Rcvr,\r\n            RcvrType,\r\n            UsersDetails[msg.sender].location\r\n        );\r\n\r\n        ManufactureredMadicineBatches[msg.sender].push(address(m));\r\n        emit MadicineNewBatch(address(m), msg.sender, Shpr, Rcvr);\r\n    }\r\n\r\n    /// @notice\r\n    /// @dev Get Madicine Batch Count\r\n    /// @return count of Batches\r\n    function getBatchesCountM() public view returns (uint256 count){\r\n        require(\r\n            UsersDetails[msg.sender].role == roles.manufacturer,\r\n            \"Only Manufacturer Can call this function.\"\r\n        );\r\n        return ManufactureredMadicineBatches[msg.sender].length;\r\n    }\r\n\r\n    /// @notice\r\n    /// @dev Get Madicine BatchID by indexed value of stored data\r\n    /// @param index Indexed Number\r\n    /// @return packageID Madicine BatchID\r\n    function getBatchIdByIndexM(uint256 index) public view returns(address packageID) {\r\n        require(\r\n            UsersDetails[msg.sender].role == roles.manufacturer,\r\n            \"Only Manufacturer Can call this function.\"\r\n        );\r\n        return ManufactureredMadicineBatches[msg.sender][index];\r\n    }\r\n\r\n\r\n/********************************************** Wholesaler Section ******************************************/\r\n    \r\n    mapping(address => address[]) MadicineBatchesAtWholesaler;\r\n\r\n    /// @notice\r\n    /// @dev Madicine Batch Received\r\n    /// @param batchid Madicine BatchID\r\n    /// @param cid Sub Contract ID for Madicine (if transaction Wholesaler to Distributer)\r\n    function madicineReceived(\r\n        address batchid,\r\n        address cid\r\n    ) public {\r\n        require(\r\n            UsersDetails[msg.sender].role == roles.wholesaler || UsersDetails[msg.sender].role == roles.distributer,\r\n            \"Only Wholesaler and Distributer can call this function\"\r\n        );\r\n\r\n        uint256 rtype = Madicine(batchid).receivedPackage(msg.sender);\r\n        if(rtype == 1){\r\n            MadicineBatchesAtWholesaler[msg.sender].push(batchid);\r\n        }else if( rtype == 2){\r\n            MadicineBatchAtDistributer[msg.sender].push(batchid);\r\n            if(Madicine(batchid).getWDP()[0] != address(0)){\r\n                MadicineW_D(cid).recieveWD(batchid,msg.sender);\r\n            }\r\n        }\r\n    }\r\n\r\n   \r\n    mapping(address => address[]) MadicineWtoD;\r\n    \r\n    mapping(address => address) MadicineWtoDTxContract;\r\n\r\n    /// @notice\r\n    /// @dev Sub Contract for Madicine Transfer from Wholesaler to Distributer\r\n    /// @param BatchID Madicine BatchID\r\n    /// @param Shipper Transporter Ethereum Network Address\r\n    /// @param Receiver Distributer Ethereum Network Address\r\n    function transferMadicineWtoD(\r\n        address BatchID,\r\n        address Shipper,\r\n        address Receiver\r\n    ) public {\r\n        require(\r\n            UsersDetails[msg.sender].role == roles.wholesaler &&\r\n            msg.sender == Madicine(BatchID).getWDP()[0],\r\n            \"Only Wholesaler or current owner of package can call this function\"\r\n        );\r\n        MadicineW_D wd = new MadicineW_D(\r\n            BatchID,\r\n            msg.sender,\r\n            Shipper,\r\n            Receiver\r\n        );\r\n        MadicineWtoD[msg.sender].push(address(wd));\r\n        MadicineWtoDTxContract[BatchID] = address(wd);\r\n    }\r\n\r\n    /// @notice\r\n    /// @dev Get Madicine Batch Count\r\n    /// @return count of Batches\r\n    function getBatchesCountWD() public view returns (uint256 count){\r\n        require(\r\n            UsersDetails[msg.sender].role == roles.wholesaler,\r\n            \"Only Wholesaler Can call this function.\"\r\n        );\r\n        return MadicineWtoD[msg.sender].length;\r\n    }\r\n\r\n    /// @notice\r\n    /// @dev Get Madicine BatchID by indexed value of stored data\r\n    /// @param index Indexed Number\r\n    /// @return packageID Madicine BatchID\r\n    function getBatchIdByIndexWD(uint256 index) public view returns(address packageID) {\r\n        require(\r\n            UsersDetails[msg.sender].role == roles.wholesaler,\r\n            \"Only Wholesaler Can call this function.\"\r\n        );\r\n        return MadicineWtoD[msg.sender][index];\r\n    }\r\n\r\n    /// @notice\r\n    /// @dev Get Sub Contract ID of Madicine Batch Transfer in between Wholesaler to Distributer\r\n    /// @param BatchID Madicine BatchID\r\n    /// @return SubContractWD ID\r\n    function getSubContractWD(address BatchID) public view returns (address SubContractWD) {\r\n        // require(\r\n        //     UsersDetails[msg.sender].role == roles.wholesaler,\r\n        //     \"Only Wholesaler Can call this function.\"\r\n        // );\r\n        return MadicineWtoDTxContract[BatchID];\r\n    }\r\n\r\n    \r\n    /// @notice\r\n    /// @dev Get Madicine Batch Count\r\n    /// @return count of Batches\r\n    function getBatchesCountW() public view returns (uint256 count){\r\n        require(\r\n            UsersDetails[msg.sender].role == roles.wholesaler,\r\n            \"Only Wholesaler Can call this function.\"\r\n        );\r\n        return MadicineBatchesAtWholesaler[msg.sender].length;\r\n    }\r\n\r\n    /// @notice\r\n    /// @dev Get Madicine BatchID by indexed value of stored data\r\n    /// @param index Indexed Number\r\n    /// @return packageID Madicine BatchID\r\n    function getBatchIdByIndexW(uint256 index) public view returns(address packageID) {\r\n        require(\r\n            UsersDetails[msg.sender].role == roles.wholesaler,\r\n            \"Only Wholesaler Can call this function.\"\r\n        );\r\n        return MadicineBatchesAtWholesaler[msg.sender][index];\r\n    }\r\n\r\n/********************************************** Distributer Section ******************************************/\r\n    \r\n    mapping(address => address[]) MadicineBatchAtDistributer;\r\n\r\n    \r\n    mapping(address => address[]) MadicineDtoP;\r\n\r\n    \r\n    mapping(address => address) MadicineDtoPTxContract;\r\n\r\n    /// @notice\r\n    /// @dev Transfer Madicine BatchID in between Distributer to Pharma\r\n    /// @param BatchID Madicine BatchID\r\n    /// @param Shipper Transporter Ethereum Network Address\r\n    /// @param Receiver Pharma Ethereum Network Address\r\n    function transferMadicineDtoP(\r\n        address BatchID,\r\n        address Shipper,\r\n        address Receiver\r\n    ) public {\r\n        require(\r\n            UsersDetails[msg.sender].role == roles.distributer &&\r\n            msg.sender == Madicine(BatchID).getWDP()[1],\r\n            \"Only Distributer or current owner of package can call this function\"\r\n        );\r\n        MadicineD_P dp = new MadicineD_P(\r\n            BatchID,\r\n            msg.sender,\r\n            Shipper,\r\n            Receiver\r\n        );\r\n        MadicineDtoP[msg.sender].push(address(dp));\r\n        MadicineDtoPTxContract[BatchID] = address(dp);\r\n    }\r\n\r\n    /// @notice\r\n    /// @dev Get Madicine BatchID Count\r\n    /// @return count Number of Batches\r\n    function getBatchesCountDP() public view returns (uint256 count){\r\n        require(\r\n            UsersDetails[msg.sender].role == roles.distributer,\r\n            \"Only Distributer Can call this function.\"\r\n        );\r\n        return MadicineDtoP[msg.sender].length;\r\n    }\r\n\r\n    /// @notice\r\n    /// @dev Get Madicine BatchID by indexed value of stored data\r\n    /// @param index Index Number\r\n    /// @return packageID Madicine BatchID\r\n    function getBatchIdByIndexDP(uint256 index) public view returns(address packageID) {\r\n        require(\r\n            UsersDetails[msg.sender].role == roles.distributer,\r\n            \"Only Distributer Can call this function.\"\r\n        );\r\n        return MadicineDtoP[msg.sender][index];\r\n    }\r\n\r\n    /// @notice\r\n    /// @dev Get SubContract ID of Madicine Batch Transfer in between Distributer to Pharma\r\n    /// @param BatchID Madicine BatchID\r\n    /// @return SubContractDP ID\r\n    function getSubContractDP(address BatchID) public view returns (address SubContractDP) {\r\n        // require(\r\n        //     UsersDetails[msg.sender].role == roles.distributer,\r\n        //     \"Only Distributer Can call this function.\"\r\n        // );\r\n        return MadicineDtoPTxContract[BatchID];\r\n    }\r\n\r\n    /// @notice\r\n    /// @dev Get Madicine Batch Count\r\n    /// @return count of Batches\r\n    function getBatchesCountD() public view returns (uint256 count){\r\n        require(\r\n            UsersDetails[msg.sender].role == roles.distributer,\r\n            \"Only Distributer can call this function.\"\r\n        );\r\n        return MadicineBatchAtDistributer[msg.sender].length;\r\n    }\r\n\r\n    /// @notice\r\n    /// @dev Get Madicine BatchID by indexed value of stored data\r\n    /// @param index Indexed Number\r\n    /// @return packageID Madicine BatchID\r\n    function getBatchIdByIndexD(uint256 index) public view returns(address packageID) {\r\n        require(\r\n            UsersDetails[msg.sender].role == roles.distributer,\r\n            \"Only Distributer can call this function.\"\r\n        );\r\n        return MadicineBatchAtDistributer[msg.sender][index];\r\n    }\r\n\r\n/********************************************** Pharma Section ******************************************/\r\n    \r\n    mapping(address => address[]) MadicineBatchAtPharma;\r\n    \r\n    \r\n    mapping(address => address[]) MadicinePtoC;\r\n\r\n    \r\n    mapping(address => address) MadicinePtoCTxContract;\r\n\r\n\r\n    /// @notice\r\n    /// @dev Madicine Batch Recieved\r\n    /// @param batchid Madicine BatchID\r\n    /// @param cid SubContract ID\r\n    function madicineRecievedAtPharma(\r\n        address batchid,\r\n        address cid\r\n    ) public {\r\n        require(\r\n            UsersDetails[msg.sender].role == roles.pharma,\r\n            \"Only Pharma Can call this function.\"\r\n        );\r\n        MadicineD_P(cid).recieveDP(batchid, msg.sender);\r\n        MadicineBatchAtPharma[msg.sender].push(batchid);\r\n        sale[batchid] = salestatus(1);\r\n    }\r\n\r\n    /// @notice\r\n    /// @dev Transfer Madicine BatchID in between Pharma to Customer\r\n    /// @param BatchID Madicine BatchID\r\n    /// @param Shipper Transporter Ethereum Network Address\r\n    /// @param Receiver Customer Ethereum Network Address\r\n    function transferMadicinePtoC(\r\n        address BatchID,\r\n        address Shipper,\r\n        address Receiver\r\n    ) public {\r\n        require(\r\n            UsersDetails[msg.sender].role == roles.pharma &&\r\n            msg.sender == Madicine(BatchID).getWDP()[2],\r\n            \"Only Pharma or current owner of package can call this function\"\r\n        );\r\n        MadicineP_C pc = new MadicineP_C(\r\n            BatchID,\r\n            msg.sender,\r\n            Shipper,\r\n            Receiver\r\n        );\r\n        MadicinePtoC[msg.sender].push(address(pc));\r\n        MadicinePtoCTxContract[BatchID] = address(pc);\r\n        updateSaleStatus(BatchID, 2);\r\n    }\r\n\r\n    enum salestatus {\r\n        notfound,\r\n        atpharma,\r\n        sold,\r\n        expire,\r\n        damaged\r\n    }\r\n\r\n    \r\n    mapping(address => salestatus) sale;\r\n\r\n    event MadicineStatus(\r\n        address BatchID,\r\n        address indexed Pharma,\r\n        uint256 status\r\n    );\r\n\r\n    /// @notice\r\n    /// @dev Update Madicine Batch status\r\n    /// @param BatchID Madicine BatchID\r\n    /// @param Status Madicine Batch Status ( sold, expire etc.)\r\n    function updateSaleStatus(\r\n        address BatchID,\r\n        uint256 Status\r\n    ) public {\r\n        require(\r\n            UsersDetails[msg.sender].role == roles.pharma &&\r\n            msg.sender == Madicine(BatchID).getWDP()[2],\r\n            \"Only Pharma or current owner of package can call this function\"\r\n        );\r\n        require(sale[BatchID] == salestatus(1), \"madicine Must be at Pharma\");\r\n        sale[BatchID] = salestatus(Status);\r\n\r\n        emit MadicineStatus(BatchID, msg.sender, Status);\r\n    }\r\n\r\n    /// @notice\r\n    /// @dev Get Madicine Batch status\r\n    /// @param BatchID Madicine BatchID\r\n    /// @return Status\r\n    function salesInfo(\r\n        address BatchID\r\n    ) public\r\n    view\r\n    returns(\r\n        uint256 Status\r\n    ){\r\n        return uint256(sale[BatchID]);\r\n    }\r\n\r\n\r\n    /// @notice\r\n    /// @dev Get Madicine BatchID Count\r\n    /// @return count Number of Batches\r\n    function getBatchesCountPC() public view returns (uint256 count){\r\n        require(\r\n            UsersDetails[msg.sender].role == roles.pharma,\r\n            \"Only Pharma can call this function.\"\r\n        );\r\n        return MadicinePtoC[msg.sender].length;\r\n    }\r\n\r\n    /// @notice\r\n    /// @dev Get Madicine BatchID by indexed value of stored data\r\n    /// @param index Index Number\r\n    /// @return packageID Madicine BatchID\r\n    function getBatchIdByIndexPC(uint256 index) public view returns(address packageID) {\r\n        require(\r\n            UsersDetails[msg.sender].role == roles.pharma,\r\n            \"Only Pharma can call this function.\"\r\n        );\r\n        return MadicinePtoC[msg.sender][index];\r\n    }\r\n\r\n    /// @notice\r\n    /// @dev Get SubContract ID of Madicine Batch Transfer in between Pharma to Customer\r\n    /// @param BatchID Madicine BatchID\r\n    /// @return SubContractPC ID\r\n    function getSubContractPC(address BatchID) public view returns (address SubContractPC) {\r\n        // require(\r\n        //     UsersDetails[msg.sender].role == roles.pharma,\r\n        //     \"Only Pharma can call this function.\"\r\n        // );\r\n        return MadicinePtoCTxContract[BatchID];\r\n    }\r\n\r\n    /// @notice\r\n    /// @dev Get Madicine Batch count\r\n    /// @return count of Batches\r\n    function getBatchesCountP() public view returns(uint256 count){\r\n        require(\r\n            UsersDetails[msg.sender].role == roles.pharma,\r\n            \"Only Pharma or current owner of package can call this function\"\r\n        );\r\n        return  MadicineBatchAtPharma[msg.sender].length;\r\n    }\r\n\r\n    /// @notice\r\n    /// @dev Get Madicine BatchID by indexed value of stored data\r\n    /// @param index Index Number\r\n    /// @return BatchID\r\n    function getBatchIdByIndexP(uint256 index) public view returns(address BatchID){\r\n        require(\r\n            UsersDetails[msg.sender].role == roles.pharma,\r\n            \"Only Pharma or current owner of package can call this function\"\r\n        );\r\n        return MadicineBatchAtPharma[msg.sender][index];\r\n    }\r\n\r\n/********************************************** Customer Section ******************************************/\r\n\r\n\r\n    /// @notice\r\n    /// @dev Madicine Batch Recieved\r\n    /// @param batchid Madicine BatchID\r\n    /// @param cid SubContract ID\r\n    function madicineRecievedByCustomer(\r\n        address batchid,\r\n        address cid\r\n    ) public {\r\n        require(\r\n            UsersDetails[msg.sender].role == roles.customer,\r\n            \"Only Customer can call this function.\"\r\n        );\r\n        MadicineP_C(cid).recievePC(batchid, msg.sender);\r\n    }\r\n\r\n\r\n/********************************************** For Everyone ******************************************/\r\n\r\n\r\n    function getMedicineBatchInfo(address batchid) public view returns(\r\n        MyLibrary.medicineBasicInfo memory BasicInfo,\r\n        bytes32 WholesalerLocation,\r\n        bytes32 DistributerLocation,\r\n        bytes32 PharmaLocation\r\n    ){\r\n        (MyLibrary.medicineBasicInfo memory basic_info,\r\n        address whlslr, address dstri, address phrm) = Madicine(batchid).getMadicineInfo();\r\n        \r\n        return (\r\n            basic_info, \r\n            UsersDetails[whlslr].location, UsersDetails[dstri].location, UsersDetails[phrm].location\r\n        );\r\n    }\r\n}\r\n",
  "sourcePath": "D:\\Notes BE\\Sem_3_1\\BITS F452 (Blockchain)\\Proj\\ours\\contracts\\SupplyChain.sol",
  "compiler": {
    "name": "solc",
    "version": "0.8.0+commit.c7dfd78e.Emscripten.clang"
  },
  "schemaVersion": "3.4.16",
  "updatedAt": "2023-11-15T12:00:23.716Z",
  "devdoc": {
    "kind": "dev",
    "methods": {
      "createRawPackage(bytes32,bytes32,bytes32,uint256,address,address)": {
        "params": {
          "Des": "Transporter Ethereum Network Address",
          "Rcvr": "Manufacturer Ethereum Network Address"
        }
      },
      "getBatchIdByIndexD(uint256)": {
        "params": {
          "index": "Indexed Number"
        },
        "returns": {
          "packageID": "Madicine BatchID"
        }
      },
      "getBatchIdByIndexDP(uint256)": {
        "params": {
          "index": "Index Number"
        },
        "returns": {
          "packageID": "Madicine BatchID"
        }
      },
      "getBatchIdByIndexM(uint256)": {
        "params": {
          "index": "Indexed Number"
        },
        "returns": {
          "packageID": "Madicine BatchID"
        }
      },
      "getBatchIdByIndexP(uint256)": {
        "params": {
          "index": "Index Number"
        },
        "returns": {
          "BatchID": "BatchID"
        }
      },
      "getBatchIdByIndexPC(uint256)": {
        "params": {
          "index": "Index Number"
        },
        "returns": {
          "packageID": "Madicine BatchID"
        }
      },
      "getBatchIdByIndexW(uint256)": {
        "params": {
          "index": "Indexed Number"
        },
        "returns": {
          "packageID": "Madicine BatchID"
        }
      },
      "getBatchIdByIndexWD(uint256)": {
        "params": {
          "index": "Indexed Number"
        },
        "returns": {
          "packageID": "Madicine BatchID"
        }
      },
      "getBatchesCountD()": {
        "returns": {
          "count": "of Batches"
        }
      },
      "getBatchesCountDP()": {
        "returns": {
          "count": "Number of Batches"
        }
      },
      "getBatchesCountM()": {
        "returns": {
          "count": "of Batches"
        }
      },
      "getBatchesCountP()": {
        "returns": {
          "count": "of Batches"
        }
      },
      "getBatchesCountPC()": {
        "returns": {
          "count": "Number of Batches"
        }
      },
      "getBatchesCountW()": {
        "returns": {
          "count": "of Batches"
        }
      },
      "getBatchesCountWD()": {
        "returns": {
          "count": "of Batches"
        }
      },
      "getPackageIDByIndexM(uint256)": {
        "params": {
          "index": "Indexed Value"
        },
        "returns": {
          "BatchID": "BatchID"
        }
      },
      "getPackageIdByIndexS(uint256)": {
        "params": {
          "index": "Indexed Value"
        },
        "returns": {
          "packageID": "packageID"
        }
      },
      "getPackagesCountM()": {
        "returns": {
          "count": "of Packages at Manufacturer"
        }
      },
      "getPackagesCountS()": {
        "returns": {
          "count": "of packages"
        }
      },
      "getSubContractDP(address)": {
        "params": {
          "BatchID": "Madicine BatchID"
        },
        "returns": {
          "SubContractDP": "ID"
        }
      },
      "getSubContractPC(address)": {
        "params": {
          "BatchID": "Madicine BatchID"
        },
        "returns": {
          "SubContractPC": "ID"
        }
      },
      "getSubContractWD(address)": {
        "params": {
          "BatchID": "Madicine BatchID"
        },
        "returns": {
          "SubContractWD": "ID"
        }
      },
      "getUserInfo(address)": {
        "params": {
          "User": "User Ethereum Network Address"
        },
        "returns": {
          "ethAddress": " Details",
          "location": " Details",
          "name": " Details",
          "role": " Details"
        }
      },
      "getUserbyIndex(uint256)": {
        "params": {
          "index": "Indexed Number"
        },
        "returns": {
          "ethAddress": "Details",
          "location": "Details",
          "name": "Details",
          "role": "Details"
        }
      },
      "getUsersCount()": {
        "returns": {
          "count": "of registered Users"
        }
      },
      "loadConsingment(address,uint256,address)": {
        "params": {
          "cid": "Sub Contract ID for Consingment transaction",
          "pid": "PackageID or MadicineID",
          "transportertype": "Transporter Type on the basic of tx between Roles"
        }
      },
      "madicineReceived(address,address)": {
        "params": {
          "batchid": "Madicine BatchID",
          "cid": "Sub Contract ID for Madicine (if transaction Wholesaler to Distributer)"
        }
      },
      "madicineRecievedAtPharma(address,address)": {
        "params": {
          "batchid": "Madicine BatchID",
          "cid": "SubContract ID"
        }
      },
      "madicineRecievedByCustomer(address,address)": {
        "params": {
          "batchid": "Madicine BatchID",
          "cid": "SubContract ID"
        }
      },
      "manufacturMadicine(bytes32,bytes32,uint256,address,address,uint256)": {
        "params": {
          "Des": "Description of madicine batch",
          "Quant": "Number of Units",
          "RM": "RawMatrials Information",
          "Rcvr": "Receiver Ethereum Network Address",
          "RcvrType": "Receiver Type Ethier Wholesaler(1) or Distributer(2)",
          "Shpr": "Transporter Ethereum Network Address"
        }
      },
      "rawPackageReceived(address)": {
        "params": {
          "pid": "PackageID or MadicineID"
        }
      },
      "reassigneRole(address,uint256)": {
        "params": {
          "Role": "Role to assigne",
          "userAddress": "User Ethereum Network Address"
        }
      },
      "registerUser(address,bytes32,bytes32,uint256)": {
        "params": {
          "EthAddress": "Ethereum Network Address of User",
          "Location": "User Location",
          "Name": "User name",
          "Role": "User Role"
        }
      },
      "revokeRole(address)": {
        "params": {
          "userAddress": "User Ethereum Network Address"
        }
      },
      "salesInfo(address)": {
        "params": {
          "BatchID": "Madicine BatchID"
        },
        "returns": {
          "Status": "Status"
        }
      },
      "transferMadicineDtoP(address,address,address)": {
        "params": {
          "BatchID": "Madicine BatchID",
          "Receiver": "Pharma Ethereum Network Address",
          "Shipper": "Transporter Ethereum Network Address"
        }
      },
      "transferMadicinePtoC(address,address,address)": {
        "params": {
          "BatchID": "Madicine BatchID",
          "Receiver": "Customer Ethereum Network Address",
          "Shipper": "Transporter Ethereum Network Address"
        }
      },
      "transferMadicineWtoD(address,address,address)": {
        "params": {
          "BatchID": "Madicine BatchID",
          "Receiver": "Distributer Ethereum Network Address",
          "Shipper": "Transporter Ethereum Network Address"
        }
      },
      "updateSaleStatus(address,uint256)": {
        "params": {
          "BatchID": "Madicine BatchID",
          "Status": "Madicine Batch Status ( sold, expire etc.)"
        }
      }
    },
    "version": 1
  },
  "userdoc": {
    "kind": "user",
    "methods": {
      "constructor": {
        "notice": "@dev Initiate SupplyChain Contract"
      },
      "createRawPackage(bytes32,bytes32,bytes32,uint256,address,address)": {
        "notice": "@dev Create new raw package by Supplier"
      },
      "getBatchIdByIndexD(uint256)": {
        "notice": "@dev Get Madicine BatchID by indexed value of stored data"
      },
      "getBatchIdByIndexDP(uint256)": {
        "notice": "@dev Get Madicine BatchID by indexed value of stored data"
      },
      "getBatchIdByIndexM(uint256)": {
        "notice": "@dev Get Madicine BatchID by indexed value of stored data"
      },
      "getBatchIdByIndexP(uint256)": {
        "notice": "@dev Get Madicine BatchID by indexed value of stored data"
      },
      "getBatchIdByIndexPC(uint256)": {
        "notice": "@dev Get Madicine BatchID by indexed value of stored data"
      },
      "getBatchIdByIndexW(uint256)": {
        "notice": "@dev Get Madicine BatchID by indexed value of stored data"
      },
      "getBatchIdByIndexWD(uint256)": {
        "notice": "@dev Get Madicine BatchID by indexed value of stored data"
      },
      "getBatchesCountD()": {
        "notice": "@dev Get Madicine Batch Count"
      },
      "getBatchesCountDP()": {
        "notice": "@dev Get Madicine BatchID Count"
      },
      "getBatchesCountM()": {
        "notice": "@dev Get Madicine Batch Count"
      },
      "getBatchesCountP()": {
        "notice": "@dev Get Madicine Batch count"
      },
      "getBatchesCountPC()": {
        "notice": "@dev Get Madicine BatchID Count"
      },
      "getBatchesCountW()": {
        "notice": "@dev Get Madicine Batch Count"
      },
      "getBatchesCountWD()": {
        "notice": "@dev Get Madicine Batch Count"
      },
      "getPackageIDByIndexM(uint256)": {
        "notice": "@dev Get PackageID by Indexed value of stored data"
      },
      "getPackageIdByIndexS(uint256)": {
        "notice": "@dev Get PackageID by Indexed value of stored data"
      },
      "getPackagesCountM()": {
        "notice": "@dev Get Package Count at Manufacturer"
      },
      "getPackagesCountS()": {
        "notice": "@dev  Get Count of created package by supplier(caller)"
      },
      "getSubContractDP(address)": {
        "notice": "@dev Get SubContract ID of Madicine Batch Transfer in between Distributer to Pharma"
      },
      "getSubContractPC(address)": {
        "notice": "@dev Get SubContract ID of Madicine Batch Transfer in between Pharma to Customer"
      },
      "getSubContractWD(address)": {
        "notice": "@dev Get Sub Contract ID of Madicine Batch Transfer in between Wholesaler to Distributer"
      },
      "getUserInfo(address)": {
        "notice": "@dev Get User Information/ Profile"
      },
      "getUserbyIndex(uint256)": {
        "notice": "@dev Get User by Index value of stored data"
      },
      "getUsersCount()": {
        "notice": "@dev Get Number of registered Users"
      },
      "loadConsingment(address,uint256,address)": {
        "notice": "@dev Load Consingment fot transport one location to another."
      },
      "madicineReceived(address,address)": {
        "notice": "@dev Madicine Batch Received"
      },
      "madicineRecievedAtPharma(address,address)": {
        "notice": "@dev Madicine Batch Recieved"
      },
      "madicineRecievedByCustomer(address,address)": {
        "notice": "@dev Madicine Batch Recieved"
      },
      "manufacturMadicine(bytes32,bytes32,uint256,address,address,uint256)": {
        "notice": "@dev Create Madicine Batch"
      },
      "rawPackageReceived(address)": {
        "notice": "@dev Update Package / Madicine batch recieved status by ethier Manufacturer or Distributer"
      },
      "reassigneRole(address,uint256)": {
        "notice": "@dev Reassigne new role to User"
      },
      "registerUser(address,bytes32,bytes32,uint256)": {
        "notice": "@dev Register New user by Owner"
      },
      "revokeRole(address)": {
        "notice": "@dev Revoke users role"
      },
      "salesInfo(address)": {
        "notice": "@dev Get Madicine Batch status"
      },
      "transferMadicineDtoP(address,address,address)": {
        "notice": "@dev Transfer Madicine BatchID in between Distributer to Pharma"
      },
      "transferMadicinePtoC(address,address,address)": {
        "notice": "@dev Transfer Madicine BatchID in between Pharma to Customer"
      },
      "transferMadicineWtoD(address,address,address)": {
        "notice": "@dev Sub Contract for Madicine Transfer from Wholesaler to Distributer"
      },
      "updateSaleStatus(address,uint256)": {
        "notice": "@dev Update Madicine Batch status"
      }
    },
    "version": 1
  }
}