{
  "contractName": "SupplyChain",
  "abi": [
    {
      "constant": true,
      "inputs": [],
      "name": "Owner",
      "outputs": [
        {
          "name": "",
          "type": "address"
        }
      ],
      "payable": false,
      "stateMutability": "view",
      "type": "function"
    },
    {
      "inputs": [],
      "payable": false,
      "stateMutability": "nonpayable",
      "type": "constructor"
    },
    {
      "anonymous": false,
      "inputs": [
        {
          "indexed": true,
          "name": "EthAddress",
          "type": "address"
        },
        {
          "indexed": false,
          "name": "Name",
          "type": "bytes32"
        }
      ],
      "name": "UserRegister",
      "type": "event"
    },
    {
      "anonymous": false,
      "inputs": [
        {
          "indexed": true,
          "name": "EthAddress",
          "type": "address"
        },
        {
          "indexed": false,
          "name": "Name",
          "type": "bytes32"
        },
        {
          "indexed": false,
          "name": "Role",
          "type": "uint256"
        }
      ],
      "name": "UserRoleRevoked",
      "type": "event"
    },
    {
      "anonymous": false,
      "inputs": [
        {
          "indexed": true,
          "name": "EthAddress",
          "type": "address"
        },
        {
          "indexed": false,
          "name": "Name",
          "type": "bytes32"
        },
        {
          "indexed": false,
          "name": "Role",
          "type": "uint256"
        }
      ],
      "name": "UserRoleRessigne",
      "type": "event"
    },
    {
      "anonymous": false,
      "inputs": [
        {
          "indexed": true,
          "name": "ProductID",
          "type": "address"
        },
        {
          "indexed": true,
          "name": "Supplier",
          "type": "address"
        },
        {
          "indexed": false,
          "name": "Shipper",
          "type": "address"
        },
        {
          "indexed": true,
          "name": "Receiver",
          "type": "address"
        }
      ],
      "name": "RawSupplyInit",
      "type": "event"
    },
    {
      "anonymous": false,
      "inputs": [
        {
          "indexed": true,
          "name": "BatchId",
          "type": "address"
        },
        {
          "indexed": true,
          "name": "Manufacturer",
          "type": "address"
        },
        {
          "indexed": false,
          "name": "shipper",
          "type": "address"
        },
        {
          "indexed": true,
          "name": "Receiver",
          "type": "address"
        }
      ],
      "name": "MadicineNewBatch",
      "type": "event"
    },
    {
      "anonymous": false,
      "inputs": [
        {
          "indexed": false,
          "name": "BatchID",
          "type": "address"
        },
        {
          "indexed": true,
          "name": "Pharma",
          "type": "address"
        },
        {
          "indexed": false,
          "name": "status",
          "type": "uint256"
        }
      ],
      "name": "MadicineStatus",
      "type": "event"
    },
    {
      "constant": false,
      "inputs": [
        {
          "name": "EthAddress",
          "type": "address"
        },
        {
          "name": "Name",
          "type": "bytes32"
        },
        {
          "name": "Location",
          "type": "bytes32"
        },
        {
          "name": "Role",
          "type": "uint256"
        }
      ],
      "name": "registerUser",
      "outputs": [],
      "payable": false,
      "stateMutability": "nonpayable",
      "type": "function"
    },
    {
      "constant": false,
      "inputs": [
        {
          "name": "userAddress",
          "type": "address"
        }
      ],
      "name": "revokeRole",
      "outputs": [],
      "payable": false,
      "stateMutability": "nonpayable",
      "type": "function"
    },
    {
      "constant": false,
      "inputs": [
        {
          "name": "userAddress",
          "type": "address"
        },
        {
          "name": "Role",
          "type": "uint256"
        }
      ],
      "name": "reassigneRole",
      "outputs": [],
      "payable": false,
      "stateMutability": "nonpayable",
      "type": "function"
    },
    {
      "constant": true,
      "inputs": [
        {
          "name": "User",
          "type": "address"
        }
      ],
      "name": "getUserInfo",
      "outputs": [
        {
          "name": "name",
          "type": "bytes32"
        },
        {
          "name": "location",
          "type": "bytes32"
        },
        {
          "name": "ethAddress",
          "type": "address"
        },
        {
          "name": "role",
          "type": "uint8"
        }
      ],
      "payable": false,
      "stateMutability": "view",
      "type": "function"
    },
    {
      "constant": true,
      "inputs": [],
      "name": "getUsersCount",
      "outputs": [
        {
          "name": "count",
          "type": "uint256"
        }
      ],
      "payable": false,
      "stateMutability": "view",
      "type": "function"
    },
    {
      "constant": true,
      "inputs": [
        {
          "name": "index",
          "type": "uint256"
        }
      ],
      "name": "getUserbyIndex",
      "outputs": [
        {
          "name": "name",
          "type": "bytes32"
        },
        {
          "name": "location",
          "type": "bytes32"
        },
        {
          "name": "ethAddress",
          "type": "address"
        },
        {
          "name": "role",
          "type": "uint8"
        }
      ],
      "payable": false,
      "stateMutability": "view",
      "type": "function"
    },
    {
      "constant": false,
      "inputs": [
        {
          "name": "Des",
          "type": "bytes32"
        },
        {
          "name": "FN",
          "type": "bytes32"
        },
        {
          "name": "Loc",
          "type": "bytes32"
        },
        {
          "name": "Quant",
          "type": "uint256"
        },
        {
          "name": "Shpr",
          "type": "address"
        },
        {
          "name": "Rcvr",
          "type": "address"
        }
      ],
      "name": "createRawPackage",
      "outputs": [],
      "payable": false,
      "stateMutability": "nonpayable",
      "type": "function"
    },
    {
      "constant": true,
      "inputs": [],
      "name": "getPackagesCountS",
      "outputs": [
        {
          "name": "count",
          "type": "uint256"
        }
      ],
      "payable": false,
      "stateMutability": "view",
      "type": "function"
    },
    {
      "constant": true,
      "inputs": [
        {
          "name": "index",
          "type": "uint256"
        }
      ],
      "name": "getPackageIdByIndexS",
      "outputs": [
        {
          "name": "packageID",
          "type": "address"
        }
      ],
      "payable": false,
      "stateMutability": "view",
      "type": "function"
    },
    {
      "constant": false,
      "inputs": [
        {
          "name": "pid",
          "type": "address"
        },
        {
          "name": "transportertype",
          "type": "uint256"
        },
        {
          "name": "cid",
          "type": "address"
        }
      ],
      "name": "loadConsingment",
      "outputs": [],
      "payable": false,
      "stateMutability": "nonpayable",
      "type": "function"
    },
    {
      "constant": false,
      "inputs": [
        {
          "name": "pid",
          "type": "address"
        }
      ],
      "name": "rawPackageReceived",
      "outputs": [],
      "payable": false,
      "stateMutability": "nonpayable",
      "type": "function"
    },
    {
      "constant": true,
      "inputs": [],
      "name": "getPackagesCountM",
      "outputs": [
        {
          "name": "count",
          "type": "uint256"
        }
      ],
      "payable": false,
      "stateMutability": "view",
      "type": "function"
    },
    {
      "constant": true,
      "inputs": [
        {
          "name": "index",
          "type": "uint256"
        }
      ],
      "name": "getPackageIDByIndexM",
      "outputs": [
        {
          "name": "BatchID",
          "type": "address"
        }
      ],
      "payable": false,
      "stateMutability": "view",
      "type": "function"
    },
    {
      "constant": false,
      "inputs": [
        {
          "name": "Des",
          "type": "bytes32"
        },
        {
          "name": "RM",
          "type": "bytes32"
        },
        {
          "name": "Quant",
          "type": "uint256"
        },
        {
          "name": "Shpr",
          "type": "address"
        },
        {
          "name": "Rcvr",
          "type": "address"
        },
        {
          "name": "RcvrType",
          "type": "uint256"
        }
      ],
      "name": "manufacturMadicine",
      "outputs": [],
      "payable": false,
      "stateMutability": "nonpayable",
      "type": "function"
    },
    {
      "constant": true,
      "inputs": [],
      "name": "getBatchesCountM",
      "outputs": [
        {
          "name": "count",
          "type": "uint256"
        }
      ],
      "payable": false,
      "stateMutability": "view",
      "type": "function"
    },
    {
      "constant": true,
      "inputs": [
        {
          "name": "index",
          "type": "uint256"
        }
      ],
      "name": "getBatchIdByIndexM",
      "outputs": [
        {
          "name": "packageID",
          "type": "address"
        }
      ],
      "payable": false,
      "stateMutability": "view",
      "type": "function"
    },
    {
      "constant": false,
      "inputs": [
        {
          "name": "batchid",
          "type": "address"
        },
        {
          "name": "cid",
          "type": "address"
        }
      ],
      "name": "madicineReceived",
      "outputs": [],
      "payable": false,
      "stateMutability": "nonpayable",
      "type": "function"
    },
    {
      "constant": false,
      "inputs": [
        {
          "name": "BatchID",
          "type": "address"
        },
        {
          "name": "Shipper",
          "type": "address"
        },
        {
          "name": "Receiver",
          "type": "address"
        }
      ],
      "name": "transferMadicineWtoD",
      "outputs": [],
      "payable": false,
      "stateMutability": "nonpayable",
      "type": "function"
    },
    {
      "constant": true,
      "inputs": [],
      "name": "getBatchesCountWD",
      "outputs": [
        {
          "name": "count",
          "type": "uint256"
        }
      ],
      "payable": false,
      "stateMutability": "view",
      "type": "function"
    },
    {
      "constant": true,
      "inputs": [
        {
          "name": "index",
          "type": "uint256"
        }
      ],
      "name": "getBatchIdByIndexWD",
      "outputs": [
        {
          "name": "packageID",
          "type": "address"
        }
      ],
      "payable": false,
      "stateMutability": "view",
      "type": "function"
    },
    {
      "constant": true,
      "inputs": [
        {
          "name": "BatchID",
          "type": "address"
        }
      ],
      "name": "getSubContractWD",
      "outputs": [
        {
          "name": "SubContractWD",
          "type": "address"
        }
      ],
      "payable": false,
      "stateMutability": "view",
      "type": "function"
    },
    {
      "constant": true,
      "inputs": [],
      "name": "getBatchesCountW",
      "outputs": [
        {
          "name": "count",
          "type": "uint256"
        }
      ],
      "payable": false,
      "stateMutability": "view",
      "type": "function"
    },
    {
      "constant": true,
      "inputs": [
        {
          "name": "index",
          "type": "uint256"
        }
      ],
      "name": "getBatchIdByIndexW",
      "outputs": [
        {
          "name": "packageID",
          "type": "address"
        }
      ],
      "payable": false,
      "stateMutability": "view",
      "type": "function"
    },
    {
      "constant": false,
      "inputs": [
        {
          "name": "BatchID",
          "type": "address"
        },
        {
          "name": "Shipper",
          "type": "address"
        },
        {
          "name": "Receiver",
          "type": "address"
        }
      ],
      "name": "transferMadicineDtoP",
      "outputs": [],
      "payable": false,
      "stateMutability": "nonpayable",
      "type": "function"
    },
    {
      "constant": true,
      "inputs": [],
      "name": "getBatchesCountDP",
      "outputs": [
        {
          "name": "count",
          "type": "uint256"
        }
      ],
      "payable": false,
      "stateMutability": "view",
      "type": "function"
    },
    {
      "constant": true,
      "inputs": [
        {
          "name": "index",
          "type": "uint256"
        }
      ],
      "name": "getBatchIdByIndexDP",
      "outputs": [
        {
          "name": "packageID",
          "type": "address"
        }
      ],
      "payable": false,
      "stateMutability": "view",
      "type": "function"
    },
    {
      "constant": true,
      "inputs": [
        {
          "name": "BatchID",
          "type": "address"
        }
      ],
      "name": "getSubContractDP",
      "outputs": [
        {
          "name": "SubContractDP",
          "type": "address"
        }
      ],
      "payable": false,
      "stateMutability": "view",
      "type": "function"
    },
    {
      "constant": true,
      "inputs": [],
      "name": "getBatchesCountD",
      "outputs": [
        {
          "name": "count",
          "type": "uint256"
        }
      ],
      "payable": false,
      "stateMutability": "view",
      "type": "function"
    },
    {
      "constant": true,
      "inputs": [
        {
          "name": "index",
          "type": "uint256"
        }
      ],
      "name": "getBatchIdByIndexD",
      "outputs": [
        {
          "name": "packageID",
          "type": "address"
        }
      ],
      "payable": false,
      "stateMutability": "view",
      "type": "function"
    },
    {
      "constant": false,
      "inputs": [
        {
          "name": "batchid",
          "type": "address"
        },
        {
          "name": "cid",
          "type": "address"
        }
      ],
      "name": "madicineRecievedAtPharma",
      "outputs": [],
      "payable": false,
      "stateMutability": "nonpayable",
      "type": "function"
    },
    {
      "constant": false,
      "inputs": [
        {
          "name": "BatchID",
          "type": "address"
        },
        {
          "name": "Shipper",
          "type": "address"
        },
        {
          "name": "Receiver",
          "type": "address"
        }
      ],
      "name": "transferMadicinePtoC",
      "outputs": [],
      "payable": false,
      "stateMutability": "nonpayable",
      "type": "function"
    },
    {
      "constant": false,
      "inputs": [
        {
          "name": "BatchID",
          "type": "address"
        },
        {
          "name": "Status",
          "type": "uint256"
        }
      ],
      "name": "updateSaleStatus",
      "outputs": [],
      "payable": false,
      "stateMutability": "nonpayable",
      "type": "function"
    },
    {
      "constant": true,
      "inputs": [
        {
          "name": "BatchID",
          "type": "address"
        }
      ],
      "name": "salesInfo",
      "outputs": [
        {
          "name": "Status",
          "type": "uint256"
        }
      ],
      "payable": false,
      "stateMutability": "view",
      "type": "function"
    },
    {
      "constant": true,
      "inputs": [],
      "name": "getBatchesCountPC",
      "outputs": [
        {
          "name": "count",
          "type": "uint256"
        }
      ],
      "payable": false,
      "stateMutability": "view",
      "type": "function"
    },
    {
      "constant": true,
      "inputs": [
        {
          "name": "index",
          "type": "uint256"
        }
      ],
      "name": "getBatchIdByIndexPC",
      "outputs": [
        {
          "name": "packageID",
          "type": "address"
        }
      ],
      "payable": false,
      "stateMutability": "view",
      "type": "function"
    },
    {
      "constant": true,
      "inputs": [
        {
          "name": "BatchID",
          "type": "address"
        }
      ],
      "name": "getSubContractPC",
      "outputs": [
        {
          "name": "SubContractPC",
          "type": "address"
        }
      ],
      "payable": false,
      "stateMutability": "view",
      "type": "function"
    },
    {
      "constant": true,
      "inputs": [],
      "name": "getBatchesCountP",
      "outputs": [
        {
          "name": "count",
          "type": "uint256"
        }
      ],
      "payable": false,
      "stateMutability": "view",
      "type": "function"
    },
    {
      "constant": true,
      "inputs": [
        {
          "name": "index",
          "type": "uint256"
        }
      ],
      "name": "getBatchIdByIndexP",
      "outputs": [
        {
          "name": "BatchID",
          "type": "address"
        }
      ],
      "payable": false,
      "stateMutability": "view",
      "type": "function"
    },
    {
      "constant": false,
      "inputs": [
        {
          "name": "batchid",
          "type": "address"
        },
        {
          "name": "cid",
          "type": "address"
        }
      ],
      "name": "madicineRecievedByCustomer",
      "outputs": [],
      "payable": false,
      "stateMutability": "nonpayable",
      "type": "function"
    }
  ],
  "bytecode": "0x608060405234801561001057600080fd5b5060008054600160a060020a031916331790556155cc806100326000396000f3fe608060405260043610620001f75760e060020a60003504630bcc75688114620001fc5780630cd48d811462000246578063108329f814620002875780631a22027e14620003015780632246e4d414620003385780632becfd04146200037757806331dbe6a114620003a15780633475901614620003cf578063373d5c18146200040657806337caa4501462000443578063381a3fa9146200045b5780633d66f86d14620004895780635e33cea414620004a15780636386c1c714620004cf57806373f08eb3146200050657806376e903aa146200054d57806380e52e3f146200057b578063884b9c5214620005b2578063923f645a14620005ca5780639856f6b31462000613578063986c9139146200066c5780639af035a3146200069a5780639f696b3514620006c85780639fb3a90314620006e0578063a3a1d6c314620006f8578063a4a1e2631462000710578063b4a99a4e1462000728578063b6c022f51462000740578063bb8ee1c51462000777578063bc8c5b1c14620007ae578063cbe4f5ac14620007e5578063d40da96714620007fd578063e581762e1462000854578063e5bff92a146200086c578063e95690aa146200089a578063eae3c20714620008e3578063f05bcd4e1462000920578063f4d45dbe146200094e578063f9723eb6146200098d578063fcbc5f4414620009d6575b600080fd5b3480156200020957600080fd5b506200022a600480360360208110156200022257600080fd5b503562000a1f565b60408051600160a060020a039092168252519081900360200190f35b3480156200025357600080fd5b5062000285600480360360408110156200026c57600080fd5b50600160a060020a038135811691602001351662000add565b005b3480156200029457600080fd5b50620002b560048036036020811015620002ad57600080fd5b503562000c81565b6040518085815260200184815260200183600160a060020a0316600160a060020a03168152602001826008811115620002ea57fe5b60ff16815260200194505050505060405180910390f35b3480156200030e57600080fd5b506200022a600480360360208110156200032757600080fd5b5035600160a060020a031662000cc5565b3480156200034557600080fd5b5062000285600480360360408110156200035e57600080fd5b50600160a060020a038135811691602001351662000ce3565b3480156200038457600080fd5b506200038f6200100b565b60408051918252519081900360200190f35b348015620003ae57600080fd5b506200022a60048036036020811015620003c757600080fd5b5035620010c8565b348015620003dc57600080fd5b506200022a60048036036020811015620003f557600080fd5b5035600160a060020a03166200117c565b3480156200041357600080fd5b5062000285600480360360408110156200042c57600080fd5b50600160a060020a0381351690602001356200119a565b3480156200045057600080fd5b506200038f6200137c565b3480156200046857600080fd5b506200022a600480360360208110156200048157600080fd5b503562001417565b3480156200049657600080fd5b506200038f620014dc565b348015620004ae57600080fd5b506200022a60048036036020811015620004c757600080fd5b503562001599565b348015620004dc57600080fd5b50620002b560048036036020811015620004f557600080fd5b5035600160a060020a03166200165e565b3480156200051357600080fd5b5062000285600480360360608110156200052c57600080fd5b50600160a060020a038135811691602081013591604090910135166200169a565b3480156200055a57600080fd5b506200022a600480360360208110156200057357600080fd5b5035620019ee565b3480156200058857600080fd5b506200028560048036036020811015620005a157600080fd5b5035600160a060020a031662001a91565b348015620005bf57600080fd5b506200038f62001c65565b348015620005d757600080fd5b506200028560048036036080811015620005f057600080fd5b50600160a060020a03813516906020810135906040810135906060013562001d09565b3480156200062057600080fd5b5062000285600480360360c08110156200063957600080fd5b50803590602081013590604081013590600160a060020a03606082013581169160808101359091169060a0013562001f35565b3480156200067957600080fd5b506200022a600480360360208110156200069257600080fd5b50356200213b565b348015620006a757600080fd5b506200022a60048036036020811015620006c057600080fd5b503562002200565b348015620006d557600080fd5b506200038f620022a3565b348015620006ed57600080fd5b506200038f6200233e565b3480156200070557600080fd5b506200038f620023d9565b3480156200071d57600080fd5b506200038f6200248e565b3480156200073557600080fd5b506200022a62002494565b3480156200074d57600080fd5b506200022a600480360360208110156200076657600080fd5b5035600160a060020a0316620024a3565b3480156200078457600080fd5b506200038f600480360360208110156200079d57600080fd5b5035600160a060020a0316620024c1565b348015620007bb57600080fd5b506200028560048036036020811015620007d457600080fd5b5035600160a060020a0316620024ef565b348015620007f257600080fd5b506200038f6200262e565b3480156200080a57600080fd5b5062000285600480360360c08110156200082357600080fd5b50803590602081013590604081013590606081013590600160a060020a03608082013581169160a0013516620026da565b3480156200086157600080fd5b506200038f62002877565b3480156200087957600080fd5b506200022a600480360360208110156200089257600080fd5b503562002912565b348015620008a757600080fd5b506200028560048036036060811015620008c057600080fd5b50600160a060020a038135811691602081013582169160409091013516620029b5565b348015620008f057600080fd5b5062000285600480360360408110156200090957600080fd5b50600160a060020a03813516906020013562002bc5565b3480156200092d57600080fd5b506200022a600480360360208110156200094657600080fd5b503562002de3565b3480156200095b57600080fd5b5062000285600480360360408110156200097457600080fd5b50600160a060020a038135811691602001351662002e97565b3480156200099a57600080fd5b506200028560048036036060811015620009b357600080fd5b50600160a060020a03813581169160208101358216916040909101351662002fc6565b348015620009e357600080fd5b506200028560048036036060811015620009fc57600080fd5b50600160a060020a038135811691602081013582169160409091013516620031d9565b600060033360009081526001602052604090206002015460a060020a900460ff16600881111562000a4c57fe5b1462000aa6576040805160e560020a62461bcd028152602060048201526028602482015260008051602062005541833981519152604482015260008051602062005581833981519152606482015290519081900360840190fd5b33600090815260046020526040902080548390811062000ac257fe5b600091825260209091200154600160a060020a031692915050565b60063360009081526001602052604090206002015460a060020a900460ff16600881111562000b0857fe5b1462000b84576040805160e560020a62461bcd02815260206004820152602360248201527f4f6e6c7920506861726d612043616e2063616c6c20746869732066756e63746960448201527f6f6e2e0000000000000000000000000000000000000000000000000000000000606482015290519081900360840190fd5b604080517f32a60e00000000000000000000000000000000000000000000000000000000008152600160a060020a0384811660048301523360248301529151918316916332a60e009160448082019260009290919082900301818387803b15801562000bef57600080fd5b505af115801562000c04573d6000803e3d6000fd5b5050336000908152600c60209081526040822080546001808201835591845291909220018054600160a060020a031916600160a060020a038716179055915062000c4b9050565b600160a060020a0383166000908152600f60205260409020805460ff1916600183600481111562000c7857fe5b02179055505050565b60008060008062000cb660028681548110151562000c9b57fe5b600091825260209091200154600160a060020a03166200165e565b93509350935093509193509193565b600160a060020a039081166000908152600e60205260409020541690565b60043360009081526001602052604090206002015460a060020a900460ff16600881111562000d0e57fe5b148062000d43575060053360009081526001602052604090206002015460a060020a900460ff16600881111562000d4157fe5b145b151562000dc0576040805160e560020a62461bcd02815260206004820152603660248201527f4f6e6c792057686f6c6573616c657220616e642044697374726962757465722060448201527f63616e2063616c6c20746869732066756e6374696f6e00000000000000000000606482015290519081900360840190fd5b604080517f52b999680000000000000000000000000000000000000000000000000000000081523360048201529051600091600160a060020a038516916352b999689160248082019260209290919082900301818787803b15801562000e2557600080fd5b505af115801562000e3a573d6000803e3d6000fd5b505050506040513d602081101562000e5157600080fd5b50519050600181141562000e9d57336000908152600660209081526040822080546001810182559083529120018054600160a060020a031916600160a060020a03851617905562001006565b8060021415620010065733600090815260096020908152604080832080546001810182559084529183209091018054600160a060020a031916600160a060020a03871690811790915581517f01a9a23e000000000000000000000000000000000000000000000000000000008152915190916301a9a23e916004808301926080929190829003018186803b15801562000f3557600080fd5b505afa15801562000f4a573d6000803e3d6000fd5b505050506040513d601f19601f82011682018060405250608081101562000f7057600080fd5b5051600160a060020a0316146200100657604080517ff4c07229000000000000000000000000000000000000000000000000000000008152600160a060020a03858116600483015233602483015291519184169163f4c072299160448082019260009290919082900301818387803b15801562000fec57600080fd5b505af115801562001001573d6000803e3d6000fd5b505050505b505050565b600060013360009081526001602052604090206002015460a060020a900460ff1660088111156200103857fe5b14620010b4576040805160e560020a62461bcd02815260206004820152602560248201527f4f6e6c7920537570706c6965722043616e2063616c6c20746869732066756e6360448201527f74696f6e20000000000000000000000000000000000000000000000000000000606482015290519081900360840190fd5b503360009081526003602052604090205490565b600060053360009081526001602052604090206002015460a060020a900460ff166008811115620010f557fe5b1462001160576040805160e560020a62461bcd02815260206004820152602860248201527f4f6e6c792044697374726962757465722063616e2063616c6c20746869732066604482015260008051602062005501833981519152606482015290519081900360840190fd5b33600090815260096020526040902080548390811062000ac257fe5b600160a060020a039081166000908152600860205260409020541690565b600054600160a060020a0316331462001223576040805160e560020a62461bcd02815260206004820152602260248201527f4f6e6c79206f776e65722063616e2063616c6c20746869732066756e6374696f60448201527f6e2e000000000000000000000000000000000000000000000000000000000000606482015290519081900360840190fd5b6000600160a060020a03831660009081526001602052604090206002015460a060020a900460ff1660088111156200125757fe5b1415620012ae576040805160e560020a62461bcd02815260206004820152601360248201527f55736572206e6f74207265676973746572656400000000000000000000000000604482015290519081900360640190fd5b806008811115620012bb57fe5b600160a060020a0383166000908152600160205260409020600201805474ff0000000000000000000000000000000000000000191660a060020a8360088111156200130257fe5b0217905550600160a060020a038216600081815260016020526040902080546002909101547f4c8b3f61ed94356876db0fec52d6a7c6aeaf772c4e0ca8f6da74331cc0f687cc919060a060020a900460ff1660088111156200136057fe5b6040805192835260208301919091528051918290030190a25050565b600060043360009081526001602052604090206002015460a060020a900460ff166008811115620013a957fe5b1462001403576040805160e560020a62461bcd0281526020600482015260276024820152600080516020620054c1833981519152604482015260008051602062005561833981519152606482015290519081900360840190fd5b503360009081526006602052604090205490565b600060063360009081526001602052604090206002015460a060020a900460ff1660088111156200144457fe5b14620014c0576040805160e560020a62461bcd02815260206004820152602360248201527f4f6e6c7920506861726d612063616e2063616c6c20746869732066756e63746960448201527f6f6e2e0000000000000000000000000000000000000000000000000000000000606482015290519081900360840190fd5b336000908152600d6020526040902080548390811062000ac257fe5b600060033360009081526001602052604090206002015460a060020a900460ff1660088111156200150957fe5b1462001585576040805160e560020a62461bcd02815260206004820152602960248201527f4f6e6c79204d616e7566616374757265722043616e2063616c6c20746869732060448201527f66756e6374696f6e2e0000000000000000000000000000000000000000000000606482015290519081900360840190fd5b503360009081526005602052604090205490565b600060013360009081526001602052604090206002015460a060020a900460ff166008811115620015c657fe5b1462001642576040805160e560020a62461bcd02815260206004820152602560248201527f4f6e6c7920537570706c6965722043616e2063616c6c20746869732066756e6360448201527f74696f6e20000000000000000000000000000000000000000000000000000000606482015290519081900360840190fd5b33600090815260036020526040902080548390811062000ac257fe5b600160a060020a0390811660009081526001602081905260409091208054918101546002909101549193909282169160a060020a900460ff1690565b60023360009081526001602052604090206002015460a060020a900460ff166008811115620016c557fe5b1462001741576040805160e560020a62461bcd02815260206004820152602760248201527f4f6e6c79205472616e73706f727465722063616e2063616c6c2074686973206660448201527f756e6374696f6e00000000000000000000000000000000000000000000000000606482015290519081900360840190fd5b600082116200179a576040805160e560020a62461bcd02815260206004820152601f60248201527f5472616e73706f727465722054797065206d75737420626520646566696e6500604482015290519081900360640190fd5b81600114156200182457604080517f638e9a3d0000000000000000000000000000000000000000000000000000000081523360048201529051600160a060020a0385169163638e9a3d91602480830192600092919082900301818387803b1580156200180557600080fd5b505af11580156200181a573d6000803e3d6000fd5b5050505062001006565b81600214156200188f57604080517f638e9a3d0000000000000000000000000000000000000000000000000000000081523360048201529051600160a060020a0385169163638e9a3d91602480830192600092919082900301818387803b1580156200180557600080fd5b81600314156200190457604080517f443c28d8000000000000000000000000000000000000000000000000000000008152600160a060020a03858116600483015233602483015291519183169163443c28d89160448082019260009290919082900301818387803b1580156200180557600080fd5b81600414156200197957604080517fd39ff0e7000000000000000000000000000000000000000000000000000000008152600160a060020a03858116600483015233602483015291519183169163d39ff0e79160448082019260009290919082900301818387803b1580156200180557600080fd5b81600514156200100657604080517f36ec0f5d000000000000000000000000000000000000000000000000000000008152600160a060020a0385811660048301523360248301529151918316916336ec0f5d9160448082019260009290919082900301818387803b15801562000fec57600080fd5b600060043360009081526001602052604090206002015460a060020a900460ff16600881111562001a1b57fe5b1462001a75576040805160e560020a62461bcd0281526020600482015260276024820152600080516020620054c1833981519152604482015260008051602062005561833981519152606482015290519081900360840190fd5b33600090815260066020526040902080548390811062000ac257fe5b600054600160a060020a0316331462001b1a576040805160e560020a62461bcd02815260206004820152602260248201527f4f6e6c79206f776e65722063616e2063616c6c20746869732066756e6374696f60448201527f6e2e000000000000000000000000000000000000000000000000000000000000606482015290519081900360840190fd5b6000600160a060020a03821660009081526001602052604090206002015460a060020a900460ff16600881111562001b4e57fe5b141562001ba5576040805160e560020a62461bcd02815260206004820152601360248201527f55736572206e6f74207265676973746572656400000000000000000000000000604482015290519081900360640190fd5b600160a060020a038116600081815260016020526040902080546002909101547fb5f04dfc1ccfefb366c4dc7a23670362462e0a415afb89d8cba1fb657e264c96919060a060020a900460ff16600881111562001bfe57fe5b6040805192835260208301919091528051918290030190a2600160a060020a03166000908152600160205260409020600201805474ff0000000000000000000000000000000000000000191674080000000000000000000000000000000000000000179055565b600060053360009081526001602052604090206002015460a060020a900460ff16600881111562001c9257fe5b1462001cfd576040805160e560020a62461bcd02815260206004820152602860248201527f4f6e6c792044697374726962757465722043616e2063616c6c20746869732066604482015260008051602062005501833981519152606482015290519081900360840190fd5b33600052600a60205290565b600054600160a060020a0316331462001d92576040805160e560020a62461bcd02815260206004820152602260248201527f4f6e6c79206f776e65722063616e2063616c6c20746869732066756e6374696f60448201527f6e2e000000000000000000000000000000000000000000000000000000000000606482015290519081900360840190fd5b6000600160a060020a03851660009081526001602052604090206002015460a060020a900460ff16600881111562001dc657fe5b1462001e1c576040805160e560020a62461bcd02815260206004820152601760248201527f5573657220416c72656164792072656769737465726564000000000000000000604482015290519081900360640190fd5b600160a060020a03841660008181526001602081905260409091208581559081018490556002018054600160a060020a031916909117905580600881111562001e6157fe5b600160a060020a0385166000908152600160205260409020600201805474ff0000000000000000000000000000000000000000191660a060020a83600881111562001ea857fe5b0217905550600280546001810182556000919091527f405787fa12a823e0f2b7631cc41b3ba8828b3321ca811111fa75cd3aa3bb5ace018054600160a060020a038616600160a060020a031990911681179091556040805185815290517f33a7170f028b1e4f5ba321064a00ed820856a920c7f9c6636fbcf385427b1b0f9181900360200190a250505050565b60033360009081526001602052604090206002015460a060020a900460ff16600881111562001f6057fe5b1462001fba576040805160e560020a62461bcd028152602060048201526028602482015260008051602062005541833981519152604482015260008051602062005581833981519152606482015290519081900360840190fd5b80151562002012576040805160e560020a62461bcd02815260206004820152601c60248201527f52656365697665722054797065206d75737420626520646566696e6500000000604482015290519081900360640190fd5b6000338787878787876001600033600160a060020a0316600160a060020a03168152602001908152602001600020600101546200204e620033b3565b600160a060020a03988916815260208101979097526040808801969096526060870194909452918616608086015290941660a084015260c083019390935260e082019290925290519081900361010001906000f080158015620020b5573d6000803e3d6000fd5b503360008181526005602090815260408083208054600181018255908452928290209092018054600160a060020a031916600160a060020a0386811691821790925583518a8316815293519596509088169490927f3279bc96fc4eda86f9fb5456b29ecd9eea4e798e299023b438f7025e6760d5f292908290030190a450505050505050565b600060033360009081526001602052604090206002015460a060020a900460ff1660088111156200216857fe5b14620021e4576040805160e560020a62461bcd02815260206004820152602960248201527f4f6e6c79204d616e7566616374757265722043616e2063616c6c20746869732060448201527f66756e6374696f6e2e0000000000000000000000000000000000000000000000606482015290519081900360840190fd5b33600090815260056020526040902080548390811062000ac257fe5b600060043360009081526001602052604090206002015460a060020a900460ff1660088111156200222d57fe5b1462002287576040805160e560020a62461bcd0281526020600482015260276024820152600080516020620054c1833981519152604482015260008051602062005561833981519152606482015290519081900360840190fd5b33600090815260076020526040902080548390811062000ac257fe5b600060043360009081526001602052604090206002015460a060020a900460ff166008811115620022d057fe5b146200232a576040805160e560020a62461bcd0281526020600482015260276024820152600080516020620054c1833981519152604482015260008051602062005561833981519152606482015290519081900360840190fd5b503360009081526007602052604090205490565b600060033360009081526001602052604090206002015460a060020a900460ff1660088111156200236b57fe5b14620023c5576040805160e560020a62461bcd028152602060048201526028602482015260008051602062005541833981519152604482015260008051602062005581833981519152606482015290519081900360840190fd5b503360009081526004602052604090205490565b600060063360009081526001602052604090206002015460a060020a900460ff1660088111156200240657fe5b1462002482576040805160e560020a62461bcd02815260206004820152602360248201527f4f6e6c7920506861726d612063616e2063616c6c20746869732066756e63746960448201527f6f6e2e0000000000000000000000000000000000000000000000000000000000606482015290519081900360840190fd5b33600052600d60205290565b60025490565b600054600160a060020a031681565b600160a060020a039081166000908152600b60205260409020541690565b600160a060020a0381166000908152600f602052604081205460ff166004811115620024e957fe5b92915050565b60033360009081526001602052604090206002015460a060020a900460ff1660088111156200251a57fe5b1462002574576040805160e560020a62461bcd028152602060048201526028602482015260008051602062005541833981519152604482015260008051602062005581833981519152606482015290519081900360840190fd5b604080517f52b999680000000000000000000000000000000000000000000000000000000081523360048201529051600160a060020a038316916352b9996891602480830192600092919082900301818387803b158015620025d557600080fd5b505af1158015620025ea573d6000803e3d6000fd5b5050336000908152600460209081526040822080546001810182559083529120018054600160a060020a031916600160a060020a0394909416939093179092555050565b600060053360009081526001602052604090206002015460a060020a900460ff1660088111156200265b57fe5b14620026c6576040805160e560020a62461bcd02815260206004820152602860248201527f4f6e6c792044697374726962757465722063616e2063616c6c20746869732066604482015260008051602062005501833981519152606482015290519081900360840190fd5b503360009081526009602052604090205490565b60013360009081526001602052604090206002015460a060020a900460ff1660088111156200270557fe5b1462002781576040805160e560020a62461bcd02815260206004820152602560248201527f4f6e6c7920537570706c6965722043616e2063616c6c20746869732066756e6360448201527f74696f6e20000000000000000000000000000000000000000000000000000000606482015290519081900360840190fd5b60003387878787878762002794620033c4565b600160a060020a039788168152602081019690965260408087019590955260608601939093526080850191909152841660a084015290921660c082015290519081900360e001906000f080158015620027f1573d6000803e3d6000fd5b503360008181526003602090815260408083208054600181018255908452928290209092018054600160a060020a031916600160a060020a038681169182179092558351898316815293519596509087169490927f9dbe7d9fdd28b9b1c2ffe79a40f7beff124537ed0d7a47555d009e0271fc613392908290030190a450505050505050565b600060063360009081526001602052604090206002015460a060020a900460ff166008811115620028a457fe5b14620028fe576040805160e560020a62461bcd02815260206004820152603e6024820152600080516020620054e1833981519152604482015260008051602062005521833981519152606482015290519081900360840190fd5b50336000908152600c602052604090205490565b600060063360009081526001602052604090206002015460a060020a900460ff1660088111156200293f57fe5b1462002999576040805160e560020a62461bcd02815260206004820152603e6024820152600080516020620054e1833981519152604482015260008051602062005521833981519152606482015290519081900360840190fd5b336000908152600c6020526040902080548390811062000ac257fe5b60043360009081526001602052604090206002015460a060020a900460ff166008811115620029e057fe5b14801562002a6f575082600160a060020a03166301a9a23e6040518163ffffffff1660e060020a02815260040160806040518083038186803b15801562002a2657600080fd5b505afa15801562002a3b573d6000803e3d6000fd5b505050506040513d601f19601f82011682018060405250608081101562002a6157600080fd5b5051600160a060020a031633145b151562002b12576040805160e560020a62461bcd02815260206004820152604260248201527f4f6e6c792057686f6c6573616c6572206f722063757272656e74206f776e657260448201527f206f66207061636b6167652063616e2063616c6c20746869732066756e63746960648201527f6f6e000000000000000000000000000000000000000000000000000000000000608482015290519081900360a40190fd5b60008333848462002b22620033d5565b600160a060020a039485168152928416602084015290831660408084019190915292166060820152905190819003608001906000f08015801562002b6a573d6000803e3d6000fd5b503360009081526007602090815260408083208054600181018255908452828420018054600160a060020a03958616600160a060020a0319918216811790925598909416835260089091529020805490951617909355505050565b60063360009081526001602052604090206002015460a060020a900460ff16600881111562002bf057fe5b14801562002c82575081600160a060020a03166301a9a23e6040518163ffffffff1660e060020a02815260040160806040518083038186803b15801562002c3657600080fd5b505afa15801562002c4b573d6000803e3d6000fd5b505050506040513d601f19601f82011682018060405250608081101562002c7157600080fd5b5060400151600160a060020a031633145b151562002cdd576040805160e560020a62461bcd02815260206004820152603e6024820152600080516020620054e1833981519152604482015260008051602062005521833981519152606482015290519081900360840190fd5b6001600160a060020a0383166000908152600f602052604090205460ff16600481111562002d0757fe5b1462002d5d576040805160e560020a62461bcd02815260206004820152601a60248201527f6d61646963696e65204d75737420626520617420506861726d61000000000000604482015290519081900360640190fd5b80600481111562002d6a57fe5b600160a060020a0383166000908152600f60205260409020805460ff1916600183600481111562002d9757fe5b021790555060408051600160a060020a038416815260208101839052815133927f7e0150eb126a0bad6138f448f48f826cabdf937aac9ffdcefbba62cae222332e928290030190a25050565b600060053360009081526001602052604090206002015460a060020a900460ff16600881111562002e1057fe5b1462002e7b576040805160e560020a62461bcd02815260206004820152602860248201527f4f6e6c792044697374726962757465722043616e2063616c6c20746869732066604482015260008051602062005501833981519152606482015290519081900360840190fd5b336000908152600a6020526040902080548390811062000ac257fe5b60073360009081526001602052604090206002015460a060020a900460ff16600881111562002ec257fe5b1462002f3e576040805160e560020a62461bcd02815260206004820152602560248201527f4f6e6c7920437573746f6d65722063616e2063616c6c20746869732066756e6360448201527f74696f6e2e000000000000000000000000000000000000000000000000000000606482015290519081900360840190fd5b604080517fc5d7910f000000000000000000000000000000000000000000000000000000008152600160a060020a03848116600483015233602483015291519183169163c5d7910f9160448082019260009290919082900301818387803b15801562002fa957600080fd5b505af115801562002fbe573d6000803e3d6000fd5b505050505050565b60053360009081526001602052604090206002015460a060020a900460ff16600881111562002ff157fe5b14801562003083575082600160a060020a03166301a9a23e6040518163ffffffff1660e060020a02815260040160806040518083038186803b1580156200303757600080fd5b505afa1580156200304c573d6000803e3d6000fd5b505050506040513d601f19601f8201168201806040525060808110156200307257600080fd5b5060200151600160a060020a031633145b151562003126576040805160e560020a62461bcd02815260206004820152604360248201527f4f6e6c79204469737472696275746572206f722063757272656e74206f776e6560448201527f72206f66207061636b6167652063616e2063616c6c20746869732066756e637460648201527f696f6e0000000000000000000000000000000000000000000000000000000000608482015290519081900360a40190fd5b60008333848462003136620033e6565b600160a060020a039485168152928416602084015290831660408084019190915292166060820152905190819003608001906000f0801580156200317e573d6000803e3d6000fd5b50336000908152600a602090815260408083208054600181018255908452828420018054600160a060020a03958616600160a060020a03199182168117909255989094168352600b9091529020805490951617909355505050565b60063360009081526001602052604090206002015460a060020a900460ff1660088111156200320457fe5b14801562003296575082600160a060020a03166301a9a23e6040518163ffffffff1660e060020a02815260040160806040518083038186803b1580156200324a57600080fd5b505afa1580156200325f573d6000803e3d6000fd5b505050506040513d601f19601f8201168201806040525060808110156200328557600080fd5b5060400151600160a060020a031633145b1515620032f1576040805160e560020a62461bcd02815260206004820152603e6024820152600080516020620054e1833981519152604482015260008051602062005521833981519152606482015290519081900360840190fd5b60008333848462003301620033f7565b600160a060020a039485168152928416602084015290831660408084019190915292166060820152905190819003608001906000f08015801562003349573d6000803e3d6000fd5b50336000908152600d602090815260408083208054600181018255908452828420018054600160a060020a03808716600160a060020a031992831681179093558a168552600e9093529220805490911690911790559050620033ad84600262002bc5565b50505050565b604051610cae806200340983390190565b6040516105d980620040b783390190565b6040516104bb806200469083390190565b6040516104bb8062004b4b83390190565b6040516104bb80620050068339019056fe608060405234801561001057600080fd5b5060405161010080610cae833981018060405261010081101561003257600080fd5b508051602082015160408301516060840151608085015160a086015160c087015160e09097015160008054600160a060020a0319908116600160a060020a03808b16918217909355600580548316909117905560018881556002889055600387905560048054909216928616929092179055600c82905542600a819055600b559697959694959394929391928214156100e55760068054600160a060020a031916600160a060020a03851617905561010a565b816002141561010a5760078054600160a060020a031916600160a060020a0385161790555b5050505050505050610b8d806101216000396000f3fe60806040526004361061009d577c0100000000000000000000000000000000000000000000000000000000600035046301a9a23e81146100a25780630a672d13146100ef5780634175699d1461012457806352b9996814610157578063638e9a3d1461019c578063952565cf146101cf578063a19ffd6014610202578063badcef6a1461023d578063bd78683514610278578063d2f3fcc7146102b3575b600080fd5b3480156100ae57600080fd5b506100b76102c8565b6040518082608080838360005b838110156100dc5781810151838201526020016100c4565b5050505090500191505060405180910390f35b3480156100fb57600080fd5b506101226004803603602081101561011257600080fd5b5035600160a060020a031661030f565b005b34801561013057600080fd5b506101226004803603602081101561014757600080fd5b5035600160a060020a031661039e565b34801561016357600080fd5b5061018a6004803603602081101561017a57600080fd5b5035600160a060020a031661040a565b60408051918252519081900360200190f35b3480156101a857600080fd5b50610122600480360360208110156101bf57600080fd5b5035600160a060020a0316610677565b3480156101db57600080fd5b50610122600480360360208110156101f257600080fd5b5035600160a060020a0316610844565b34801561020e57600080fd5b506101226004803603604081101561022557600080fd5b50600160a060020a03813581169160200135166108d6565b34801561024957600080fd5b506101226004803603604081101561026057600080fd5b50600160a060020a03813581169160200135166109b4565b34801561028457600080fd5b506101226004803603604081101561029b57600080fd5b50600160a060020a0381358116916020013516610a48565b3480156102bf57600080fd5b5061018a610b02565b6102d0610b22565b5060408051608081018252600654600160a060020a03908116825260075481166020830152600854811692820192909252600954909116606082015290565b600954600160a060020a03828116911614610374576040805160e560020a62461bcd02815260206004820181905260248201527f5468697320437573746f6d6572206973206e6f74204173736f6369617465642e604482015290519081900360640190fd5b60085b6009805460a060020a60ff02191660a060020a83600881111561039657fe5b021790555050565b600854600160a060020a03828116911614610403576040805160e560020a62461bcd02815260206004820152601e60248201527f5468697320506861726d61206973206e6f74204173736f6369617465642e0000604482015290519081900360640190fd5b6006610377565b600654600090600160a060020a03838116911614806104365750600754600160a060020a038381169116145b15156104b2576040805160e560020a62461bcd02815260206004820152603f60248201527f4f6e6c79204173736f63696174652057686f6c6573616c6572206f722044697360448201527f74727562757465722063616e2063616c6c20746869732066756e6374696f6e00606482015290519081900360840190fd5b60095460019060a060020a900460ff1660088111156104cd57fe5b1015610523576040805160e560020a62461bcd02815260206004820152601960248201527f50726f64756374206e6f74207069636b65642075702079657400000000000000604482015290519081900360640190fd5b600654600160a060020a0383811691161480156105575750600160095460a060020a900460ff16600881111561055557fe5b145b156105ca576009805460a060020a60ff021916740300000000000000000000000000000000000000001790556006546004546040805160028152600360208201528151600160a060020a0394851694909316923092600080516020610b42833981519152928290030190a4506001610672565b600754600160a060020a0383811691161480156105fe5750600260095460a060020a900460ff1660088111156105fc57fe5b145b15610672576009805460a060020a60ff0219167404000000000000000000000000000000000000000017905560075460048054604080516003815260208101939093528051600160a060020a0394851694909216923092600080516020610b42833981519152929181900390910190a45060025b919050565b600454600160a060020a03828116911614610702576040805160e560020a62461bcd02815260206004820152602d60248201527f4f6e6c79204173736f636961746520536869707065722063616e2063616c6c2060448201527f746869732066756e6374696f6e00000000000000000000000000000000000000606482015290519081900360840190fd5b600060095460a060020a900460ff16600881111561071c57fe5b14610771576040805160e560020a62461bcd02815260206004820152601c60248201527f5061636b616765206d75737420626520617420537570706c6965722e00000000604482015290519081900360640190fd5b600654600160a060020a0316156107db576009805460a060020a60ff02191660a060020a17905560065460045460408051600180825260208201528151600160a060020a0394851694909316923092600080516020610b42833981519152928290030190a4610841565b6009805460a060020a60ff0219167402000000000000000000000000000000000000000017905560075460045460408051600180825260208201528151600160a060020a0394851694909316923092600080516020610b42833981519152928290030190a45b50565b600754600160a060020a038281169116146108cf576040805160e560020a62461bcd02815260206004820152602360248201527f54686973204469737472696275746572206973206e6f74204173736f6369617460448201527f65642e0000000000000000000000000000000000000000000000000000000000606482015290519081900360840190fd5b6004610377565b600754600160a060020a03828116911614610961576040805160e560020a62461bcd02815260206004820152602360248201527f74686973204469737472696275746572206973206e6f74204173736f6369617460448201527f65642e0000000000000000000000000000000000000000000000000000000000606482015290519081900360840190fd5b6008805473ffffffffffffffffffffffffffffffffffffffff1916600160a060020a03841617905560055b6009805460a060020a60ff02191660a060020a8360088111156109ab57fe5b02179055505050565b600854600160a060020a03828116911614610a19576040805160e560020a62461bcd02815260206004820152601e60248201527f7468697320506861726d61206973206e6f74204173736f6369617465642e0000604482015290519081900360640190fd5b6009805473ffffffffffffffffffffffffffffffffffffffff1916600160a060020a038416179055600761098c565b600654600160a060020a03828116911614610ad3576040805160e560020a62461bcd02815260206004820152602260248201527f746869732057686f6c6573616c6572206973206e6f74204173736f636961746560448201527f642e000000000000000000000000000000000000000000000000000000000000606482015290519081900360840190fd5b6007805473ffffffffffffffffffffffffffffffffffffffff1916600160a060020a038416179055600261098c565b60095460009060a060020a900460ff166008811115610b1d57fe5b905090565b608060405190810160405280600490602082028038833950919291505056fe7e89c4b1a4e2b51aae84eb1f90e8a34cb792ece5ac5cb63db4830c891220b28da165627a7a723058200c7bcc4e3460e295157db3ccf62c961f77f21cdfbaa13d26d1425048c9f6eb1b0029608060405234801561001057600080fd5b5060405160e0806105d9833981018060405260e081101561003057600080fd5b508051602082015160408301516060840151608085015160a086015160c09096015160008054600160a060020a0319908116600160a060020a0398891690811783556001805430908416179055600297909755600395909555600493909355600591909155600680548416968616969096179095556007805483169490951693909317909355600880549093161760a060020a60ff0219169091556104fe9081906100db90396000f3fe60806040526004361061005b577c010000000000000000000000000000000000000000000000000000000060003504633b205a7d811461006057806352b9996814610087578063638e9a3d146100bc578063d02eee23146100ef575b600080fd5b34801561006c57600080fd5b5061007561014b565b60408051918252519081900360200190f35b34801561009357600080fd5b506100ba600480360360208110156100aa57600080fd5b5035600160a060020a031661017c565b005b3480156100c857600080fd5b506100ba600480360360208110156100df57600080fd5b5035600160a060020a0316610310565b3480156100fb57600080fd5b506101046104a3565b604080519788526020880196909652868601949094526060860192909252600160a060020a03908116608086015290811660a08501521660c0830152519081900360e00190f35b60085460009074010000000000000000000000000000000000000000900460ff16600281111561017757fe5b905090565b600754600160a060020a03828116911614610207576040805160e560020a62461bcd02815260206004820152603260248201527f4f6e6c79204173736f6369617465204d616e7566616374757265722063616e2060448201527f63616c6c20746869732066756e6374696f6e0000000000000000000000000000606482015290519081900360840190fd5b600160085474010000000000000000000000000000000000000000900460ff16600281111561023257fe5b14610287576040805160e560020a62461bcd02815260206004820152601960248201527f50726f64756374206e6f74207069636b65642075702079657400000000000000604482015290519081900360640190fd5b6008805474ff00000000000000000000000000000000000000001916740200000000000000000000000000000000000000001790556007546006546040805160018152600260208201528151600160a060020a03948516949093169230927f7e89c4b1a4e2b51aae84eb1f90e8a34cb792ece5ac5cb63db4830c891220b28d928290030190a450565b600654600160a060020a0382811691161461039b576040805160e560020a62461bcd02815260206004820152602d60248201527f4f6e6c79204173736f636961746520536869707065722063616e2063616c6c2060448201527f746869732066756e6374696f6e00000000000000000000000000000000000000606482015290519081900360840190fd5b600060085474010000000000000000000000000000000000000000900460ff1660028111156103c657fe5b1461041b576040805160e560020a62461bcd02815260206004820152601c60248201527f5061636b616765206d75737420626520617420537570706c6965722e00000000604482015290519081900360640190fd5b6008805474ff000000000000000000000000000000000000000019167401000000000000000000000000000000000000000017905560075460065460408051600180825260208201528151600160a060020a03948516949093169230927f7e89c4b1a4e2b51aae84eb1f90e8a34cb792ece5ac5cb63db4830c891220b28d928290030190a450565b600254600354600454600554600654600754600854600160a060020a039283169291821691169091929394959656fea165627a7a72305820fe886ea798db7be11b56a22ed0456f0c46b9d271b68e5678e3f34665272e9b360029608060405234801561001057600080fd5b506040516080806104bb8339810180604052608081101561003057600080fd5b5080516020820151604083015160609093015160008054600160a060020a0319908116600160a060020a03948516908117835560018054831696861696909617909555600280548216909517909455600380548516958416959095179094556004805490931691161760a060020a60ff02191690556104069081906100b590396000f3fe608060405260043610610050577c01000000000000000000000000000000000000000000000000000000006000350463443c28d88114610055578063d2f3fcc714610092578063f4c07229146100b9575b600080fd5b34801561006157600080fd5b506100906004803603604081101561007857600080fd5b50600160a060020a03813581169160200135166100f4565b005b34801561009e57600080fd5b506100a7610257565b60408051918252519081900360200190f35b3480156100c557600080fd5b50610090600480360360408110156100dc57600080fd5b50600160a060020a0381358116916020013516610288565b600354600160a060020a0382811691161461019657604080517f08c379a000000000000000000000000000000000000000000000000000000000815260206004820152602f60248201527f4f6e6c79204173736f63696174656420736869707065722063616e2063616c6c60448201527f20746869732066756e6374696f6e2e0000000000000000000000000000000000606482015290519081900360840190fd5b6004805474ff000000000000000000000000000000000000000019167401000000000000000000000000000000000000000017808255600254604080517fbd786835000000000000000000000000000000000000000000000000000000008152600160a060020a03938416948101949094529082166024840152519084169163bd78683591604480830192600092919082900301818387803b15801561023b57600080fd5b505af115801561024f573d6000803e3d6000fd5b505050505050565b60045460009074010000000000000000000000000000000000000000900460ff16600281111561028357fe5b905090565b600454600160a060020a0382811691161461032a57604080517f08c379a000000000000000000000000000000000000000000000000000000000815260206004820152603060248201527f4f6e6c79204173736f6369617465642072656365697665722063616e2063616c60448201527f6c20746869732066756e6374696f6e2e00000000000000000000000000000000606482015290519081900360840190fd5b600480546002919074ff000000000000000000000000000000000000000019167401000000000000000000000000000000000000000083021790555081600160a060020a031663952565cf826040518263ffffffff167c01000000000000000000000000000000000000000000000000000000000281526004018082600160a060020a0316600160a060020a03168152602001915050600060405180830381600087803b15801561023b57600080fdfea165627a7a72305820f5a8ac154dd7f0dacdf59c7301e503fb9993e1524a43eeabdfe81ba8e4fc7ab70029608060405234801561001057600080fd5b506040516080806104bb8339810180604052608081101561003057600080fd5b5080516020820151604083015160609093015160008054600160a060020a0319908116600160a060020a03948516908117835560018054831696861696909617909555600280548216909517909455600380548516958416959095179094556004805490931691161760a060020a60ff02191690556104069081906100b590396000f3fe608060405260043610610050577c0100000000000000000000000000000000000000000000000000000000600035046332a60e008114610055578063d2f3fcc714610092578063d39ff0e7146100b9575b600080fd5b34801561006157600080fd5b506100906004803603604081101561007857600080fd5b50600160a060020a03813581169160200135166100f4565b005b34801561009e57600080fd5b506100a7610262565b60408051918252519081900360200190f35b3480156100c557600080fd5b50610090600480360360408110156100dc57600080fd5b50600160a060020a0381358116916020013516610293565b600454600160a060020a0382811691161461019657604080517f08c379a000000000000000000000000000000000000000000000000000000000815260206004820152603060248201527f4f6e6c79204173736f6369617465642072656365697665722063616e2063616c60448201527f6c20746869732066756e6374696f6e2e00000000000000000000000000000000606482015290519081900360840190fd5b600480546002919074ff000000000000000000000000000000000000000019167401000000000000000000000000000000000000000083021790555081600160a060020a0316634175699d826040518263ffffffff167c01000000000000000000000000000000000000000000000000000000000281526004018082600160a060020a0316600160a060020a03168152602001915050600060405180830381600087803b15801561024657600080fd5b505af115801561025a573d6000803e3d6000fd5b505050505050565b60045460009074010000000000000000000000000000000000000000900460ff16600281111561028e57fe5b905090565b600354600160a060020a0382811691161461033557604080517f08c379a000000000000000000000000000000000000000000000000000000000815260206004820152602f60248201527f4f6e6c79204173736f63696174656420736869707065722063616e2063616c6c60448201527f20746869732066756e6374696f6e2e0000000000000000000000000000000000606482015290519081900360840190fd5b6004805474ff000000000000000000000000000000000000000019167401000000000000000000000000000000000000000017808255600254604080517fa19ffd60000000000000000000000000000000000000000000000000000000008152600160a060020a03938416948101949094529082166024840152519084169163a19ffd6091604480830192600092919082900301818387803b15801561024657600080fdfea165627a7a7230582042c5642396c6f313bdd3842db2ca90362dc4399a65decb671523ff55b42cca220029608060405234801561001057600080fd5b506040516080806104bb8339810180604052608081101561003057600080fd5b5080516020820151604083015160609093015160008054600160a060020a0319908116600160a060020a03948516908117835560018054831696861696909617909555600280548216909517909455600380548516958416959095179094556004805490931691161760a060020a60ff02191690556104069081906100b590396000f3fe608060405260043610610050577c0100000000000000000000000000000000000000000000000000000000600035046336ec0f5d8114610055578063c5d7910f14610092578063d2f3fcc7146100cd575b600080fd5b34801561006157600080fd5b506100906004803603604081101561007857600080fd5b50600160a060020a03813581169160200135166100f4565b005b34801561009e57600080fd5b50610090600480360360408110156100b557600080fd5b50600160a060020a0381358116916020013516610257565b3480156100d957600080fd5b506100e26103a9565b60408051918252519081900360200190f35b600354600160a060020a0382811691161461019657604080517f08c379a000000000000000000000000000000000000000000000000000000000815260206004820152602f60248201527f4f6e6c79204173736f63696174656420736869707065722063616e2063616c6c60448201527f20746869732066756e6374696f6e2e0000000000000000000000000000000000606482015290519081900360840190fd5b6004805474ff000000000000000000000000000000000000000019167401000000000000000000000000000000000000000017808255600254604080517fbadcef6a000000000000000000000000000000000000000000000000000000008152600160a060020a03938416948101949094529082166024840152519084169163badcef6a91604480830192600092919082900301818387803b15801561023b57600080fd5b505af115801561024f573d6000803e3d6000fd5b505050505050565b600454600160a060020a038281169116146102f957604080517f08c379a000000000000000000000000000000000000000000000000000000000815260206004820152603060248201527f4f6e6c79204173736f6369617465642072656365697665722063616e2063616c60448201527f6c20746869732066756e6374696f6e2e00000000000000000000000000000000606482015290519081900360840190fd5b600480546002919074ff000000000000000000000000000000000000000019167401000000000000000000000000000000000000000083021790555081600160a060020a0316630a672d13826040518263ffffffff167c01000000000000000000000000000000000000000000000000000000000281526004018082600160a060020a0316600160a060020a03168152602001915050600060405180830381600087803b15801561023b57600080fd5b60045460009074010000000000000000000000000000000000000000900460ff1660028111156103d557fe5b90509056fea165627a7a723058203fb6d0206f406a92dbb923e6dc18cfeac00716986d100caabf8b9ca9edaf2b1b00294f6e6c792057686f6c6573616c65722043616e2063616c6c20746869732066754f6e6c7920506861726d61206f722063757272656e74206f776e6572206f6620756e6374696f6e2e0000000000000000000000000000000000000000000000007061636b6167652063616e2063616c6c20746869732066756e6374696f6e00004f6e6c79206d616e7566616374757265722063616e2063616c6c2074686973206e6374696f6e2e0000000000000000000000000000000000000000000000000066756e6374696f6e000000000000000000000000000000000000000000000000a165627a7a7230582003dcf2c54896399865cf7de889b95772bb7b9ea2838f92c9c8ccef81a54816150029",
  "source": "pragma solidity >=0.4.25 <0.9.0;\r\n\r\nimport './RawMatrials.sol';\r\nimport './Madicine.sol';\r\nimport './MadicineW_D.sol';\r\nimport './MadicineD_P.sol';\r\nimport './MadicineP_C.sol';\r\nimport './Library.sol';\r\n\r\n\r\ncontract SupplyChain {\r\n\r\n    using MyLibrary for MyLibrary.madicineStatus;\r\n    using MyLibrary for MyLibrary.medicineBasicInfo;\r\n\r\n    /// @notice\r\n    address public Owner;\r\n\r\n    /// @notice\r\n    /// @dev Initiate SupplyChain Contract\r\n    constructor () public {\r\n        Owner = msg.sender;\r\n    }\r\n/********************************************** Owner Section *********************************************/\r\n    /// @dev Validate Owner\r\n    modifier onlyOwner() {\r\n        require(\r\n            msg.sender == Owner,\r\n            \"Only owner can call this function.\"\r\n        );\r\n        _;\r\n    }\r\n\r\n    enum roles {\r\n        norole,\r\n        supplier,\r\n        transporter,\r\n        manufacturer,\r\n        wholesaler,\r\n        distributer,\r\n        pharma,\r\n        customer,\r\n        revoke\r\n    }\r\n\r\n    event UserRegister(address indexed EthAddress, bytes32 Name);\r\n    event UserRoleRevoked(address indexed EthAddress, bytes32 Name, uint Role);\r\n    event UserRoleRessigne(address indexed EthAddress, bytes32 Name, uint Role);\r\n\r\n    /// @notice\r\n    /// @dev Register New user by Owner\r\n    /// @param EthAddress Ethereum Network Address of User\r\n    /// @param Name User name\r\n    /// @param Location User Location\r\n    /// @param Role User Role\r\n    function registerUser(\r\n        address EthAddress,\r\n        bytes32 Name,\r\n        bytes32 Location,\r\n        uint Role\r\n        ) public\r\n        onlyOwner\r\n        {\r\n        require(UsersDetails[EthAddress].role == roles.norole, \"User Already registered\");\r\n        UsersDetails[EthAddress].name = Name;\r\n        UsersDetails[EthAddress].location = Location;\r\n        UsersDetails[EthAddress].ethAddress = EthAddress;\r\n        UsersDetails[EthAddress].role = roles(Role);\r\n        users.push(EthAddress);\r\n        emit UserRegister(EthAddress, Name);\r\n    }\r\n    /// @notice\r\n    /// @dev Revoke users role\r\n    /// @param userAddress User Ethereum Network Address\r\n    function revokeRole(address userAddress) public onlyOwner {\r\n        require(UsersDetails[userAddress].role != roles.norole, \"User not registered\");\r\n        emit UserRoleRevoked(userAddress, UsersDetails[userAddress].name,uint(UsersDetails[userAddress].role));\r\n        UsersDetails[userAddress].role = roles(8);\r\n    }\r\n    /// @notice\r\n    /// @dev Reassigne new role to User\r\n    /// @param userAddress User Ethereum Network Address\r\n    /// @param Role Role to assigne\r\n    function reassigneRole(address userAddress, uint Role) public onlyOwner {\r\n        require(UsersDetails[userAddress].role != roles.norole, \"User not registered\");\r\n        UsersDetails[userAddress].role = roles(Role);\r\n        emit UserRoleRessigne(userAddress, UsersDetails[userAddress].name,uint(UsersDetails[userAddress].role));\r\n    }\r\n\r\n/********************************************** User Section **********************************************/\r\n    struct UserInfo {\r\n        bytes32 name;\r\n        bytes32 location;\r\n        address ethAddress;\r\n        roles role;\r\n    }\r\n\r\n    /// @notice\r\n    mapping(address => UserInfo) UsersDetails;\r\n    /// @notice\r\n    address[] users;\r\n\r\n    /// @notice\r\n    /// @dev Get User Information/ Profile\r\n    /// @param User User Ethereum Network Address\r\n    /// @return name  Details\r\n    /// @return location  Details\r\n    /// @return ethAddress  Details\r\n    /// @return role  Details\r\n    function getUserInfo(address User) public view returns(\r\n        bytes32 name,\r\n        bytes32 location,\r\n        address ethAddress,\r\n        roles role\r\n        ) {\r\n        return (\r\n            UsersDetails[User].name,\r\n            UsersDetails[User].location,\r\n            UsersDetails[User].ethAddress,\r\n            UsersDetails[User].role);\r\n    }\r\n\r\n    /// @notice\r\n    /// @dev Get Number of registered Users\r\n    /// @return count of registered Users\r\n    function getUsersCount() public view returns(uint count){\r\n        return users.length;\r\n    }\r\n\r\n    /// @notice\r\n    /// @dev Get User by Index value of stored data\r\n    /// @param index Indexed Number\r\n    /// @return name Details\r\n    /// @return location Details\r\n    /// @return ethAddress Details\r\n    /// @return role Details\r\n    function getUserbyIndex(uint index) public view returns(\r\n        bytes32 name,\r\n        bytes32 location,\r\n        address ethAddress,\r\n        roles role\r\n        ) {\r\n        return getUserInfo(users[index]);\r\n    }\r\n/********************************************** Supplier Section ******************************************/\r\n    /// @notice\r\n    mapping(address => address[]) supplierRawProductInfo;\r\n    event RawSupplyInit(\r\n        address indexed ProductID,\r\n        address indexed Supplier,\r\n        address Shipper,\r\n        address indexed Receiver\r\n    );\r\n\r\n    /// @notice\r\n    /// @dev Create new raw package by Supplier\r\n    /// @param Des Transporter Ethereum Network Address\r\n    /// @param Rcvr Manufacturer Ethereum Network Address\r\n    function createRawPackage(\r\n        bytes32 Des,\r\n        bytes32 FN,\r\n        bytes32 Loc,\r\n        uint Quant,\r\n        address Shpr,\r\n        address Rcvr\r\n        ) public {\r\n        require(\r\n            UsersDetails[msg.sender].role == roles.supplier,\r\n            \"Only Supplier Can call this function \"\r\n        );\r\n        RawMatrials rawData = new RawMatrials(\r\n            msg.sender,\r\n            Des,\r\n            FN,\r\n            Loc,\r\n            Quant,\r\n            Shpr,\r\n            Rcvr\r\n            );\r\n        supplierRawProductInfo[msg.sender].push(address(rawData));\r\n        emit RawSupplyInit(address(rawData), msg.sender, Shpr, Rcvr);\r\n    }\r\n\r\n    /// @notice\r\n    /// @dev  Get Count of created package by supplier(caller)\r\n    /// @return count of packages\r\n    function getPackagesCountS() public view returns (uint count){\r\n        require(\r\n            UsersDetails[msg.sender].role == roles.supplier,\r\n            \"Only Supplier Can call this function \"\r\n        );\r\n        return supplierRawProductInfo[msg.sender].length;\r\n    }\r\n\r\n    /// @notice\r\n    /// @dev Get PackageID by Indexed value of stored data\r\n    /// @param index Indexed Value\r\n    /// @return packageID\r\n    function getPackageIdByIndexS(uint index) public view returns(address packageID) {\r\n        require(\r\n            UsersDetails[msg.sender].role == roles.supplier,\r\n            \"Only Supplier Can call this function \"\r\n        );\r\n        return supplierRawProductInfo[msg.sender][index];\r\n    }\r\n\r\n/********************************************** Transporter Section ******************************************/\r\n\r\n    /// @notice\r\n    /// @dev Load Consingment fot transport one location to another.\r\n    /// @param pid PackageID or MadicineID\r\n    /// @param transportertype Transporter Type on the basic of tx between Roles\r\n    /// @param cid Sub Contract ID for Consingment transaction\r\n    function loadConsingment(\r\n        address pid, //Package or Batch ID\r\n        uint transportertype,\r\n        address cid\r\n        ) public {\r\n        require(\r\n            UsersDetails[msg.sender].role == roles.transporter,\r\n            \"Only Transporter can call this function\"\r\n        );\r\n        require(\r\n            transportertype > 0,\r\n            \"Transporter Type must be define\"\r\n        );\r\n\r\n        if(transportertype == 1) {  // Supplier to Manufacturer\r\n            RawMatrials(pid).pickPackage(msg.sender);\r\n        } else if(transportertype == 2) {   // Manufacturer to Wholesaler OR Manufacturer to Distributer\r\n            Madicine(pid).pickPackage(msg.sender);\r\n        } else if(transportertype == 3) {   // Wholesaler to Distributer\r\n            MadicineW_D(cid).pickWD(pid,msg.sender);\r\n        } else if(transportertype == 4) {   // Distrubuter to Pharma\r\n            MadicineD_P(cid).pickDP(pid,msg.sender);\r\n        } else if(transportertype == 5) {   // Pharma to Customer\r\n            MadicineP_C(cid).pickPC(pid,msg.sender);\r\n        }\r\n    }\r\n\r\n/********************************************** Manufacturer Section ******************************************/\r\n    /// @notice\r\n    mapping(address => address[]) RawPackagesAtManufacturer;\r\n\r\n    /// @notice\r\n    /// @dev Update Package / Madicine batch recieved status by ethier Manufacturer or Distributer\r\n    /// @param pid  PackageID or MadicineID\r\n    function  rawPackageReceived(\r\n        address pid\r\n    ) public {\r\n        require(\r\n            UsersDetails[msg.sender].role == roles.manufacturer,\r\n            \"Only manufacturer can call this function\"\r\n        );\r\n\r\n        RawMatrials(pid).receivedPackage(msg.sender);\r\n        RawPackagesAtManufacturer[msg.sender].push(pid);\r\n    }\r\n\r\n    /// @notice\r\n    /// @dev Get Package Count at Manufacturer\r\n    /// @return count of Packages at Manufacturer\r\n    function getPackagesCountM() public view returns(uint count){\r\n        require(\r\n            UsersDetails[msg.sender].role == roles.manufacturer,\r\n            \"Only manufacturer can call this function\"\r\n        );\r\n        return RawPackagesAtManufacturer[msg.sender].length;\r\n    }\r\n\r\n    /// @notice\r\n    /// @dev Get PackageID by Indexed value of stored data\r\n    /// @param index Indexed Value\r\n    /// @return BatchID\r\n    function getPackageIDByIndexM(uint index) public view returns(address BatchID){\r\n        require(\r\n            UsersDetails[msg.sender].role == roles.manufacturer,\r\n            \"Only manufacturer can call this function\"\r\n        );\r\n        return RawPackagesAtManufacturer[msg.sender][index];\r\n    }\r\n\r\n    /// @notice\r\n    mapping(address => address[]) ManufactureredMadicineBatches;\r\n    event MadicineNewBatch(\r\n        address indexed BatchId,\r\n        address indexed Manufacturer,\r\n        address shipper,\r\n        address indexed Receiver\r\n    );\r\n\r\n    /// @notice\r\n    /// @dev Create Madicine Batch\r\n    /// @param Des Description of madicine batch\r\n    /// @param RM RawMatrials Information\r\n    /// @param Quant Number of Units\r\n    /// @param Shpr Transporter Ethereum Network Address\r\n    /// @param Rcvr Receiver Ethereum Network Address\r\n    /// @param RcvrType Receiver Type Ethier Wholesaler(1) or Distributer(2)\r\n    function manufacturMadicine(\r\n        bytes32 Des, \r\n        bytes32 RM,\r\n        uint Quant,\r\n        address Shpr,\r\n        address Rcvr,\r\n        uint RcvrType\r\n    ) public {\r\n        require(\r\n            UsersDetails[msg.sender].role == roles.manufacturer,\r\n            \"Only manufacturer can call this function\"\r\n        );\r\n        require(\r\n            RcvrType != 0,\r\n            \"Receiver Type must be define\"\r\n        );\r\n\r\n        Madicine m = new Madicine(\r\n            msg.sender,\r\n            Des,\r\n            RM,\r\n            Quant,\r\n            Shpr,\r\n            Rcvr,\r\n            RcvrType,\r\n            UsersDetails[msg.sender].location\r\n        );\r\n\r\n        ManufactureredMadicineBatches[msg.sender].push(address(m));\r\n        emit MadicineNewBatch(address(m), msg.sender, Shpr, Rcvr);\r\n    }\r\n\r\n    /// @notice\r\n    /// @dev Get Madicine Batch Count\r\n    /// @return count of Batches\r\n    function getBatchesCountM() public view returns (uint count){\r\n        require(\r\n            UsersDetails[msg.sender].role == roles.manufacturer,\r\n            \"Only Manufacturer Can call this function.\"\r\n        );\r\n        return ManufactureredMadicineBatches[msg.sender].length;\r\n    }\r\n\r\n    /// @notice\r\n    /// @dev Get Madicine BatchID by indexed value of stored data\r\n    /// @param index Indexed Number\r\n    /// @return packageID Madicine BatchID\r\n    function getBatchIdByIndexM(uint index) public view returns(address packageID) {\r\n        require(\r\n            UsersDetails[msg.sender].role == roles.manufacturer,\r\n            \"Only Manufacturer Can call this function.\"\r\n        );\r\n        return ManufactureredMadicineBatches[msg.sender][index];\r\n    }\r\n\r\n\r\n/********************************************** Wholesaler Section ******************************************/\r\n    /// @notice\r\n    mapping(address => address[]) MadicineBatchesAtWholesaler;\r\n\r\n    /// @notice\r\n    /// @dev Madicine Batch Received\r\n    /// @param batchid Madicine BatchID\r\n    /// @param cid Sub Contract ID for Madicine (if transaction Wholesaler to Distributer)\r\n    function madicineReceived(\r\n        address batchid,\r\n        address cid\r\n    ) public {\r\n        require(\r\n            UsersDetails[msg.sender].role == roles.wholesaler || UsersDetails[msg.sender].role == roles.distributer,\r\n            \"Only Wholesaler and Distributer can call this function\"\r\n        );\r\n\r\n        uint rtype = Madicine(batchid).receivedPackage(msg.sender);\r\n        if(rtype == 1){\r\n            MadicineBatchesAtWholesaler[msg.sender].push(batchid);\r\n        }else if( rtype == 2){\r\n            MadicineBatchAtDistributer[msg.sender].push(batchid);\r\n            if(Madicine(batchid).getWDP()[0] != address(0)){\r\n                MadicineW_D(cid).recieveWD(batchid,msg.sender);\r\n            }\r\n        }\r\n    }\r\n\r\n    /// @notice\r\n    mapping(address => address[]) MadicineWtoD;\r\n    /// @notice\r\n    mapping(address => address) MadicineWtoDTxContract;\r\n\r\n    /// @notice\r\n    /// @dev Sub Contract for Madicine Transfer from Wholesaler to Distributer\r\n    /// @param BatchID Madicine BatchID\r\n    /// @param Shipper Transporter Ethereum Network Address\r\n    /// @param Receiver Distributer Ethereum Network Address\r\n    function transferMadicineWtoD(\r\n        address BatchID,\r\n        address Shipper,\r\n        address Receiver\r\n    ) public {\r\n        require(\r\n            UsersDetails[msg.sender].role == roles.wholesaler &&\r\n            msg.sender == Madicine(BatchID).getWDP()[0],\r\n            \"Only Wholesaler or current owner of package can call this function\"\r\n        );\r\n        MadicineW_D wd = new MadicineW_D(\r\n            BatchID,\r\n            msg.sender,\r\n            Shipper,\r\n            Receiver\r\n        );\r\n        MadicineWtoD[msg.sender].push(address(wd));\r\n        MadicineWtoDTxContract[BatchID] = address(wd);\r\n    }\r\n\r\n    /// @notice\r\n    /// @dev Get Madicine Batch Count\r\n    /// @return count of Batches\r\n    function getBatchesCountWD() public view returns (uint count){\r\n        require(\r\n            UsersDetails[msg.sender].role == roles.wholesaler,\r\n            \"Only Wholesaler Can call this function.\"\r\n        );\r\n        return MadicineWtoD[msg.sender].length;\r\n    }\r\n\r\n    /// @notice\r\n    /// @dev Get Madicine BatchID by indexed value of stored data\r\n    /// @param index Indexed Number\r\n    /// @return packageID Madicine BatchID\r\n    function getBatchIdByIndexWD(uint index) public view returns(address packageID) {\r\n        require(\r\n            UsersDetails[msg.sender].role == roles.wholesaler,\r\n            \"Only Wholesaler Can call this function.\"\r\n        );\r\n        return MadicineWtoD[msg.sender][index];\r\n    }\r\n\r\n    /// @notice\r\n    /// @dev Get Sub Contract ID of Madicine Batch Transfer in between Wholesaler to Distributer\r\n    /// @param BatchID Madicine BatchID\r\n    /// @return SubContractWD ID\r\n    function getSubContractWD(address BatchID) public view returns (address SubContractWD) {\r\n        // require(\r\n        //     UsersDetails[msg.sender].role == roles.wholesaler,\r\n        //     \"Only Wholesaler Can call this function.\"\r\n        // );\r\n        return MadicineWtoDTxContract[BatchID];\r\n    }\r\n\r\n    \r\n    /// @notice\r\n    /// @dev Get Madicine Batch Count\r\n    /// @return count of Batches\r\n    function getBatchesCountW() public view returns (uint count){\r\n        require(\r\n            UsersDetails[msg.sender].role == roles.wholesaler,\r\n            \"Only Wholesaler Can call this function.\"\r\n        );\r\n        return MadicineBatchesAtWholesaler[msg.sender].length;\r\n    }\r\n\r\n    /// @notice\r\n    /// @dev Get Madicine BatchID by indexed value of stored data\r\n    /// @param index Indexed Number\r\n    /// @return packageID Madicine BatchID\r\n    function getBatchIdByIndexW(uint index) public view returns(address packageID) {\r\n        require(\r\n            UsersDetails[msg.sender].role == roles.wholesaler,\r\n            \"Only Wholesaler Can call this function.\"\r\n        );\r\n        return MadicineBatchesAtWholesaler[msg.sender][index];\r\n    }\r\n\r\n/********************************************** Distributer Section ******************************************/\r\n    /// @notice\r\n    mapping(address => address[]) MadicineBatchAtDistributer;\r\n\r\n    /// @notice\r\n    mapping(address => address[]) MadicineDtoP;\r\n\r\n    /// @notice\r\n    mapping(address => address) MadicineDtoPTxContract;\r\n\r\n    /// @notice\r\n    /// @dev Transfer Madicine BatchID in between Distributer to Pharma\r\n    /// @param BatchID Madicine BatchID\r\n    /// @param Shipper Transporter Ethereum Network Address\r\n    /// @param Receiver Pharma Ethereum Network Address\r\n    function transferMadicineDtoP(\r\n        address BatchID,\r\n        address Shipper,\r\n        address Receiver\r\n    ) public {\r\n        require(\r\n            UsersDetails[msg.sender].role == roles.distributer &&\r\n            msg.sender == Madicine(BatchID).getWDP()[1],\r\n            \"Only Distributer or current owner of package can call this function\"\r\n        );\r\n        MadicineD_P dp = new MadicineD_P(\r\n            BatchID,\r\n            msg.sender,\r\n            Shipper,\r\n            Receiver\r\n        );\r\n        MadicineDtoP[msg.sender].push(address(dp));\r\n        MadicineDtoPTxContract[BatchID] = address(dp);\r\n    }\r\n\r\n    /// @notice\r\n    /// @dev Get Madicine BatchID Count\r\n    /// @return count Number of Batches\r\n    function getBatchesCountDP() public view returns (uint count){\r\n        require(\r\n            UsersDetails[msg.sender].role == roles.distributer,\r\n            \"Only Distributer Can call this function.\"\r\n        );\r\n        MadicineDtoP[msg.sender].length;\r\n    }\r\n\r\n    /// @notice\r\n    /// @dev Get Madicine BatchID by indexed value of stored data\r\n    /// @param index Index Number\r\n    /// @return packageID Madicine BatchID\r\n    function getBatchIdByIndexDP(uint index) public view returns(address packageID) {\r\n        require(\r\n            UsersDetails[msg.sender].role == roles.distributer,\r\n            \"Only Distributer Can call this function.\"\r\n        );\r\n        return MadicineDtoP[msg.sender][index];\r\n    }\r\n\r\n    /// @notice\r\n    /// @dev Get SubContract ID of Madicine Batch Transfer in between Distributer to Pharma\r\n    /// @param BatchID Madicine BatchID\r\n    /// @return SubContractDP ID\r\n    function getSubContractDP(address BatchID) public view returns (address SubContractDP) {\r\n        // require(\r\n        //     UsersDetails[msg.sender].role == roles.distributer,\r\n        //     \"Only Distributer Can call this function.\"\r\n        // );\r\n        return MadicineDtoPTxContract[BatchID];\r\n    }\r\n\r\n    /// @notice\r\n    /// @dev Get Madicine Batch Count\r\n    /// @return count of Batches\r\n    function getBatchesCountD() public view returns (uint count){\r\n        require(\r\n            UsersDetails[msg.sender].role == roles.distributer,\r\n            \"Only Distributer can call this function.\"\r\n        );\r\n        return MadicineBatchAtDistributer[msg.sender].length;\r\n    }\r\n\r\n    /// @notice\r\n    /// @dev Get Madicine BatchID by indexed value of stored data\r\n    /// @param index Indexed Number\r\n    /// @return packageID Madicine BatchID\r\n    function getBatchIdByIndexD(uint index) public view returns(address packageID) {\r\n        require(\r\n            UsersDetails[msg.sender].role == roles.distributer,\r\n            \"Only Distributer can call this function.\"\r\n        );\r\n        return MadicineBatchAtDistributer[msg.sender][index];\r\n    }\r\n\r\n/********************************************** Pharma Section ******************************************/\r\n    /// @notice\r\n    mapping(address => address[]) MadicineBatchAtPharma;\r\n    \r\n    /// @notice\r\n    mapping(address => address[]) MadicinePtoC;\r\n\r\n    /// @notice\r\n    mapping(address => address) MadicinePtoCTxContract;\r\n\r\n\r\n    /// @notice\r\n    /// @dev Madicine Batch Recieved\r\n    /// @param batchid Madicine BatchID\r\n    /// @param cid SubContract ID\r\n    function madicineRecievedAtPharma(\r\n        address batchid,\r\n        address cid\r\n    ) public {\r\n        require(\r\n            UsersDetails[msg.sender].role == roles.pharma,\r\n            \"Only Pharma Can call this function.\"\r\n        );\r\n        MadicineD_P(cid).recieveDP(batchid, msg.sender);\r\n        MadicineBatchAtPharma[msg.sender].push(batchid);\r\n        sale[batchid] = salestatus(1);\r\n    }\r\n\r\n    /// @notice\r\n    /// @dev Transfer Madicine BatchID in between Pharma to Customer\r\n    /// @param BatchID Madicine BatchID\r\n    /// @param Shipper Transporter Ethereum Network Address\r\n    /// @param Receiver Customer Ethereum Network Address\r\n    function transferMadicinePtoC(\r\n        address BatchID,\r\n        address Shipper,\r\n        address Receiver\r\n    ) public {\r\n        require(\r\n            UsersDetails[msg.sender].role == roles.pharma &&\r\n            msg.sender == Madicine(BatchID).getWDP()[2],\r\n            \"Only Pharma or current owner of package can call this function\"\r\n        );\r\n        MadicineP_C pc = new MadicineP_C(\r\n            BatchID,\r\n            msg.sender,\r\n            Shipper,\r\n            Receiver\r\n        );\r\n        MadicinePtoC[msg.sender].push(address(pc));\r\n        MadicinePtoCTxContract[BatchID] = address(pc);\r\n        updateSaleStatus(BatchID, 2);\r\n    }\r\n\r\n    enum salestatus {\r\n        notfound,\r\n        atpharma,\r\n        sold,\r\n        expire,\r\n        damaged\r\n    }\r\n\r\n    /// @notice\r\n    mapping(address => salestatus) sale;\r\n\r\n    event MadicineStatus(\r\n        address BatchID,\r\n        address indexed Pharma,\r\n        uint status\r\n    );\r\n\r\n    /// @notice\r\n    /// @dev Update Madicine Batch status\r\n    /// @param BatchID Madicine BatchID\r\n    /// @param Status Madicine Batch Status ( sold, expire etc.)\r\n    function updateSaleStatus(\r\n        address BatchID,\r\n        uint Status\r\n    ) public {\r\n        require(\r\n            UsersDetails[msg.sender].role == roles.pharma &&\r\n            msg.sender == Madicine(BatchID).getWDP()[2],\r\n            \"Only Pharma or current owner of package can call this function\"\r\n        );\r\n        require(sale[BatchID] == salestatus(1), \"madicine Must be at Pharma\");\r\n        sale[BatchID] = salestatus(Status);\r\n\r\n        emit MadicineStatus(BatchID, msg.sender, Status);\r\n    }\r\n\r\n    /// @notice\r\n    /// @dev Get Madicine Batch status\r\n    /// @param BatchID Madicine BatchID\r\n    /// @return Status\r\n    function salesInfo(\r\n        address BatchID\r\n    ) public\r\n    view\r\n    returns(\r\n        uint Status\r\n    ){\r\n        return uint(sale[BatchID]);\r\n    }\r\n\r\n\r\n    /// @notice\r\n    /// @dev Get Madicine BatchID Count\r\n    /// @return count Number of Batches\r\n    function getBatchesCountPC() public view returns (uint count){\r\n        require(\r\n            UsersDetails[msg.sender].role == roles.pharma,\r\n            \"Only Pharma can call this function.\"\r\n        );\r\n        MadicinePtoC[msg.sender].length;\r\n    }\r\n\r\n    /// @notice\r\n    /// @dev Get Madicine BatchID by indexed value of stored data\r\n    /// @param index Index Number\r\n    /// @return packageID Madicine BatchID\r\n    function getBatchIdByIndexPC(uint index) public view returns(address packageID) {\r\n        require(\r\n            UsersDetails[msg.sender].role == roles.pharma,\r\n            \"Only Pharma can call this function.\"\r\n        );\r\n        return MadicinePtoC[msg.sender][index];\r\n    }\r\n\r\n    /// @notice\r\n    /// @dev Get SubContract ID of Madicine Batch Transfer in between Pharma to Customer\r\n    /// @param BatchID Madicine BatchID\r\n    /// @return SubContractPC ID\r\n    function getSubContractPC(address BatchID) public view returns (address SubContractPC) {\r\n        // require(\r\n        //     UsersDetails[msg.sender].role == roles.pharma,\r\n        //     \"Only Pharma can call this function.\"\r\n        // );\r\n        return MadicinePtoCTxContract[BatchID];\r\n    }\r\n\r\n    /// @notice\r\n    /// @dev Get Madicine Batch count\r\n    /// @return count of Batches\r\n    function getBatchesCountP() public view returns(uint count){\r\n        require(\r\n            UsersDetails[msg.sender].role == roles.pharma,\r\n            \"Only Pharma or current owner of package can call this function\"\r\n        );\r\n        return  MadicineBatchAtPharma[msg.sender].length;\r\n    }\r\n\r\n    /// @notice\r\n    /// @dev Get Madicine BatchID by indexed value of stored data\r\n    /// @param index Index Number\r\n    /// @return BatchID\r\n    function getBatchIdByIndexP(uint index) public view returns(address BatchID){\r\n        require(\r\n            UsersDetails[msg.sender].role == roles.pharma,\r\n            \"Only Pharma or current owner of package can call this function\"\r\n        );\r\n        return MadicineBatchAtPharma[msg.sender][index];\r\n    }\r\n\r\n/********************************************** Customer Section ******************************************/\r\n\r\n\r\n    /// @notice\r\n    /// @dev Madicine Batch Recieved\r\n    /// @param batchid Madicine BatchID\r\n    /// @param cid SubContract ID\r\n    function madicineRecievedByCustomer(\r\n        address batchid,\r\n        address cid\r\n    ) public {\r\n        require(\r\n            UsersDetails[msg.sender].role == roles.customer,\r\n            \"Only Customer can call this function.\"\r\n        );\r\n        MadicineP_C(cid).recievePC(batchid, msg.sender);\r\n    }\r\n\r\n\r\n/********************************************** For Everyone ******************************************/\r\n\r\n\r\n    // function getMedicineBatchInfo(address batchid) public view returns(\r\n    //     MyLibrary.medicineBasicInfo memory BasicInfo,\r\n    //     bytes32 WholesalerLocation,\r\n    //     bytes32 DistributerLocation,\r\n    //     bytes32 PharmaLocation\r\n    // ){\r\n    //     (MyLibrary.medicineBasicInfo memory basic_info,\r\n    //     address whlslr, address dstri, address phrm) = Madicine(batchid).getMadicineInfo();\r\n        \r\n    //     return (\r\n    //         basic_info, \r\n    //         UsersDetails[whlslr].location, UsersDetails[dstri].location, UsersDetails[phrm].location\r\n    //     );\r\n    // }\r\n}\r\n",
  "sourcePath": "D:\\Notes BE\\Sem_3_1\\BITS F452 (Blockchain)\\Proj\\ours\\contracts\\SupplyChain.sol",
  "compiler": {
    "name": "solc",
    "version": "0.5.1+commit.c8a2cb62.Emscripten.clang"
  },
  "schemaVersion": "3.4.16",
  "updatedAt": "2023-11-12T17:19:34.076Z",
  "devdoc": {
    "methods": {
      "constructor": {
        "details": "Initiate SupplyChain Contract"
      },
      "createRawPackage(bytes32,bytes32,bytes32,uint256,address,address)": {
        "params": {
          "Rcvr": "Manufacturer Ethereum Network Address"
        }
      },
      "getBatchIdByIndexD(uint256)": {
        "return": "packageID Madicine BatchID"
      },
      "getBatchIdByIndexDP(uint256)": {
        "return": "packageID Madicine BatchID"
      },
      "getBatchIdByIndexM(uint256)": {
        "return": "packageID Madicine BatchID"
      },
      "getBatchIdByIndexP(uint256)": {
        "return": "BatchID"
      },
      "getBatchIdByIndexPC(uint256)": {
        "return": "packageID Madicine BatchID"
      },
      "getBatchIdByIndexW(uint256)": {
        "return": "packageID Madicine BatchID"
      },
      "getBatchIdByIndexWD(uint256)": {
        "return": "packageID Madicine BatchID"
      },
      "getBatchesCountD()": {
        "return": "count of Batches"
      },
      "getBatchesCountDP()": {
        "return": "count Number of Batches"
      },
      "getBatchesCountM()": {
        "return": "count of Batches"
      },
      "getBatchesCountP()": {
        "return": "count of Batches"
      },
      "getBatchesCountPC()": {
        "return": "count Number of Batches"
      },
      "getBatchesCountW()": {
        "return": "count of Batches"
      },
      "getBatchesCountWD()": {
        "return": "count of Batches"
      },
      "getPackageIDByIndexM(uint256)": {
        "return": "BatchID"
      },
      "getPackageIdByIndexS(uint256)": {
        "return": "packageID"
      },
      "getPackagesCountM()": {
        "return": "count of Packages at Manufacturer"
      },
      "getPackagesCountS()": {
        "return": "count of packages"
      },
      "getSubContractDP(address)": {
        "return": "SubContractDP ID"
      },
      "getSubContractPC(address)": {
        "return": "SubContractPC ID"
      },
      "getSubContractWD(address)": {
        "return": "SubContractWD ID"
      },
      "getUserInfo(address)": {
        "return": "role  Details"
      },
      "getUserbyIndex(uint256)": {
        "return": "role Details"
      },
      "getUsersCount()": {
        "return": "count of registered Users"
      },
      "loadConsingment(address,uint256,address)": {
        "params": {
          "cid": "Sub Contract ID for Consingment transaction"
        }
      },
      "madicineReceived(address,address)": {
        "params": {
          "cid": "Sub Contract ID for Madicine (if transaction Wholesaler to Distributer)"
        }
      },
      "madicineRecievedAtPharma(address,address)": {
        "params": {
          "cid": "SubContract ID"
        }
      },
      "madicineRecievedByCustomer(address,address)": {
        "params": {
          "cid": "SubContract ID"
        }
      },
      "manufacturMadicine(bytes32,bytes32,uint256,address,address,uint256)": {
        "params": {
          "RcvrType": "Receiver Type Ethier Wholesaler(1) or Distributer(2)"
        }
      },
      "rawPackageReceived(address)": {
        "params": {
          "pid": "PackageID or MadicineID"
        }
      },
      "reassigneRole(address,uint256)": {
        "params": {
          "Role": "Role to assigne"
        }
      },
      "registerUser(address,bytes32,bytes32,uint256)": {
        "params": {
          "Role": "User Role"
        }
      },
      "revokeRole(address)": {
        "params": {
          "userAddress": "User Ethereum Network Address"
        }
      },
      "salesInfo(address)": {
        "return": "Status"
      },
      "transferMadicineDtoP(address,address,address)": {
        "params": {
          "Receiver": "Pharma Ethereum Network Address"
        }
      },
      "transferMadicinePtoC(address,address,address)": {
        "params": {
          "Receiver": "Customer Ethereum Network Address"
        }
      },
      "transferMadicineWtoD(address,address,address)": {
        "params": {
          "Receiver": "Distributer Ethereum Network Address"
        }
      },
      "updateSaleStatus(address,uint256)": {
        "params": {
          "Status": "Madicine Batch Status ( sold, expire etc.)"
        }
      }
    }
  },
  "userdoc": {
    "methods": {}
  }
}